{
  "address": "0x12a59895Ff485a07144De9043A2aCA4DF1a8e432",
  "abi": [
    {
      "inputs": [
        {
          "internalType": "string",
          "name": "_baseUri",
          "type": "string"
        },
        {
          "internalType": "address",
          "name": "_proxyRegistryAddress",
          "type": "address"
        }
      ],
      "stateMutability": "nonpayable",
      "type": "constructor"
    },
    {
      "anonymous": false,
      "inputs": [
        {
          "indexed": true,
          "internalType": "address",
          "name": "account",
          "type": "address"
        },
        {
          "indexed": true,
          "internalType": "address",
          "name": "operator",
          "type": "address"
        },
        {
          "indexed": false,
          "internalType": "bool",
          "name": "approved",
          "type": "bool"
        }
      ],
      "name": "ApprovalForAll",
      "type": "event"
    },
    {
      "anonymous": false,
      "inputs": [
        {
          "indexed": true,
          "internalType": "address",
          "name": "previousOwner",
          "type": "address"
        },
        {
          "indexed": true,
          "internalType": "address",
          "name": "newOwner",
          "type": "address"
        }
      ],
      "name": "OwnershipTransferred",
      "type": "event"
    },
    {
      "anonymous": false,
      "inputs": [
        {
          "indexed": true,
          "internalType": "bytes32",
          "name": "role",
          "type": "bytes32"
        },
        {
          "indexed": true,
          "internalType": "bytes32",
          "name": "previousAdminRole",
          "type": "bytes32"
        },
        {
          "indexed": true,
          "internalType": "bytes32",
          "name": "newAdminRole",
          "type": "bytes32"
        }
      ],
      "name": "RoleAdminChanged",
      "type": "event"
    },
    {
      "anonymous": false,
      "inputs": [
        {
          "indexed": true,
          "internalType": "bytes32",
          "name": "role",
          "type": "bytes32"
        },
        {
          "indexed": true,
          "internalType": "address",
          "name": "account",
          "type": "address"
        },
        {
          "indexed": true,
          "internalType": "address",
          "name": "sender",
          "type": "address"
        }
      ],
      "name": "RoleGranted",
      "type": "event"
    },
    {
      "anonymous": false,
      "inputs": [
        {
          "indexed": true,
          "internalType": "bytes32",
          "name": "role",
          "type": "bytes32"
        },
        {
          "indexed": true,
          "internalType": "address",
          "name": "account",
          "type": "address"
        },
        {
          "indexed": true,
          "internalType": "address",
          "name": "sender",
          "type": "address"
        }
      ],
      "name": "RoleRevoked",
      "type": "event"
    },
    {
      "anonymous": false,
      "inputs": [
        {
          "indexed": true,
          "internalType": "address",
          "name": "operator",
          "type": "address"
        },
        {
          "indexed": true,
          "internalType": "address",
          "name": "from",
          "type": "address"
        },
        {
          "indexed": true,
          "internalType": "address",
          "name": "to",
          "type": "address"
        },
        {
          "indexed": false,
          "internalType": "uint256[]",
          "name": "ids",
          "type": "uint256[]"
        },
        {
          "indexed": false,
          "internalType": "uint256[]",
          "name": "values",
          "type": "uint256[]"
        }
      ],
      "name": "TransferBatch",
      "type": "event"
    },
    {
      "anonymous": false,
      "inputs": [
        {
          "indexed": true,
          "internalType": "address",
          "name": "operator",
          "type": "address"
        },
        {
          "indexed": true,
          "internalType": "address",
          "name": "from",
          "type": "address"
        },
        {
          "indexed": true,
          "internalType": "address",
          "name": "to",
          "type": "address"
        },
        {
          "indexed": false,
          "internalType": "uint256",
          "name": "id",
          "type": "uint256"
        },
        {
          "indexed": false,
          "internalType": "uint256",
          "name": "value",
          "type": "uint256"
        }
      ],
      "name": "TransferSingle",
      "type": "event"
    },
    {
      "anonymous": false,
      "inputs": [
        {
          "indexed": false,
          "internalType": "string",
          "name": "value",
          "type": "string"
        },
        {
          "indexed": true,
          "internalType": "uint256",
          "name": "id",
          "type": "uint256"
        }
      ],
      "name": "URI",
      "type": "event"
    },
    {
      "inputs": [],
      "name": "DEFAULT_ADMIN_ROLE",
      "outputs": [
        {
          "internalType": "bytes32",
          "name": "",
          "type": "bytes32"
        }
      ],
      "stateMutability": "view",
      "type": "function"
    },
    {
      "inputs": [],
      "name": "DOMAIN_SEPARATOR",
      "outputs": [
        {
          "internalType": "bytes32",
          "name": "",
          "type": "bytes32"
        }
      ],
      "stateMutability": "view",
      "type": "function"
    },
    {
      "inputs": [],
      "name": "MINTER_ROLE",
      "outputs": [
        {
          "internalType": "bytes32",
          "name": "",
          "type": "bytes32"
        }
      ],
      "stateMutability": "view",
      "type": "function"
    },
    {
      "inputs": [
        {
          "internalType": "address",
          "name": "account",
          "type": "address"
        },
        {
          "internalType": "uint256",
          "name": "id",
          "type": "uint256"
        }
      ],
      "name": "balanceOf",
      "outputs": [
        {
          "internalType": "uint256",
          "name": "",
          "type": "uint256"
        }
      ],
      "stateMutability": "view",
      "type": "function"
    },
    {
      "inputs": [
        {
          "internalType": "address[]",
          "name": "accounts",
          "type": "address[]"
        },
        {
          "internalType": "uint256[]",
          "name": "ids",
          "type": "uint256[]"
        }
      ],
      "name": "balanceOfBatch",
      "outputs": [
        {
          "internalType": "uint256[]",
          "name": "",
          "type": "uint256[]"
        }
      ],
      "stateMutability": "view",
      "type": "function"
    },
    {
      "inputs": [
        {
          "internalType": "uint256",
          "name": "_id",
          "type": "uint256"
        }
      ],
      "name": "bridgedSupply",
      "outputs": [
        {
          "internalType": "uint256",
          "name": "",
          "type": "uint256"
        }
      ],
      "stateMutability": "view",
      "type": "function"
    },
    {
      "inputs": [
        {
          "internalType": "address",
          "name": "_from",
          "type": "address"
        },
        {
          "internalType": "uint256",
          "name": "_id",
          "type": "uint256"
        },
        {
          "internalType": "uint256",
          "name": "_quantity",
          "type": "uint256"
        }
      ],
      "name": "burn",
      "outputs": [],
      "stateMutability": "nonpayable",
      "type": "function"
    },
    {
      "inputs": [
        {
          "internalType": "address",
          "name": "_from",
          "type": "address"
        },
        {
          "internalType": "uint256[]",
          "name": "_ids",
          "type": "uint256[]"
        },
        {
          "internalType": "uint256[]",
          "name": "_quantities",
          "type": "uint256[]"
        }
      ],
      "name": "burnBatch",
      "outputs": [],
      "stateMutability": "nonpayable",
      "type": "function"
    },
    {
      "inputs": [
        {
          "internalType": "uint256",
          "name": "_max",
          "type": "uint256"
        },
        {
          "internalType": "uint256",
          "name": "_reserved",
          "type": "uint256"
        },
        {
          "internalType": "uint256",
          "name": "_initial",
          "type": "uint256"
        },
        {
          "internalType": "bytes",
          "name": "_data",
          "type": "bytes"
        }
      ],
      "name": "create",
      "outputs": [
        {
          "internalType": "uint256",
          "name": "tokenId",
          "type": "uint256"
        }
      ],
      "stateMutability": "nonpayable",
      "type": "function"
    },
    {
      "inputs": [
        {
          "internalType": "uint256[]",
          "name": "_maxs",
          "type": "uint256[]"
        },
        {
          "internalType": "uint256[]",
          "name": "_reserveds",
          "type": "uint256[]"
        },
        {
          "internalType": "uint256[]",
          "name": "_mints",
          "type": "uint256[]"
        },
        {
          "internalType": "bytes",
          "name": "_data",
          "type": "bytes"
        }
      ],
      "name": "createBatch",
      "outputs": [],
      "stateMutability": "nonpayable",
      "type": "function"
    },
    {
      "inputs": [
        {
          "internalType": "uint256",
          "name": "",
          "type": "uint256"
        }
      ],
      "name": "creators",
      "outputs": [
        {
          "internalType": "address",
          "name": "",
          "type": "address"
        }
      ],
      "stateMutability": "view",
      "type": "function"
    },
    {
      "inputs": [
        {
          "internalType": "uint256",
          "name": "_id",
          "type": "uint256"
        }
      ],
      "name": "exists",
      "outputs": [
        {
          "internalType": "bool",
          "name": "",
          "type": "bool"
        }
      ],
      "stateMutability": "view",
      "type": "function"
    },
    {
      "inputs": [
        {
          "internalType": "bytes32",
          "name": "role",
          "type": "bytes32"
        }
      ],
      "name": "getRoleAdmin",
      "outputs": [
        {
          "internalType": "bytes32",
          "name": "",
          "type": "bytes32"
        }
      ],
      "stateMutability": "view",
      "type": "function"
    },
    {
      "inputs": [
        {
          "internalType": "bytes32",
          "name": "role",
          "type": "bytes32"
        },
        {
          "internalType": "address",
          "name": "account",
          "type": "address"
        }
      ],
      "name": "grantRole",
      "outputs": [],
      "stateMutability": "nonpayable",
      "type": "function"
    },
    {
      "inputs": [
        {
          "internalType": "bytes32",
          "name": "role",
          "type": "bytes32"
        },
        {
          "internalType": "address",
          "name": "account",
          "type": "address"
        }
      ],
      "name": "hasRole",
      "outputs": [
        {
          "internalType": "bool",
          "name": "",
          "type": "bool"
        }
      ],
      "stateMutability": "view",
      "type": "function"
    },
    {
      "inputs": [
        {
          "internalType": "address",
          "name": "_owner",
          "type": "address"
        },
        {
          "internalType": "address",
          "name": "_operator",
          "type": "address"
        }
      ],
      "name": "isApprovedForAll",
      "outputs": [
        {
          "internalType": "bool",
          "name": "isOperator",
          "type": "bool"
        }
      ],
      "stateMutability": "view",
      "type": "function"
    },
    {
      "inputs": [
        {
          "internalType": "uint256",
          "name": "_id",
          "type": "uint256"
        }
      ],
      "name": "maxSupply",
      "outputs": [
        {
          "internalType": "uint256",
          "name": "",
          "type": "uint256"
        }
      ],
      "stateMutability": "view",
      "type": "function"
    },
    {
      "inputs": [
        {
          "internalType": "address",
          "name": "_to",
          "type": "address"
        },
        {
          "internalType": "uint256",
          "name": "_id",
          "type": "uint256"
        },
        {
          "internalType": "uint256",
          "name": "_quantity",
          "type": "uint256"
        },
        {
          "internalType": "bytes",
          "name": "_data",
          "type": "bytes"
        }
      ],
      "name": "mint",
      "outputs": [],
      "stateMutability": "nonpayable",
      "type": "function"
    },
    {
      "inputs": [
        {
          "internalType": "address",
          "name": "_to",
          "type": "address"
        },
        {
          "internalType": "uint256[]",
          "name": "_ids",
          "type": "uint256[]"
        },
        {
          "internalType": "uint256[]",
          "name": "_quantities",
          "type": "uint256[]"
        },
        {
          "internalType": "bytes",
          "name": "_data",
          "type": "bytes"
        }
      ],
      "name": "mintBatch",
      "outputs": [],
      "stateMutability": "nonpayable",
      "type": "function"
    },
    {
      "inputs": [],
      "name": "name",
      "outputs": [
        {
          "internalType": "string",
          "name": "",
          "type": "string"
        }
      ],
      "stateMutability": "view",
      "type": "function"
    },
    {
      "inputs": [],
      "name": "owner",
      "outputs": [
        {
          "internalType": "address",
          "name": "",
          "type": "address"
        }
      ],
      "stateMutability": "view",
      "type": "function"
    },
    {
      "inputs": [],
      "name": "renounceOwnership",
      "outputs": [],
      "stateMutability": "nonpayable",
      "type": "function"
    },
    {
      "inputs": [
        {
          "internalType": "bytes32",
          "name": "role",
          "type": "bytes32"
        },
        {
          "internalType": "address",
          "name": "account",
          "type": "address"
        }
      ],
      "name": "renounceRole",
      "outputs": [],
      "stateMutability": "nonpayable",
      "type": "function"
    },
    {
      "inputs": [
        {
          "internalType": "uint256",
          "name": "_id",
          "type": "uint256"
        }
      ],
      "name": "reservedSupply",
      "outputs": [
        {
          "internalType": "uint256",
          "name": "",
          "type": "uint256"
        }
      ],
      "stateMutability": "view",
      "type": "function"
    },
    {
      "inputs": [
        {
          "internalType": "bytes32",
          "name": "role",
          "type": "bytes32"
        },
        {
          "internalType": "address",
          "name": "account",
          "type": "address"
        }
      ],
      "name": "revokeRole",
      "outputs": [],
      "stateMutability": "nonpayable",
      "type": "function"
    },
    {
      "inputs": [
        {
          "internalType": "address",
          "name": "from",
          "type": "address"
        },
        {
          "internalType": "address",
          "name": "to",
          "type": "address"
        },
        {
          "internalType": "uint256[]",
          "name": "ids",
          "type": "uint256[]"
        },
        {
          "internalType": "uint256[]",
          "name": "amounts",
          "type": "uint256[]"
        },
        {
          "internalType": "bytes",
          "name": "data",
          "type": "bytes"
        }
      ],
      "name": "safeBatchTransferFrom",
      "outputs": [],
      "stateMutability": "nonpayable",
      "type": "function"
    },
    {
      "inputs": [
        {
          "internalType": "address",
          "name": "from",
          "type": "address"
        },
        {
          "internalType": "address",
          "name": "to",
          "type": "address"
        },
        {
          "internalType": "uint256",
          "name": "id",
          "type": "uint256"
        },
        {
          "internalType": "uint256",
          "name": "amount",
          "type": "uint256"
        },
        {
          "internalType": "bytes",
          "name": "data",
          "type": "bytes"
        }
      ],
      "name": "safeTransferFrom",
      "outputs": [],
      "stateMutability": "nonpayable",
      "type": "function"
    },
    {
      "inputs": [
        {
          "internalType": "address",
          "name": "operator",
          "type": "address"
        },
        {
          "internalType": "bool",
          "name": "approved",
          "type": "bool"
        }
      ],
      "name": "setApprovalForAll",
      "outputs": [],
      "stateMutability": "nonpayable",
      "type": "function"
    },
    {
      "inputs": [
        {
          "internalType": "string",
          "name": "_newBaseMetadataURI",
          "type": "string"
        }
      ],
      "name": "setBaseMetadataURI",
      "outputs": [],
      "stateMutability": "nonpayable",
      "type": "function"
    },
    {
      "inputs": [
        {
          "internalType": "address",
          "name": "_newProxyRegistryAddress",
          "type": "address"
        }
      ],
      "name": "setProxyRegistryAddress",
      "outputs": [],
      "stateMutability": "nonpayable",
      "type": "function"
    },
    {
      "inputs": [
        {
          "internalType": "uint256",
          "name": "_id",
          "type": "uint256"
        },
        {
          "internalType": "uint256",
          "name": "_value",
          "type": "uint256"
        }
      ],
      "name": "setReservedSupply",
      "outputs": [],
      "stateMutability": "nonpayable",
      "type": "function"
    },
    {
      "inputs": [
        {
          "internalType": "bytes4",
          "name": "interfaceId",
          "type": "bytes4"
        }
      ],
      "name": "supportsInterface",
      "outputs": [
        {
          "internalType": "bool",
          "name": "",
          "type": "bool"
        }
      ],
      "stateMutability": "view",
      "type": "function"
    },
    {
      "inputs": [],
      "name": "symbol",
      "outputs": [
        {
          "internalType": "string",
          "name": "",
          "type": "string"
        }
      ],
      "stateMutability": "view",
      "type": "function"
    },
    {
      "inputs": [
        {
          "internalType": "uint256",
          "name": "_id",
          "type": "uint256"
        }
      ],
      "name": "totalSupply",
      "outputs": [
        {
          "internalType": "uint256",
          "name": "",
          "type": "uint256"
        }
      ],
      "stateMutability": "view",
      "type": "function"
    },
    {
      "inputs": [
        {
          "internalType": "address",
          "name": "newOwner",
          "type": "address"
        }
      ],
      "name": "transferOwnership",
      "outputs": [],
      "stateMutability": "nonpayable",
      "type": "function"
    },
    {
      "inputs": [
        {
          "internalType": "uint256",
          "name": "_id",
          "type": "uint256"
        }
      ],
      "name": "uri",
      "outputs": [
        {
          "internalType": "string",
          "name": "",
          "type": "string"
        }
      ],
      "stateMutability": "view",
      "type": "function"
    }
  ],
  "transactionHash": "0x26193f72a205d042d0ab39299289f7e10abe3b1ac644a65672b8d993476588bb",
  "args": [
    "https://api-staging.cryptokombat.com/consumables/",
    "0x207Fa8Df3a17D96Ca7EA4f2893fcdCb78a304101"
  ],
  "numDeployments": 2,
  "solcInputHash": "0227fc690a5fc7f951bde44b5e742483",
  "bytecode": "0x61014060405260006007553480156200001757600080fd5b5060405162004004380380620040048339810160408190526200003a91620004a2565b6040518060400160405280601981526020017f43727970746f204b6f6d62617420436f6e73756d61626c65730000000000000081525060405180604001604052806004815260200163434b434d60e01b815250838383604051806040016040528060018152602001603160f81b81525085858460405180602001604052806000815250620000d7620000d16200022060201b60201c565b6200023c565b620000e2816200028e565b50620000f96000620000f362000220565b620002a7565b620001287f9f2df0fed2c77648de5860a4cc508cd0818c85b8b8a1ab4ceeef8d981c8956a6620000f362000220565b82516200013d90600d906020860190620003c9565b5081516200015390600e906020850190620003c9565b50600680546001600160a01b0319166001600160a01b03929092169190911790555050815160208084019190912082518383012060e08290526101008190524660a0818152604080517f8b73c3c69bb8fe3d512ecc4cf759cc79239f7b179b0ffacaa9a75d522b39400f81880181905281830187905260608201869052608082019490945230818401528151808203909301835260c00190528051940193909320919290916080523060c052610120525062000214925084915050620002b3565b505050505050620005d0565b600062000237620002c860201b620015c51760201c565b905090565b600180546001600160a01b038381166001600160a01b0319831681179093556040519116919082907f8be0079c531659141344cd1fd0a4f28419497f9722a3daafe3b4186f6b6457e090600090a35050565b8051620002a3906004906020840190620003c9565b5050565b620002a3828262000327565b8051620002a3906005906020840190620003c9565b6000333014156200032157600080368080601f0160208091040260200160405190810160405280939291908181526020018383808284376000920191909152505050503601516001600160a01b03169150620003249050565b50335b90565b6000828152602081815260408083206001600160a01b038516845290915290205460ff16620002a3576000828152602081815260408083206001600160a01b03851684529091529020805460ff191660011790556200038562000220565b6001600160a01b0316816001600160a01b0316837f2f8788117e7eff1d82e926ec794901d17c78024a50270940304540a733656f0d60405160405180910390a45050565b828054620003d79062000593565b90600052602060002090601f016020900481019282620003fb576000855562000446565b82601f106200041657805160ff191683800117855562000446565b8280016001018555821562000446579182015b828111156200044657825182559160200191906001019062000429565b506200045492915062000458565b5090565b5b8082111562000454576000815560010162000459565b634e487b7160e01b600052604160045260246000fd5b80516001600160a01b03811681146200049d57600080fd5b919050565b60008060408385031215620004b657600080fd5b82516001600160401b0380821115620004ce57600080fd5b818501915085601f830112620004e357600080fd5b815181811115620004f857620004f86200046f565b604051601f8201601f19908116603f011681019083821181831017156200052357620005236200046f565b816040528281526020935088848487010111156200054057600080fd5b600091505b8282101562000564578482018401518183018501529083019062000545565b82821115620005765760008484830101525b95506200058891505085820162000485565b925050509250929050565b600181811c90821680620005a857607f821691505b60208210811415620005ca57634e487b7160e01b600052602260045260246000fd5b50919050565b60805160a05160c05160e05161010051610120516139e4620006206000396000611d4d01526000611d9c01526000611d7701526000611cd001526000611cfa01526000611d2401526139e46000f3fe608060405234801561001057600080fd5b506004361061021b5760003560e01c8063869f759411610125578063cd53d08e116100ad578063e985e9c51161007c578063e985e9c5146104e8578063f242432a146104fb578063f2fde38b1461050e578063f5298aca14610521578063faf929ec1461053457600080fd5b8063cd53d08e14610472578063d26ea6c01461049b578063d5391393146104ae578063d547741f146104d557600080fd5b8063a217fddf116100f4578063a217fddf14610404578063a22cb4651461040c578063a628b2b61461041f578063b062dfce1461043f578063bd85b0391461045257600080fd5b8063869f7594146103a45780638da5cb5b146103c457806391d14854146103e957806395d89b41146103fc57600080fd5b80633644e515116101a8578063548706931161017757806354870693146103505780636b20c45414610363578063715018a614610376578063731133e91461037e5780637e518ec81461039157600080fd5b80633644e5151461030257806336568abe1461030a5780634e1273f41461031d5780634f558e791461033d57600080fd5b80631ab0dd77116101ef5780631ab0dd77146102915780631f7fdffa146102a4578063248a9ca3146102b95780632eb2c2d6146102dc5780632f2ff15d146102ef57600080fd5b8062fdd58e1461022057806301ffc9a71461024657806306fdde03146102695780630e89341c1461027e575b600080fd5b61023361022e366004612a1d565b610554565b6040519081526020015b60405180910390f35b610259610254366004612a5f565b6105f0565b604051901515815260200161023d565b6102716105fb565b60405161023d9190612ad4565b61027161028c366004612ae7565b610689565b61023361029f366004612bbf565b61072d565b6102b76102b2366004612cac565b61083e565b005b6102336102c7366004612ae7565b60009081526020819052604090206001015490565b6102b76102ea366004612d3a565b61096c565b6102b76102fd366004612de7565b610a15565b610233610a3f565b6102b7610318366004612de7565b610a4e565b61033061032b366004612e17565b610adc565b60405161023d9190612f1e565b61025961034b366004612ae7565b610c05565b6102b761035e366004612f31565b610c24565b6102b7610371366004612f80565b610eca565b6102b7610fcd565b6102b761038c366004612ff5565b611052565b6102b761039f36600461303f565b6110fa565b6102336103b2366004612ae7565b6000908152600a602052604090205490565b6001546001600160a01b03165b6040516001600160a01b03909116815260200161023d565b6102596103f7366004612de7565b611163565b61027161118c565b610233600081565b6102b761041a366004613087565b611199565b61023361042d366004612ae7565b6000908152600b602052604090205490565b6102b761044d3660046130ba565b6111ab565b610233610460366004612ae7565b60009081526009602052604090205490565b6103d1610480366004612ae7565b6008602052600090815260409020546001600160a01b031681565b6102b76104a93660046130dc565b61124e565b6102337f9f2df0fed2c77648de5860a4cc508cd0818c85b8b8a1ab4ceeef8d981c8956a681565b6102b76104e3366004612de7565b6112cd565b6102596104f63660046130f9565b6112f2565b6102b7610509366004613127565b6113c2565b6102b761051c3660046130dc565b61145b565b6102b761052f36600461318f565b611542565b610233610542366004612ae7565b6000908152600c602052604090205490565b60006001600160a01b0383166105c55760405162461bcd60e51b815260206004820152602b60248201527f455243313135353a2062616c616e636520717565727920666f7220746865207a60448201526a65726f206164647265737360a81b60648201526084015b60405180910390fd5b5060008181526002602090815260408083206001600160a01b03861684529091529020545b92915050565b60006105ea82611622565b600d8054610608906131c4565b80601f0160208091040260200160405190810160405280929190818152602001828054610634906131c4565b80156106815780601f1061065657610100808354040283529160200191610681565b820191906000526020600020905b81548152906001019060200180831161066457829003601f168201915b505050505081565b6000818152600860205260409020546060906001600160a01b03166106fb5760405162461bcd60e51b815260206004820152602260248201527f455243313135355472616461626c653a20746f6b656e206d7573742065786973604482015261747360f01b60648201526084016105bc565b600561070683611662565b60405160200161071792919061321b565b6040516020818303038152906040529050919050565b600061073b816103f761175f565b8061076f575061074961175f565b6001600160a01b03166107646001546001600160a01b031690565b6001600160a01b0316145b61078b5760405162461bcd60e51b81526004016105bc906132b9565b84610796848661331d565b11156107b45760405162461bcd60e51b81526004016105bc90613335565b60006107be611769565b90506107c861177a565b6107d061175f565b600082815260086020908152604080832080546001600160a01b0319166001600160a01b03959095169490941790935560098152828220879055600a8152828220899055600b90522085905583156108355761083561082d61175f565b828686611791565b95945050505050565b61086a7f9f2df0fed2c77648de5860a4cc508cd0818c85b8b8a1ab4ceeef8d981c8956a66103f761175f565b6108865760405162461bcd60e51b81526004016105bc90613392565b6001600160a01b0384166108ac5760405162461bcd60e51b81526004016105bc906133d8565b81518351146108cd5760405162461bcd60e51b81526004016105bc90613421565b60005b83518110156109595760008482815181106108ed576108ed613468565b60200260200101519050600084838151811061090b5761090b613468565b6020026020010151905061091f828261187e565b6000828152600960205260408120805483929061093d90849061331d565b92505081905550505080806109519061347e565b9150506108d0565b506109668484848461190f565b50505050565b61097461175f565b6001600160a01b0316856001600160a01b0316148061099a575061099a856104f661175f565b610a015760405162461bcd60e51b815260206004820152603260248201527f455243313135353a207472616e736665722063616c6c6572206973206e6f74206044820152711bdddb995c881b9bdc88185c1c1c9bdd995960721b60648201526084016105bc565b610a0e8585858585611a75565b5050505050565b600082815260208190526040902060010154610a3081611c2d565b610a3a8383611c3e565b505050565b6000610a49611cc3565b905090565b610a5661175f565b6001600160a01b0316816001600160a01b031614610ace5760405162461bcd60e51b815260206004820152602f60248201527f416363657373436f6e74726f6c3a2063616e206f6e6c792072656e6f756e636560448201526e103937b632b9903337b91039b2b63360891b60648201526084016105bc565b610ad88282611dea565b5050565b60608151835114610b415760405162461bcd60e51b815260206004820152602960248201527f455243313135353a206163636f756e747320616e6420696473206c656e677468604482015268040dad2e6dac2e8c6d60bb1b60648201526084016105bc565b600083516001600160401b03811115610b5c57610b5c612b00565b604051908082528060200260200182016040528015610b85578160200160208202803683370190505b50905060005b8451811015610bfd57610bd0858281518110610ba957610ba9613468565b6020026020010151858381518110610bc357610bc3613468565b6020026020010151610554565b828281518110610be257610be2613468565b6020908102919091010152610bf68161347e565b9050610b8b565b509392505050565b6000818152600860205260408120546001600160a01b031615156105ea565b610c3160006103f761175f565b80610c655750610c3f61175f565b6001600160a01b0316610c5a6001546001600160a01b031690565b6001600160a01b0316145b610c815760405162461bcd60e51b81526004016105bc906132b9565b82518451148015610c93575081518451145b610caf5760405162461bcd60e51b81526004016105bc90613421565b600084516001600160401b03811115610cca57610cca612b00565b604051908082528060200260200182016040528015610cf3578160200160208202803683370190505b509050600085516001600160401b03811115610d1157610d11612b00565b604051908082528060200260200182016040528015610d3a578160200160208202803683370190505b5090506000805b8751811015610ea7576000888281518110610d5e57610d5e613468565b602002602001015190506000888381518110610d7c57610d7c613468565b602002602001015190506000888481518110610d9a57610d9a613468565b60200260200101519050828183610db1919061331d565b1115610dcf5760405162461bcd60e51b81526004016105bc90613335565b6000610dd9611769565b9050610de361177a565b610deb61175f565b600082815260086020908152604080832080546001600160a01b0319166001600160a01b03959095169490941790935560098152828220859055600a8152828220879055600b90522083905587518190899087908110610e4d57610e4d613468565b60200260200101818152505081878681518110610e6c57610e6c613468565b602002602001018181525050600082118015610e86575085155b15610e9057600195505b505050508080610e9f9061347e565b915050610d41565b508015610ec157610ec1610eb961175f565b84848761190f565b50505050505050565b610ed261175f565b6001600160a01b0316836001600160a01b03161480610ef85750610ef8836104f661175f565b610f145760405162461bcd60e51b81526004016105bc90613499565b8051825114610f355760405162461bcd60e51b81526004016105bc90613421565b60005b8251811015610fc1576000838281518110610f5557610f55613468565b602002602001015190506000838381518110610f7357610f73613468565b60200260200101519050610f878282611e6d565b60008281526009602052604081208054839290610fa59084906134ea565b9250508190555050508080610fb99061347e565b915050610f38565b50610a3a838383611eff565b610fd561175f565b6001600160a01b0316610ff06001546001600160a01b031690565b6001600160a01b0316146110465760405162461bcd60e51b815260206004820181905260248201527f4f776e61626c653a2063616c6c6572206973206e6f7420746865206f776e657260448201526064016105bc565b61105060006120a5565b565b61107e7f9f2df0fed2c77648de5860a4cc508cd0818c85b8b8a1ab4ceeef8d981c8956a66103f761175f565b61109a5760405162461bcd60e51b81526004016105bc90613392565b6001600160a01b0384166110c05760405162461bcd60e51b81526004016105bc906133d8565b6110ca838361187e565b600083815260096020526040812080548492906110e890849061331d565b90915550610966905084848484611791565b61110760006103f761175f565b8061113b575061111561175f565b6001600160a01b03166111306001546001600160a01b031690565b6001600160a01b0316145b6111575760405162461bcd60e51b81526004016105bc906132b9565b611160816120f7565b50565b6000918252602082815260408084206001600160a01b0393909316845291905290205460ff1690565b600e8054610608906131c4565b610ad86111a461175f565b838361210a565b6111b860006103f761175f565b806111ec57506111c661175f565b6001600160a01b03166111e16001546001600160a01b031690565b6001600160a01b0316145b6112085760405162461bcd60e51b81526004016105bc906132b9565b6000828152600860205260409020546001600160a01b031661123c5760405162461bcd60e51b81526004016105bc90613501565b6000918252600b602052604090912055565b61125b60006103f761175f565b8061128f575061126961175f565b6001600160a01b03166112846001546001600160a01b031690565b6001600160a01b0316145b6112ab5760405162461bcd60e51b81526004016105bc906132b9565b600680546001600160a01b0319166001600160a01b0392909216919091179055565b6000828152602081905260409020600101546112e881611c2d565b610a3a8383611dea565b60065460405163c455279160e01b81526001600160a01b03848116600483015260009281169190841690829063c45527919060240160206040518083038186803b15801561133f57600080fd5b505afa158015611353573d6000803e3d6000fd5b505050506040513d601f19601f820116820180604052508101906113779190613538565b6001600160a01b031614156113905760019150506105ea565b6001600160a01b0380851660009081526003602090815260408083209387168352929052205460ff165b949350505050565b6113ca61175f565b6001600160a01b0316856001600160a01b031614806113f057506113f0856104f661175f565b61144e5760405162461bcd60e51b815260206004820152602960248201527f455243313135353a2063616c6c6572206973206e6f74206f776e6572206e6f7260448201526808185c1c1c9bdd995960ba1b60648201526084016105bc565b610a0e85858585856121eb565b61146361175f565b6001600160a01b031661147e6001546001600160a01b031690565b6001600160a01b0316146114d45760405162461bcd60e51b815260206004820181905260248201527f4f776e61626c653a2063616c6c6572206973206e6f7420746865206f776e657260448201526064016105bc565b6001600160a01b0381166115395760405162461bcd60e51b815260206004820152602660248201527f4f776e61626c653a206e6577206f776e657220697320746865207a65726f206160448201526564647265737360d01b60648201526084016105bc565b611160816120a5565b61154a61175f565b6001600160a01b0316836001600160a01b031614806115705750611570836104f661175f565b61158c5760405162461bcd60e51b81526004016105bc90613499565b6115968282611e6d565b600082815260096020526040812080548392906115b49084906134ea565b90915550610a3a9050838383612332565b60003330141561161c57600080368080601f0160208091040260200160405190810160405280939291908181526020018383808284376000920191909152505050503601516001600160a01b0316915061161f9050565b50335b90565b60006001600160e01b03198216636cdb3d1360e11b148061165357506001600160e01b031982166303a24d0760e21b145b806105ea57506105ea82612459565b6060816116865750506040805180820190915260018152600360fc1b602082015290565b8160005b81156116b0578061169a8161347e565b91506116a99050600a8361356b565b915061168a565b6000816001600160401b038111156116ca576116ca612b00565b6040519080825280601f01601f1916602001820160405280156116f4576020820181803683370190505b5090505b84156113ba576117096001836134ea565b9150611716600a8661357f565b61172190603061331d565b60f81b81838151811061173657611736613468565b60200101906001600160f81b031916908160001a905350611758600a8661356b565b94506116f8565b6000610a496115c5565b60006007546001610a49919061331d565b6007805490600061178a8361347e565b9190505550565b6001600160a01b0384166117b75760405162461bcd60e51b81526004016105bc90613593565b60006117c161175f565b905060006117ce8561248e565b905060006117db8561248e565b90506117ec836000898585896124d9565b60008681526002602090815260408083206001600160a01b038b1684529091528120805487929061181e90849061331d565b909155505060408051878152602081018790526001600160a01b03808a1692600092918716917fc3d58168c5ae7397731d063d5bbf3d657854427343f4c083240f7aacaa2d0f62910160405180910390a4610ec1836000898989896124de565b6000828152600860205260409020546001600160a01b03166118b25760405162461bcd60e51b81526004016105bc90613501565b60006118bd83612649565b905081811015610a3a5760405162461bcd60e51b815260206004820152601a60248201527f455243313135355472616461626c653a20216d696e7461626c6500000000000060448201526064016105bc565b6001600160a01b0384166119355760405162461bcd60e51b81526004016105bc90613593565b81518351146119565760405162461bcd60e51b81526004016105bc906135d4565b600061196061175f565b9050611971816000878787876124d9565b60005b8451811015611a0d5783818151811061198f5761198f613468565b6020026020010151600260008784815181106119ad576119ad613468565b602002602001015181526020019081526020016000206000886001600160a01b03166001600160a01b0316815260200190815260200160002060008282546119f5919061331d565b90915550819050611a058161347e565b915050611974565b50846001600160a01b031660006001600160a01b0316826001600160a01b03167f4a39dc06d4c0dbc64b70af90fd698a233a518aa5d07e595d983b8c0526c8f7fb8787604051611a5e92919061361c565b60405180910390a4610a0e8160008787878761269f565b8151835114611a965760405162461bcd60e51b81526004016105bc906135d4565b6001600160a01b038416611abc5760405162461bcd60e51b81526004016105bc90613641565b6000611ac661175f565b9050611ad68187878787876124d9565b60005b8451811015611bbf576000858281518110611af657611af6613468565b602002602001015190506000858381518110611b1457611b14613468565b60209081029190910181015160008481526002835260408082206001600160a01b038e168352909352919091205490915081811015611b655760405162461bcd60e51b81526004016105bc90613686565b60008381526002602090815260408083206001600160a01b038e8116855292528083208585039055908b16825281208054849290611ba490849061331d565b9250508190555050505080611bb89061347e565b9050611ad9565b50846001600160a01b0316866001600160a01b0316826001600160a01b03167f4a39dc06d4c0dbc64b70af90fd698a233a518aa5d07e595d983b8c0526c8f7fb8787604051611c0f92919061361c565b60405180910390a4611c2581878787878761269f565b505050505050565b61116081611c3961175f565b612769565b611c488282611163565b610ad8576000828152602081815260408083206001600160a01b03851684529091529020805460ff19166001179055611c7f61175f565b6001600160a01b0316816001600160a01b0316837f2f8788117e7eff1d82e926ec794901d17c78024a50270940304540a733656f0d60405160405180910390a45050565b6000306001600160a01b037f000000000000000000000000000000000000000000000000000000000000000016148015611d1c57507f000000000000000000000000000000000000000000000000000000000000000046145b15611d4657507f000000000000000000000000000000000000000000000000000000000000000090565b50604080517f00000000000000000000000000000000000000000000000000000000000000006020808301919091527f0000000000000000000000000000000000000000000000000000000000000000828401527f000000000000000000000000000000000000000000000000000000000000000060608301524660808301523060a0808401919091528351808403909101815260c0909201909252805191012090565b611df48282611163565b15610ad8576000828152602081815260408083206001600160a01b03851684529091529020805460ff19169055611e2961175f565b6001600160a01b0316816001600160a01b0316837ff6391f5c32d9c69d2a47ea670b442974b53935d1edc7fd64eb21e047a839171b60405160405180910390a45050565b6000828152600860205260409020546001600160a01b0316611ea15760405162461bcd60e51b81526004016105bc90613501565b600082815260096020526040902054811115610ad85760405162461bcd60e51b815260206004820152601a60248201527f455243313135355472616461626c653a20216275726e61626c6500000000000060448201526064016105bc565b6001600160a01b038316611f255760405162461bcd60e51b81526004016105bc906136d0565b8051825114611f465760405162461bcd60e51b81526004016105bc906135d4565b6000611f5061175f565b9050611f70818560008686604051806020016040528060008152506124d9565b60005b8351811015612038576000848281518110611f9057611f90613468565b602002602001015190506000848381518110611fae57611fae613468565b60209081029190910181015160008481526002835260408082206001600160a01b038c168352909352919091205490915081811015611fff5760405162461bcd60e51b81526004016105bc90613713565b60009283526002602090815260408085206001600160a01b038b16865290915290922091039055806120308161347e565b915050611f73565b5060006001600160a01b0316846001600160a01b0316826001600160a01b03167f4a39dc06d4c0dbc64b70af90fd698a233a518aa5d07e595d983b8c0526c8f7fb868660405161208992919061361c565b60405180910390a4604080516020810190915260009052610966565b600180546001600160a01b038381166001600160a01b0319831681179093556040519116919082907f8be0079c531659141344cd1fd0a4f28419497f9722a3daafe3b4186f6b6457e090600090a35050565b8051610ad890600590602084019061296f565b816001600160a01b0316836001600160a01b0316141561217e5760405162461bcd60e51b815260206004820152602960248201527f455243313135353a2073657474696e6720617070726f76616c20737461747573604482015268103337b91039b2b63360b91b60648201526084016105bc565b6001600160a01b03838116600081815260036020908152604080832094871680845294825291829020805460ff191686151590811790915591519182527f17307eab39ab6107e8899845ad3d59bd9653f200f220920489ca2b5937696c31910160405180910390a3505050565b6001600160a01b0384166122115760405162461bcd60e51b81526004016105bc90613641565b600061221b61175f565b905060006122288561248e565b905060006122358561248e565b90506122458389898585896124d9565b60008681526002602090815260408083206001600160a01b038c168452909152902054858110156122885760405162461bcd60e51b81526004016105bc90613686565b60008781526002602090815260408083206001600160a01b038d8116855292528083208985039055908a168252812080548892906122c790849061331d565b909155505060408051888152602081018890526001600160a01b03808b16928c821692918816917fc3d58168c5ae7397731d063d5bbf3d657854427343f4c083240f7aacaa2d0f62910160405180910390a4612327848a8a8a8a8a6124de565b505050505050505050565b6001600160a01b0383166123585760405162461bcd60e51b81526004016105bc906136d0565b600061236261175f565b9050600061236f8461248e565b9050600061237c8461248e565b905061239c838760008585604051806020016040528060008152506124d9565b60008581526002602090815260408083206001600160a01b038a168452909152902054848110156123df5760405162461bcd60e51b81526004016105bc90613713565b60008681526002602090815260408083206001600160a01b038b81168086529184528285208a8703905582518b81529384018a90529092908816917fc3d58168c5ae7397731d063d5bbf3d657854427343f4c083240f7aacaa2d0f62910160405180910390a4604080516020810190915260009052610ec1565b60006001600160e01b03198216637965db0b60e01b14806105ea57506301ffc9a760e01b6001600160e01b03198316146105ea565b604080516001808252818301909252606091600091906020808301908036833701905050905082816000815181106124c8576124c8613468565b602090810291909101015292915050565b611c25565b6001600160a01b0384163b15611c255760405163f23a6e6160e01b81526001600160a01b0385169063f23a6e61906125229089908990889088908890600401613757565b602060405180830381600087803b15801561253c57600080fd5b505af192505050801561256c575060408051601f3d908101601f191682019092526125699181019061379c565b60015b612619576125786137b9565b806308c379a014156125b2575061258d6137d4565b8061259857506125b4565b8060405162461bcd60e51b81526004016105bc9190612ad4565b505b60405162461bcd60e51b815260206004820152603460248201527f455243313135353a207472616e7366657220746f206e6f6e20455243313135356044820152732932b1b2b4bb32b91034b6b83632b6b2b73a32b960611b60648201526084016105bc565b6001600160e01b0319811663f23a6e6160e01b14610ec15760405162461bcd60e51b81526004016105bc9061385d565b600081815260096020908152604080832054600b835281842054600c845282852054600a9094529184205490929061268182856134ea565b61268b84836134ea565b61269591906134ea565b9695505050505050565b6001600160a01b0384163b15611c255760405163bc197c8160e01b81526001600160a01b0385169063bc197c81906126e390899089908890889088906004016138a5565b602060405180830381600087803b1580156126fd57600080fd5b505af192505050801561272d575060408051601f3d908101601f1916820190925261272a9181019061379c565b60015b612739576125786137b9565b6001600160e01b0319811663bc197c8160e01b14610ec15760405162461bcd60e51b81526004016105bc9061385d565b6127738282611163565b610ad85761278b816001600160a01b031660146127cd565b6127968360206127cd565b6040516020016127a7929190613903565b60408051601f198184030181529082905262461bcd60e51b82526105bc91600401612ad4565b606060006127dc836002613978565b6127e790600261331d565b6001600160401b038111156127fe576127fe612b00565b6040519080825280601f01601f191660200182016040528015612828576020820181803683370190505b509050600360fc1b8160008151811061284357612843613468565b60200101906001600160f81b031916908160001a905350600f60fb1b8160018151811061287257612872613468565b60200101906001600160f81b031916908160001a9053506000612896846002613978565b6128a190600161331d565b90505b6001811115612919576f181899199a1a9b1b9c1cb0b131b232b360811b85600f16601081106128d5576128d5613468565b1a60f81b8282815181106128eb576128eb613468565b60200101906001600160f81b031916908160001a90535060049490941c9361291281613997565b90506128a4565b5083156129685760405162461bcd60e51b815260206004820181905260248201527f537472696e67733a20686578206c656e67746820696e73756666696369656e7460448201526064016105bc565b9392505050565b82805461297b906131c4565b90600052602060002090601f01602090048101928261299d57600085556129e3565b82601f106129b657805160ff19168380011785556129e3565b828001600101855582156129e3579182015b828111156129e35782518255916020019190600101906129c8565b506129ef9291506129f3565b5090565b5b808211156129ef57600081556001016129f4565b6001600160a01b038116811461116057600080fd5b60008060408385031215612a3057600080fd5b8235612a3b81612a08565b946020939093013593505050565b6001600160e01b03198116811461116057600080fd5b600060208284031215612a7157600080fd5b813561296881612a49565b60005b83811015612a97578181015183820152602001612a7f565b838111156109665750506000910152565b60008151808452612ac0816020860160208601612a7c565b601f01601f19169290920160200192915050565b6020815260006129686020830184612aa8565b600060208284031215612af957600080fd5b5035919050565b634e487b7160e01b600052604160045260246000fd5b601f8201601f191681016001600160401b0381118282101715612b3b57612b3b612b00565b6040525050565b60006001600160401b03831115612b5b57612b5b612b00565b604051612b72601f8501601f191660200182612b16565b809150838152848484011115612b8757600080fd5b83836020830137600060208583010152509392505050565b600082601f830112612bb057600080fd5b61296883833560208501612b42565b60008060008060808587031215612bd557600080fd5b84359350602085013592506040850135915060608501356001600160401b03811115612c0057600080fd5b612c0c87828801612b9f565b91505092959194509250565b60006001600160401b03821115612c3157612c31612b00565b5060051b60200190565b600082601f830112612c4c57600080fd5b81356020612c5982612c18565b604051612c668282612b16565b83815260059390931b8501820192828101915086841115612c8657600080fd5b8286015b84811015612ca15780358352918301918301612c8a565b509695505050505050565b60008060008060808587031215612cc257600080fd5b8435612ccd81612a08565b935060208501356001600160401b0380821115612ce957600080fd5b612cf588838901612c3b565b94506040870135915080821115612d0b57600080fd5b612d1788838901612c3b565b93506060870135915080821115612d2d57600080fd5b50612c0c87828801612b9f565b600080600080600060a08688031215612d5257600080fd5b8535612d5d81612a08565b94506020860135612d6d81612a08565b935060408601356001600160401b0380821115612d8957600080fd5b612d9589838a01612c3b565b94506060880135915080821115612dab57600080fd5b612db789838a01612c3b565b93506080880135915080821115612dcd57600080fd5b50612dda88828901612b9f565b9150509295509295909350565b60008060408385031215612dfa57600080fd5b823591506020830135612e0c81612a08565b809150509250929050565b60008060408385031215612e2a57600080fd5b82356001600160401b0380821115612e4157600080fd5b818501915085601f830112612e5557600080fd5b81356020612e6282612c18565b604051612e6f8282612b16565b83815260059390931b8501820192828101915089841115612e8f57600080fd5b948201945b83861015612eb6578535612ea781612a08565b82529482019490820190612e94565b96505086013592505080821115612ecc57600080fd5b50612ed985828601612c3b565b9150509250929050565b600081518084526020808501945080840160005b83811015612f1357815187529582019590820190600101612ef7565b509495945050505050565b6020815260006129686020830184612ee3565b60008060008060808587031215612f4757600080fd5b84356001600160401b0380821115612f5e57600080fd5b612f6a88838901612c3b565b95506020870135915080821115612ce957600080fd5b600080600060608486031215612f9557600080fd5b8335612fa081612a08565b925060208401356001600160401b0380821115612fbc57600080fd5b612fc887838801612c3b565b93506040860135915080821115612fde57600080fd5b50612feb86828701612c3b565b9150509250925092565b6000806000806080858703121561300b57600080fd5b843561301681612a08565b9350602085013592506040850135915060608501356001600160401b03811115612c0057600080fd5b60006020828403121561305157600080fd5b81356001600160401b0381111561306757600080fd5b8201601f8101841361307857600080fd5b6113ba84823560208401612b42565b6000806040838503121561309a57600080fd5b82356130a581612a08565b915060208301358015158114612e0c57600080fd5b600080604083850312156130cd57600080fd5b50508035926020909101359150565b6000602082840312156130ee57600080fd5b813561296881612a08565b6000806040838503121561310c57600080fd5b823561311781612a08565b91506020830135612e0c81612a08565b600080600080600060a0868803121561313f57600080fd5b853561314a81612a08565b9450602086013561315a81612a08565b9350604086013592506060860135915060808601356001600160401b0381111561318357600080fd5b612dda88828901612b9f565b6000806000606084860312156131a457600080fd5b83356131af81612a08565b95602085013595506040909401359392505050565b600181811c908216806131d857607f821691505b602082108114156131f957634e487b7160e01b600052602260045260246000fd5b50919050565b60008151613211818560208601612a7c565b9290920192915050565b600080845481600182811c91508083168061323757607f831692505b602080841082141561325757634e487b7160e01b86526022600452602486fd5b81801561326b576001811461327c576132a9565b60ff198616895284890196506132a9565b60008b81526020902060005b868110156132a15781548b820152908501908301613288565b505084890196505b50505050505061083581856131ff565b6020808252602e908201527f455243313135355472616461626c653a206d75737420686176652061646d696e60408201526d206f72206f776e657220726f6c6560901b606082015260800190565b634e487b7160e01b600052601160045260246000fd5b6000821982111561333057613330613307565b500190565b6020808252603e908201527f455243313135355472616461626c653a20496e697469616c20737570706c792060408201527f63616e6e6f74206265206d6f7265207468616e206d617820737570706c790000606082015260800190565b60208082526026908201527f455243313135355472616461626c653a206d7573742068617665206d696e74656040820152657220726f6c6560d01b606082015260800190565b60208082526029908201527f455243313135355472616461626c653a206d696e7420746f20746865207a65726040820152686f206164647265737360b81b606082015260800190565b60208082526027908201527f455243313135355472616461626c653a20617272617973206c656e677468206d6040820152660d2e6dac2e8c6d60cb1b606082015260800190565b634e487b7160e01b600052603260045260246000fd5b600060001982141561349257613492613307565b5060010190565b60208082526031908201527f455243313135355472616461626c653a2063616c6c6572206973206e6f74206f6040820152701ddb995c881b9bdc88185c1c1c9bdd9959607a1b606082015260800190565b6000828210156134fc576134fc613307565b500390565b60208082526018908201527f455243313135355472616461626c653a20216578697374730000000000000000604082015260600190565b60006020828403121561354a57600080fd5b815161296881612a08565b634e487b7160e01b600052601260045260246000fd5b60008261357a5761357a613555565b500490565b60008261358e5761358e613555565b500690565b60208082526021908201527f455243313135353a206d696e7420746f20746865207a65726f206164647265736040820152607360f81b606082015260800190565b60208082526028908201527f455243313135353a2069647320616e6420616d6f756e7473206c656e677468206040820152670dad2e6dac2e8c6d60c31b606082015260800190565b60408152600061362f6040830185612ee3565b82810360208401526108358185612ee3565b60208082526025908201527f455243313135353a207472616e7366657220746f20746865207a65726f206164604082015264647265737360d81b606082015260800190565b6020808252602a908201527f455243313135353a20696e73756666696369656e742062616c616e636520666f60408201526939103a3930b739b332b960b11b606082015260800190565b60208082526023908201527f455243313135353a206275726e2066726f6d20746865207a65726f206164647260408201526265737360e81b606082015260800190565b60208082526024908201527f455243313135353a206275726e20616d6f756e7420657863656564732062616c604082015263616e636560e01b606082015260800190565b6001600160a01b03868116825285166020820152604081018490526060810183905260a06080820181905260009061379190830184612aa8565b979650505050505050565b6000602082840312156137ae57600080fd5b815161296881612a49565b600060033d111561161f5760046000803e5060005160e01c90565b600060443d10156137e25790565b6040516003193d81016004833e81513d6001600160401b03816024840111818411171561381157505050505090565b82850191508151818111156138295750505050505090565b843d87010160208285010111156138435750505050505090565b61385260208286010187612b16565b509095945050505050565b60208082526028908201527f455243313135353a204552433131353552656365697665722072656a656374656040820152676420746f6b656e7360c01b606082015260800190565b6001600160a01b0386811682528516602082015260a0604082018190526000906138d190830186612ee3565b82810360608401526138e38186612ee3565b905082810360808401526138f78185612aa8565b98975050505050505050565b7f416363657373436f6e74726f6c3a206163636f756e742000000000000000000081526000835161393b816017850160208801612a7c565b7001034b99036b4b9b9b4b733903937b6329607d1b601791840191820152835161396c816028840160208801612a7c565b01602801949350505050565b600081600019048311821515161561399257613992613307565b500290565b6000816139a6576139a6613307565b50600019019056fea2646970667358221220038db1b6bd0e05c007a36e2d0ecf56a0f31bb1a583e62b329eb14b9e134fd50664736f6c63430008090033",
  "devdoc": {
    "kind": "dev",
    "methods": {
      "DOMAIN_SEPARATOR()": {
        "details": "See {EIP712-DOMAIN_SEPARATOR}."
      },
      "balanceOf(address,uint256)": {
        "details": "See {IERC1155-balanceOf}. Requirements: - `account` cannot be the zero address."
      },
      "balanceOfBatch(address[],uint256[])": {
        "details": "See {IERC1155-balanceOfBatch}. Requirements: - `accounts` and `ids` must have the same length."
      },
      "bridgedSupply(uint256)": {
        "details": "Returns the bridged quantity for a token ID",
        "params": {
          "_id": "uint256 ID of the token to query"
        },
        "returns": {
          "_0": "amount of token in existence"
        }
      },
      "burn(address,uint256,uint256)": {
        "details": "Burns some amount of tokens from an address",
        "params": {
          "_from": "The address to burn tokens from",
          "_id": "Token ID to burn",
          "_quantity": "Amount of tokens to burn"
        }
      },
      "burnBatch(address,uint256[],uint256[])": {
        "details": "Burn tokens for each id in _ids",
        "params": {
          "_from": "The address to burn tokens from",
          "_ids": "Array of ids to burn",
          "_quantities": "Array of amounts to burn per id"
        }
      },
      "create(uint256,uint256,uint256,bytes)": {
        "details": "Creates a new token type and assigns _initial to a sender",
        "params": {
          "_data": "Optional data to pass if receiver is contract",
          "_initial": "how many tokens to mint initially",
          "_max": "max supply allowed",
          "_reserved": "original supply"
        },
        "returns": {
          "tokenId": "The newly created token ID"
        }
      },
      "createBatch(uint256[],uint256[],uint256[],bytes)": {
        "details": "Creates some amount of tokens type and assigns initials to a sender",
        "params": {
          "_maxs": "max supply allowed",
          "_mints": "how many tokens to mint initially",
          "_reserveds": "reserved supply"
        }
      },
      "exists(uint256)": {
        "details": "Returns whether the specified token exists by checking to see if it has a creator",
        "params": {
          "_id": "uint256 ID of the token to query the existence of"
        },
        "returns": {
          "_0": "bool whether the token exists"
        }
      },
      "getRoleAdmin(bytes32)": {
        "details": "Returns the admin role that controls `role`. See {grantRole} and {revokeRole}. To change a role's admin, use {_setRoleAdmin}."
      },
      "grantRole(bytes32,address)": {
        "details": "Grants `role` to `account`. If `account` had not been already granted `role`, emits a {RoleGranted} event. Requirements: - the caller must have ``role``'s admin role."
      },
      "hasRole(bytes32,address)": {
        "details": "Returns `true` if `account` has been granted `role`."
      },
      "maxSupply(uint256)": {
        "details": "Returns the max quantity for a token ID",
        "params": {
          "_id": "uint256 ID of the token to query"
        },
        "returns": {
          "_0": "amount of token in existence"
        }
      },
      "mint(address,uint256,uint256,bytes)": {
        "details": "Mints some amount of tokens to an address",
        "params": {
          "_data": "Data to pass if receiver is contract",
          "_id": "Token ID to mint",
          "_quantity": "Amount of tokens to mint",
          "_to": "Address of the future owner of the token"
        }
      },
      "mintBatch(address,uint256[],uint256[],bytes)": {
        "details": "Mint tokens for each id in _ids",
        "params": {
          "_data": "Data to pass if receiver is contract",
          "_ids": "Array of ids to mint",
          "_quantities": "Array of amounts of tokens to mint per id",
          "_to": "The address to mint tokens to"
        }
      },
      "owner()": {
        "details": "Returns the address of the current owner."
      },
      "renounceOwnership()": {
        "details": "Leaves the contract without owner. It will not be possible to call `onlyOwner` functions anymore. Can only be called by the current owner. NOTE: Renouncing ownership will leave the contract without an owner, thereby removing any functionality that is only available to the owner."
      },
      "renounceRole(bytes32,address)": {
        "details": "Revokes `role` from the calling account. Roles are often managed via {grantRole} and {revokeRole}: this function's purpose is to provide a mechanism for accounts to lose their privileges if they are compromised (such as when a trusted device is misplaced). If the calling account had been revoked `role`, emits a {RoleRevoked} event. Requirements: - the caller must be `account`."
      },
      "reservedSupply(uint256)": {
        "details": "Returns the reserved quantity for a token ID",
        "params": {
          "_id": "uint256 ID of the token to query"
        },
        "returns": {
          "_0": "amount of token in existence"
        }
      },
      "revokeRole(bytes32,address)": {
        "details": "Revokes `role` from `account`. If `account` had been granted `role`, emits a {RoleRevoked} event. Requirements: - the caller must have ``role``'s admin role."
      },
      "safeBatchTransferFrom(address,address,uint256[],uint256[],bytes)": {
        "details": "See {IERC1155-safeBatchTransferFrom}."
      },
      "safeTransferFrom(address,address,uint256,uint256,bytes)": {
        "details": "See {IERC1155-safeTransferFrom}."
      },
      "setApprovalForAll(address,bool)": {
        "details": "See {IERC1155-setApprovalForAll}."
      },
      "setBaseMetadataURI(string)": {
        "details": "Will update the base URL of token's URI",
        "params": {
          "_newBaseMetadataURI": "New base URL of token's URI"
        }
      },
      "setProxyRegistryAddress(address)": {
        "details": "Will update the proxyRegistryAddress",
        "params": {
          "_newProxyRegistryAddress": "New proxyRegistryAddress"
        }
      },
      "setReservedSupply(uint256,uint256)": {
        "details": "Will update _reservedSupply for the given tokenID",
        "params": {
          "_id": "uint256 ID of the token to update",
          "_value": "uint256 amount"
        }
      },
      "supportsInterface(bytes4)": {
        "details": "See {IERC165-supportsInterface}."
      },
      "totalSupply(uint256)": {
        "details": "Returns the total quantity for a token ID",
        "params": {
          "_id": "uint256 ID of the token to query"
        },
        "returns": {
          "_0": "amount of token in existence"
        }
      },
      "transferOwnership(address)": {
        "details": "Transfers ownership of the contract to a new account (`newOwner`). Can only be called by the current owner."
      }
    },
    "version": 1
  },
  "userdoc": {
    "kind": "user",
    "methods": {
      "isApprovedForAll(address,address)": {
        "notice": "Override isApprovedForAll to whitelist user's OpenSea proxy accounts to enable gas-free listings."
      }
    },
    "version": 1
  },
  "storageLayout": {
    "storage": [
      {
        "astId": 24,
        "contract": "contracts/ERC1155/CryptoKombatConsumables.sol:CryptoKombatConsumables",
        "label": "_roles",
        "offset": 0,
        "slot": "0",
        "type": "t_mapping(t_bytes32,t_struct(RoleData)19_storage)"
      },
      {
        "astId": 550,
        "contract": "contracts/ERC1155/CryptoKombatConsumables.sol:CryptoKombatConsumables",
        "label": "_owner",
        "offset": 0,
        "slot": "1",
        "type": "t_address"
      },
      {
        "astId": 765,
        "contract": "contracts/ERC1155/CryptoKombatConsumables.sol:CryptoKombatConsumables",
        "label": "_balances",
        "offset": 0,
        "slot": "2",
        "type": "t_mapping(t_uint256,t_mapping(t_address,t_uint256))"
      },
      {
        "astId": 771,
        "contract": "contracts/ERC1155/CryptoKombatConsumables.sol:CryptoKombatConsumables",
        "label": "_operatorApprovals",
        "offset": 0,
        "slot": "3",
        "type": "t_mapping(t_address,t_mapping(t_address,t_bool))"
      },
      {
        "astId": 773,
        "contract": "contracts/ERC1155/CryptoKombatConsumables.sol:CryptoKombatConsumables",
        "label": "_uri",
        "offset": 0,
        "slot": "4",
        "type": "t_string_storage"
      },
      {
        "astId": 7344,
        "contract": "contracts/ERC1155/CryptoKombatConsumables.sol:CryptoKombatConsumables",
        "label": "baseMetadataURI",
        "offset": 0,
        "slot": "5",
        "type": "t_string_storage"
      },
      {
        "astId": 7346,
        "contract": "contracts/ERC1155/CryptoKombatConsumables.sol:CryptoKombatConsumables",
        "label": "proxyRegistryAddress",
        "offset": 0,
        "slot": "6",
        "type": "t_address"
      },
      {
        "astId": 7349,
        "contract": "contracts/ERC1155/CryptoKombatConsumables.sol:CryptoKombatConsumables",
        "label": "_currentTokenID",
        "offset": 0,
        "slot": "7",
        "type": "t_uint256"
      },
      {
        "astId": 7353,
        "contract": "contracts/ERC1155/CryptoKombatConsumables.sol:CryptoKombatConsumables",
        "label": "creators",
        "offset": 0,
        "slot": "8",
        "type": "t_mapping(t_uint256,t_address)"
      },
      {
        "astId": 7357,
        "contract": "contracts/ERC1155/CryptoKombatConsumables.sol:CryptoKombatConsumables",
        "label": "_totalSupply",
        "offset": 0,
        "slot": "9",
        "type": "t_mapping(t_uint256,t_uint256)"
      },
      {
        "astId": 7361,
        "contract": "contracts/ERC1155/CryptoKombatConsumables.sol:CryptoKombatConsumables",
        "label": "_maxSupply",
        "offset": 0,
        "slot": "10",
        "type": "t_mapping(t_uint256,t_uint256)"
      },
      {
        "astId": 7365,
        "contract": "contracts/ERC1155/CryptoKombatConsumables.sol:CryptoKombatConsumables",
        "label": "_reservedSupply",
        "offset": 0,
        "slot": "11",
        "type": "t_mapping(t_uint256,t_uint256)"
      },
      {
        "astId": 7369,
        "contract": "contracts/ERC1155/CryptoKombatConsumables.sol:CryptoKombatConsumables",
        "label": "_bridgedSupply",
        "offset": 0,
        "slot": "12",
        "type": "t_mapping(t_uint256,t_uint256)"
      },
      {
        "astId": 7371,
        "contract": "contracts/ERC1155/CryptoKombatConsumables.sol:CryptoKombatConsumables",
        "label": "name",
        "offset": 0,
        "slot": "13",
        "type": "t_string_storage"
      },
      {
        "astId": 7373,
        "contract": "contracts/ERC1155/CryptoKombatConsumables.sol:CryptoKombatConsumables",
        "label": "symbol",
        "offset": 0,
        "slot": "14",
        "type": "t_string_storage"
      }
    ],
    "types": {
      "t_address": {
        "encoding": "inplace",
        "label": "address",
        "numberOfBytes": "20"
      },
      "t_bool": {
        "encoding": "inplace",
        "label": "bool",
        "numberOfBytes": "1"
      },
      "t_bytes32": {
        "encoding": "inplace",
        "label": "bytes32",
        "numberOfBytes": "32"
      },
      "t_mapping(t_address,t_bool)": {
        "encoding": "mapping",
        "key": "t_address",
        "label": "mapping(address => bool)",
        "numberOfBytes": "32",
        "value": "t_bool"
      },
      "t_mapping(t_address,t_mapping(t_address,t_bool))": {
        "encoding": "mapping",
        "key": "t_address",
        "label": "mapping(address => mapping(address => bool))",
        "numberOfBytes": "32",
        "value": "t_mapping(t_address,t_bool)"
      },
      "t_mapping(t_address,t_uint256)": {
        "encoding": "mapping",
        "key": "t_address",
        "label": "mapping(address => uint256)",
        "numberOfBytes": "32",
        "value": "t_uint256"
      },
      "t_mapping(t_bytes32,t_struct(RoleData)19_storage)": {
        "encoding": "mapping",
        "key": "t_bytes32",
        "label": "mapping(bytes32 => struct AccessControl.RoleData)",
        "numberOfBytes": "32",
        "value": "t_struct(RoleData)19_storage"
      },
      "t_mapping(t_uint256,t_address)": {
        "encoding": "mapping",
        "key": "t_uint256",
        "label": "mapping(uint256 => address)",
        "numberOfBytes": "32",
        "value": "t_address"
      },
      "t_mapping(t_uint256,t_mapping(t_address,t_uint256))": {
        "encoding": "mapping",
        "key": "t_uint256",
        "label": "mapping(uint256 => mapping(address => uint256))",
        "numberOfBytes": "32",
        "value": "t_mapping(t_address,t_uint256)"
      },
      "t_mapping(t_uint256,t_uint256)": {
        "encoding": "mapping",
        "key": "t_uint256",
        "label": "mapping(uint256 => uint256)",
        "numberOfBytes": "32",
        "value": "t_uint256"
      },
      "t_string_storage": {
        "encoding": "bytes",
        "label": "string",
        "numberOfBytes": "32"
      },
      "t_struct(RoleData)19_storage": {
        "encoding": "inplace",
        "label": "struct AccessControl.RoleData",
        "members": [
          {
            "astId": 16,
            "contract": "contracts/ERC1155/CryptoKombatConsumables.sol:CryptoKombatConsumables",
            "label": "members",
            "offset": 0,
            "slot": "0",
            "type": "t_mapping(t_address,t_bool)"
          },
          {
            "astId": 18,
            "contract": "contracts/ERC1155/CryptoKombatConsumables.sol:CryptoKombatConsumables",
            "label": "adminRole",
            "offset": 0,
            "slot": "1",
            "type": "t_bytes32"
          }
        ],
        "numberOfBytes": "64"
      },
      "t_uint256": {
        "encoding": "inplace",
        "label": "uint256",
        "numberOfBytes": "32"
      }
    }
  }
}