{
  "address": "0xe1baEEA2F1005404E0a2dc04319cEB028BF8804E",
  "abi": [
    {
      "inputs": [
        {
          "internalType": "string",
          "name": "_baseUri",
          "type": "string"
        },
        {
          "internalType": "address",
          "name": "_proxyRegistryAddress",
          "type": "address"
        }
      ],
      "stateMutability": "nonpayable",
      "type": "constructor"
    },
    {
      "inputs": [],
      "name": "BridgeErrorBridgedOverflow",
      "type": "error"
    },
    {
      "inputs": [],
      "name": "BridgeErrorLengthMistmach",
      "type": "error"
    },
    {
      "inputs": [],
      "name": "BridgeErrorMaxUnderflow",
      "type": "error"
    },
    {
      "inputs": [],
      "name": "BridgeErrorNotApproved",
      "type": "error"
    },
    {
      "inputs": [
        {
          "internalType": "uint256",
          "name": "tokenId",
          "type": "uint256"
        }
      ],
      "name": "BridgeErrorNotExists",
      "type": "error"
    },
    {
      "inputs": [],
      "name": "BridgeErrorReservedUnderflow",
      "type": "error"
    },
    {
      "inputs": [],
      "name": "BridgeErrorTotalOverflow",
      "type": "error"
    },
    {
      "inputs": [],
      "name": "BridgeErrorZeroUser",
      "type": "error"
    },
    {
      "anonymous": false,
      "inputs": [
        {
          "indexed": true,
          "internalType": "address",
          "name": "account",
          "type": "address"
        },
        {
          "indexed": true,
          "internalType": "address",
          "name": "operator",
          "type": "address"
        },
        {
          "indexed": false,
          "internalType": "bool",
          "name": "approved",
          "type": "bool"
        }
      ],
      "name": "ApprovalForAll",
      "type": "event"
    },
    {
      "anonymous": false,
      "inputs": [
        {
          "indexed": true,
          "internalType": "address",
          "name": "previousOwner",
          "type": "address"
        },
        {
          "indexed": true,
          "internalType": "address",
          "name": "newOwner",
          "type": "address"
        }
      ],
      "name": "OwnershipTransferred",
      "type": "event"
    },
    {
      "anonymous": false,
      "inputs": [
        {
          "indexed": true,
          "internalType": "bytes32",
          "name": "role",
          "type": "bytes32"
        },
        {
          "indexed": true,
          "internalType": "bytes32",
          "name": "previousAdminRole",
          "type": "bytes32"
        },
        {
          "indexed": true,
          "internalType": "bytes32",
          "name": "newAdminRole",
          "type": "bytes32"
        }
      ],
      "name": "RoleAdminChanged",
      "type": "event"
    },
    {
      "anonymous": false,
      "inputs": [
        {
          "indexed": true,
          "internalType": "bytes32",
          "name": "role",
          "type": "bytes32"
        },
        {
          "indexed": true,
          "internalType": "address",
          "name": "account",
          "type": "address"
        },
        {
          "indexed": true,
          "internalType": "address",
          "name": "sender",
          "type": "address"
        }
      ],
      "name": "RoleGranted",
      "type": "event"
    },
    {
      "anonymous": false,
      "inputs": [
        {
          "indexed": true,
          "internalType": "bytes32",
          "name": "role",
          "type": "bytes32"
        },
        {
          "indexed": true,
          "internalType": "address",
          "name": "account",
          "type": "address"
        },
        {
          "indexed": true,
          "internalType": "address",
          "name": "sender",
          "type": "address"
        }
      ],
      "name": "RoleRevoked",
      "type": "event"
    },
    {
      "anonymous": false,
      "inputs": [
        {
          "indexed": true,
          "internalType": "address",
          "name": "operator",
          "type": "address"
        },
        {
          "indexed": true,
          "internalType": "address",
          "name": "from",
          "type": "address"
        },
        {
          "indexed": true,
          "internalType": "address",
          "name": "to",
          "type": "address"
        },
        {
          "indexed": false,
          "internalType": "uint256[]",
          "name": "ids",
          "type": "uint256[]"
        },
        {
          "indexed": false,
          "internalType": "uint256[]",
          "name": "values",
          "type": "uint256[]"
        }
      ],
      "name": "TransferBatch",
      "type": "event"
    },
    {
      "anonymous": false,
      "inputs": [
        {
          "indexed": true,
          "internalType": "address",
          "name": "operator",
          "type": "address"
        },
        {
          "indexed": true,
          "internalType": "address",
          "name": "from",
          "type": "address"
        },
        {
          "indexed": true,
          "internalType": "address",
          "name": "to",
          "type": "address"
        },
        {
          "indexed": false,
          "internalType": "uint256",
          "name": "id",
          "type": "uint256"
        },
        {
          "indexed": false,
          "internalType": "uint256",
          "name": "value",
          "type": "uint256"
        }
      ],
      "name": "TransferSingle",
      "type": "event"
    },
    {
      "anonymous": false,
      "inputs": [
        {
          "indexed": false,
          "internalType": "string",
          "name": "value",
          "type": "string"
        },
        {
          "indexed": true,
          "internalType": "uint256",
          "name": "id",
          "type": "uint256"
        }
      ],
      "name": "URI",
      "type": "event"
    },
    {
      "inputs": [],
      "name": "BRIDGE_ROLE",
      "outputs": [
        {
          "internalType": "bytes32",
          "name": "",
          "type": "bytes32"
        }
      ],
      "stateMutability": "view",
      "type": "function"
    },
    {
      "inputs": [],
      "name": "DEFAULT_ADMIN_ROLE",
      "outputs": [
        {
          "internalType": "bytes32",
          "name": "",
          "type": "bytes32"
        }
      ],
      "stateMutability": "view",
      "type": "function"
    },
    {
      "inputs": [],
      "name": "DOMAIN_SEPARATOR",
      "outputs": [
        {
          "internalType": "bytes32",
          "name": "",
          "type": "bytes32"
        }
      ],
      "stateMutability": "view",
      "type": "function"
    },
    {
      "inputs": [],
      "name": "MINTER_ROLE",
      "outputs": [
        {
          "internalType": "bytes32",
          "name": "",
          "type": "bytes32"
        }
      ],
      "stateMutability": "view",
      "type": "function"
    },
    {
      "inputs": [
        {
          "internalType": "address",
          "name": "account",
          "type": "address"
        },
        {
          "internalType": "uint256",
          "name": "id",
          "type": "uint256"
        }
      ],
      "name": "balanceOf",
      "outputs": [
        {
          "internalType": "uint256",
          "name": "",
          "type": "uint256"
        }
      ],
      "stateMutability": "view",
      "type": "function"
    },
    {
      "inputs": [
        {
          "internalType": "address[]",
          "name": "accounts",
          "type": "address[]"
        },
        {
          "internalType": "uint256[]",
          "name": "ids",
          "type": "uint256[]"
        }
      ],
      "name": "balanceOfBatch",
      "outputs": [
        {
          "internalType": "uint256[]",
          "name": "",
          "type": "uint256[]"
        }
      ],
      "stateMutability": "view",
      "type": "function"
    },
    {
      "inputs": [
        {
          "internalType": "uint256",
          "name": "_id",
          "type": "uint256"
        }
      ],
      "name": "bridgedSupply",
      "outputs": [
        {
          "internalType": "uint256",
          "name": "",
          "type": "uint256"
        }
      ],
      "stateMutability": "view",
      "type": "function"
    },
    {
      "inputs": [
        {
          "internalType": "address",
          "name": "_from",
          "type": "address"
        },
        {
          "internalType": "uint256",
          "name": "_id",
          "type": "uint256"
        },
        {
          "internalType": "uint256",
          "name": "_amount",
          "type": "uint256"
        }
      ],
      "name": "burn",
      "outputs": [],
      "stateMutability": "nonpayable",
      "type": "function"
    },
    {
      "inputs": [
        {
          "internalType": "address",
          "name": "_from",
          "type": "address"
        },
        {
          "internalType": "uint256[]",
          "name": "_ids",
          "type": "uint256[]"
        },
        {
          "internalType": "uint256[]",
          "name": "_amounts",
          "type": "uint256[]"
        }
      ],
      "name": "burnBatch",
      "outputs": [],
      "stateMutability": "nonpayable",
      "type": "function"
    },
    {
      "inputs": [
        {
          "internalType": "uint256",
          "name": "_max",
          "type": "uint256"
        },
        {
          "internalType": "uint256",
          "name": "_reserved",
          "type": "uint256"
        },
        {
          "internalType": "uint256",
          "name": "_initial",
          "type": "uint256"
        },
        {
          "internalType": "bytes",
          "name": "_data",
          "type": "bytes"
        }
      ],
      "name": "create",
      "outputs": [
        {
          "internalType": "uint256",
          "name": "tokenId",
          "type": "uint256"
        }
      ],
      "stateMutability": "nonpayable",
      "type": "function"
    },
    {
      "inputs": [
        {
          "internalType": "uint256[]",
          "name": "_maxs",
          "type": "uint256[]"
        },
        {
          "internalType": "uint256[]",
          "name": "_reserveds",
          "type": "uint256[]"
        },
        {
          "internalType": "uint256[]",
          "name": "_mints",
          "type": "uint256[]"
        },
        {
          "internalType": "bytes",
          "name": "_data",
          "type": "bytes"
        }
      ],
      "name": "createBatch",
      "outputs": [],
      "stateMutability": "nonpayable",
      "type": "function"
    },
    {
      "inputs": [
        {
          "internalType": "uint256",
          "name": "",
          "type": "uint256"
        }
      ],
      "name": "creators",
      "outputs": [
        {
          "internalType": "address",
          "name": "",
          "type": "address"
        }
      ],
      "stateMutability": "view",
      "type": "function"
    },
    {
      "inputs": [
        {
          "internalType": "uint256",
          "name": "_id",
          "type": "uint256"
        }
      ],
      "name": "exists",
      "outputs": [
        {
          "internalType": "bool",
          "name": "",
          "type": "bool"
        }
      ],
      "stateMutability": "view",
      "type": "function"
    },
    {
      "inputs": [
        {
          "internalType": "bytes32",
          "name": "role",
          "type": "bytes32"
        }
      ],
      "name": "getRoleAdmin",
      "outputs": [
        {
          "internalType": "bytes32",
          "name": "",
          "type": "bytes32"
        }
      ],
      "stateMutability": "view",
      "type": "function"
    },
    {
      "inputs": [
        {
          "internalType": "bytes32",
          "name": "role",
          "type": "bytes32"
        },
        {
          "internalType": "address",
          "name": "account",
          "type": "address"
        }
      ],
      "name": "grantRole",
      "outputs": [],
      "stateMutability": "nonpayable",
      "type": "function"
    },
    {
      "inputs": [
        {
          "internalType": "bytes32",
          "name": "role",
          "type": "bytes32"
        },
        {
          "internalType": "address",
          "name": "account",
          "type": "address"
        }
      ],
      "name": "hasRole",
      "outputs": [
        {
          "internalType": "bool",
          "name": "",
          "type": "bool"
        }
      ],
      "stateMutability": "view",
      "type": "function"
    },
    {
      "inputs": [
        {
          "internalType": "address",
          "name": "_owner",
          "type": "address"
        },
        {
          "internalType": "address",
          "name": "_operator",
          "type": "address"
        }
      ],
      "name": "isApprovedForAll",
      "outputs": [
        {
          "internalType": "bool",
          "name": "isOperator",
          "type": "bool"
        }
      ],
      "stateMutability": "view",
      "type": "function"
    },
    {
      "inputs": [
        {
          "internalType": "uint256",
          "name": "_id",
          "type": "uint256"
        }
      ],
      "name": "maxSupply",
      "outputs": [
        {
          "internalType": "uint256",
          "name": "",
          "type": "uint256"
        }
      ],
      "stateMutability": "view",
      "type": "function"
    },
    {
      "inputs": [
        {
          "internalType": "address",
          "name": "_to",
          "type": "address"
        },
        {
          "internalType": "uint256",
          "name": "_id",
          "type": "uint256"
        },
        {
          "internalType": "uint256",
          "name": "_amount",
          "type": "uint256"
        },
        {
          "internalType": "bytes",
          "name": "_data",
          "type": "bytes"
        }
      ],
      "name": "mint",
      "outputs": [],
      "stateMutability": "nonpayable",
      "type": "function"
    },
    {
      "inputs": [
        {
          "internalType": "address",
          "name": "_to",
          "type": "address"
        },
        {
          "internalType": "uint256[]",
          "name": "_ids",
          "type": "uint256[]"
        },
        {
          "internalType": "uint256[]",
          "name": "_amounts",
          "type": "uint256[]"
        },
        {
          "internalType": "bytes",
          "name": "_data",
          "type": "bytes"
        }
      ],
      "name": "mintBatch",
      "outputs": [],
      "stateMutability": "nonpayable",
      "type": "function"
    },
    {
      "inputs": [],
      "name": "name",
      "outputs": [
        {
          "internalType": "string",
          "name": "",
          "type": "string"
        }
      ],
      "stateMutability": "view",
      "type": "function"
    },
    {
      "inputs": [],
      "name": "owner",
      "outputs": [
        {
          "internalType": "address",
          "name": "",
          "type": "address"
        }
      ],
      "stateMutability": "view",
      "type": "function"
    },
    {
      "inputs": [],
      "name": "renounceOwnership",
      "outputs": [],
      "stateMutability": "nonpayable",
      "type": "function"
    },
    {
      "inputs": [
        {
          "internalType": "bytes32",
          "name": "role",
          "type": "bytes32"
        },
        {
          "internalType": "address",
          "name": "account",
          "type": "address"
        }
      ],
      "name": "renounceRole",
      "outputs": [],
      "stateMutability": "nonpayable",
      "type": "function"
    },
    {
      "inputs": [
        {
          "internalType": "uint256",
          "name": "_id",
          "type": "uint256"
        }
      ],
      "name": "reservedSupply",
      "outputs": [
        {
          "internalType": "uint256",
          "name": "",
          "type": "uint256"
        }
      ],
      "stateMutability": "view",
      "type": "function"
    },
    {
      "inputs": [
        {
          "internalType": "bytes32",
          "name": "role",
          "type": "bytes32"
        },
        {
          "internalType": "address",
          "name": "account",
          "type": "address"
        }
      ],
      "name": "revokeRole",
      "outputs": [],
      "stateMutability": "nonpayable",
      "type": "function"
    },
    {
      "inputs": [
        {
          "internalType": "address",
          "name": "from",
          "type": "address"
        },
        {
          "internalType": "address",
          "name": "to",
          "type": "address"
        },
        {
          "internalType": "uint256[]",
          "name": "ids",
          "type": "uint256[]"
        },
        {
          "internalType": "uint256[]",
          "name": "amounts",
          "type": "uint256[]"
        },
        {
          "internalType": "bytes",
          "name": "data",
          "type": "bytes"
        }
      ],
      "name": "safeBatchTransferFrom",
      "outputs": [],
      "stateMutability": "nonpayable",
      "type": "function"
    },
    {
      "inputs": [
        {
          "internalType": "address",
          "name": "from",
          "type": "address"
        },
        {
          "internalType": "address",
          "name": "to",
          "type": "address"
        },
        {
          "internalType": "uint256",
          "name": "id",
          "type": "uint256"
        },
        {
          "internalType": "uint256",
          "name": "amount",
          "type": "uint256"
        },
        {
          "internalType": "bytes",
          "name": "data",
          "type": "bytes"
        }
      ],
      "name": "safeTransferFrom",
      "outputs": [],
      "stateMutability": "nonpayable",
      "type": "function"
    },
    {
      "inputs": [
        {
          "internalType": "address",
          "name": "operator",
          "type": "address"
        },
        {
          "internalType": "bool",
          "name": "approved",
          "type": "bool"
        }
      ],
      "name": "setApprovalForAll",
      "outputs": [],
      "stateMutability": "nonpayable",
      "type": "function"
    },
    {
      "inputs": [
        {
          "internalType": "string",
          "name": "_newBaseMetadataURI",
          "type": "string"
        }
      ],
      "name": "setBaseMetadataURI",
      "outputs": [],
      "stateMutability": "nonpayable",
      "type": "function"
    },
    {
      "inputs": [
        {
          "internalType": "address",
          "name": "_newProxyRegistryAddress",
          "type": "address"
        }
      ],
      "name": "setProxyRegistryAddress",
      "outputs": [],
      "stateMutability": "nonpayable",
      "type": "function"
    },
    {
      "inputs": [
        {
          "internalType": "uint256",
          "name": "_id",
          "type": "uint256"
        },
        {
          "internalType": "uint256",
          "name": "_value",
          "type": "uint256"
        }
      ],
      "name": "setReservedSupply",
      "outputs": [],
      "stateMutability": "nonpayable",
      "type": "function"
    },
    {
      "inputs": [
        {
          "internalType": "bytes4",
          "name": "interfaceId",
          "type": "bytes4"
        }
      ],
      "name": "supportsInterface",
      "outputs": [
        {
          "internalType": "bool",
          "name": "",
          "type": "bool"
        }
      ],
      "stateMutability": "view",
      "type": "function"
    },
    {
      "inputs": [],
      "name": "symbol",
      "outputs": [
        {
          "internalType": "string",
          "name": "",
          "type": "string"
        }
      ],
      "stateMutability": "view",
      "type": "function"
    },
    {
      "inputs": [
        {
          "internalType": "uint256",
          "name": "_id",
          "type": "uint256"
        }
      ],
      "name": "totalSupply",
      "outputs": [
        {
          "internalType": "uint256",
          "name": "",
          "type": "uint256"
        }
      ],
      "stateMutability": "view",
      "type": "function"
    },
    {
      "inputs": [
        {
          "internalType": "address",
          "name": "newOwner",
          "type": "address"
        }
      ],
      "name": "transferOwnership",
      "outputs": [],
      "stateMutability": "nonpayable",
      "type": "function"
    },
    {
      "inputs": [
        {
          "internalType": "uint256",
          "name": "_id",
          "type": "uint256"
        }
      ],
      "name": "uri",
      "outputs": [
        {
          "internalType": "string",
          "name": "",
          "type": "string"
        }
      ],
      "stateMutability": "view",
      "type": "function"
    }
  ],
  "transactionHash": "0x0fb27de9f13a87dbc359cc97de9142df25690b9fe140443603d1c02db06f741c",
  "args": [
    "https://api-staging.cryptokombat.com/hero/",
    "0x207Fa8Df3a17D96Ca7EA4f2893fcdCb78a304101"
  ],
  "numDeployments": 2,
  "solcInputHash": "c3b1c64e82b725076bcae4542f31cfcd",
  "bytecode": "0x61014060405260006007553480156200001757600080fd5b50604051620044bb380380620044bb8339810160408190526200003a916200048e565b6040518060600160405280602181526020016200449a6021913960405180604001604052806004815260200163434b434560e01b81525083838383838383604051806040016040528060018152602001603160f81b81525085858460405180602001604052806000815250620000bf620000b96200020c60201b60201c565b62000228565b620000ca816200027a565b50620000e16000620000db6200020c565b62000293565b620001107f9f2df0fed2c77648de5860a4cc508cd0818c85b8b8a1ab4ceeef8d981c8956a6620000db6200020c565b82516200012590600d906020860190620003b5565b5081516200013b90600e906020850190620003b5565b50600680546001600160a01b0319166001600160a01b03929092169190911790555050815160208084019190912082518383012060e08290526101008190524660a0818152604080517f8b73c3c69bb8fe3d512ecc4cf759cc79239f7b179b0ffacaa9a75d522b39400f81880181905281830187905260608201869052608082019490945230818401528151808203909301835260c00190528051940193909320919290916080523060c0526101205250620001fc9250849150506200029f565b50505050505050505050620005bc565b600062000223620002b460201b6200157e1760201c565b905090565b600180546001600160a01b038381166001600160a01b0319831681179093556040519116919082907f8be0079c531659141344cd1fd0a4f28419497f9722a3daafe3b4186f6b6457e090600090a35050565b80516200028f906004906020840190620003b5565b5050565b6200028f828262000313565b80516200028f906005906020840190620003b5565b6000333014156200030d57600080368080601f0160208091040260200160405190810160405280939291908181526020018383808284376000920191909152505050503601516001600160a01b03169150620003109050565b50335b90565b6000828152602081815260408083206001600160a01b038516845290915290205460ff166200028f576000828152602081815260408083206001600160a01b03851684529091529020805460ff19166001179055620003716200020c565b6001600160a01b0316816001600160a01b0316837f2f8788117e7eff1d82e926ec794901d17c78024a50270940304540a733656f0d60405160405180910390a45050565b828054620003c3906200057f565b90600052602060002090601f016020900481019282620003e7576000855562000432565b82601f106200040257805160ff191683800117855562000432565b8280016001018555821562000432579182015b828111156200043257825182559160200191906001019062000415565b506200044092915062000444565b5090565b5b8082111562000440576000815560010162000445565b634e487b7160e01b600052604160045260246000fd5b80516001600160a01b03811681146200048957600080fd5b919050565b60008060408385031215620004a257600080fd5b82516001600160401b0380821115620004ba57600080fd5b818501915085601f830112620004cf57600080fd5b815181811115620004e457620004e46200045b565b604051601f8201601f19908116603f011681019083821181831017156200050f576200050f6200045b565b816040528281526020935088848487010111156200052c57600080fd5b600091505b8282101562000550578482018401518183018501529083019062000531565b82821115620005625760008484830101525b95506200057491505085820162000471565b925050509250929050565b600181811c908216806200059457607f821691505b60208210811415620005b657634e487b7160e01b600052602260045260246000fd5b50919050565b60805160a05160c05160e0516101005161012051613e8e6200060c6000396000611e9c01526000611eeb01526000611ec601526000611e1f01526000611e4901526000611e730152613e8e6000f3fe608060405234801561001057600080fd5b50600436106102265760003560e01c8063869f759411610130578063bd85b039116100b8578063e985e9c51161007c578063e985e9c514610508578063f242432a1461051b578063f2fde38b1461052e578063f5298aca14610541578063faf929ec1461055457600080fd5b8063bd85b03914610472578063cd53d08e14610492578063d26ea6c0146104bb578063d5391393146104ce578063d547741f146104f557600080fd5b8063a217fddf116100ff578063a217fddf1461040f578063a22cb46514610417578063a628b2b61461042a578063b062dfce1461044a578063b5bfddea1461045d57600080fd5b8063869f7594146103af5780638da5cb5b146103cf57806391d14854146103f457806395d89b411461040757600080fd5b80633644e515116101b35780635487069311610182578063548706931461035b5780636b20c4541461036e578063715018a614610381578063731133e9146103895780637e518ec81461039c57600080fd5b80633644e5151461030d57806336568abe146103155780634e1273f4146103285780634f558e791461034857600080fd5b80631ab0dd77116101fa5780631ab0dd771461029c5780631f7fdffa146102af578063248a9ca3146102c45780632eb2c2d6146102e75780632f2ff15d146102fa57600080fd5b8062fdd58e1461022b57806301ffc9a71461025157806306fdde03146102745780630e89341c14610289575b600080fd5b61023e610239366004612ea7565b610574565b6040519081526020015b60405180910390f35b61026461025f366004612ee9565b610610565b6040519015158152602001610248565b61027c61061b565b6040516102489190612f5e565b61027c610297366004612f71565b6106a9565b61023e6102aa366004613049565b61073d565b6102c26102bd366004613136565b61084e565b005b61023e6102d2366004612f71565b60009081526020819052604090206001015490565b6102c26102f53660046131c4565b610953565b6102c2610308366004613271565b6109fc565b61023e610a26565b6102c2610323366004613271565b610a35565b61033b6103363660046132a1565b610ac3565b60405161024891906133a8565b610264610356366004612f71565b610bec565b6102c26103693660046133bb565b610bf7565b6102c261037c36600461340a565b610e9d565b6102c2610f9d565b6102c261039736600461347f565b611022565b6102c26103aa3660046134c9565b6110b3565b61023e6103bd366004612f71565b6000908152600a602052604090205490565b6001546001600160a01b03165b6040516001600160a01b039091168152602001610248565b610264610402366004613271565b61111c565b61027c611145565b61023e600081565b6102c2610425366004613511565b611152565b61023e610438366004612f71565b6000908152600b602052604090205490565b6102c2610458366004613544565b611164565b61023e600080516020613e3983398151915281565b61023e610480366004612f71565b60009081526009602052604090205490565b6103dc6104a0366004612f71565b6008602052600090815260409020546001600160a01b031681565b6102c26104c9366004613566565b6111f8565b61023e7f9f2df0fed2c77648de5860a4cc508cd0818c85b8b8a1ab4ceeef8d981c8956a681565b6102c2610503366004613271565b611277565b610264610516366004613583565b61129c565b6102c26105293660046135b1565b61136c565b6102c261053c366004613566565b611405565b6102c261054f366004613619565b6114ec565b61023e610562366004612f71565b6000908152600c602052604090205490565b60006001600160a01b0383166105e55760405162461bcd60e51b815260206004820152602b60248201527f455243313135353a2062616c616e636520717565727920666f7220746865207a60448201526a65726f206164647265737360a81b60648201526084015b60405180910390fd5b5060008181526002602090815260408083206001600160a01b03861684529091529020545b92915050565b600061060a826115db565b600d80546106289061364e565b80601f01602080910402602001604051908101604052809291908181526020018280546106549061364e565b80156106a15780601f10610676576101008083540402835291602001916106a1565b820191906000526020600020905b81548152906001019060200180831161068457829003601f168201915b505050505081565b60606106b48261161b565b61070b5760405162461bcd60e51b815260206004820152602260248201527f455243313135355472616461626c653a20746f6b656e206d7573742065786973604482015261747360f01b60648201526084016105dc565b600561071683611638565b6040516020016107279291906136a5565b6040516020818303038152906040529050919050565b600061074b81610402611735565b8061077f5750610759611735565b6001600160a01b03166107746001546001600160a01b031690565b6001600160a01b0316145b61079b5760405162461bcd60e51b81526004016105dc90613743565b846107a684866137a7565b11156107c45760405162461bcd60e51b81526004016105dc906137bf565b60006107ce61173f565b90506107d8611750565b6107e0611735565b600082815260086020908152604080832080546001600160a01b0319166001600160a01b03959095169490941790935560098152828220879055600a8152828220899055600b90522085905583156108455761084561083d611735565b828686611767565b95945050505050565b610868600080516020613e39833981519152610402611735565b156109415761087684611854565b610880838361187b565b60005b835181101561092f5760008482815181106108a0576108a061381c565b6020026020010151905060008483815181106108be576108be61381c565b602002602001015190506108d2828261189d565b600082815260096020526040812080548392906108f09084906137a7565b90915550506000828152600c6020526040812080548392906109139084906137a7565b925050819055505050808061092790613832565b915050610883565b5061093c84848484611936565b61094d565b61094d84848484611a9c565b50505050565b61095b611735565b6001600160a01b0316856001600160a01b03161480610981575061098185610516611735565b6109e85760405162461bcd60e51b815260206004820152603260248201527f455243313135353a207472616e736665722063616c6c6572206973206e6f74206044820152711bdddb995c881b9bdc88185c1c1c9bdd995960721b60648201526084016105dc565b6109f58585858585611bc4565b5050505050565b600082815260208190526040902060010154610a1781611d7c565b610a218383611d8d565b505050565b6000610a30611e12565b905090565b610a3d611735565b6001600160a01b0316816001600160a01b031614610ab55760405162461bcd60e51b815260206004820152602f60248201527f416363657373436f6e74726f6c3a2063616e206f6e6c792072656e6f756e636560448201526e103937b632b9903337b91039b2b63360891b60648201526084016105dc565b610abf8282611f39565b5050565b60608151835114610b285760405162461bcd60e51b815260206004820152602960248201527f455243313135353a206163636f756e747320616e6420696473206c656e677468604482015268040dad2e6dac2e8c6d60bb1b60648201526084016105dc565b600083516001600160401b03811115610b4357610b43612f8a565b604051908082528060200260200182016040528015610b6c578160200160208202803683370190505b50905060005b8451811015610be457610bb7858281518110610b9057610b9061381c565b6020026020010151858381518110610baa57610baa61381c565b6020026020010151610574565b828281518110610bc957610bc961381c565b6020908102919091010152610bdd81613832565b9050610b72565b509392505050565b600061060a8261161b565b610c046000610402611735565b80610c385750610c12611735565b6001600160a01b0316610c2d6001546001600160a01b031690565b6001600160a01b0316145b610c545760405162461bcd60e51b81526004016105dc90613743565b82518451148015610c66575081518451145b610c825760405162461bcd60e51b81526004016105dc9061384d565b600084516001600160401b03811115610c9d57610c9d612f8a565b604051908082528060200260200182016040528015610cc6578160200160208202803683370190505b509050600085516001600160401b03811115610ce457610ce4612f8a565b604051908082528060200260200182016040528015610d0d578160200160208202803683370190505b5090506000805b8751811015610e7a576000888281518110610d3157610d3161381c565b602002602001015190506000888381518110610d4f57610d4f61381c565b602002602001015190506000888481518110610d6d57610d6d61381c565b60200260200101519050828183610d8491906137a7565b1115610da25760405162461bcd60e51b81526004016105dc906137bf565b6000610dac61173f565b9050610db6611750565b610dbe611735565b600082815260086020908152604080832080546001600160a01b0319166001600160a01b03959095169490941790935560098152828220859055600a8152828220879055600b90522083905587518190899087908110610e2057610e2061381c565b60200260200101818152505081878681518110610e3f57610e3f61381c565b602002602001018181525050600082118015610e59575085155b15610e6357600195505b505050508080610e7290613832565b915050610d14565b508015610e9457610e94610e8c611735565b848487611936565b50505050505050565b610eb7600080516020613e39833981519152610402611735565b15610f9257610ecd83610ec8611735565b611fbc565b610ed7828261187b565b60005b8251811015610f86576000838281518110610ef757610ef761381c565b602002602001015190506000838381518110610f1557610f1561381c565b60200260200101519050610f298282611fe3565b60008281526009602052604081208054839290610f47908490613894565b90915550506000828152600c602052604081208054839290610f6a908490613894565b9250508190555050508080610f7e90613832565b915050610eda565b50610a2183838361204a565b610a218383836121f0565b610fa5611735565b6001600160a01b0316610fc06001546001600160a01b031690565b6001600160a01b0316146110165760405162461bcd60e51b815260206004820181905260248201527f4f776e61626c653a2063616c6c6572206973206e6f7420746865206f776e657260448201526064016105dc565b61102060006122e7565b565b61103c600080516020613e39833981519152610402611735565b156110a75761104a84611854565b611054838361189d565b600083815260096020526040812080548492906110729084906137a7565b90915550506000838152600c6020526040812080548492906110959084906137a7565b9091555061093c905084848484611767565b61094d84848484612339565b6110c06000610402611735565b806110f457506110ce611735565b6001600160a01b03166110e96001546001600160a01b031690565b6001600160a01b0316145b6111105760405162461bcd60e51b81526004016105dc90613743565b611119816123e1565b50565b6000918252602082815260408084206001600160a01b0393909316845291905290205460ff1690565b600e80546106289061364e565b610abf61115d611735565b83836123f4565b6111716000610402611735565b806111a5575061117f611735565b6001600160a01b031661119a6001546001600160a01b031690565b6001600160a01b0316145b6111c15760405162461bcd60e51b81526004016105dc90613743565b6111ca8261161b565b6111e65760405162461bcd60e51b81526004016105dc906138ab565b6000918252600b602052604090912055565b6112056000610402611735565b806112395750611213611735565b6001600160a01b031661122e6001546001600160a01b031690565b6001600160a01b0316145b6112555760405162461bcd60e51b81526004016105dc90613743565b600680546001600160a01b0319166001600160a01b0392909216919091179055565b60008281526020819052604090206001015461129281611d7c565b610a218383611f39565b60065460405163c455279160e01b81526001600160a01b03848116600483015260009281169190841690829063c45527919060240160206040518083038186803b1580156112e957600080fd5b505afa1580156112fd573d6000803e3d6000fd5b505050506040513d601f19601f8201168201806040525081019061132191906138e2565b6001600160a01b0316141561133a57600191505061060a565b6001600160a01b0380851660009081526003602090815260408083209387168352929052205460ff165b949350505050565b611374611735565b6001600160a01b0316856001600160a01b0316148061139a575061139a85610516611735565b6113f85760405162461bcd60e51b815260206004820152602960248201527f455243313135353a2063616c6c6572206973206e6f74206f776e6572206e6f7260448201526808185c1c1c9bdd995960ba1b60648201526084016105dc565b6109f585858585856124d5565b61140d611735565b6001600160a01b03166114286001546001600160a01b031690565b6001600160a01b03161461147e5760405162461bcd60e51b815260206004820181905260248201527f4f776e61626c653a2063616c6c6572206973206e6f7420746865206f776e657260448201526064016105dc565b6001600160a01b0381166114e35760405162461bcd60e51b815260206004820152602660248201527f4f776e61626c653a206e6577206f776e657220697320746865207a65726f206160448201526564647265737360d01b60648201526084016105dc565b611119816122e7565b611506600080516020613e39833981519152610402611735565b156115735761151783610ec8611735565b6115218282611fe3565b6000828152600960205260408120805483929061153f908490613894565b90915550506000828152600c602052604081208054839290611562908490613894565b90915550610a21905083838361261c565b610a21838383612743565b6000333014156115d557600080368080601f0160208091040260200160405190810160405280939291908181526020018383808284376000920191909152505050503601516001600160a01b031691506115d89050565b50335b90565b60006001600160e01b03198216636cdb3d1360e11b148061160c57506001600160e01b031982166303a24d0760e21b145b8061060a575061060a826127b5565b6000908152600860205260409020546001600160a01b0316151590565b60608161165c5750506040805180820190915260018152600360fc1b602082015290565b8160005b8115611686578061167081613832565b915061167f9050600a83613915565b9150611660565b6000816001600160401b038111156116a0576116a0612f8a565b6040519080825280601f01601f1916602001820160405280156116ca576020820181803683370190505b5090505b8415611364576116df600183613894565b91506116ec600a86613929565b6116f79060306137a7565b60f81b81838151811061170c5761170c61381c565b60200101906001600160f81b031916908160001a90535061172e600a86613915565b94506116ce565b6000610a3061157e565b60006007546001610a3091906137a7565b6007805490600061176083613832565b9190505550565b6001600160a01b03841661178d5760405162461bcd60e51b81526004016105dc9061393d565b6000611797611735565b905060006117a4856127ea565b905060006117b1856127ea565b90506117c283600089858589612835565b60008681526002602090815260408083206001600160a01b038b168452909152812080548792906117f49084906137a7565b909155505060408051878152602081018790526001600160a01b03808a1692600092918716917fc3d58168c5ae7397731d063d5bbf3d657854427343f4c083240f7aacaa2d0f62910160405180910390a4610e948360008989898961283a565b6001600160a01b03811661111957604051633457abc960e21b815260040160405180910390fd5b8051825114610abf576040516304de9f0b60e11b815260040160405180910390fd5b6118a6826129a5565b6000828152600960205260409020546118c09082906137a7565b6000838152600a602052604090205410156118ee576040516318e9ef4160e01b815260040160405180910390fd5b6000828152600c60205260409020546119089082906137a7565b6000838152600b60205260409020541015610abf57604051631a3d493d60e21b815260040160405180910390fd5b6001600160a01b03841661195c5760405162461bcd60e51b81526004016105dc9061393d565b815183511461197d5760405162461bcd60e51b81526004016105dc9061397e565b6000611987611735565b905061199881600087878787612835565b60005b8451811015611a34578381815181106119b6576119b661381c565b6020026020010151600260008784815181106119d4576119d461381c565b602002602001015181526020019081526020016000206000886001600160a01b03166001600160a01b031681526020019081526020016000206000828254611a1c91906137a7565b90915550819050611a2c81613832565b91505061199b565b50846001600160a01b031660006001600160a01b0316826001600160a01b03167f4a39dc06d4c0dbc64b70af90fd698a233a518aa5d07e595d983b8c0526c8f7fb8787604051611a859291906139c6565b60405180910390a46109f5816000878787876129ce565b611ac87f9f2df0fed2c77648de5860a4cc508cd0818c85b8b8a1ab4ceeef8d981c8956a6610402611735565b611ae45760405162461bcd60e51b81526004016105dc906139eb565b6001600160a01b038416611b0a5760405162461bcd60e51b81526004016105dc90613a31565b8151835114611b2b5760405162461bcd60e51b81526004016105dc9061384d565b60005b8351811015611bb7576000848281518110611b4b57611b4b61381c565b602002602001015190506000848381518110611b6957611b6961381c565b60200260200101519050611b7d8282612a98565b60008281526009602052604081208054839290611b9b9084906137a7565b9250508190555050508080611baf90613832565b915050611b2e565b5061094d84848484611936565b8151835114611be55760405162461bcd60e51b81526004016105dc9061397e565b6001600160a01b038416611c0b5760405162461bcd60e51b81526004016105dc90613a7a565b6000611c15611735565b9050611c25818787878787612835565b60005b8451811015611d0e576000858281518110611c4557611c4561381c565b602002602001015190506000858381518110611c6357611c6361381c565b60209081029190910181015160008481526002835260408082206001600160a01b038e168352909352919091205490915081811015611cb45760405162461bcd60e51b81526004016105dc90613abf565b60008381526002602090815260408083206001600160a01b038e8116855292528083208585039055908b16825281208054849290611cf39084906137a7565b9250508190555050505080611d0790613832565b9050611c28565b50846001600160a01b0316866001600160a01b0316826001600160a01b03167f4a39dc06d4c0dbc64b70af90fd698a233a518aa5d07e595d983b8c0526c8f7fb8787604051611d5e9291906139c6565b60405180910390a4611d748187878787876129ce565b505050505050565b61111981611d88611735565b612b1a565b611d97828261111c565b610abf576000828152602081815260408083206001600160a01b03851684529091529020805460ff19166001179055611dce611735565b6001600160a01b0316816001600160a01b0316837f2f8788117e7eff1d82e926ec794901d17c78024a50270940304540a733656f0d60405160405180910390a45050565b6000306001600160a01b037f000000000000000000000000000000000000000000000000000000000000000016148015611e6b57507f000000000000000000000000000000000000000000000000000000000000000046145b15611e9557507f000000000000000000000000000000000000000000000000000000000000000090565b50604080517f00000000000000000000000000000000000000000000000000000000000000006020808301919091527f0000000000000000000000000000000000000000000000000000000000000000828401527f000000000000000000000000000000000000000000000000000000000000000060608301524660808301523060a0808401919091528351808403909101815260c0909201909252805191012090565b611f43828261111c565b15610abf576000828152602081815260408083206001600160a01b03851684529091529020805460ff19169055611f78611735565b6001600160a01b0316816001600160a01b0316837ff6391f5c32d9c69d2a47ea670b442974b53935d1edc7fd64eb21e047a839171b60405160405180910390a45050565b611fc6828261129c565b610abf576040516336e3bc8960e01b815260040160405180910390fd5b611fec826129a5565b60008281526009602052604090205481111561201b5760405163369196d760e21b815260040160405180910390fd5b6000828152600c6020526040902054811115610abf5760405163f04e2aad60e01b815260040160405180910390fd5b6001600160a01b0383166120705760405162461bcd60e51b81526004016105dc90613b09565b80518251146120915760405162461bcd60e51b81526004016105dc9061397e565b600061209b611735565b90506120bb81856000868660405180602001604052806000815250612835565b60005b83518110156121835760008482815181106120db576120db61381c565b6020026020010151905060008483815181106120f9576120f961381c565b60209081029190910181015160008481526002835260408082206001600160a01b038c16835290935291909120549091508181101561214a5760405162461bcd60e51b81526004016105dc90613b4c565b60009283526002602090815260408085206001600160a01b038b168652909152909220910390558061217b81613832565b9150506120be565b5060006001600160a01b0316846001600160a01b0316826001600160a01b03167f4a39dc06d4c0dbc64b70af90fd698a233a518aa5d07e595d983b8c0526c8f7fb86866040516121d49291906139c6565b60405180910390a460408051602081019091526000905261094d565b6121f8611735565b6001600160a01b0316836001600160a01b0316148061221e575061221e83610516611735565b61223a5760405162461bcd60e51b81526004016105dc90613b90565b805182511461225b5760405162461bcd60e51b81526004016105dc9061384d565b60005b8251811015610f8657600083828151811061227b5761227b61381c565b6020026020010151905060008383815181106122995761229961381c565b602002602001015190506122ad8282612b7e565b600082815260096020526040812080548392906122cb908490613894565b92505081905550505080806122df90613832565b91505061225e565b600180546001600160a01b038381166001600160a01b0319831681179093556040519116919082907f8be0079c531659141344cd1fd0a4f28419497f9722a3daafe3b4186f6b6457e090600090a35050565b6123657f9f2df0fed2c77648de5860a4cc508cd0818c85b8b8a1ab4ceeef8d981c8956a6610402611735565b6123815760405162461bcd60e51b81526004016105dc906139eb565b6001600160a01b0384166123a75760405162461bcd60e51b81526004016105dc90613a31565b6123b18383612a98565b600083815260096020526040812080548492906123cf9084906137a7565b9091555061094d905084848484611767565b8051610abf906005906020840190612df9565b816001600160a01b0316836001600160a01b031614156124685760405162461bcd60e51b815260206004820152602960248201527f455243313135353a2073657474696e6720617070726f76616c20737461747573604482015268103337b91039b2b63360b91b60648201526084016105dc565b6001600160a01b03838116600081815260036020908152604080832094871680845294825291829020805460ff191686151590811790915591519182527f17307eab39ab6107e8899845ad3d59bd9653f200f220920489ca2b5937696c31910160405180910390a3505050565b6001600160a01b0384166124fb5760405162461bcd60e51b81526004016105dc90613a7a565b6000612505611735565b90506000612512856127ea565b9050600061251f856127ea565b905061252f838989858589612835565b60008681526002602090815260408083206001600160a01b038c168452909152902054858110156125725760405162461bcd60e51b81526004016105dc90613abf565b60008781526002602090815260408083206001600160a01b038d8116855292528083208985039055908a168252812080548892906125b19084906137a7565b909155505060408051888152602081018890526001600160a01b03808b16928c821692918816917fc3d58168c5ae7397731d063d5bbf3d657854427343f4c083240f7aacaa2d0f62910160405180910390a4612611848a8a8a8a8a61283a565b505050505050505050565b6001600160a01b0383166126425760405162461bcd60e51b81526004016105dc90613b09565b600061264c611735565b90506000612659846127ea565b90506000612666846127ea565b905061268683876000858560405180602001604052806000815250612835565b60008581526002602090815260408083206001600160a01b038a168452909152902054848110156126c95760405162461bcd60e51b81526004016105dc90613b4c565b60008681526002602090815260408083206001600160a01b038b81168086529184528285208a8703905582518b81529384018a90529092908816917fc3d58168c5ae7397731d063d5bbf3d657854427343f4c083240f7aacaa2d0f62910160405180910390a4604080516020810190915260009052610e94565b61274b611735565b6001600160a01b0316836001600160a01b03161480612771575061277183610516611735565b61278d5760405162461bcd60e51b81526004016105dc90613b90565b6127978282612b7e565b60008281526009602052604081208054839290611562908490613894565b60006001600160e01b03198216637965db0b60e01b148061060a57506301ffc9a760e01b6001600160e01b031983161461060a565b604080516001808252818301909252606091600091906020808301908036833701905050905082816000815181106128245761282461381c565b602090810291909101015292915050565b611d74565b6001600160a01b0384163b15611d745760405163f23a6e6160e01b81526001600160a01b0385169063f23a6e619061287e9089908990889088908890600401613be1565b602060405180830381600087803b15801561289857600080fd5b505af19250505080156128c8575060408051601f3d908101601f191682019092526128c591810190613c26565b60015b612975576128d4613c43565b806308c379a0141561290e57506128e9613c5e565b806128f45750612910565b8060405162461bcd60e51b81526004016105dc9190612f5e565b505b60405162461bcd60e51b815260206004820152603460248201527f455243313135353a207472616e7366657220746f206e6f6e20455243313135356044820152732932b1b2b4bb32b91034b6b83632b6b2b73a32b960611b60648201526084016105dc565b6001600160e01b0319811663f23a6e6160e01b14610e945760405162461bcd60e51b81526004016105dc90613ce7565b6129ae8161161b565b6111195760405163388d27a960e01b8152600481018290526024016105dc565b6001600160a01b0384163b15611d745760405163bc197c8160e01b81526001600160a01b0385169063bc197c8190612a129089908990889088908890600401613d2f565b602060405180830381600087803b158015612a2c57600080fd5b505af1925050508015612a5c575060408051601f3d908101601f19168201909252612a5991810190613c26565b60015b612a68576128d4613c43565b6001600160e01b0319811663bc197c8160e01b14610e945760405162461bcd60e51b81526004016105dc90613ce7565b612aa18261161b565b612abd5760405162461bcd60e51b81526004016105dc906138ab565b6000612ac883612c01565b905081811015610a215760405162461bcd60e51b815260206004820152601a60248201527f455243313135355472616461626c653a20216d696e7461626c6500000000000060448201526064016105dc565b612b24828261111c565b610abf57612b3c816001600160a01b03166014612c57565b612b47836020612c57565b604051602001612b58929190613d8d565b60408051601f198184030181529082905262461bcd60e51b82526105dc91600401612f5e565b612b878261161b565b612ba35760405162461bcd60e51b81526004016105dc906138ab565b600082815260096020526040902054811115610abf5760405162461bcd60e51b815260206004820152601a60248201527f455243313135355472616461626c653a20216275726e61626c6500000000000060448201526064016105dc565b600081815260096020908152604080832054600b835281842054600c845282852054600a90945291842054909290612c398285613894565b612c438483613894565b612c4d9190613894565b9695505050505050565b60606000612c66836002613e02565b612c719060026137a7565b6001600160401b03811115612c8857612c88612f8a565b6040519080825280601f01601f191660200182016040528015612cb2576020820181803683370190505b509050600360fc1b81600081518110612ccd57612ccd61381c565b60200101906001600160f81b031916908160001a905350600f60fb1b81600181518110612cfc57612cfc61381c565b60200101906001600160f81b031916908160001a9053506000612d20846002613e02565b612d2b9060016137a7565b90505b6001811115612da3576f181899199a1a9b1b9c1cb0b131b232b360811b85600f1660108110612d5f57612d5f61381c565b1a60f81b828281518110612d7557612d7561381c565b60200101906001600160f81b031916908160001a90535060049490941c93612d9c81613e21565b9050612d2e565b508315612df25760405162461bcd60e51b815260206004820181905260248201527f537472696e67733a20686578206c656e67746820696e73756666696369656e7460448201526064016105dc565b9392505050565b828054612e059061364e565b90600052602060002090601f016020900481019282612e275760008555612e6d565b82601f10612e4057805160ff1916838001178555612e6d565b82800160010185558215612e6d579182015b82811115612e6d578251825591602001919060010190612e52565b50612e79929150612e7d565b5090565b5b80821115612e795760008155600101612e7e565b6001600160a01b038116811461111957600080fd5b60008060408385031215612eba57600080fd5b8235612ec581612e92565b946020939093013593505050565b6001600160e01b03198116811461111957600080fd5b600060208284031215612efb57600080fd5b8135612df281612ed3565b60005b83811015612f21578181015183820152602001612f09565b8381111561094d5750506000910152565b60008151808452612f4a816020860160208601612f06565b601f01601f19169290920160200192915050565b602081526000612df26020830184612f32565b600060208284031215612f8357600080fd5b5035919050565b634e487b7160e01b600052604160045260246000fd5b601f8201601f191681016001600160401b0381118282101715612fc557612fc5612f8a565b6040525050565b60006001600160401b03831115612fe557612fe5612f8a565b604051612ffc601f8501601f191660200182612fa0565b80915083815284848401111561301157600080fd5b83836020830137600060208583010152509392505050565b600082601f83011261303a57600080fd5b612df283833560208501612fcc565b6000806000806080858703121561305f57600080fd5b84359350602085013592506040850135915060608501356001600160401b0381111561308a57600080fd5b61309687828801613029565b91505092959194509250565b60006001600160401b038211156130bb576130bb612f8a565b5060051b60200190565b600082601f8301126130d657600080fd5b813560206130e3826130a2565b6040516130f08282612fa0565b83815260059390931b850182019282810191508684111561311057600080fd5b8286015b8481101561312b5780358352918301918301613114565b509695505050505050565b6000806000806080858703121561314c57600080fd5b843561315781612e92565b935060208501356001600160401b038082111561317357600080fd5b61317f888389016130c5565b9450604087013591508082111561319557600080fd5b6131a1888389016130c5565b935060608701359150808211156131b757600080fd5b5061309687828801613029565b600080600080600060a086880312156131dc57600080fd5b85356131e781612e92565b945060208601356131f781612e92565b935060408601356001600160401b038082111561321357600080fd5b61321f89838a016130c5565b9450606088013591508082111561323557600080fd5b61324189838a016130c5565b9350608088013591508082111561325757600080fd5b5061326488828901613029565b9150509295509295909350565b6000806040838503121561328457600080fd5b82359150602083013561329681612e92565b809150509250929050565b600080604083850312156132b457600080fd5b82356001600160401b03808211156132cb57600080fd5b818501915085601f8301126132df57600080fd5b813560206132ec826130a2565b6040516132f98282612fa0565b83815260059390931b850182019282810191508984111561331957600080fd5b948201945b8386101561334057853561333181612e92565b8252948201949082019061331e565b9650508601359250508082111561335657600080fd5b50613363858286016130c5565b9150509250929050565b600081518084526020808501945080840160005b8381101561339d57815187529582019590820190600101613381565b509495945050505050565b602081526000612df2602083018461336d565b600080600080608085870312156133d157600080fd5b84356001600160401b03808211156133e857600080fd5b6133f4888389016130c5565b9550602087013591508082111561317357600080fd5b60008060006060848603121561341f57600080fd5b833561342a81612e92565b925060208401356001600160401b038082111561344657600080fd5b613452878388016130c5565b9350604086013591508082111561346857600080fd5b50613475868287016130c5565b9150509250925092565b6000806000806080858703121561349557600080fd5b84356134a081612e92565b9350602085013592506040850135915060608501356001600160401b0381111561308a57600080fd5b6000602082840312156134db57600080fd5b81356001600160401b038111156134f157600080fd5b8201601f8101841361350257600080fd5b61136484823560208401612fcc565b6000806040838503121561352457600080fd5b823561352f81612e92565b91506020830135801515811461329657600080fd5b6000806040838503121561355757600080fd5b50508035926020909101359150565b60006020828403121561357857600080fd5b8135612df281612e92565b6000806040838503121561359657600080fd5b82356135a181612e92565b9150602083013561329681612e92565b600080600080600060a086880312156135c957600080fd5b85356135d481612e92565b945060208601356135e481612e92565b9350604086013592506060860135915060808601356001600160401b0381111561360d57600080fd5b61326488828901613029565b60008060006060848603121561362e57600080fd5b833561363981612e92565b95602085013595506040909401359392505050565b600181811c9082168061366257607f821691505b6020821081141561368357634e487b7160e01b600052602260045260246000fd5b50919050565b6000815161369b818560208601612f06565b9290920192915050565b600080845481600182811c9150808316806136c157607f831692505b60208084108214156136e157634e487b7160e01b86526022600452602486fd5b8180156136f5576001811461370657613733565b60ff19861689528489019650613733565b60008b81526020902060005b8681101561372b5781548b820152908501908301613712565b505084890196505b5050505050506108458185613689565b6020808252602e908201527f455243313135355472616461626c653a206d75737420686176652061646d696e60408201526d206f72206f776e657220726f6c6560901b606082015260800190565b634e487b7160e01b600052601160045260246000fd5b600082198211156137ba576137ba613791565b500190565b6020808252603e908201527f455243313135355472616461626c653a20496e697469616c20737570706c792060408201527f63616e6e6f74206265206d6f7265207468616e206d617820737570706c790000606082015260800190565b634e487b7160e01b600052603260045260246000fd5b600060001982141561384657613846613791565b5060010190565b60208082526027908201527f455243313135355472616461626c653a20617272617973206c656e677468206d6040820152660d2e6dac2e8c6d60cb1b606082015260800190565b6000828210156138a6576138a6613791565b500390565b60208082526018908201527f455243313135355472616461626c653a20216578697374730000000000000000604082015260600190565b6000602082840312156138f457600080fd5b8151612df281612e92565b634e487b7160e01b600052601260045260246000fd5b600082613924576139246138ff565b500490565b600082613938576139386138ff565b500690565b60208082526021908201527f455243313135353a206d696e7420746f20746865207a65726f206164647265736040820152607360f81b606082015260800190565b60208082526028908201527f455243313135353a2069647320616e6420616d6f756e7473206c656e677468206040820152670dad2e6dac2e8c6d60c31b606082015260800190565b6040815260006139d9604083018561336d565b8281036020840152610845818561336d565b60208082526026908201527f455243313135355472616461626c653a206d7573742068617665206d696e74656040820152657220726f6c6560d01b606082015260800190565b60208082526029908201527f455243313135355472616461626c653a206d696e7420746f20746865207a65726040820152686f206164647265737360b81b606082015260800190565b60208082526025908201527f455243313135353a207472616e7366657220746f20746865207a65726f206164604082015264647265737360d81b606082015260800190565b6020808252602a908201527f455243313135353a20696e73756666696369656e742062616c616e636520666f60408201526939103a3930b739b332b960b11b606082015260800190565b60208082526023908201527f455243313135353a206275726e2066726f6d20746865207a65726f206164647260408201526265737360e81b606082015260800190565b60208082526024908201527f455243313135353a206275726e20616d6f756e7420657863656564732062616c604082015263616e636560e01b606082015260800190565b60208082526031908201527f455243313135355472616461626c653a2063616c6c6572206973206e6f74206f6040820152701ddb995c881b9bdc88185c1c1c9bdd9959607a1b606082015260800190565b6001600160a01b03868116825285166020820152604081018490526060810183905260a060808201819052600090613c1b90830184612f32565b979650505050505050565b600060208284031215613c3857600080fd5b8151612df281612ed3565b600060033d11156115d85760046000803e5060005160e01c90565b600060443d1015613c6c5790565b6040516003193d81016004833e81513d6001600160401b038160248401118184111715613c9b57505050505090565b8285019150815181811115613cb35750505050505090565b843d8701016020828501011115613ccd5750505050505090565b613cdc60208286010187612fa0565b509095945050505050565b60208082526028908201527f455243313135353a204552433131353552656365697665722072656a656374656040820152676420746f6b656e7360c01b606082015260800190565b6001600160a01b0386811682528516602082015260a060408201819052600090613d5b9083018661336d565b8281036060840152613d6d818661336d565b90508281036080840152613d818185612f32565b98975050505050505050565b7f416363657373436f6e74726f6c3a206163636f756e7420000000000000000000815260008351613dc5816017850160208801612f06565b7001034b99036b4b9b9b4b733903937b6329607d1b6017918401918201528351613df6816028840160208801612f06565b01602801949350505050565b6000816000190483118215151615613e1c57613e1c613791565b500290565b600081613e3057613e30613791565b50600019019056fe52ba824bfabc2bcfcdf7f0edbb486ebb05e1836c90e78047efeb949990f72e5fa26469706673582212207a4640aa9438fa33725886d5ac2a9e8b2dd1fefc92af5ce1d2703a1467df63cc64736f6c6343000809003343727970746f204b6f6d62617420436f6c6c656374696f6e20457468657265756d",
  "devdoc": {
    "errors": {
      "BridgeErrorNotExists(uint256)": [
        {
          "params": {
            "tokenId": "token id."
          }
        }
      ]
    },
    "kind": "dev",
    "methods": {
      "DOMAIN_SEPARATOR()": {
        "details": "See {EIP712-DOMAIN_SEPARATOR}."
      },
      "balanceOf(address,uint256)": {
        "details": "See {IERC1155-balanceOf}. Requirements: - `account` cannot be the zero address."
      },
      "balanceOfBatch(address[],uint256[])": {
        "details": "See {IERC1155-balanceOfBatch}. Requirements: - `accounts` and `ids` must have the same length."
      },
      "bridgedSupply(uint256)": {
        "details": "Returns the bridged quantity for a token ID",
        "params": {
          "_id": "uint256 ID of the token to query"
        },
        "returns": {
          "_0": "amount of token in existence"
        }
      },
      "create(uint256,uint256,uint256,bytes)": {
        "details": "Creates a new token type and assigns _initial to a sender",
        "params": {
          "_data": "Optional data to pass if receiver is contract",
          "_initial": "how many tokens to mint initially",
          "_max": "max supply allowed",
          "_reserved": "original supply"
        },
        "returns": {
          "tokenId": "The newly created token ID"
        }
      },
      "createBatch(uint256[],uint256[],uint256[],bytes)": {
        "details": "Creates some amount of tokens type and assigns initials to a sender",
        "params": {
          "_maxs": "max supply allowed",
          "_mints": "how many tokens to mint initially",
          "_reserveds": "reserved supply"
        }
      },
      "exists(uint256)": {
        "details": "Returns whether the specified token exists by checking to see if it has a creator",
        "params": {
          "_id": "uint256 ID of the token to query the existence of"
        },
        "returns": {
          "_0": "bool whether the token exists"
        }
      },
      "getRoleAdmin(bytes32)": {
        "details": "Returns the admin role that controls `role`. See {grantRole} and {revokeRole}. To change a role's admin, use {_setRoleAdmin}."
      },
      "grantRole(bytes32,address)": {
        "details": "Grants `role` to `account`. If `account` had not been already granted `role`, emits a {RoleGranted} event. Requirements: - the caller must have ``role``'s admin role."
      },
      "hasRole(bytes32,address)": {
        "details": "Returns `true` if `account` has been granted `role`."
      },
      "maxSupply(uint256)": {
        "details": "Returns the max quantity for a token ID",
        "params": {
          "_id": "uint256 ID of the token to query"
        },
        "returns": {
          "_0": "amount of token in existence"
        }
      },
      "owner()": {
        "details": "Returns the address of the current owner."
      },
      "renounceOwnership()": {
        "details": "Leaves the contract without owner. It will not be possible to call `onlyOwner` functions anymore. Can only be called by the current owner. NOTE: Renouncing ownership will leave the contract without an owner, thereby removing any functionality that is only available to the owner."
      },
      "renounceRole(bytes32,address)": {
        "details": "Revokes `role` from the calling account. Roles are often managed via {grantRole} and {revokeRole}: this function's purpose is to provide a mechanism for accounts to lose their privileges if they are compromised (such as when a trusted device is misplaced). If the calling account had been revoked `role`, emits a {RoleRevoked} event. Requirements: - the caller must be `account`."
      },
      "reservedSupply(uint256)": {
        "details": "Returns the reserved quantity for a token ID",
        "params": {
          "_id": "uint256 ID of the token to query"
        },
        "returns": {
          "_0": "amount of token in existence"
        }
      },
      "revokeRole(bytes32,address)": {
        "details": "Revokes `role` from `account`. If `account` had been granted `role`, emits a {RoleRevoked} event. Requirements: - the caller must have ``role``'s admin role."
      },
      "safeBatchTransferFrom(address,address,uint256[],uint256[],bytes)": {
        "details": "See {IERC1155-safeBatchTransferFrom}."
      },
      "safeTransferFrom(address,address,uint256,uint256,bytes)": {
        "details": "See {IERC1155-safeTransferFrom}."
      },
      "setApprovalForAll(address,bool)": {
        "details": "See {IERC1155-setApprovalForAll}."
      },
      "setBaseMetadataURI(string)": {
        "details": "Will update the base URL of token's URI",
        "params": {
          "_newBaseMetadataURI": "New base URL of token's URI"
        }
      },
      "setProxyRegistryAddress(address)": {
        "details": "Will update the proxyRegistryAddress",
        "params": {
          "_newProxyRegistryAddress": "New proxyRegistryAddress"
        }
      },
      "setReservedSupply(uint256,uint256)": {
        "details": "Will update _reservedSupply for the given tokenID",
        "params": {
          "_id": "uint256 ID of the token to update",
          "_value": "uint256 amount"
        }
      },
      "supportsInterface(bytes4)": {
        "details": "See {IERC165-supportsInterface}."
      },
      "totalSupply(uint256)": {
        "details": "Returns the total quantity for a token ID",
        "params": {
          "_id": "uint256 ID of the token to query"
        },
        "returns": {
          "_0": "amount of token in existence"
        }
      },
      "transferOwnership(address)": {
        "details": "Transfers ownership of the contract to a new account (`newOwner`). Can only be called by the current owner."
      }
    },
    "version": 1
  },
  "userdoc": {
    "errors": {
      "BridgeErrorBridgedOverflow()": [
        {
          "notice": "Token id bridged amount overflow"
        }
      ],
      "BridgeErrorLengthMistmach()": [
        {
          "notice": "Not same arrays length"
        }
      ],
      "BridgeErrorMaxUnderflow()": [
        {
          "notice": "Token id max amount underflow"
        }
      ],
      "BridgeErrorNotApproved()": [
        {
          "notice": "Collection is not approved to _msgSender()"
        }
      ],
      "BridgeErrorNotExists(uint256)": [
        {
          "notice": "Token id doesn't exists"
        }
      ],
      "BridgeErrorReservedUnderflow()": [
        {
          "notice": "Token id reserved amount underflow"
        }
      ],
      "BridgeErrorTotalOverflow()": [
        {
          "notice": "Token id total amount overflow"
        }
      ],
      "BridgeErrorZeroUser()": [
        {
          "notice": "Transaction `from` or `to` zero address"
        }
      ]
    },
    "kind": "user",
    "methods": {
      "isApprovedForAll(address,address)": {
        "notice": "Override isApprovedForAll to whitelist user's OpenSea proxy accounts to enable gas-free listings."
      }
    },
    "version": 1
  },
  "storageLayout": {
    "storage": [
      {
        "astId": 24,
        "contract": "contracts/ERC1155/CryptoKombatCollectionEthereum.sol:CryptoKombatCollectionEthereum",
        "label": "_roles",
        "offset": 0,
        "slot": "0",
        "type": "t_mapping(t_bytes32,t_struct(RoleData)19_storage)"
      },
      {
        "astId": 550,
        "contract": "contracts/ERC1155/CryptoKombatCollectionEthereum.sol:CryptoKombatCollectionEthereum",
        "label": "_owner",
        "offset": 0,
        "slot": "1",
        "type": "t_address"
      },
      {
        "astId": 765,
        "contract": "contracts/ERC1155/CryptoKombatCollectionEthereum.sol:CryptoKombatCollectionEthereum",
        "label": "_balances",
        "offset": 0,
        "slot": "2",
        "type": "t_mapping(t_uint256,t_mapping(t_address,t_uint256))"
      },
      {
        "astId": 771,
        "contract": "contracts/ERC1155/CryptoKombatCollectionEthereum.sol:CryptoKombatCollectionEthereum",
        "label": "_operatorApprovals",
        "offset": 0,
        "slot": "3",
        "type": "t_mapping(t_address,t_mapping(t_address,t_bool))"
      },
      {
        "astId": 773,
        "contract": "contracts/ERC1155/CryptoKombatCollectionEthereum.sol:CryptoKombatCollectionEthereum",
        "label": "_uri",
        "offset": 0,
        "slot": "4",
        "type": "t_string_storage"
      },
      {
        "astId": 7344,
        "contract": "contracts/ERC1155/CryptoKombatCollectionEthereum.sol:CryptoKombatCollectionEthereum",
        "label": "baseMetadataURI",
        "offset": 0,
        "slot": "5",
        "type": "t_string_storage"
      },
      {
        "astId": 7346,
        "contract": "contracts/ERC1155/CryptoKombatCollectionEthereum.sol:CryptoKombatCollectionEthereum",
        "label": "proxyRegistryAddress",
        "offset": 0,
        "slot": "6",
        "type": "t_address"
      },
      {
        "astId": 7349,
        "contract": "contracts/ERC1155/CryptoKombatCollectionEthereum.sol:CryptoKombatCollectionEthereum",
        "label": "_currentTokenID",
        "offset": 0,
        "slot": "7",
        "type": "t_uint256"
      },
      {
        "astId": 7353,
        "contract": "contracts/ERC1155/CryptoKombatCollectionEthereum.sol:CryptoKombatCollectionEthereum",
        "label": "creators",
        "offset": 0,
        "slot": "8",
        "type": "t_mapping(t_uint256,t_address)"
      },
      {
        "astId": 7357,
        "contract": "contracts/ERC1155/CryptoKombatCollectionEthereum.sol:CryptoKombatCollectionEthereum",
        "label": "_totalSupply",
        "offset": 0,
        "slot": "9",
        "type": "t_mapping(t_uint256,t_uint256)"
      },
      {
        "astId": 7361,
        "contract": "contracts/ERC1155/CryptoKombatCollectionEthereum.sol:CryptoKombatCollectionEthereum",
        "label": "_maxSupply",
        "offset": 0,
        "slot": "10",
        "type": "t_mapping(t_uint256,t_uint256)"
      },
      {
        "astId": 7365,
        "contract": "contracts/ERC1155/CryptoKombatCollectionEthereum.sol:CryptoKombatCollectionEthereum",
        "label": "_reservedSupply",
        "offset": 0,
        "slot": "11",
        "type": "t_mapping(t_uint256,t_uint256)"
      },
      {
        "astId": 7369,
        "contract": "contracts/ERC1155/CryptoKombatCollectionEthereum.sol:CryptoKombatCollectionEthereum",
        "label": "_bridgedSupply",
        "offset": 0,
        "slot": "12",
        "type": "t_mapping(t_uint256,t_uint256)"
      },
      {
        "astId": 7371,
        "contract": "contracts/ERC1155/CryptoKombatCollectionEthereum.sol:CryptoKombatCollectionEthereum",
        "label": "name",
        "offset": 0,
        "slot": "13",
        "type": "t_string_storage"
      },
      {
        "astId": 7373,
        "contract": "contracts/ERC1155/CryptoKombatCollectionEthereum.sol:CryptoKombatCollectionEthereum",
        "label": "symbol",
        "offset": 0,
        "slot": "14",
        "type": "t_string_storage"
      }
    ],
    "types": {
      "t_address": {
        "encoding": "inplace",
        "label": "address",
        "numberOfBytes": "20"
      },
      "t_bool": {
        "encoding": "inplace",
        "label": "bool",
        "numberOfBytes": "1"
      },
      "t_bytes32": {
        "encoding": "inplace",
        "label": "bytes32",
        "numberOfBytes": "32"
      },
      "t_mapping(t_address,t_bool)": {
        "encoding": "mapping",
        "key": "t_address",
        "label": "mapping(address => bool)",
        "numberOfBytes": "32",
        "value": "t_bool"
      },
      "t_mapping(t_address,t_mapping(t_address,t_bool))": {
        "encoding": "mapping",
        "key": "t_address",
        "label": "mapping(address => mapping(address => bool))",
        "numberOfBytes": "32",
        "value": "t_mapping(t_address,t_bool)"
      },
      "t_mapping(t_address,t_uint256)": {
        "encoding": "mapping",
        "key": "t_address",
        "label": "mapping(address => uint256)",
        "numberOfBytes": "32",
        "value": "t_uint256"
      },
      "t_mapping(t_bytes32,t_struct(RoleData)19_storage)": {
        "encoding": "mapping",
        "key": "t_bytes32",
        "label": "mapping(bytes32 => struct AccessControl.RoleData)",
        "numberOfBytes": "32",
        "value": "t_struct(RoleData)19_storage"
      },
      "t_mapping(t_uint256,t_address)": {
        "encoding": "mapping",
        "key": "t_uint256",
        "label": "mapping(uint256 => address)",
        "numberOfBytes": "32",
        "value": "t_address"
      },
      "t_mapping(t_uint256,t_mapping(t_address,t_uint256))": {
        "encoding": "mapping",
        "key": "t_uint256",
        "label": "mapping(uint256 => mapping(address => uint256))",
        "numberOfBytes": "32",
        "value": "t_mapping(t_address,t_uint256)"
      },
      "t_mapping(t_uint256,t_uint256)": {
        "encoding": "mapping",
        "key": "t_uint256",
        "label": "mapping(uint256 => uint256)",
        "numberOfBytes": "32",
        "value": "t_uint256"
      },
      "t_string_storage": {
        "encoding": "bytes",
        "label": "string",
        "numberOfBytes": "32"
      },
      "t_struct(RoleData)19_storage": {
        "encoding": "inplace",
        "label": "struct AccessControl.RoleData",
        "members": [
          {
            "astId": 16,
            "contract": "contracts/ERC1155/CryptoKombatCollectionEthereum.sol:CryptoKombatCollectionEthereum",
            "label": "members",
            "offset": 0,
            "slot": "0",
            "type": "t_mapping(t_address,t_bool)"
          },
          {
            "astId": 18,
            "contract": "contracts/ERC1155/CryptoKombatCollectionEthereum.sol:CryptoKombatCollectionEthereum",
            "label": "adminRole",
            "offset": 0,
            "slot": "1",
            "type": "t_bytes32"
          }
        ],
        "numberOfBytes": "64"
      },
      "t_uint256": {
        "encoding": "inplace",
        "label": "uint256",
        "numberOfBytes": "32"
      }
    }
  }
}