{
  "address": "0x62FC8077c016b7c92aa1C24BA774d9C1E1378dC8",
  "abi": [
    {
      "inputs": [
        {
          "internalType": "string",
          "name": "_baseUri",
          "type": "string"
        },
        {
          "internalType": "address",
          "name": "_proxyRegistryAddress",
          "type": "address"
        }
      ],
      "stateMutability": "nonpayable",
      "type": "constructor"
    },
    {
      "inputs": [],
      "name": "BridgedOverflow",
      "type": "error"
    },
    {
      "inputs": [],
      "name": "LengthMistmach",
      "type": "error"
    },
    {
      "inputs": [],
      "name": "MaxUnderflow",
      "type": "error"
    },
    {
      "inputs": [],
      "name": "NotApproved",
      "type": "error"
    },
    {
      "inputs": [
        {
          "internalType": "uint256",
          "name": "tokenId",
          "type": "uint256"
        }
      ],
      "name": "NotExists",
      "type": "error"
    },
    {
      "inputs": [],
      "name": "ReservedUnderflow",
      "type": "error"
    },
    {
      "inputs": [],
      "name": "TotalOverflow",
      "type": "error"
    },
    {
      "inputs": [],
      "name": "ZeroAddress",
      "type": "error"
    },
    {
      "anonymous": false,
      "inputs": [
        {
          "indexed": true,
          "internalType": "address",
          "name": "account",
          "type": "address"
        },
        {
          "indexed": true,
          "internalType": "address",
          "name": "operator",
          "type": "address"
        },
        {
          "indexed": false,
          "internalType": "bool",
          "name": "approved",
          "type": "bool"
        }
      ],
      "name": "ApprovalForAll",
      "type": "event"
    },
    {
      "anonymous": false,
      "inputs": [
        {
          "indexed": true,
          "internalType": "address",
          "name": "previousOwner",
          "type": "address"
        },
        {
          "indexed": true,
          "internalType": "address",
          "name": "newOwner",
          "type": "address"
        }
      ],
      "name": "OwnershipTransferred",
      "type": "event"
    },
    {
      "anonymous": false,
      "inputs": [
        {
          "indexed": true,
          "internalType": "bytes32",
          "name": "role",
          "type": "bytes32"
        },
        {
          "indexed": true,
          "internalType": "bytes32",
          "name": "previousAdminRole",
          "type": "bytes32"
        },
        {
          "indexed": true,
          "internalType": "bytes32",
          "name": "newAdminRole",
          "type": "bytes32"
        }
      ],
      "name": "RoleAdminChanged",
      "type": "event"
    },
    {
      "anonymous": false,
      "inputs": [
        {
          "indexed": true,
          "internalType": "bytes32",
          "name": "role",
          "type": "bytes32"
        },
        {
          "indexed": true,
          "internalType": "address",
          "name": "account",
          "type": "address"
        },
        {
          "indexed": true,
          "internalType": "address",
          "name": "sender",
          "type": "address"
        }
      ],
      "name": "RoleGranted",
      "type": "event"
    },
    {
      "anonymous": false,
      "inputs": [
        {
          "indexed": true,
          "internalType": "bytes32",
          "name": "role",
          "type": "bytes32"
        },
        {
          "indexed": true,
          "internalType": "address",
          "name": "account",
          "type": "address"
        },
        {
          "indexed": true,
          "internalType": "address",
          "name": "sender",
          "type": "address"
        }
      ],
      "name": "RoleRevoked",
      "type": "event"
    },
    {
      "anonymous": false,
      "inputs": [
        {
          "indexed": true,
          "internalType": "address",
          "name": "operator",
          "type": "address"
        },
        {
          "indexed": true,
          "internalType": "address",
          "name": "from",
          "type": "address"
        },
        {
          "indexed": true,
          "internalType": "address",
          "name": "to",
          "type": "address"
        },
        {
          "indexed": false,
          "internalType": "uint256[]",
          "name": "ids",
          "type": "uint256[]"
        },
        {
          "indexed": false,
          "internalType": "uint256[]",
          "name": "values",
          "type": "uint256[]"
        }
      ],
      "name": "TransferBatch",
      "type": "event"
    },
    {
      "anonymous": false,
      "inputs": [
        {
          "indexed": true,
          "internalType": "address",
          "name": "operator",
          "type": "address"
        },
        {
          "indexed": true,
          "internalType": "address",
          "name": "from",
          "type": "address"
        },
        {
          "indexed": true,
          "internalType": "address",
          "name": "to",
          "type": "address"
        },
        {
          "indexed": false,
          "internalType": "uint256",
          "name": "id",
          "type": "uint256"
        },
        {
          "indexed": false,
          "internalType": "uint256",
          "name": "value",
          "type": "uint256"
        }
      ],
      "name": "TransferSingle",
      "type": "event"
    },
    {
      "anonymous": false,
      "inputs": [
        {
          "indexed": false,
          "internalType": "string",
          "name": "value",
          "type": "string"
        },
        {
          "indexed": true,
          "internalType": "uint256",
          "name": "id",
          "type": "uint256"
        }
      ],
      "name": "URI",
      "type": "event"
    },
    {
      "inputs": [],
      "name": "BRIDGE_ROLE",
      "outputs": [
        {
          "internalType": "bytes32",
          "name": "",
          "type": "bytes32"
        }
      ],
      "stateMutability": "view",
      "type": "function"
    },
    {
      "inputs": [],
      "name": "DEFAULT_ADMIN_ROLE",
      "outputs": [
        {
          "internalType": "bytes32",
          "name": "",
          "type": "bytes32"
        }
      ],
      "stateMutability": "view",
      "type": "function"
    },
    {
      "inputs": [],
      "name": "DOMAIN_SEPARATOR",
      "outputs": [
        {
          "internalType": "bytes32",
          "name": "",
          "type": "bytes32"
        }
      ],
      "stateMutability": "view",
      "type": "function"
    },
    {
      "inputs": [],
      "name": "MINTER_ROLE",
      "outputs": [
        {
          "internalType": "bytes32",
          "name": "",
          "type": "bytes32"
        }
      ],
      "stateMutability": "view",
      "type": "function"
    },
    {
      "inputs": [
        {
          "internalType": "address",
          "name": "account",
          "type": "address"
        },
        {
          "internalType": "uint256",
          "name": "id",
          "type": "uint256"
        }
      ],
      "name": "balanceOf",
      "outputs": [
        {
          "internalType": "uint256",
          "name": "",
          "type": "uint256"
        }
      ],
      "stateMutability": "view",
      "type": "function"
    },
    {
      "inputs": [
        {
          "internalType": "address[]",
          "name": "accounts",
          "type": "address[]"
        },
        {
          "internalType": "uint256[]",
          "name": "ids",
          "type": "uint256[]"
        }
      ],
      "name": "balanceOfBatch",
      "outputs": [
        {
          "internalType": "uint256[]",
          "name": "",
          "type": "uint256[]"
        }
      ],
      "stateMutability": "view",
      "type": "function"
    },
    {
      "inputs": [
        {
          "internalType": "uint256",
          "name": "_id",
          "type": "uint256"
        }
      ],
      "name": "bridgedSupply",
      "outputs": [
        {
          "internalType": "uint256",
          "name": "",
          "type": "uint256"
        }
      ],
      "stateMutability": "view",
      "type": "function"
    },
    {
      "inputs": [
        {
          "internalType": "address",
          "name": "_from",
          "type": "address"
        },
        {
          "internalType": "uint256",
          "name": "_id",
          "type": "uint256"
        },
        {
          "internalType": "uint256",
          "name": "_amount",
          "type": "uint256"
        }
      ],
      "name": "burn",
      "outputs": [],
      "stateMutability": "nonpayable",
      "type": "function"
    },
    {
      "inputs": [
        {
          "internalType": "address",
          "name": "_from",
          "type": "address"
        },
        {
          "internalType": "uint256[]",
          "name": "_ids",
          "type": "uint256[]"
        },
        {
          "internalType": "uint256[]",
          "name": "_amounts",
          "type": "uint256[]"
        }
      ],
      "name": "burnBatch",
      "outputs": [],
      "stateMutability": "nonpayable",
      "type": "function"
    },
    {
      "inputs": [
        {
          "internalType": "address",
          "name": "_from",
          "type": "address"
        },
        {
          "internalType": "uint256[]",
          "name": "_ids",
          "type": "uint256[]"
        },
        {
          "internalType": "uint256[]",
          "name": "_amounts",
          "type": "uint256[]"
        }
      ],
      "name": "burnBatchFor",
      "outputs": [],
      "stateMutability": "nonpayable",
      "type": "function"
    },
    {
      "inputs": [
        {
          "internalType": "address",
          "name": "_from",
          "type": "address"
        },
        {
          "internalType": "uint256",
          "name": "_id",
          "type": "uint256"
        }
      ],
      "name": "burnFor",
      "outputs": [],
      "stateMutability": "nonpayable",
      "type": "function"
    },
    {
      "inputs": [
        {
          "internalType": "uint256",
          "name": "_max",
          "type": "uint256"
        },
        {
          "internalType": "uint256",
          "name": "_reserved",
          "type": "uint256"
        },
        {
          "internalType": "uint256",
          "name": "_initial",
          "type": "uint256"
        },
        {
          "internalType": "bytes",
          "name": "_data",
          "type": "bytes"
        }
      ],
      "name": "create",
      "outputs": [
        {
          "internalType": "uint256",
          "name": "tokenId",
          "type": "uint256"
        }
      ],
      "stateMutability": "nonpayable",
      "type": "function"
    },
    {
      "inputs": [
        {
          "internalType": "uint256[]",
          "name": "_maxs",
          "type": "uint256[]"
        },
        {
          "internalType": "uint256[]",
          "name": "_reserveds",
          "type": "uint256[]"
        },
        {
          "internalType": "uint256[]",
          "name": "_mints",
          "type": "uint256[]"
        },
        {
          "internalType": "bytes",
          "name": "_data",
          "type": "bytes"
        }
      ],
      "name": "createBatch",
      "outputs": [],
      "stateMutability": "nonpayable",
      "type": "function"
    },
    {
      "inputs": [
        {
          "internalType": "uint256",
          "name": "",
          "type": "uint256"
        }
      ],
      "name": "creators",
      "outputs": [
        {
          "internalType": "address",
          "name": "",
          "type": "address"
        }
      ],
      "stateMutability": "view",
      "type": "function"
    },
    {
      "inputs": [
        {
          "internalType": "uint256",
          "name": "_id",
          "type": "uint256"
        }
      ],
      "name": "exists",
      "outputs": [
        {
          "internalType": "bool",
          "name": "",
          "type": "bool"
        }
      ],
      "stateMutability": "view",
      "type": "function"
    },
    {
      "inputs": [
        {
          "internalType": "bytes32",
          "name": "role",
          "type": "bytes32"
        }
      ],
      "name": "getRoleAdmin",
      "outputs": [
        {
          "internalType": "bytes32",
          "name": "",
          "type": "bytes32"
        }
      ],
      "stateMutability": "view",
      "type": "function"
    },
    {
      "inputs": [
        {
          "internalType": "bytes32",
          "name": "role",
          "type": "bytes32"
        },
        {
          "internalType": "address",
          "name": "account",
          "type": "address"
        }
      ],
      "name": "grantRole",
      "outputs": [],
      "stateMutability": "nonpayable",
      "type": "function"
    },
    {
      "inputs": [
        {
          "internalType": "bytes32",
          "name": "role",
          "type": "bytes32"
        },
        {
          "internalType": "address",
          "name": "account",
          "type": "address"
        }
      ],
      "name": "hasRole",
      "outputs": [
        {
          "internalType": "bool",
          "name": "",
          "type": "bool"
        }
      ],
      "stateMutability": "view",
      "type": "function"
    },
    {
      "inputs": [
        {
          "internalType": "address",
          "name": "_owner",
          "type": "address"
        },
        {
          "internalType": "address",
          "name": "_operator",
          "type": "address"
        }
      ],
      "name": "isApprovedForAll",
      "outputs": [
        {
          "internalType": "bool",
          "name": "isOperator",
          "type": "bool"
        }
      ],
      "stateMutability": "view",
      "type": "function"
    },
    {
      "inputs": [
        {
          "internalType": "uint256",
          "name": "_id",
          "type": "uint256"
        }
      ],
      "name": "maxSupply",
      "outputs": [
        {
          "internalType": "uint256",
          "name": "",
          "type": "uint256"
        }
      ],
      "stateMutability": "view",
      "type": "function"
    },
    {
      "inputs": [
        {
          "internalType": "address",
          "name": "_to",
          "type": "address"
        },
        {
          "internalType": "uint256",
          "name": "_id",
          "type": "uint256"
        },
        {
          "internalType": "uint256",
          "name": "_amount",
          "type": "uint256"
        },
        {
          "internalType": "bytes",
          "name": "_data",
          "type": "bytes"
        }
      ],
      "name": "mint",
      "outputs": [],
      "stateMutability": "nonpayable",
      "type": "function"
    },
    {
      "inputs": [
        {
          "internalType": "address",
          "name": "_to",
          "type": "address"
        },
        {
          "internalType": "uint256",
          "name": "_id",
          "type": "uint256"
        },
        {
          "internalType": "bytes",
          "name": "_data",
          "type": "bytes"
        }
      ],
      "name": "mint",
      "outputs": [],
      "stateMutability": "nonpayable",
      "type": "function"
    },
    {
      "inputs": [
        {
          "internalType": "address",
          "name": "_to",
          "type": "address"
        },
        {
          "internalType": "uint256[]",
          "name": "_ids",
          "type": "uint256[]"
        },
        {
          "internalType": "uint256[]",
          "name": "_amounts",
          "type": "uint256[]"
        },
        {
          "internalType": "bytes",
          "name": "_data",
          "type": "bytes"
        }
      ],
      "name": "mintBatch",
      "outputs": [],
      "stateMutability": "nonpayable",
      "type": "function"
    },
    {
      "inputs": [],
      "name": "name",
      "outputs": [
        {
          "internalType": "string",
          "name": "",
          "type": "string"
        }
      ],
      "stateMutability": "view",
      "type": "function"
    },
    {
      "inputs": [],
      "name": "owner",
      "outputs": [
        {
          "internalType": "address",
          "name": "",
          "type": "address"
        }
      ],
      "stateMutability": "view",
      "type": "function"
    },
    {
      "inputs": [],
      "name": "renounceOwnership",
      "outputs": [],
      "stateMutability": "nonpayable",
      "type": "function"
    },
    {
      "inputs": [
        {
          "internalType": "bytes32",
          "name": "role",
          "type": "bytes32"
        },
        {
          "internalType": "address",
          "name": "account",
          "type": "address"
        }
      ],
      "name": "renounceRole",
      "outputs": [],
      "stateMutability": "nonpayable",
      "type": "function"
    },
    {
      "inputs": [
        {
          "internalType": "uint256",
          "name": "_id",
          "type": "uint256"
        }
      ],
      "name": "reservedSupply",
      "outputs": [
        {
          "internalType": "uint256",
          "name": "",
          "type": "uint256"
        }
      ],
      "stateMutability": "view",
      "type": "function"
    },
    {
      "inputs": [
        {
          "internalType": "bytes32",
          "name": "role",
          "type": "bytes32"
        },
        {
          "internalType": "address",
          "name": "account",
          "type": "address"
        }
      ],
      "name": "revokeRole",
      "outputs": [],
      "stateMutability": "nonpayable",
      "type": "function"
    },
    {
      "inputs": [
        {
          "internalType": "address",
          "name": "from",
          "type": "address"
        },
        {
          "internalType": "address",
          "name": "to",
          "type": "address"
        },
        {
          "internalType": "uint256[]",
          "name": "ids",
          "type": "uint256[]"
        },
        {
          "internalType": "uint256[]",
          "name": "amounts",
          "type": "uint256[]"
        },
        {
          "internalType": "bytes",
          "name": "data",
          "type": "bytes"
        }
      ],
      "name": "safeBatchTransferFrom",
      "outputs": [],
      "stateMutability": "nonpayable",
      "type": "function"
    },
    {
      "inputs": [
        {
          "internalType": "address",
          "name": "from",
          "type": "address"
        },
        {
          "internalType": "address",
          "name": "to",
          "type": "address"
        },
        {
          "internalType": "uint256",
          "name": "id",
          "type": "uint256"
        },
        {
          "internalType": "uint256",
          "name": "amount",
          "type": "uint256"
        },
        {
          "internalType": "bytes",
          "name": "data",
          "type": "bytes"
        }
      ],
      "name": "safeTransferFrom",
      "outputs": [],
      "stateMutability": "nonpayable",
      "type": "function"
    },
    {
      "inputs": [
        {
          "internalType": "address",
          "name": "operator",
          "type": "address"
        },
        {
          "internalType": "bool",
          "name": "approved",
          "type": "bool"
        }
      ],
      "name": "setApprovalForAll",
      "outputs": [],
      "stateMutability": "nonpayable",
      "type": "function"
    },
    {
      "inputs": [
        {
          "internalType": "string",
          "name": "_newBaseMetadataURI",
          "type": "string"
        }
      ],
      "name": "setBaseMetadataURI",
      "outputs": [],
      "stateMutability": "nonpayable",
      "type": "function"
    },
    {
      "inputs": [
        {
          "internalType": "address",
          "name": "_newProxyRegistryAddress",
          "type": "address"
        }
      ],
      "name": "setProxyRegistryAddress",
      "outputs": [],
      "stateMutability": "nonpayable",
      "type": "function"
    },
    {
      "inputs": [
        {
          "internalType": "uint256",
          "name": "_id",
          "type": "uint256"
        },
        {
          "internalType": "uint256",
          "name": "_value",
          "type": "uint256"
        }
      ],
      "name": "setReservedSupply",
      "outputs": [],
      "stateMutability": "nonpayable",
      "type": "function"
    },
    {
      "inputs": [
        {
          "internalType": "bytes4",
          "name": "interfaceId",
          "type": "bytes4"
        }
      ],
      "name": "supportsInterface",
      "outputs": [
        {
          "internalType": "bool",
          "name": "",
          "type": "bool"
        }
      ],
      "stateMutability": "view",
      "type": "function"
    },
    {
      "inputs": [],
      "name": "symbol",
      "outputs": [
        {
          "internalType": "string",
          "name": "",
          "type": "string"
        }
      ],
      "stateMutability": "view",
      "type": "function"
    },
    {
      "inputs": [
        {
          "internalType": "uint256",
          "name": "_id",
          "type": "uint256"
        }
      ],
      "name": "totalSupply",
      "outputs": [
        {
          "internalType": "uint256",
          "name": "",
          "type": "uint256"
        }
      ],
      "stateMutability": "view",
      "type": "function"
    },
    {
      "inputs": [
        {
          "internalType": "address",
          "name": "newOwner",
          "type": "address"
        }
      ],
      "name": "transferOwnership",
      "outputs": [],
      "stateMutability": "nonpayable",
      "type": "function"
    },
    {
      "inputs": [
        {
          "internalType": "uint256",
          "name": "_id",
          "type": "uint256"
        }
      ],
      "name": "uri",
      "outputs": [
        {
          "internalType": "string",
          "name": "",
          "type": "string"
        }
      ],
      "stateMutability": "view",
      "type": "function"
    }
  ],
  "transactionHash": "0xc783571f09d0a736457849812fe6c9f906eaf09b025370183ca73320e2a0c113",
  "args": [
    "https://api-staging.cryptokombat.com/hero/",
    "0x207Fa8Df3a17D96Ca7EA4f2893fcdCb78a304101"
  ],
  "numDeployments": 3,
  "solcInputHash": "307ddebddfb33fbbe00097b465c27813",
  "bytecode": "0x61014060405260006007553480156200001757600080fd5b5060405162004ad338038062004ad38339810160408190526200003a916200048e565b60405180606001604052806021815260200162004ab26021913960405180604001604052806004815260200163434b434560e01b81525083838383838383604051806040016040528060018152602001603160f81b81525085858460405180602001604052806000815250620000bf620000b96200020c60201b60201c565b62000228565b620000ca816200027a565b50620000e16000620000db6200020c565b62000293565b620001107f9f2df0fed2c77648de5860a4cc508cd0818c85b8b8a1ab4ceeef8d981c8956a6620000db6200020c565b82516200012590600d906020860190620003b5565b5081516200013b90600e906020850190620003b5565b50600680546001600160a01b0319166001600160a01b03929092169190911790555050815160208084019190912082518383012060e08290526101008190524660a0818152604080517f8b73c3c69bb8fe3d512ecc4cf759cc79239f7b179b0ffacaa9a75d522b39400f81880181905281830187905260608201869052608082019490945230818401528151808203909301835260c00190528051940193909320919290916080523060c0526101205250620001fc9250849150506200029f565b50505050505050505050620005bc565b600062000223620002b460201b620019031760201c565b905090565b600180546001600160a01b038381166001600160a01b0319831681179093556040519116919082907f8be0079c531659141344cd1fd0a4f28419497f9722a3daafe3b4186f6b6457e090600090a35050565b80516200028f906004906020840190620003b5565b5050565b6200028f828262000313565b80516200028f906005906020840190620003b5565b6000333014156200030d57600080368080601f0160208091040260200160405190810160405280939291908181526020018383808284376000920191909152505050503601516001600160a01b03169150620003109050565b50335b90565b6000828152602081815260408083206001600160a01b038516845290915290205460ff166200028f576000828152602081815260408083206001600160a01b03851684529091529020805460ff19166001179055620003716200020c565b6001600160a01b0316816001600160a01b0316837f2f8788117e7eff1d82e926ec794901d17c78024a50270940304540a733656f0d60405160405180910390a45050565b828054620003c3906200057f565b90600052602060002090601f016020900481019282620003e7576000855562000432565b82601f106200040257805160ff191683800117855562000432565b8280016001018555821562000432579182015b828111156200043257825182559160200191906001019062000415565b506200044092915062000444565b5090565b5b8082111562000440576000815560010162000445565b634e487b7160e01b600052604160045260246000fd5b80516001600160a01b03811681146200048957600080fd5b919050565b60008060408385031215620004a257600080fd5b82516001600160401b0380821115620004ba57600080fd5b818501915085601f830112620004cf57600080fd5b815181811115620004e457620004e46200045b565b604051601f8201601f19908116603f011681019083821181831017156200050f576200050f6200045b565b816040528281526020935088848487010111156200052c57600080fd5b600091505b8282101562000550578482018401518183018501529083019062000531565b82821115620005625760008484830101525b95506200057491505085820162000471565b925050509250929050565b600181811c908216806200059457607f821691505b60208210811415620005b657634e487b7160e01b600052602260045260246000fd5b50919050565b60805160a05160c05160e05161010051610120516144a66200060c600039600061221f0152600061226e01526000612249015260006121a2015260006121cc015260006121f601526144a66000f3fe608060405234801561001057600080fd5b50600436106102475760003560e01c8063885c2f351161013b578063bd85b039116100b8578063e985e9c51161007c578063e985e9c514610562578063f242432a14610575578063f2fde38b14610588578063f5298aca1461059b578063faf929ec146105ae57600080fd5b8063bd85b039146104cc578063cd53d08e146104ec578063d26ea6c014610515578063d539139314610528578063d547741f1461054f57600080fd5b8063a217fddf116100ff578063a217fddf14610469578063a22cb46514610471578063a628b2b614610484578063b062dfce146104a4578063b5bfddea146104b757600080fd5b8063885c2f35146104035780638da5cb5b1461041657806391d148541461043b57806394d008ef1461044e57806395d89b411461046157600080fd5b80633644e515116101c95780636b20c4541161018d5780636b20c454146103a2578063715018a6146103b5578063731133e9146103bd5780637e518ec8146103d0578063869f7594146103e357600080fd5b80633644e5151461034157806336568abe146103495780634e1273f41461035c5780634f558e791461037c578063548706931461038f57600080fd5b80631dd319cb116102105780631dd319cb146102d05780631f7fdffa146102e5578063248a9ca3146102f85780632eb2c2d61461031b5780632f2ff15d1461032e57600080fd5b8062fdd58e1461024c57806301ffc9a71461027257806306fdde03146102955780630e89341c146102aa5780631ab0dd77146102bd575b600080fd5b61025f61025a36600461321f565b6105ce565b6040519081526020015b60405180910390f35b610285610280366004613261565b61066a565b6040519015158152602001610269565b61029d610675565b60405161026991906132d6565b61029d6102b83660046132e9565b610703565b61025f6102cb3660046133c1565b610797565b6102e36102de36600461321f565b6108a8565b005b6102e36102f33660046134a6565b610913565b61025f6103063660046132e9565b60009081526020819052604090206001015490565b6102e36103293660046135e6565b610ba7565b6102e361033c366004613693565b610c50565b61025f610c7a565b6102e3610357366004613693565b610c89565b61036f61036a3660046136c3565b610d17565b60405161026991906137ca565b61028561038a3660046132e9565b610e40565b6102e361039d3660046137dd565b610e4b565b6102e36103b036600461387d565b6110e8565b6102e36111e8565b6102e36103cb3660046138f2565b61126d565b6102e36103de36600461395b565b611370565b61025f6103f13660046132e9565b6000908152600a602052604090205490565b6102e36104113660046139a3565b6113d9565b6001546001600160a01b03165b6040516001600160a01b039091168152602001610269565b610285610449366004613693565b61143d565b6102e361045c366004613a14565b611466565b61029d6114ca565b61025f600081565b6102e361047f366004613a6f565b6114d7565b61025f6104923660046132e9565b6000908152600b602052604090205490565b6102e36104b2366004613aa2565b6114e9565b61025f60008051602061445183398151915281565b61025f6104da3660046132e9565b60009081526009602052604090205490565b6104236104fa3660046132e9565b6008602052600090815260409020546001600160a01b031681565b6102e3610523366004613ac4565b61157d565b61025f7f9f2df0fed2c77648de5860a4cc508cd0818c85b8b8a1ab4ceeef8d981c8956a681565b6102e361055d366004613693565b6115fc565b610285610570366004613ae1565b611621565b6102e3610583366004613b0f565b6116f1565b6102e3610596366004613ac4565b61178a565b6102e36105a9366004613b77565b611871565b61025f6105bc3660046132e9565b6000908152600c602052604090205490565b60006001600160a01b03831661063f5760405162461bcd60e51b815260206004820152602b60248201527f455243313135353a2062616c616e636520717565727920666f7220746865207a60448201526a65726f206164647265737360a81b60648201526084015b60405180910390fd5b5060008181526002602090815260408083206001600160a01b03861684529091529020545b92915050565b600061066482611960565b600d805461068290613bac565b80601f01602080910402602001604051908101604052809291908181526020018280546106ae90613bac565b80156106fb5780601f106106d0576101008083540402835291602001916106fb565b820191906000526020600020905b8154815290600101906020018083116106de57829003601f168201915b505050505081565b606061070e826119a0565b6107655760405162461bcd60e51b815260206004820152602260248201527f455243313135355472616461626c653a20746f6b656e206d7573742065786973604482015261747360f01b6064820152608401610636565b6005610770836119bd565b604051602001610781929190613c03565b6040516020818303038152906040529050919050565b60006107a581610449611aba565b806107d957506107b3611aba565b6001600160a01b03166107ce6001546001600160a01b031690565b6001600160a01b0316145b6107f55760405162461bcd60e51b815260040161063690613ca1565b846108008486613d05565b111561081e5760405162461bcd60e51b815260040161063690613d1d565b6000610828611ac4565b9050610832611ad5565b61083a611aba565b600082815260086020908152604080832080546001600160a01b0319166001600160a01b03959095169490941790935560098152828220879055600a8152828220899055600b905220859055831561089f5761089f610897611aba565b828686611aec565b95945050505050565b604051637a94c56560e11b81526001600160a01b03831660048201526024810182905260016044820152309063f5298aca90606401600060405180830381600087803b1580156108f757600080fd5b505af115801561090b573d6000803e3d6000fd5b505050505050565b61092d600080516020614451833981519152610449611aba565b15610afc5761093b87611bd9565b6109a886868080602002602001604051908101604052809392919081815260200183836020028082843760009201919091525050604080516020808a02828101820190935289825290935089925088918291850190849080828437600092019190915250611c0092505050565b60005b85811015610a545760008787838181106109c7576109c7613d7a565b90506020020135905060008686848181106109e4576109e4613d7a565b9050602002013590506109f78282611c22565b60008281526009602052604081208054839290610a15908490613d05565b90915550506000828152600c602052604081208054839290610a38908490613d05565b9250508190555050508080610a4c90613d90565b9150506109ab565b50610af78787878080602002602001604051908101604052809392919081815260200183836020028082843760009201919091525050604080516020808b0282810182019093528a82529093508a92508991829185019084908082843760009201919091525050604080516020601f8a018190048102820181019092528881529250889150879081908401838280828437600092019190915250611cbb92505050565b610b9e565b610b9e8787878080602002602001604051908101604052809392919081815260200183836020028082843760009201919091525050604080516020808b0282810182019093528a82529093508a92508991829185019084908082843760009201919091525050604080516020601f8a018190048102820181019092528881529250889150879081908401838280828437600092019190915250611e2192505050565b50505050505050565b610baf611aba565b6001600160a01b0316856001600160a01b03161480610bd55750610bd585610570611aba565b610c3c5760405162461bcd60e51b815260206004820152603260248201527f455243313135353a207472616e736665722063616c6c6572206973206e6f74206044820152711bdddb995c881b9bdc88185c1c1c9bdd995960721b6064820152608401610636565b610c498585858585611f4f565b5050505050565b600082815260208190526040902060010154610c6b816120ff565b610c758383612110565b505050565b6000610c84612195565b905090565b610c91611aba565b6001600160a01b0316816001600160a01b031614610d095760405162461bcd60e51b815260206004820152602f60248201527f416363657373436f6e74726f6c3a2063616e206f6e6c792072656e6f756e636560448201526e103937b632b9903337b91039b2b63360891b6064820152608401610636565b610d1382826122bc565b5050565b60608151835114610d7c5760405162461bcd60e51b815260206004820152602960248201527f455243313135353a206163636f756e747320616e6420696473206c656e677468604482015268040dad2e6dac2e8c6d60bb1b6064820152608401610636565b600083516001600160401b03811115610d9757610d97613302565b604051908082528060200260200182016040528015610dc0578160200160208202803683370190505b50905060005b8451811015610e3857610e0b858281518110610de457610de4613d7a565b6020026020010151858381518110610dfe57610dfe613d7a565b60200260200101516105ce565b828281518110610e1d57610e1d613d7a565b6020908102919091010152610e3181613d90565b9050610dc6565b509392505050565b6000610664826119a0565b610e586000610449611aba565b80610e8c5750610e66611aba565b6001600160a01b0316610e816001546001600160a01b031690565b6001600160a01b0316145b610ea85760405162461bcd60e51b815260040161063690613ca1565b82518451148015610eba575081518451145b610ed65760405162461bcd60e51b815260040161063690613dab565b600084516001600160401b03811115610ef157610ef1613302565b604051908082528060200260200182016040528015610f1a578160200160208202803683370190505b509050600085516001600160401b03811115610f3857610f38613302565b604051908082528060200260200182016040528015610f61578160200160208202803683370190505b5090506000805b87518110156110ce576000888281518110610f8557610f85613d7a565b602002602001015190506000888381518110610fa357610fa3613d7a565b602002602001015190506000888481518110610fc157610fc1613d7a565b60200260200101519050828183610fd89190613d05565b1115610ff65760405162461bcd60e51b815260040161063690613d1d565b6000611000611ac4565b905061100a611ad5565b611012611aba565b600082815260086020908152604080832080546001600160a01b0319166001600160a01b03959095169490941790935560098152828220859055600a8152828220879055600b9052208390558751819089908790811061107457611074613d7a565b6020026020010181815250508187868151811061109357611093613d7a565b6020026020010181815250506000821180156110ad575085155b156110b757600195505b5050505080806110c690613d90565b915050610f68565b508015610b9e57610b9e6110e0611aba565b848487611cbb565b611102600080516020614451833981519152610449611aba565b156111dd5761111883611113611aba565b61233f565b6111228282611c00565b60005b82518110156111d157600083828151811061114257611142613d7a565b60200260200101519050600083838151811061116057611160613d7a565b602002602001015190506111748282612366565b60008281526009602052604081208054839290611192908490613df2565b90915550506000828152600c6020526040812080548392906111b5908490613df2565b92505081905550505080806111c990613d90565b915050611125565b50610c758383836123cd565b610c75838383612573565b6111f0611aba565b6001600160a01b031661120b6001546001600160a01b031690565b6001600160a01b0316146112615760405162461bcd60e51b815260206004820181905260248201527f4f776e61626c653a2063616c6c6572206973206e6f7420746865206f776e65726044820152606401610636565b61126b600061266a565b565b611287600080516020614451833981519152610449611aba565b1561132e5761129585611bd9565b61129f8484611c22565b600084815260096020526040812080548592906112bd908490613d05565b90915550506000848152600c6020526040812080548592906112e0908490613d05565b9250508190555061132985858585858080601f016020809104026020016040519081016040528093929190818152602001838380828437600092019190915250611aec92505050565b610c49565b610c4985858585858080601f0160208091040260200160405190810160405280939291908181526020018383808284376000920191909152506126bc92505050565b61137d6000610449611aba565b806113b1575061138b611aba565b6001600160a01b03166113a66001546001600160a01b031690565b6001600160a01b0316145b6113cd5760405162461bcd60e51b815260040161063690613ca1565b6113d681612764565b50565b604051631ac8311560e21b81523090636b20c454906114049088908890889088908890600401613e3f565b600060405180830381600087803b15801561141e57600080fd5b505af1158015611432573d6000803e3d6000fd5b505050505050505050565b6000918252602082815260408084206001600160a01b0393909316845291905290205460ff1690565b60405163731133e960e01b8152309063731133e990611492908790879060019088908890600401613e83565b600060405180830381600087803b1580156114ac57600080fd5b505af11580156114c0573d6000803e3d6000fd5b5050505050505050565b600e805461068290613bac565b610d136114e2611aba565b8383612777565b6114f66000610449611aba565b8061152a5750611504611aba565b6001600160a01b031661151f6001546001600160a01b031690565b6001600160a01b0316145b6115465760405162461bcd60e51b815260040161063690613ca1565b61154f826119a0565b61156b5760405162461bcd60e51b815260040161063690613ecf565b6000918252600b602052604090912055565b61158a6000610449611aba565b806115be5750611598611aba565b6001600160a01b03166115b36001546001600160a01b031690565b6001600160a01b0316145b6115da5760405162461bcd60e51b815260040161063690613ca1565b600680546001600160a01b0319166001600160a01b0392909216919091179055565b600082815260208190526040902060010154611617816120ff565b610c7583836122bc565b60065460405163c455279160e01b81526001600160a01b03848116600483015260009281169190841690829063c45527919060240160206040518083038186803b15801561166e57600080fd5b505afa158015611682573d6000803e3d6000fd5b505050506040513d601f19601f820116820180604052508101906116a69190613f06565b6001600160a01b031614156116bf576001915050610664565b6001600160a01b0380851660009081526003602090815260408083209387168352929052205460ff165b949350505050565b6116f9611aba565b6001600160a01b0316856001600160a01b0316148061171f575061171f85610570611aba565b61177d5760405162461bcd60e51b815260206004820152602960248201527f455243313135353a2063616c6c6572206973206e6f74206f776e6572206e6f7260448201526808185c1c1c9bdd995960ba1b6064820152608401610636565b610c498585858585612858565b611792611aba565b6001600160a01b03166117ad6001546001600160a01b031690565b6001600160a01b0316146118035760405162461bcd60e51b815260206004820181905260248201527f4f776e61626c653a2063616c6c6572206973206e6f7420746865206f776e65726044820152606401610636565b6001600160a01b0381166118685760405162461bcd60e51b815260206004820152602660248201527f4f776e61626c653a206e6577206f776e657220697320746865207a65726f206160448201526564647265737360d01b6064820152608401610636565b6113d68161266a565b61188b600080516020614451833981519152610449611aba565b156118f85761189c83611113611aba565b6118a68282612366565b600082815260096020526040812080548392906118c4908490613df2565b90915550506000828152600c6020526040812080548392906118e7908490613df2565b90915550610c759050838383612994565b610c75838383612abb565b60003330141561195a57600080368080601f0160208091040260200160405190810160405280939291908181526020018383808284376000920191909152505050503601516001600160a01b0316915061195d9050565b50335b90565b60006001600160e01b03198216636cdb3d1360e11b148061199157506001600160e01b031982166303a24d0760e21b145b80610664575061066482612b2d565b6000908152600860205260409020546001600160a01b0316151590565b6060816119e15750506040805180820190915260018152600360fc1b602082015290565b8160005b8115611a0b57806119f581613d90565b9150611a049050600a83613f39565b91506119e5565b6000816001600160401b03811115611a2557611a25613302565b6040519080825280601f01601f191660200182016040528015611a4f576020820181803683370190505b5090505b84156116e957611a64600183613df2565b9150611a71600a86613f4d565b611a7c906030613d05565b60f81b818381518110611a9157611a91613d7a565b60200101906001600160f81b031916908160001a905350611ab3600a86613f39565b9450611a53565b6000610c84611903565b60006007546001610c849190613d05565b60078054906000611ae583613d90565b9190505550565b6001600160a01b038416611b125760405162461bcd60e51b815260040161063690613f61565b6000611b1c611aba565b90506000611b2985612b62565b90506000611b3685612b62565b9050611b4783600089858589612bad565b60008681526002602090815260408083206001600160a01b038b16845290915281208054879290611b79908490613d05565b909155505060408051878152602081018790526001600160a01b03808a1692600092918716917fc3d58168c5ae7397731d063d5bbf3d657854427343f4c083240f7aacaa2d0f62910160405180910390a4610b9e83600089898989612bb2565b6001600160a01b0381166113d65760405163d92e233d60e01b815260040160405180910390fd5b8051825114610d135760405163193c650160e01b815260040160405180910390fd5b611c2b82612d1d565b600082815260096020526040902054611c45908290613d05565b6000838152600a60205260409020541015611c735760405163af62b48b60e01b815260040160405180910390fd5b6000828152600c6020526040902054611c8d908290613d05565b6000838152600b60205260409020541015610d135760405163bf281df160e01b815260040160405180910390fd5b6001600160a01b038416611ce15760405162461bcd60e51b815260040161063690613f61565b8151835114611d025760405162461bcd60e51b815260040161063690613fa2565b6000611d0c611aba565b9050611d1d81600087878787612bad565b60005b8451811015611db957838181518110611d3b57611d3b613d7a565b602002602001015160026000878481518110611d5957611d59613d7a565b602002602001015181526020019081526020016000206000886001600160a01b03166001600160a01b031681526020019081526020016000206000828254611da19190613d05565b90915550819050611db181613d90565b915050611d20565b50846001600160a01b031660006001600160a01b0316826001600160a01b03167f4a39dc06d4c0dbc64b70af90fd698a233a518aa5d07e595d983b8c0526c8f7fb8787604051611e0a929190613fea565b60405180910390a4610c4981600087878787612d46565b611e4d7f9f2df0fed2c77648de5860a4cc508cd0818c85b8b8a1ab4ceeef8d981c8956a6610449611aba565b611e695760405162461bcd60e51b81526004016106369061400f565b6001600160a01b038416611e8f5760405162461bcd60e51b815260040161063690614055565b8151835114611eb05760405162461bcd60e51b815260040161063690613dab565b60005b8351811015611f3c576000848281518110611ed057611ed0613d7a565b602002602001015190506000848381518110611eee57611eee613d7a565b60200260200101519050611f028282612e10565b60008281526009602052604081208054839290611f20908490613d05565b9250508190555050508080611f3490613d90565b915050611eb3565b50611f4984848484611cbb565b50505050565b8151835114611f705760405162461bcd60e51b815260040161063690613fa2565b6001600160a01b038416611f965760405162461bcd60e51b81526004016106369061409e565b6000611fa0611aba565b9050611fb0818787878787612bad565b60005b8451811015612099576000858281518110611fd057611fd0613d7a565b602002602001015190506000858381518110611fee57611fee613d7a565b60209081029190910181015160008481526002835260408082206001600160a01b038e16835290935291909120549091508181101561203f5760405162461bcd60e51b8152600401610636906140e3565b60008381526002602090815260408083206001600160a01b038e8116855292528083208585039055908b1682528120805484929061207e908490613d05565b925050819055505050508061209290613d90565b9050611fb3565b50846001600160a01b0316866001600160a01b0316826001600160a01b03167f4a39dc06d4c0dbc64b70af90fd698a233a518aa5d07e595d983b8c0526c8f7fb87876040516120e9929190613fea565b60405180910390a461090b818787878787612d46565b6113d68161210b611aba565b612e92565b61211a828261143d565b610d13576000828152602081815260408083206001600160a01b03851684529091529020805460ff19166001179055612151611aba565b6001600160a01b0316816001600160a01b0316837f2f8788117e7eff1d82e926ec794901d17c78024a50270940304540a733656f0d60405160405180910390a45050565b6000306001600160a01b037f0000000000000000000000000000000000000000000000000000000000000000161480156121ee57507f000000000000000000000000000000000000000000000000000000000000000046145b1561221857507f000000000000000000000000000000000000000000000000000000000000000090565b50604080517f00000000000000000000000000000000000000000000000000000000000000006020808301919091527f0000000000000000000000000000000000000000000000000000000000000000828401527f000000000000000000000000000000000000000000000000000000000000000060608301524660808301523060a0808401919091528351808403909101815260c0909201909252805191012090565b6122c6828261143d565b15610d13576000828152602081815260408083206001600160a01b03851684529091529020805460ff191690556122fb611aba565b6001600160a01b0316816001600160a01b0316837ff6391f5c32d9c69d2a47ea670b442974b53935d1edc7fd64eb21e047a839171b60405160405180910390a45050565b6123498282611621565b610d135760405163c19f17a960e01b815260040160405180910390fd5b61236f82612d1d565b60008281526009602052604090205481111561239e57604051635670573960e01b815260040160405180910390fd5b6000828152600c6020526040902054811115610d13576040516311e7ae5960e11b815260040160405180910390fd5b6001600160a01b0383166123f35760405162461bcd60e51b81526004016106369061412d565b80518251146124145760405162461bcd60e51b815260040161063690613fa2565b600061241e611aba565b905061243e81856000868660405180602001604052806000815250612bad565b60005b835181101561250657600084828151811061245e5761245e613d7a565b60200260200101519050600084838151811061247c5761247c613d7a565b60209081029190910181015160008481526002835260408082206001600160a01b038c1683529093529190912054909150818110156124cd5760405162461bcd60e51b815260040161063690614170565b60009283526002602090815260408085206001600160a01b038b16865290915290922091039055806124fe81613d90565b915050612441565b5060006001600160a01b0316846001600160a01b0316826001600160a01b03167f4a39dc06d4c0dbc64b70af90fd698a233a518aa5d07e595d983b8c0526c8f7fb8686604051612557929190613fea565b60405180910390a4604080516020810190915260009052611f49565b61257b611aba565b6001600160a01b0316836001600160a01b031614806125a157506125a183610570611aba565b6125bd5760405162461bcd60e51b8152600401610636906141b4565b80518251146125de5760405162461bcd60e51b815260040161063690613dab565b60005b82518110156111d15760008382815181106125fe576125fe613d7a565b60200260200101519050600083838151811061261c5761261c613d7a565b602002602001015190506126308282612ef6565b6000828152600960205260408120805483929061264e908490613df2565b925050819055505050808061266290613d90565b9150506125e1565b600180546001600160a01b038381166001600160a01b0319831681179093556040519116919082907f8be0079c531659141344cd1fd0a4f28419497f9722a3daafe3b4186f6b6457e090600090a35050565b6126e87f9f2df0fed2c77648de5860a4cc508cd0818c85b8b8a1ab4ceeef8d981c8956a6610449611aba565b6127045760405162461bcd60e51b81526004016106369061400f565b6001600160a01b03841661272a5760405162461bcd60e51b815260040161063690614055565b6127348383612e10565b60008381526009602052604081208054849290612752908490613d05565b90915550611f49905084848484611aec565b8051610d13906005906020840190613171565b816001600160a01b0316836001600160a01b031614156127eb5760405162461bcd60e51b815260206004820152602960248201527f455243313135353a2073657474696e6720617070726f76616c20737461747573604482015268103337b91039b2b63360b91b6064820152608401610636565b6001600160a01b03838116600081815260036020908152604080832094871680845294825291829020805460ff191686151590811790915591519182527f17307eab39ab6107e8899845ad3d59bd9653f200f220920489ca2b5937696c31910160405180910390a3505050565b6001600160a01b03841661287e5760405162461bcd60e51b81526004016106369061409e565b6000612888611aba565b9050600061289585612b62565b905060006128a285612b62565b90506128b2838989858589612bad565b60008681526002602090815260408083206001600160a01b038c168452909152902054858110156128f55760405162461bcd60e51b8152600401610636906140e3565b60008781526002602090815260408083206001600160a01b038d8116855292528083208985039055908a16825281208054889290612934908490613d05565b909155505060408051888152602081018890526001600160a01b03808b16928c821692918816917fc3d58168c5ae7397731d063d5bbf3d657854427343f4c083240f7aacaa2d0f62910160405180910390a4611432848a8a8a8a8a612bb2565b6001600160a01b0383166129ba5760405162461bcd60e51b81526004016106369061412d565b60006129c4611aba565b905060006129d184612b62565b905060006129de84612b62565b90506129fe83876000858560405180602001604052806000815250612bad565b60008581526002602090815260408083206001600160a01b038a16845290915290205484811015612a415760405162461bcd60e51b815260040161063690614170565b60008681526002602090815260408083206001600160a01b038b81168086529184528285208a8703905582518b81529384018a90529092908816917fc3d58168c5ae7397731d063d5bbf3d657854427343f4c083240f7aacaa2d0f62910160405180910390a4604080516020810190915260009052610b9e565b612ac3611aba565b6001600160a01b0316836001600160a01b03161480612ae95750612ae983610570611aba565b612b055760405162461bcd60e51b8152600401610636906141b4565b612b0f8282612ef6565b600082815260096020526040812080548392906118e7908490613df2565b60006001600160e01b03198216637965db0b60e01b148061066457506301ffc9a760e01b6001600160e01b0319831614610664565b60408051600180825281830190925260609160009190602080830190803683370190505090508281600081518110612b9c57612b9c613d7a565b602090810291909101015292915050565b61090b565b6001600160a01b0384163b1561090b5760405163f23a6e6160e01b81526001600160a01b0385169063f23a6e6190612bf69089908990889088908890600401614205565b602060405180830381600087803b158015612c1057600080fd5b505af1925050508015612c40575060408051601f3d908101601f19168201909252612c3d9181019061424a565b60015b612ced57612c4c614267565b806308c379a01415612c865750612c61614282565b80612c6c5750612c88565b8060405162461bcd60e51b815260040161063691906132d6565b505b60405162461bcd60e51b815260206004820152603460248201527f455243313135353a207472616e7366657220746f206e6f6e20455243313135356044820152732932b1b2b4bb32b91034b6b83632b6b2b73a32b960611b6064820152608401610636565b6001600160e01b0319811663f23a6e6160e01b14610b9e5760405162461bcd60e51b81526004016106369061430b565b612d26816119a0565b6113d657604051631000ca0f60e21b815260048101829052602401610636565b6001600160a01b0384163b1561090b5760405163bc197c8160e01b81526001600160a01b0385169063bc197c8190612d8a9089908990889088908890600401614353565b602060405180830381600087803b158015612da457600080fd5b505af1925050508015612dd4575060408051601f3d908101601f19168201909252612dd19181019061424a565b60015b612de057612c4c614267565b6001600160e01b0319811663bc197c8160e01b14610b9e5760405162461bcd60e51b81526004016106369061430b565b612e19826119a0565b612e355760405162461bcd60e51b815260040161063690613ecf565b6000612e4083612f79565b905081811015610c755760405162461bcd60e51b815260206004820152601a60248201527f455243313135355472616461626c653a20216d696e7461626c650000000000006044820152606401610636565b612e9c828261143d565b610d1357612eb4816001600160a01b03166014612fcf565b612ebf836020612fcf565b604051602001612ed09291906143a5565b60408051601f198184030181529082905262461bcd60e51b8252610636916004016132d6565b612eff826119a0565b612f1b5760405162461bcd60e51b815260040161063690613ecf565b600082815260096020526040902054811115610d135760405162461bcd60e51b815260206004820152601a60248201527f455243313135355472616461626c653a20216275726e61626c650000000000006044820152606401610636565b600081815260096020908152604080832054600b835281842054600c845282852054600a90945291842054909290612fb18285613df2565b612fbb8483613df2565b612fc59190613df2565b9695505050505050565b60606000612fde83600261441a565b612fe9906002613d05565b6001600160401b0381111561300057613000613302565b6040519080825280601f01601f19166020018201604052801561302a576020820181803683370190505b509050600360fc1b8160008151811061304557613045613d7a565b60200101906001600160f81b031916908160001a905350600f60fb1b8160018151811061307457613074613d7a565b60200101906001600160f81b031916908160001a905350600061309884600261441a565b6130a3906001613d05565b90505b600181111561311b576f181899199a1a9b1b9c1cb0b131b232b360811b85600f16601081106130d7576130d7613d7a565b1a60f81b8282815181106130ed576130ed613d7a565b60200101906001600160f81b031916908160001a90535060049490941c9361311481614439565b90506130a6565b50831561316a5760405162461bcd60e51b815260206004820181905260248201527f537472696e67733a20686578206c656e67746820696e73756666696369656e746044820152606401610636565b9392505050565b82805461317d90613bac565b90600052602060002090601f01602090048101928261319f57600085556131e5565b82601f106131b857805160ff19168380011785556131e5565b828001600101855582156131e5579182015b828111156131e55782518255916020019190600101906131ca565b506131f19291506131f5565b5090565b5b808211156131f157600081556001016131f6565b6001600160a01b03811681146113d657600080fd5b6000806040838503121561323257600080fd5b823561323d8161320a565b946020939093013593505050565b6001600160e01b0319811681146113d657600080fd5b60006020828403121561327357600080fd5b813561316a8161324b565b60005b83811015613299578181015183820152602001613281565b83811115611f495750506000910152565b600081518084526132c281602086016020860161327e565b601f01601f19169290920160200192915050565b60208152600061316a60208301846132aa565b6000602082840312156132fb57600080fd5b5035919050565b634e487b7160e01b600052604160045260246000fd5b601f8201601f191681016001600160401b038111828210171561333d5761333d613302565b6040525050565b60006001600160401b0383111561335d5761335d613302565b604051613374601f8501601f191660200182613318565b80915083815284848401111561338957600080fd5b83836020830137600060208583010152509392505050565b600082601f8301126133b257600080fd5b61316a83833560208501613344565b600080600080608085870312156133d757600080fd5b84359350602085013592506040850135915060608501356001600160401b0381111561340257600080fd5b61340e878288016133a1565b91505092959194509250565b60008083601f84011261342c57600080fd5b5081356001600160401b0381111561344357600080fd5b6020830191508360208260051b850101111561345e57600080fd5b9250929050565b60008083601f84011261347757600080fd5b5081356001600160401b0381111561348e57600080fd5b60208301915083602082850101111561345e57600080fd5b60008060008060008060006080888a0312156134c157600080fd5b87356134cc8161320a565b965060208801356001600160401b03808211156134e857600080fd5b6134f48b838c0161341a565b909850965060408a013591508082111561350d57600080fd5b6135198b838c0161341a565b909650945060608a013591508082111561353257600080fd5b5061353f8a828b01613465565b989b979a50959850939692959293505050565b60006001600160401b0382111561356b5761356b613302565b5060051b60200190565b600082601f83011261358657600080fd5b8135602061359382613552565b6040516135a08282613318565b83815260059390931b85018201928281019150868411156135c057600080fd5b8286015b848110156135db57803583529183019183016135c4565b509695505050505050565b600080600080600060a086880312156135fe57600080fd5b85356136098161320a565b945060208601356136198161320a565b935060408601356001600160401b038082111561363557600080fd5b61364189838a01613575565b9450606088013591508082111561365757600080fd5b61366389838a01613575565b9350608088013591508082111561367957600080fd5b50613686888289016133a1565b9150509295509295909350565b600080604083850312156136a657600080fd5b8235915060208301356136b88161320a565b809150509250929050565b600080604083850312156136d657600080fd5b82356001600160401b03808211156136ed57600080fd5b818501915085601f83011261370157600080fd5b8135602061370e82613552565b60405161371b8282613318565b83815260059390931b850182019282810191508984111561373b57600080fd5b948201945b838610156137625785356137538161320a565b82529482019490820190613740565b9650508601359250508082111561377857600080fd5b5061378585828601613575565b9150509250929050565b600081518084526020808501945080840160005b838110156137bf578151875295820195908201906001016137a3565b509495945050505050565b60208152600061316a602083018461378f565b600080600080608085870312156137f357600080fd5b84356001600160401b038082111561380a57600080fd5b61381688838901613575565b9550602087013591508082111561382c57600080fd5b61383888838901613575565b9450604087013591508082111561384e57600080fd5b61385a88838901613575565b9350606087013591508082111561387057600080fd5b5061340e878288016133a1565b60008060006060848603121561389257600080fd5b833561389d8161320a565b925060208401356001600160401b03808211156138b957600080fd5b6138c587838801613575565b935060408601359150808211156138db57600080fd5b506138e886828701613575565b9150509250925092565b60008060008060006080868803121561390a57600080fd5b85356139158161320a565b9450602086013593506040860135925060608601356001600160401b0381111561393e57600080fd5b61394a88828901613465565b969995985093965092949392505050565b60006020828403121561396d57600080fd5b81356001600160401b0381111561398357600080fd5b8201601f8101841361399457600080fd5b6116e984823560208401613344565b6000806000806000606086880312156139bb57600080fd5b85356139c68161320a565b945060208601356001600160401b03808211156139e257600080fd5b6139ee89838a0161341a565b90965094506040880135915080821115613a0757600080fd5b5061394a8882890161341a565b60008060008060608587031215613a2a57600080fd5b8435613a358161320a565b93506020850135925060408501356001600160401b03811115613a5757600080fd5b613a6387828801613465565b95989497509550505050565b60008060408385031215613a8257600080fd5b8235613a8d8161320a565b9150602083013580151581146136b857600080fd5b60008060408385031215613ab557600080fd5b50508035926020909101359150565b600060208284031215613ad657600080fd5b813561316a8161320a565b60008060408385031215613af457600080fd5b8235613aff8161320a565b915060208301356136b88161320a565b600080600080600060a08688031215613b2757600080fd5b8535613b328161320a565b94506020860135613b428161320a565b9350604086013592506060860135915060808601356001600160401b03811115613b6b57600080fd5b613686888289016133a1565b600080600060608486031215613b8c57600080fd5b8335613b978161320a565b95602085013595506040909401359392505050565b600181811c90821680613bc057607f821691505b60208210811415613be157634e487b7160e01b600052602260045260246000fd5b50919050565b60008151613bf981856020860161327e565b9290920192915050565b600080845481600182811c915080831680613c1f57607f831692505b6020808410821415613c3f57634e487b7160e01b86526022600452602486fd5b818015613c535760018114613c6457613c91565b60ff19861689528489019650613c91565b60008b81526020902060005b86811015613c895781548b820152908501908301613c70565b505084890196505b50505050505061089f8185613be7565b6020808252602e908201527f455243313135355472616461626c653a206d75737420686176652061646d696e60408201526d206f72206f776e657220726f6c6560901b606082015260800190565b634e487b7160e01b600052601160045260246000fd5b60008219821115613d1857613d18613cef565b500190565b6020808252603e908201527f455243313135355472616461626c653a20496e697469616c20737570706c792060408201527f63616e6e6f74206265206d6f7265207468616e206d617820737570706c790000606082015260800190565b634e487b7160e01b600052603260045260246000fd5b6000600019821415613da457613da4613cef565b5060010190565b60208082526027908201527f455243313135355472616461626c653a20617272617973206c656e677468206d6040820152660d2e6dac2e8c6d60cb1b606082015260800190565b600082821015613e0457613e04613cef565b500390565b81835260006001600160fb1b03831115613e2257600080fd5b8260051b8083602087013760009401602001938452509192915050565b6001600160a01b0386168152606060208201819052600090613e649083018688613e09565b8281036040840152613e77818587613e09565b98975050505050505050565b60018060a01b038616815284602082015283604082015260806060820152816080820152818360a0830137600081830160a090810191909152601f909201601f19160101949350505050565b60208082526018908201527f455243313135355472616461626c653a20216578697374730000000000000000604082015260600190565b600060208284031215613f1857600080fd5b815161316a8161320a565b634e487b7160e01b600052601260045260246000fd5b600082613f4857613f48613f23565b500490565b600082613f5c57613f5c613f23565b500690565b60208082526021908201527f455243313135353a206d696e7420746f20746865207a65726f206164647265736040820152607360f81b606082015260800190565b60208082526028908201527f455243313135353a2069647320616e6420616d6f756e7473206c656e677468206040820152670dad2e6dac2e8c6d60c31b606082015260800190565b604081526000613ffd604083018561378f565b828103602084015261089f818561378f565b60208082526026908201527f455243313135355472616461626c653a206d7573742068617665206d696e74656040820152657220726f6c6560d01b606082015260800190565b60208082526029908201527f455243313135355472616461626c653a206d696e7420746f20746865207a65726040820152686f206164647265737360b81b606082015260800190565b60208082526025908201527f455243313135353a207472616e7366657220746f20746865207a65726f206164604082015264647265737360d81b606082015260800190565b6020808252602a908201527f455243313135353a20696e73756666696369656e742062616c616e636520666f60408201526939103a3930b739b332b960b11b606082015260800190565b60208082526023908201527f455243313135353a206275726e2066726f6d20746865207a65726f206164647260408201526265737360e81b606082015260800190565b60208082526024908201527f455243313135353a206275726e20616d6f756e7420657863656564732062616c604082015263616e636560e01b606082015260800190565b60208082526031908201527f455243313135355472616461626c653a2063616c6c6572206973206e6f74206f6040820152701ddb995c881b9bdc88185c1c1c9bdd9959607a1b606082015260800190565b6001600160a01b03868116825285166020820152604081018490526060810183905260a06080820181905260009061423f908301846132aa565b979650505050505050565b60006020828403121561425c57600080fd5b815161316a8161324b565b600060033d111561195d5760046000803e5060005160e01c90565b600060443d10156142905790565b6040516003193d81016004833e81513d6001600160401b0381602484011181841117156142bf57505050505090565b82850191508151818111156142d75750505050505090565b843d87010160208285010111156142f15750505050505090565b61430060208286010187613318565b509095945050505050565b60208082526028908201527f455243313135353a204552433131353552656365697665722072656a656374656040820152676420746f6b656e7360c01b606082015260800190565b6001600160a01b0386811682528516602082015260a06040820181905260009061437f9083018661378f565b8281036060840152614391818661378f565b90508281036080840152613e7781856132aa565b7f416363657373436f6e74726f6c3a206163636f756e74200000000000000000008152600083516143dd81601785016020880161327e565b7001034b99036b4b9b9b4b733903937b6329607d1b601791840191820152835161440e81602884016020880161327e565b01602801949350505050565b600081600019048311821515161561443457614434613cef565b500290565b60008161444857614448613cef565b50600019019056fe52ba824bfabc2bcfcdf7f0edbb486ebb05e1836c90e78047efeb949990f72e5fa2646970667358221220f693143925f200414f30a559a6416ec66231a2b392e7162575cafcb300f9a70d64736f6c6343000809003343727970746f204b6f6d62617420436f6c6c656374696f6e20457468657265756d",
  "devdoc": {
    "errors": {
      "NotExists(uint256)": [
        {
          "params": {
            "tokenId": "token id."
          }
        }
      ]
    },
    "kind": "dev",
    "methods": {
      "DOMAIN_SEPARATOR()": {
        "details": "See {EIP712-DOMAIN_SEPARATOR}."
      },
      "balanceOf(address,uint256)": {
        "details": "See {IERC1155-balanceOf}. Requirements: - `account` cannot be the zero address."
      },
      "balanceOfBatch(address[],uint256[])": {
        "details": "See {IERC1155-balanceOfBatch}. Requirements: - `accounts` and `ids` must have the same length."
      },
      "bridgedSupply(uint256)": {
        "details": "Returns the bridged quantity for a token ID",
        "params": {
          "_id": "uint256 ID of the token to query"
        },
        "returns": {
          "_0": "amount of token in existence"
        }
      },
      "create(uint256,uint256,uint256,bytes)": {
        "details": "Creates a new token type and assigns _initial to a sender",
        "params": {
          "_data": "Optional data to pass if receiver is contract",
          "_initial": "how many tokens to mint initially",
          "_max": "max supply allowed",
          "_reserved": "original supply"
        },
        "returns": {
          "tokenId": "The newly created token ID"
        }
      },
      "createBatch(uint256[],uint256[],uint256[],bytes)": {
        "details": "Creates some amount of tokens type and assigns initials to a sender",
        "params": {
          "_maxs": "max supply allowed",
          "_mints": "how many tokens to mint initially",
          "_reserveds": "reserved supply"
        }
      },
      "exists(uint256)": {
        "details": "Returns whether the specified token exists by checking to see if it has a creator",
        "params": {
          "_id": "uint256 ID of the token to query the existence of"
        },
        "returns": {
          "_0": "bool whether the token exists"
        }
      },
      "getRoleAdmin(bytes32)": {
        "details": "Returns the admin role that controls `role`. See {grantRole} and {revokeRole}. To change a role's admin, use {_setRoleAdmin}."
      },
      "grantRole(bytes32,address)": {
        "details": "Grants `role` to `account`. If `account` had not been already granted `role`, emits a {RoleGranted} event. Requirements: - the caller must have ``role``'s admin role."
      },
      "hasRole(bytes32,address)": {
        "details": "Returns `true` if `account` has been granted `role`."
      },
      "maxSupply(uint256)": {
        "details": "Returns the max quantity for a token ID",
        "params": {
          "_id": "uint256 ID of the token to query"
        },
        "returns": {
          "_0": "amount of token in existence"
        }
      },
      "owner()": {
        "details": "Returns the address of the current owner."
      },
      "renounceOwnership()": {
        "details": "Leaves the contract without owner. It will not be possible to call `onlyOwner` functions anymore. Can only be called by the current owner. NOTE: Renouncing ownership will leave the contract without an owner, thereby removing any functionality that is only available to the owner."
      },
      "renounceRole(bytes32,address)": {
        "details": "Revokes `role` from the calling account. Roles are often managed via {grantRole} and {revokeRole}: this function's purpose is to provide a mechanism for accounts to lose their privileges if they are compromised (such as when a trusted device is misplaced). If the calling account had been revoked `role`, emits a {RoleRevoked} event. Requirements: - the caller must be `account`."
      },
      "reservedSupply(uint256)": {
        "details": "Returns the reserved quantity for a token ID",
        "params": {
          "_id": "uint256 ID of the token to query"
        },
        "returns": {
          "_0": "amount of token in existence"
        }
      },
      "revokeRole(bytes32,address)": {
        "details": "Revokes `role` from `account`. If `account` had been granted `role`, emits a {RoleRevoked} event. Requirements: - the caller must have ``role``'s admin role."
      },
      "safeBatchTransferFrom(address,address,uint256[],uint256[],bytes)": {
        "details": "See {IERC1155-safeBatchTransferFrom}."
      },
      "safeTransferFrom(address,address,uint256,uint256,bytes)": {
        "details": "See {IERC1155-safeTransferFrom}."
      },
      "setApprovalForAll(address,bool)": {
        "details": "See {IERC1155-setApprovalForAll}."
      },
      "setBaseMetadataURI(string)": {
        "details": "Will update the base URL of token's URI",
        "params": {
          "_newBaseMetadataURI": "New base URL of token's URI"
        }
      },
      "setProxyRegistryAddress(address)": {
        "details": "Will update the proxyRegistryAddress",
        "params": {
          "_newProxyRegistryAddress": "New proxyRegistryAddress"
        }
      },
      "setReservedSupply(uint256,uint256)": {
        "details": "Will update _reservedSupply for the given tokenID",
        "params": {
          "_id": "uint256 ID of the token to update",
          "_value": "uint256 amount"
        }
      },
      "supportsInterface(bytes4)": {
        "details": "See {IERC165-supportsInterface}."
      },
      "totalSupply(uint256)": {
        "details": "Returns the total quantity for a token ID",
        "params": {
          "_id": "uint256 ID of the token to query"
        },
        "returns": {
          "_0": "amount of token in existence"
        }
      },
      "transferOwnership(address)": {
        "details": "Transfers ownership of the contract to a new account (`newOwner`). Can only be called by the current owner."
      }
    },
    "version": 1
  },
  "userdoc": {
    "errors": {
      "BridgedOverflow()": [
        {
          "notice": "Token id bridged amount overflow"
        }
      ],
      "LengthMistmach()": [
        {
          "notice": "Not same arrays length"
        }
      ],
      "MaxUnderflow()": [
        {
          "notice": "Token id max amount underflow"
        }
      ],
      "NotApproved()": [
        {
          "notice": "Collection is not approved to _msgSender()"
        }
      ],
      "NotExists(uint256)": [
        {
          "notice": "Token id doesn't exists"
        }
      ],
      "ReservedUnderflow()": [
        {
          "notice": "Token id reserved amount underflow"
        }
      ],
      "TotalOverflow()": [
        {
          "notice": "Token id total amount overflow"
        }
      ],
      "ZeroAddress()": [
        {
          "notice": "Transaction `from` or `to` zero address"
        }
      ]
    },
    "kind": "user",
    "methods": {
      "isApprovedForAll(address,address)": {
        "notice": "Override isApprovedForAll to whitelist user's OpenSea proxy accounts to enable gas-free listings."
      }
    },
    "version": 1
  },
  "storageLayout": {
    "storage": [
      {
        "astId": 24,
        "contract": "contracts/ERC1155/CryptoKombatCollectionEthereum.sol:CryptoKombatCollectionEthereum",
        "label": "_roles",
        "offset": 0,
        "slot": "0",
        "type": "t_mapping(t_bytes32,t_struct(RoleData)19_storage)"
      },
      {
        "astId": 550,
        "contract": "contracts/ERC1155/CryptoKombatCollectionEthereum.sol:CryptoKombatCollectionEthereum",
        "label": "_owner",
        "offset": 0,
        "slot": "1",
        "type": "t_address"
      },
      {
        "astId": 765,
        "contract": "contracts/ERC1155/CryptoKombatCollectionEthereum.sol:CryptoKombatCollectionEthereum",
        "label": "_balances",
        "offset": 0,
        "slot": "2",
        "type": "t_mapping(t_uint256,t_mapping(t_address,t_uint256))"
      },
      {
        "astId": 771,
        "contract": "contracts/ERC1155/CryptoKombatCollectionEthereum.sol:CryptoKombatCollectionEthereum",
        "label": "_operatorApprovals",
        "offset": 0,
        "slot": "3",
        "type": "t_mapping(t_address,t_mapping(t_address,t_bool))"
      },
      {
        "astId": 773,
        "contract": "contracts/ERC1155/CryptoKombatCollectionEthereum.sol:CryptoKombatCollectionEthereum",
        "label": "_uri",
        "offset": 0,
        "slot": "4",
        "type": "t_string_storage"
      },
      {
        "astId": 7344,
        "contract": "contracts/ERC1155/CryptoKombatCollectionEthereum.sol:CryptoKombatCollectionEthereum",
        "label": "baseMetadataURI",
        "offset": 0,
        "slot": "5",
        "type": "t_string_storage"
      },
      {
        "astId": 7346,
        "contract": "contracts/ERC1155/CryptoKombatCollectionEthereum.sol:CryptoKombatCollectionEthereum",
        "label": "proxyRegistryAddress",
        "offset": 0,
        "slot": "6",
        "type": "t_address"
      },
      {
        "astId": 7349,
        "contract": "contracts/ERC1155/CryptoKombatCollectionEthereum.sol:CryptoKombatCollectionEthereum",
        "label": "_currentTokenID",
        "offset": 0,
        "slot": "7",
        "type": "t_uint256"
      },
      {
        "astId": 7353,
        "contract": "contracts/ERC1155/CryptoKombatCollectionEthereum.sol:CryptoKombatCollectionEthereum",
        "label": "creators",
        "offset": 0,
        "slot": "8",
        "type": "t_mapping(t_uint256,t_address)"
      },
      {
        "astId": 7357,
        "contract": "contracts/ERC1155/CryptoKombatCollectionEthereum.sol:CryptoKombatCollectionEthereum",
        "label": "_totalSupply",
        "offset": 0,
        "slot": "9",
        "type": "t_mapping(t_uint256,t_uint256)"
      },
      {
        "astId": 7361,
        "contract": "contracts/ERC1155/CryptoKombatCollectionEthereum.sol:CryptoKombatCollectionEthereum",
        "label": "_maxSupply",
        "offset": 0,
        "slot": "10",
        "type": "t_mapping(t_uint256,t_uint256)"
      },
      {
        "astId": 7365,
        "contract": "contracts/ERC1155/CryptoKombatCollectionEthereum.sol:CryptoKombatCollectionEthereum",
        "label": "_reservedSupply",
        "offset": 0,
        "slot": "11",
        "type": "t_mapping(t_uint256,t_uint256)"
      },
      {
        "astId": 7369,
        "contract": "contracts/ERC1155/CryptoKombatCollectionEthereum.sol:CryptoKombatCollectionEthereum",
        "label": "_bridgedSupply",
        "offset": 0,
        "slot": "12",
        "type": "t_mapping(t_uint256,t_uint256)"
      },
      {
        "astId": 7371,
        "contract": "contracts/ERC1155/CryptoKombatCollectionEthereum.sol:CryptoKombatCollectionEthereum",
        "label": "name",
        "offset": 0,
        "slot": "13",
        "type": "t_string_storage"
      },
      {
        "astId": 7373,
        "contract": "contracts/ERC1155/CryptoKombatCollectionEthereum.sol:CryptoKombatCollectionEthereum",
        "label": "symbol",
        "offset": 0,
        "slot": "14",
        "type": "t_string_storage"
      }
    ],
    "types": {
      "t_address": {
        "encoding": "inplace",
        "label": "address",
        "numberOfBytes": "20"
      },
      "t_bool": {
        "encoding": "inplace",
        "label": "bool",
        "numberOfBytes": "1"
      },
      "t_bytes32": {
        "encoding": "inplace",
        "label": "bytes32",
        "numberOfBytes": "32"
      },
      "t_mapping(t_address,t_bool)": {
        "encoding": "mapping",
        "key": "t_address",
        "label": "mapping(address => bool)",
        "numberOfBytes": "32",
        "value": "t_bool"
      },
      "t_mapping(t_address,t_mapping(t_address,t_bool))": {
        "encoding": "mapping",
        "key": "t_address",
        "label": "mapping(address => mapping(address => bool))",
        "numberOfBytes": "32",
        "value": "t_mapping(t_address,t_bool)"
      },
      "t_mapping(t_address,t_uint256)": {
        "encoding": "mapping",
        "key": "t_address",
        "label": "mapping(address => uint256)",
        "numberOfBytes": "32",
        "value": "t_uint256"
      },
      "t_mapping(t_bytes32,t_struct(RoleData)19_storage)": {
        "encoding": "mapping",
        "key": "t_bytes32",
        "label": "mapping(bytes32 => struct AccessControl.RoleData)",
        "numberOfBytes": "32",
        "value": "t_struct(RoleData)19_storage"
      },
      "t_mapping(t_uint256,t_address)": {
        "encoding": "mapping",
        "key": "t_uint256",
        "label": "mapping(uint256 => address)",
        "numberOfBytes": "32",
        "value": "t_address"
      },
      "t_mapping(t_uint256,t_mapping(t_address,t_uint256))": {
        "encoding": "mapping",
        "key": "t_uint256",
        "label": "mapping(uint256 => mapping(address => uint256))",
        "numberOfBytes": "32",
        "value": "t_mapping(t_address,t_uint256)"
      },
      "t_mapping(t_uint256,t_uint256)": {
        "encoding": "mapping",
        "key": "t_uint256",
        "label": "mapping(uint256 => uint256)",
        "numberOfBytes": "32",
        "value": "t_uint256"
      },
      "t_string_storage": {
        "encoding": "bytes",
        "label": "string",
        "numberOfBytes": "32"
      },
      "t_struct(RoleData)19_storage": {
        "encoding": "inplace",
        "label": "struct AccessControl.RoleData",
        "members": [
          {
            "astId": 16,
            "contract": "contracts/ERC1155/CryptoKombatCollectionEthereum.sol:CryptoKombatCollectionEthereum",
            "label": "members",
            "offset": 0,
            "slot": "0",
            "type": "t_mapping(t_address,t_bool)"
          },
          {
            "astId": 18,
            "contract": "contracts/ERC1155/CryptoKombatCollectionEthereum.sol:CryptoKombatCollectionEthereum",
            "label": "adminRole",
            "offset": 0,
            "slot": "1",
            "type": "t_bytes32"
          }
        ],
        "numberOfBytes": "64"
      },
      "t_uint256": {
        "encoding": "inplace",
        "label": "uint256",
        "numberOfBytes": "32"
      }
    }
  }
}