{
  "address": "0x3a0b1bFb1F1D247d3bB7A488D2F12321081A7940",
  "abi": [
    {
      "inputs": [
        {
          "internalType": "string",
          "name": "_baseUri",
          "type": "string"
        },
        {
          "internalType": "address",
          "name": "_proxyRegistryAddress",
          "type": "address"
        }
      ],
      "stateMutability": "nonpayable",
      "type": "constructor"
    },
    {
      "anonymous": false,
      "inputs": [
        {
          "indexed": true,
          "internalType": "address",
          "name": "account",
          "type": "address"
        },
        {
          "indexed": true,
          "internalType": "address",
          "name": "operator",
          "type": "address"
        },
        {
          "indexed": false,
          "internalType": "bool",
          "name": "approved",
          "type": "bool"
        }
      ],
      "name": "ApprovalForAll",
      "type": "event"
    },
    {
      "anonymous": false,
      "inputs": [
        {
          "indexed": true,
          "internalType": "address",
          "name": "previousOwner",
          "type": "address"
        },
        {
          "indexed": true,
          "internalType": "address",
          "name": "newOwner",
          "type": "address"
        }
      ],
      "name": "OwnershipTransferred",
      "type": "event"
    },
    {
      "anonymous": false,
      "inputs": [
        {
          "indexed": true,
          "internalType": "bytes32",
          "name": "role",
          "type": "bytes32"
        },
        {
          "indexed": true,
          "internalType": "bytes32",
          "name": "previousAdminRole",
          "type": "bytes32"
        },
        {
          "indexed": true,
          "internalType": "bytes32",
          "name": "newAdminRole",
          "type": "bytes32"
        }
      ],
      "name": "RoleAdminChanged",
      "type": "event"
    },
    {
      "anonymous": false,
      "inputs": [
        {
          "indexed": true,
          "internalType": "bytes32",
          "name": "role",
          "type": "bytes32"
        },
        {
          "indexed": true,
          "internalType": "address",
          "name": "account",
          "type": "address"
        },
        {
          "indexed": true,
          "internalType": "address",
          "name": "sender",
          "type": "address"
        }
      ],
      "name": "RoleGranted",
      "type": "event"
    },
    {
      "anonymous": false,
      "inputs": [
        {
          "indexed": true,
          "internalType": "bytes32",
          "name": "role",
          "type": "bytes32"
        },
        {
          "indexed": true,
          "internalType": "address",
          "name": "account",
          "type": "address"
        },
        {
          "indexed": true,
          "internalType": "address",
          "name": "sender",
          "type": "address"
        }
      ],
      "name": "RoleRevoked",
      "type": "event"
    },
    {
      "anonymous": false,
      "inputs": [
        {
          "indexed": true,
          "internalType": "address",
          "name": "operator",
          "type": "address"
        },
        {
          "indexed": true,
          "internalType": "address",
          "name": "from",
          "type": "address"
        },
        {
          "indexed": true,
          "internalType": "address",
          "name": "to",
          "type": "address"
        },
        {
          "indexed": false,
          "internalType": "uint256[]",
          "name": "ids",
          "type": "uint256[]"
        },
        {
          "indexed": false,
          "internalType": "uint256[]",
          "name": "values",
          "type": "uint256[]"
        }
      ],
      "name": "TransferBatch",
      "type": "event"
    },
    {
      "anonymous": false,
      "inputs": [
        {
          "indexed": true,
          "internalType": "address",
          "name": "operator",
          "type": "address"
        },
        {
          "indexed": true,
          "internalType": "address",
          "name": "from",
          "type": "address"
        },
        {
          "indexed": true,
          "internalType": "address",
          "name": "to",
          "type": "address"
        },
        {
          "indexed": false,
          "internalType": "uint256",
          "name": "id",
          "type": "uint256"
        },
        {
          "indexed": false,
          "internalType": "uint256",
          "name": "value",
          "type": "uint256"
        }
      ],
      "name": "TransferSingle",
      "type": "event"
    },
    {
      "anonymous": false,
      "inputs": [
        {
          "indexed": false,
          "internalType": "string",
          "name": "value",
          "type": "string"
        },
        {
          "indexed": true,
          "internalType": "uint256",
          "name": "id",
          "type": "uint256"
        }
      ],
      "name": "URI",
      "type": "event"
    },
    {
      "inputs": [],
      "name": "DEFAULT_ADMIN_ROLE",
      "outputs": [
        {
          "internalType": "bytes32",
          "name": "",
          "type": "bytes32"
        }
      ],
      "stateMutability": "view",
      "type": "function"
    },
    {
      "inputs": [],
      "name": "DEPOSITOR_ROLE",
      "outputs": [
        {
          "internalType": "bytes32",
          "name": "",
          "type": "bytes32"
        }
      ],
      "stateMutability": "view",
      "type": "function"
    },
    {
      "inputs": [],
      "name": "DOMAIN_SEPARATOR",
      "outputs": [
        {
          "internalType": "bytes32",
          "name": "",
          "type": "bytes32"
        }
      ],
      "stateMutability": "view",
      "type": "function"
    },
    {
      "inputs": [],
      "name": "MINTER_ROLE",
      "outputs": [
        {
          "internalType": "bytes32",
          "name": "",
          "type": "bytes32"
        }
      ],
      "stateMutability": "view",
      "type": "function"
    },
    {
      "inputs": [
        {
          "internalType": "address",
          "name": "account",
          "type": "address"
        },
        {
          "internalType": "uint256",
          "name": "id",
          "type": "uint256"
        }
      ],
      "name": "balanceOf",
      "outputs": [
        {
          "internalType": "uint256",
          "name": "",
          "type": "uint256"
        }
      ],
      "stateMutability": "view",
      "type": "function"
    },
    {
      "inputs": [
        {
          "internalType": "address[]",
          "name": "accounts",
          "type": "address[]"
        },
        {
          "internalType": "uint256[]",
          "name": "ids",
          "type": "uint256[]"
        }
      ],
      "name": "balanceOfBatch",
      "outputs": [
        {
          "internalType": "uint256[]",
          "name": "",
          "type": "uint256[]"
        }
      ],
      "stateMutability": "view",
      "type": "function"
    },
    {
      "inputs": [
        {
          "internalType": "address",
          "name": "account",
          "type": "address"
        },
        {
          "internalType": "uint256",
          "name": "id",
          "type": "uint256"
        },
        {
          "internalType": "uint256",
          "name": "value",
          "type": "uint256"
        }
      ],
      "name": "burn",
      "outputs": [],
      "stateMutability": "nonpayable",
      "type": "function"
    },
    {
      "inputs": [
        {
          "internalType": "address",
          "name": "account",
          "type": "address"
        },
        {
          "internalType": "uint256[]",
          "name": "ids",
          "type": "uint256[]"
        },
        {
          "internalType": "uint256[]",
          "name": "values",
          "type": "uint256[]"
        }
      ],
      "name": "burnBatch",
      "outputs": [],
      "stateMutability": "nonpayable",
      "type": "function"
    },
    {
      "inputs": [
        {
          "internalType": "uint256",
          "name": "_max",
          "type": "uint256"
        },
        {
          "internalType": "uint256",
          "name": "_initial",
          "type": "uint256"
        },
        {
          "internalType": "bytes",
          "name": "_data",
          "type": "bytes"
        }
      ],
      "name": "create",
      "outputs": [
        {
          "internalType": "uint256",
          "name": "tokenId",
          "type": "uint256"
        }
      ],
      "stateMutability": "nonpayable",
      "type": "function"
    },
    {
      "inputs": [
        {
          "internalType": "uint256[]",
          "name": "_maxs",
          "type": "uint256[]"
        },
        {
          "internalType": "uint256[]",
          "name": "_initials",
          "type": "uint256[]"
        },
        {
          "internalType": "bytes",
          "name": "_data",
          "type": "bytes"
        }
      ],
      "name": "createBatch",
      "outputs": [],
      "stateMutability": "nonpayable",
      "type": "function"
    },
    {
      "inputs": [
        {
          "internalType": "uint256",
          "name": "",
          "type": "uint256"
        }
      ],
      "name": "creators",
      "outputs": [
        {
          "internalType": "address",
          "name": "",
          "type": "address"
        }
      ],
      "stateMutability": "view",
      "type": "function"
    },
    {
      "inputs": [
        {
          "internalType": "address",
          "name": "user",
          "type": "address"
        },
        {
          "internalType": "bytes",
          "name": "depositData",
          "type": "bytes"
        }
      ],
      "name": "deposit",
      "outputs": [],
      "stateMutability": "nonpayable",
      "type": "function"
    },
    {
      "inputs": [
        {
          "internalType": "bytes32",
          "name": "role",
          "type": "bytes32"
        }
      ],
      "name": "getRoleAdmin",
      "outputs": [
        {
          "internalType": "bytes32",
          "name": "",
          "type": "bytes32"
        }
      ],
      "stateMutability": "view",
      "type": "function"
    },
    {
      "inputs": [
        {
          "internalType": "bytes32",
          "name": "role",
          "type": "bytes32"
        },
        {
          "internalType": "address",
          "name": "account",
          "type": "address"
        }
      ],
      "name": "grantRole",
      "outputs": [],
      "stateMutability": "nonpayable",
      "type": "function"
    },
    {
      "inputs": [
        {
          "internalType": "bytes32",
          "name": "role",
          "type": "bytes32"
        },
        {
          "internalType": "address",
          "name": "account",
          "type": "address"
        }
      ],
      "name": "hasRole",
      "outputs": [
        {
          "internalType": "bool",
          "name": "",
          "type": "bool"
        }
      ],
      "stateMutability": "view",
      "type": "function"
    },
    {
      "inputs": [
        {
          "internalType": "address",
          "name": "_owner",
          "type": "address"
        },
        {
          "internalType": "address",
          "name": "_operator",
          "type": "address"
        }
      ],
      "name": "isApprovedForAll",
      "outputs": [
        {
          "internalType": "bool",
          "name": "isOperator",
          "type": "bool"
        }
      ],
      "stateMutability": "view",
      "type": "function"
    },
    {
      "inputs": [
        {
          "internalType": "uint256",
          "name": "_id",
          "type": "uint256"
        }
      ],
      "name": "maxSupply",
      "outputs": [
        {
          "internalType": "uint256",
          "name": "",
          "type": "uint256"
        }
      ],
      "stateMutability": "view",
      "type": "function"
    },
    {
      "inputs": [
        {
          "internalType": "address",
          "name": "_to",
          "type": "address"
        },
        {
          "internalType": "uint256",
          "name": "_id",
          "type": "uint256"
        },
        {
          "internalType": "uint256",
          "name": "_quantity",
          "type": "uint256"
        },
        {
          "internalType": "bytes",
          "name": "_data",
          "type": "bytes"
        }
      ],
      "name": "mint",
      "outputs": [],
      "stateMutability": "nonpayable",
      "type": "function"
    },
    {
      "inputs": [
        {
          "internalType": "address",
          "name": "_to",
          "type": "address"
        },
        {
          "internalType": "uint256[]",
          "name": "_ids",
          "type": "uint256[]"
        },
        {
          "internalType": "uint256[]",
          "name": "_quantities",
          "type": "uint256[]"
        },
        {
          "internalType": "bytes",
          "name": "_data",
          "type": "bytes"
        }
      ],
      "name": "mintBatch",
      "outputs": [],
      "stateMutability": "nonpayable",
      "type": "function"
    },
    {
      "inputs": [],
      "name": "name",
      "outputs": [
        {
          "internalType": "string",
          "name": "",
          "type": "string"
        }
      ],
      "stateMutability": "view",
      "type": "function"
    },
    {
      "inputs": [],
      "name": "owner",
      "outputs": [
        {
          "internalType": "address",
          "name": "",
          "type": "address"
        }
      ],
      "stateMutability": "view",
      "type": "function"
    },
    {
      "inputs": [],
      "name": "renounceOwnership",
      "outputs": [],
      "stateMutability": "nonpayable",
      "type": "function"
    },
    {
      "inputs": [
        {
          "internalType": "bytes32",
          "name": "role",
          "type": "bytes32"
        },
        {
          "internalType": "address",
          "name": "account",
          "type": "address"
        }
      ],
      "name": "renounceRole",
      "outputs": [],
      "stateMutability": "nonpayable",
      "type": "function"
    },
    {
      "inputs": [
        {
          "internalType": "bytes32",
          "name": "role",
          "type": "bytes32"
        },
        {
          "internalType": "address",
          "name": "account",
          "type": "address"
        }
      ],
      "name": "revokeRole",
      "outputs": [],
      "stateMutability": "nonpayable",
      "type": "function"
    },
    {
      "inputs": [
        {
          "internalType": "address",
          "name": "from",
          "type": "address"
        },
        {
          "internalType": "address",
          "name": "to",
          "type": "address"
        },
        {
          "internalType": "uint256[]",
          "name": "ids",
          "type": "uint256[]"
        },
        {
          "internalType": "uint256[]",
          "name": "amounts",
          "type": "uint256[]"
        },
        {
          "internalType": "bytes",
          "name": "data",
          "type": "bytes"
        }
      ],
      "name": "safeBatchTransferFrom",
      "outputs": [],
      "stateMutability": "nonpayable",
      "type": "function"
    },
    {
      "inputs": [
        {
          "internalType": "address",
          "name": "from",
          "type": "address"
        },
        {
          "internalType": "address",
          "name": "to",
          "type": "address"
        },
        {
          "internalType": "uint256",
          "name": "id",
          "type": "uint256"
        },
        {
          "internalType": "uint256",
          "name": "amount",
          "type": "uint256"
        },
        {
          "internalType": "bytes",
          "name": "data",
          "type": "bytes"
        }
      ],
      "name": "safeTransferFrom",
      "outputs": [],
      "stateMutability": "nonpayable",
      "type": "function"
    },
    {
      "inputs": [
        {
          "internalType": "address",
          "name": "operator",
          "type": "address"
        },
        {
          "internalType": "bool",
          "name": "approved",
          "type": "bool"
        }
      ],
      "name": "setApprovalForAll",
      "outputs": [],
      "stateMutability": "nonpayable",
      "type": "function"
    },
    {
      "inputs": [
        {
          "internalType": "string",
          "name": "_newBaseMetadataURI",
          "type": "string"
        }
      ],
      "name": "setBaseMetadataURI",
      "outputs": [],
      "stateMutability": "nonpayable",
      "type": "function"
    },
    {
      "inputs": [
        {
          "internalType": "address",
          "name": "_newProxyRegistryAddress",
          "type": "address"
        }
      ],
      "name": "setProxyRegistryAddress",
      "outputs": [],
      "stateMutability": "nonpayable",
      "type": "function"
    },
    {
      "inputs": [
        {
          "internalType": "bytes4",
          "name": "interfaceId",
          "type": "bytes4"
        }
      ],
      "name": "supportsInterface",
      "outputs": [
        {
          "internalType": "bool",
          "name": "",
          "type": "bool"
        }
      ],
      "stateMutability": "view",
      "type": "function"
    },
    {
      "inputs": [],
      "name": "symbol",
      "outputs": [
        {
          "internalType": "string",
          "name": "",
          "type": "string"
        }
      ],
      "stateMutability": "view",
      "type": "function"
    },
    {
      "inputs": [
        {
          "internalType": "uint256",
          "name": "",
          "type": "uint256"
        }
      ],
      "name": "tokenMaxSupply",
      "outputs": [
        {
          "internalType": "uint256",
          "name": "",
          "type": "uint256"
        }
      ],
      "stateMutability": "view",
      "type": "function"
    },
    {
      "inputs": [
        {
          "internalType": "uint256",
          "name": "",
          "type": "uint256"
        }
      ],
      "name": "tokenSupply",
      "outputs": [
        {
          "internalType": "uint256",
          "name": "",
          "type": "uint256"
        }
      ],
      "stateMutability": "view",
      "type": "function"
    },
    {
      "inputs": [
        {
          "internalType": "uint256",
          "name": "_id",
          "type": "uint256"
        }
      ],
      "name": "totalSupply",
      "outputs": [
        {
          "internalType": "uint256",
          "name": "",
          "type": "uint256"
        }
      ],
      "stateMutability": "view",
      "type": "function"
    },
    {
      "inputs": [
        {
          "internalType": "address",
          "name": "newOwner",
          "type": "address"
        }
      ],
      "name": "transferOwnership",
      "outputs": [],
      "stateMutability": "nonpayable",
      "type": "function"
    },
    {
      "inputs": [
        {
          "internalType": "uint256",
          "name": "_id",
          "type": "uint256"
        }
      ],
      "name": "uri",
      "outputs": [
        {
          "internalType": "string",
          "name": "",
          "type": "string"
        }
      ],
      "stateMutability": "view",
      "type": "function"
    },
    {
      "inputs": [
        {
          "internalType": "uint256[]",
          "name": "ids",
          "type": "uint256[]"
        },
        {
          "internalType": "uint256[]",
          "name": "amounts",
          "type": "uint256[]"
        }
      ],
      "name": "withdrawBatch",
      "outputs": [],
      "stateMutability": "nonpayable",
      "type": "function"
    },
    {
      "inputs": [
        {
          "internalType": "uint256",
          "name": "id",
          "type": "uint256"
        },
        {
          "internalType": "uint256",
          "name": "amount",
          "type": "uint256"
        }
      ],
      "name": "withdrawSingle",
      "outputs": [],
      "stateMutability": "nonpayable",
      "type": "function"
    }
  ],
  "transactionHash": "0xe271bc21a6c5201460733d1839f5f5dd686ebf65a950ed1a73aeb4268fb6634b",
  "args": [
    "https://uat-bsc-api.cryptokombat.com/hero/",
    "0x207Fa8Df3a17D96Ca7EA4f2893fcdCb78a304101"
  ],
  "solcInputHash": "6011af42bb308f9809b0613e5f22c0d3",
  "bytecode": "0x61012060405260006007553480156200001757600080fd5b50604051620041ae380380620041ae8339810160408190526200003a916200046e565b6040518060400160405280602081526020017f43727970746f204b6f6d62617420436f6c6c656374696f6e2042696e616e63658152506040518060400160405280600481526020016321a5a1a160e11b81525083838383838383604051806040016040528060018152602001603160f81b81525085858460405180602001604052806000815250620000db620000d56200021e60201b60201c565b6200027d565b620000e681620002cf565b50620000fd6000620000f76200021e565b620002e8565b6200012c7f9f2df0fed2c77648de5860a4cc508cd0818c85b8b8a1ab4ceeef8d981c8956a6620000f76200021e565b82516200014190600b906020860190620003ab565b5081516200015790600c906020850190620003ab565b50600680546001600160a01b0319166001600160a01b03929092169190911790555050815160209283012081519183019190912060c082815260e08290524660a0818152604080517f8b73c3c69bb8fe3d512ecc4cf759cc79239f7b179b0ffacaa9a75d522b39400f818901819052818301979097526060810195909552608080860193909352308583015280518086039092018252939092019092528051930192909220909152610100526200020e82620002f4565b50505050505050505050620005ac565b6000333014156200027757600080368080601f0160208091040260200160405190810160405280939291908181526020018383808284376000920191909152505050503601516001600160a01b031691506200027a9050565b50335b90565b600180546001600160a01b038381166001600160a01b0319831681179093556040519116919082907f8be0079c531659141344cd1fd0a4f28419497f9722a3daafe3b4186f6b6457e090600090a35050565b8051620002e4906004906020840190620003ab565b5050565b620002e4828262000309565b8051620002e4906005906020840190620003ab565b6000828152602081815260408083206001600160a01b038516845290915290205460ff16620002e4576000828152602081815260408083206001600160a01b03851684529091529020805460ff19166001179055620003676200021e565b6001600160a01b0316816001600160a01b0316837f2f8788117e7eff1d82e926ec794901d17c78024a50270940304540a733656f0d60405160405180910390a45050565b828054620003b99062000559565b90600052602060002090601f016020900481019282620003dd576000855562000428565b82601f10620003f857805160ff191683800117855562000428565b8280016001018555821562000428579182015b82811115620004285782518255916020019190600101906200040b565b50620004369291506200043a565b5090565b5b808211156200043657600081556001016200043b565b80516001600160a01b03811681146200046957600080fd5b919050565b6000806040838503121562000481578182fd5b82516001600160401b038082111562000498578384fd5b818501915085601f830112620004ac578384fd5b815181811115620004c157620004c162000596565b604051601f8201601f19908116603f01168101908382118183101715620004ec57620004ec62000596565b8160405282815260209350888484870101111562000508578687fd5b8691505b828210156200052b57848201840151818301850152908301906200050c565b828211156200053c57868484830101525b95506200054e91505085820162000451565b925050509250929050565b600181811c908216806200056e57607f821691505b602082108114156200059057634e487b7160e01b600052602260045260246000fd5b50919050565b634e487b7160e01b600052604160045260246000fd5b60805160a05160c05160e05161010051613bbd620005f16000396000612082015260006120d1015260006120ac01526000612030015260006120590152613bbd6000f3fe608060405234801561001057600080fd5b50600436106102305760003560e01c8063731133e911610130578063bd85b039116100b8578063d547741f1161007c578063d547741f14610544578063e985e9c514610557578063f242432a1461056a578063f2fde38b1461057d578063f5298aca1461059057600080fd5b8063bd85b039146104ae578063cd53d08e146104ce578063cf2c52cb146104f7578063d26ea6c01461050a578063d53913931461051d57600080fd5b806391d14854116100ff57806391d148541461045157806395d89b4114610464578063a217fddf1461046c578063a22cb46514610474578063a3b0b5a31461048757600080fd5b8063731133e9146103e65780637e518ec8146103f9578063869f75941461040c5780638da5cb5b1461042c57600080fd5b8063248a9ca3116101be57806336568abe1161018257806336568abe146103855780634e1273f4146103985780635c5fb521146103b85780636b20c454146103cb578063715018a6146103de57600080fd5b8063248a9ca3146103145780632693ebf2146103375780632eb2c2d6146103575780632f2ff15d1461036a5780633644e5151461037d57600080fd5b806306fdde031161020557806306fdde03146102b15780630e89341c146102c65780631e80165b146102d95780631f7fdffa146102ee5780632262f53f1461030157600080fd5b80624221f014610235578062fdd58e1461026857806301ffc9a71461027b57806306f9363c1461029e575b600080fd5b6102556102433660046131f4565b600a6020526000908152604090205481565b6040519081526020015b60405180910390f35b610255610276366004612f94565b6105a3565b61028e610289366004613230565b61063f565b604051901515815260200161025f565b6102556102ac3660046132ea565b61064a565b6102b9610750565b60405161025f91906135a5565b6102b96102d43660046131f4565b6107de565b6102ec6102e736600461317b565b610882565b005b6102ec6102fc366004612e4e565b610b65565b6102ec61030f3660046132c9565b610d7b565b6102556103223660046131f4565b60009081526020819052604090206001015490565b6102556103453660046131f4565b60096020526000908152604090205481565b6102ec610365366004612ccd565b610d91565b6102ec61037836600461320c565b610e33565b610255610e65565b6102ec61039336600461320c565b610e74565b6103ab6103a6366004613047565b610efe565b60405161025f919061356d565b6102ec6103c6366004613113565b61105f565b6102ec6103d9366004612ddc565b6110d4565b6102ec611129565b6102ec6103f4366004612ff3565b6111ae565b6102ec610407366004613284565b61126f565b61025561041a3660046131f4565b6000908152600a602052604090205490565b6001546001600160a01b03165b6040516001600160a01b03909116815260200161025f565b61028e61045f36600461320c565b6112d8565b6102b9611301565b610255600081565b6102ec610482366004612ee4565b61130e565b6102557f8f4f2da22e8ac8f11e15f9fc141cddbb5deea8800186560abb6e68c5496619a981565b6102556104bc3660046131f4565b60009081526009602052604090205490565b6104396104dc3660046131f4565b6008602052600090815260409020546001600160a01b031681565b6102ec610505366004612f15565b611422565b6102ec610518366004612c79565b61162a565b6102557f9f2df0fed2c77648de5860a4cc508cd0818c85b8b8a1ab4ceeef8d981c8956a681565b6102ec61055236600461320c565b6116a9565b61028e610565366004612c95565b6116d1565b6102ec610578366004612d76565b6117a1565b6102ec61058b366004612c79565b6117f8565b6102ec61059e366004612fbf565b6118df565b60006001600160a01b0383166106145760405162461bcd60e51b815260206004820152602b60248201527f455243313135353a2062616c616e636520717565727920666f7220746865207a60448201526a65726f206164647265737360a81b60648201526084015b60405180910390fd5b5060008181526002602090815260408083206001600160a01b03861684529091529020545b92915050565b600061063982611934565b60006106588161045f611974565b8061068c5750610666611974565b6001600160a01b03166106816001546001600160a01b031690565b6001600160a01b0316145b6106a85760405162461bcd60e51b815260040161060b90613718565b838311156106c85760405162461bcd60e51b815260040161060b906138bf565b60006106d26119d1565b90506106dc6119e2565b6106e4611974565b600082815260086020526040902080546001600160a01b0319166001600160a01b0392909216919091179055831561072957610729610721611974565b8286866119f9565b6000818152600960209081526040808320879055600a909152902085905590509392505050565b600b805461075d906139e4565b80601f0160208091040260200160405190810160405280929190818152602001828054610789906139e4565b80156107d65780601f106107ab576101008083540402835291602001916107d6565b820191906000526020600020905b8154815290600101906020018083116107b957829003601f168201915b505050505081565b6000818152600860205260409020546060906001600160a01b03166108505760405162461bcd60e51b815260206004820152602260248201527f455243313135355472616461626c653a20746f6b656e206d7573742065786973604482015261747360f01b606482015260840161060b565b600561085b83611adc565b60405160200161086c9291906133af565b6040516020818303038152906040529050919050565b61088f600061045f611974565b806108c3575061089d611974565b6001600160a01b03166108b86001546001600160a01b031690565b6001600160a01b0316145b6108df5760405162461bcd60e51b815260040161060b90613718565b815183511461094b5760405162461bcd60e51b815260206004820152603260248201527f455243313135355472616461626c653a206d61787320616e6420696e697469616044820152710d8e640d8cadccee8d040dad2e6dac2e8c6d60731b606482015260840161060b565b600083516001600160401b0381111561097457634e487b7160e01b600052604160045260246000fd5b60405190808252806020026020018201604052801561099d578160200160208202803683370190505b509050600084516001600160401b038111156109c957634e487b7160e01b600052604160045260246000fd5b6040519080825280602002602001820160405280156109f2578160200160208202803683370190505b50905060005b8551811015610b4a576000868281518110610a2357634e487b7160e01b600052603260045260246000fd5b602002602001015190506000868381518110610a4f57634e487b7160e01b600052603260045260246000fd5b6020026020010151905081811115610a795760405162461bcd60e51b815260040161060b906138bf565b6000610a836119d1565b9050610a8d6119e2565b610a95611974565b600082815260086020908152604080832080546001600160a01b0319166001600160a01b03959095169490941790935560098152828220859055600a90522083905585518190879086908110610afb57634e487b7160e01b600052603260045260246000fd5b60200260200101818152505081858581518110610b2857634e487b7160e01b600052603260045260246000fd5b6020026020010181815250505050508080610b4290613a4b565b9150506109f8565b50610b5e610b56611974565b838386611bf5565b5050505050565b610b917f9f2df0fed2c77648de5860a4cc508cd0818c85b8b8a1ab4ceeef8d981c8956a661045f611974565b610bad5760405162461bcd60e51b815260040161060b90613600565b6001600160a01b038416610c155760405162461bcd60e51b815260206004820152602960248201527f455243313135355472616461626c653a206d696e7420746f20746865207a65726044820152686f206164647265737360b81b606482015260840161060b565b8151835114610c7f5760405162461bcd60e51b815260206004820152603060248201527f455243313135355472616461626c653a2069647320616e6420616d6f756e747360448201526f040d8cadccee8d040dad2e6dac2e8c6d60831b606482015260840161060b565b60005b8351811015610d68576000848281518110610cad57634e487b7160e01b600052603260045260246000fd5b602002602001015190506000848381518110610cd957634e487b7160e01b600052603260045260246000fd5b6020908102919091018101516000848152600a83526040808220546009909452902054909250610d0a90839061393f565b1115610d285760405162461bcd60e51b815260040161060b906137f3565b600082815260096020526040902054610d4290829061393f565b600092835260096020526040909220919091555080610d6081613a4b565b915050610c82565b50610d7584848484611bf5565b50505050565b610d8d610d86611974565b83836118df565b5050565b610d99611974565b6001600160a01b0316856001600160a01b03161480610dbf5750610dbf85610565611974565b610e265760405162461bcd60e51b815260206004820152603260248201527f455243313135353a207472616e736665722063616c6c6572206973206e6f74206044820152711bdddb995c881b9bdc88185c1c1c9bdd995960721b606482015260840161060b565b610b5e8585858585611d77565b600082815260208190526040902060010154610e5681610e51611974565b611f43565b610e608383611fa7565b505050565b6000610e6f61202c565b905090565b610e7c611974565b6001600160a01b0316816001600160a01b031614610ef45760405162461bcd60e51b815260206004820152602f60248201527f416363657373436f6e74726f6c3a2063616e206f6e6c792072656e6f756e636560448201526e103937b632b9903337b91039b2b63360891b606482015260840161060b565b610d8d828261211f565b60608151835114610f635760405162461bcd60e51b815260206004820152602960248201527f455243313135353a206163636f756e747320616e6420696473206c656e677468604482015268040dad2e6dac2e8c6d60bb1b606482015260840161060b565b600083516001600160401b03811115610f8c57634e487b7160e01b600052604160045260246000fd5b604051908082528060200260200182016040528015610fb5578160200160208202803683370190505b50905060005b84518110156110575761101c858281518110610fe757634e487b7160e01b600052603260045260246000fd5b602002602001015185838151811061100f57634e487b7160e01b600052603260045260246000fd5b60200260200101516105a3565b82828151811061103c57634e487b7160e01b600052603260045260246000fd5b602090810291909101015261105081613a4b565b9050610fbb565b509392505050565b610d7561106a611974565b858580806020026020016040519081016040528093929190818152602001838360200280828437600092019190915250506040805160208089028281018201909352888252909350889250879182918501908490808284376000920191909152506110d492505050565b6110dc611974565b6001600160a01b0316836001600160a01b03161480611102575061110283610565611974565b61111e5760405162461bcd60e51b815260040161060b9061368a565b610e608383836121a2565b611131611974565b6001600160a01b031661114c6001546001600160a01b031690565b6001600160a01b0316146111a25760405162461bcd60e51b815260206004820181905260248201527f4f776e61626c653a2063616c6c6572206973206e6f7420746865206f776e6572604482015260640161060b565b6111ac6000612356565b565b6111da7f9f2df0fed2c77648de5860a4cc508cd0818c85b8b8a1ab4ceeef8d981c8956a661045f611974565b6111f65760405162461bcd60e51b815260040161060b90613600565b6000838152600a602090815260408083205460099092529091205461121c90849061393f565b111561123a5760405162461bcd60e51b815260040161060b906137f3565b60008381526009602052604090205461125490839061393f565b600084815260096020526040902055610d75848484846119f9565b61127c600061045f611974565b806112b0575061128a611974565b6001600160a01b03166112a56001546001600160a01b031690565b6001600160a01b0316145b6112cc5760405162461bcd60e51b815260040161060b90613718565b6112d5816123a8565b50565b6000918252602082815260408084206001600160a01b0393909316845291905290205460ff1690565b600c805461075d906139e4565b816001600160a01b0316611320611974565b6001600160a01b031614156113895760405162461bcd60e51b815260206004820152602960248201527f455243313135353a2073657474696e6720617070726f76616c20737461747573604482015268103337b91039b2b63360b91b606482015260840161060b565b8060036000611396611974565b6001600160a01b03908116825260208083019390935260409182016000908120918716808252919093529120805460ff1916921515929092179091556113da611974565b6001600160a01b03167f17307eab39ab6107e8899845ad3d59bd9653f200f220920489ca2b5937696c3183604051611416911515815260200190565b60405180910390a35050565b61144e7f8f4f2da22e8ac8f11e15f9fc141cddbb5deea8800186560abb6e68c5496619a961045f611974565b6114845760405162461bcd60e51b81526020600482015260076024820152662161636365737360c81b604482015260640161060b565b6001600160a01b0383166114c25760405162461bcd60e51b815260206004820152600560248201526410bab9b2b960d91b604482015260640161060b565b600080806114d28486018661317b565b92509250925081518351146115135760405162461bcd60e51b8152602060048201526007602482015266042d8cadccee8d60cb1b604482015260640161060b565b60005b835181101561161557600084828151811061154157634e487b7160e01b600052603260045260246000fd5b60200260200101519050600084838151811061156d57634e487b7160e01b600052603260045260246000fd5b6020908102919091018101516000848152600a8352604080822054600990945290205490925061159e90839061393f565b11156115d55760405162461bcd60e51b815260040161060b90602080825260049082015263042dac2f60e31b604082015260600190565b6000828152600960205260409020546115ef90829061393f565b60009283526009602052604090922091909155508061160d81613a4b565b915050611516565b5061162286848484611bf5565b505050505050565b611637600061045f611974565b8061166b5750611645611974565b6001600160a01b03166116606001546001600160a01b031690565b6001600160a01b0316145b6116875760405162461bcd60e51b815260040161060b90613718565b600680546001600160a01b0319166001600160a01b0392909216919091179055565b6000828152602081905260409020600101546116c781610e51611974565b610e60838361211f565b60065460405163c455279160e01b81526001600160a01b03848116600483015260009281169190841690829063c45527919060240160206040518083038186803b15801561171e57600080fd5b505afa158015611732573d6000803e3d6000fd5b505050506040513d601f19601f820116820180604052508101906117569190613268565b6001600160a01b0316141561176f576001915050610639565b6001600160a01b0380851660009081526003602090815260408083209387168352929052205460ff165b949350505050565b6117a9611974565b6001600160a01b0316856001600160a01b031614806117cf57506117cf85610565611974565b6117eb5760405162461bcd60e51b815260040161060b9061368a565b610b5e85858585856123bb565b611800611974565b6001600160a01b031661181b6001546001600160a01b031690565b6001600160a01b0316146118715760405162461bcd60e51b815260206004820181905260248201527f4f776e61626c653a2063616c6c6572206973206e6f7420746865206f776e6572604482015260640161060b565b6001600160a01b0381166118d65760405162461bcd60e51b815260206004820152602660248201527f4f776e61626c653a206e6577206f776e657220697320746865207a65726f206160448201526564647265737360d01b606482015260840161060b565b6112d581612356565b6118e7611974565b6001600160a01b0316836001600160a01b0316148061190d575061190d83610565611974565b6119295760405162461bcd60e51b815260040161060b9061368a565b610e608383836124e7565b60006001600160e01b03198216636cdb3d1360e11b148061196557506001600160e01b031982166303a24d0760e21b145b806106395750610639826125f7565b6000333014156119cb57600080368080601f0160208091040260200160405190810160405280939291908181526020018383808284376000920191909152505050503601516001600160a01b031691506119ce9050565b50335b90565b60006007546001610e6f919061393f565b600780549060006119f283613a4b565b9190505550565b6001600160a01b038416611a1f5760405162461bcd60e51b815260040161060b9061387e565b6000611a29611974565b9050611a4a81600087611a3b8861262c565b611a448861262c565b87612685565b60008481526002602090815260408083206001600160a01b038916845290915281208054859290611a7c90849061393f565b909155505060408051858152602081018590526001600160a01b0380881692600092918516917fc3d58168c5ae7397731d063d5bbf3d657854427343f4c083240f7aacaa2d0f62910160405180910390a4610b5e8160008787878761268a565b606081611b005750506040805180820190915260018152600360fc1b602082015290565b8160005b8115611b2a5780611b1481613a4b565b9150611b239050600a83613957565b9150611b04565b6000816001600160401b03811115611b5257634e487b7160e01b600052604160045260246000fd5b6040519080825280601f01601f191660200182016040528015611b7c576020820181803683370190505b5090505b841561179957611b9160018361398a565b9150611b9e600a86613a66565b611ba990603061393f565b60f81b818381518110611bcc57634e487b7160e01b600052603260045260246000fd5b60200101906001600160f81b031916908160001a905350611bee600a86613957565b9450611b80565b6001600160a01b038416611c1b5760405162461bcd60e51b815260040161060b9061387e565b8151835114611c3c5760405162461bcd60e51b815260040161060b90613836565b6000611c46611974565b9050611c5781600087878787612685565b60005b8451811015611d0f57838181518110611c8357634e487b7160e01b600052603260045260246000fd5b602002602001015160026000878481518110611caf57634e487b7160e01b600052603260045260246000fd5b602002602001015181526020019081526020016000206000886001600160a01b03166001600160a01b031681526020019081526020016000206000828254611cf7919061393f565b90915550819050611d0781613a4b565b915050611c5a565b50846001600160a01b031660006001600160a01b0316826001600160a01b03167f4a39dc06d4c0dbc64b70af90fd698a233a518aa5d07e595d983b8c0526c8f7fb8787604051611d60929190613580565b60405180910390a4610b5e816000878787876127f5565b8151835114611d985760405162461bcd60e51b815260040161060b90613836565b6001600160a01b038416611dbe5760405162461bcd60e51b815260040161060b906136d3565b6000611dc8611974565b9050611dd8818787878787612685565b60005b8451811015611edd576000858281518110611e0657634e487b7160e01b600052603260045260246000fd5b602002602001015190506000858381518110611e3257634e487b7160e01b600052603260045260246000fd5b60209081029190910181015160008481526002835260408082206001600160a01b038e168352909352919091205490915081811015611e835760405162461bcd60e51b815260040161060b906137a9565b60008381526002602090815260408083206001600160a01b038e8116855292528083208585039055908b16825281208054849290611ec290849061393f565b9250508190555050505080611ed690613a4b565b9050611ddb565b50846001600160a01b0316866001600160a01b0316826001600160a01b03167f4a39dc06d4c0dbc64b70af90fd698a233a518aa5d07e595d983b8c0526c8f7fb8787604051611f2d929190613580565b60405180910390a46116228187878787876127f5565b611f4d82826112d8565b610d8d57611f65816001600160a01b031660146128bf565b611f708360206128bf565b604051602001611f81929190613455565b60408051601f198184030181529082905262461bcd60e51b825261060b916004016135a5565b611fb182826112d8565b610d8d576000828152602081815260408083206001600160a01b03851684529091529020805460ff19166001179055611fe8611974565b6001600160a01b0316816001600160a01b0316837f2f8788117e7eff1d82e926ec794901d17c78024a50270940304540a733656f0d60405160405180910390a45050565b60007f000000000000000000000000000000000000000000000000000000000000000046141561207b57507f000000000000000000000000000000000000000000000000000000000000000090565b50604080517f00000000000000000000000000000000000000000000000000000000000000006020808301919091527f0000000000000000000000000000000000000000000000000000000000000000828401527f000000000000000000000000000000000000000000000000000000000000000060608301524660808301523060a0808401919091528351808403909101815260c0909201909252805191012090565b61212982826112d8565b15610d8d576000828152602081815260408083206001600160a01b03851684529091529020805460ff1916905561215e611974565b6001600160a01b0316816001600160a01b0316837ff6391f5c32d9c69d2a47ea670b442974b53935d1edc7fd64eb21e047a839171b60405160405180910390a45050565b6001600160a01b0383166121c85760405162461bcd60e51b815260040161060b90613766565b80518251146121e95760405162461bcd60e51b815260040161060b90613836565b60006121f3611974565b905061221381856000868660405180602001604052806000815250612685565b60005b83518110156122f757600084828151811061224157634e487b7160e01b600052603260045260246000fd5b60200260200101519050600084838151811061226d57634e487b7160e01b600052603260045260246000fd5b60209081029190910181015160008481526002835260408082206001600160a01b038c1683529093529190912054909150818110156122be5760405162461bcd60e51b815260040161060b90613646565b60009283526002602090815260408085206001600160a01b038b16865290915290922091039055806122ef81613a4b565b915050612216565b5060006001600160a01b0316846001600160a01b0316826001600160a01b03167f4a39dc06d4c0dbc64b70af90fd698a233a518aa5d07e595d983b8c0526c8f7fb8686604051612348929190613580565b60405180910390a450505050565b600180546001600160a01b038381166001600160a01b0319831681179093556040519116919082907f8be0079c531659141344cd1fd0a4f28419497f9722a3daafe3b4186f6b6457e090600090a35050565b8051610d8d906005906020840190612aa7565b6001600160a01b0384166123e15760405162461bcd60e51b815260040161060b906136d3565b60006123eb611974565b90506123fc818787611a3b8861262c565b60008481526002602090815260408083206001600160a01b038a1684529091529020548381101561243f5760405162461bcd60e51b815260040161060b906137a9565b60008581526002602090815260408083206001600160a01b038b811685529252808320878503905590881682528120805486929061247e90849061393f565b909155505060408051868152602081018690526001600160a01b03808916928a821692918616917fc3d58168c5ae7397731d063d5bbf3d657854427343f4c083240f7aacaa2d0f62910160405180910390a46124de82888888888861268a565b50505050505050565b6001600160a01b03831661250d5760405162461bcd60e51b815260040161060b90613766565b6000612517611974565b9050612547818560006125298761262c565b6125328761262c565b60405180602001604052806000815250612685565b60008381526002602090815260408083206001600160a01b03881684529091529020548281101561258a5760405162461bcd60e51b815260040161060b90613646565b60008481526002602090815260408083206001600160a01b03898116808652918452828520888703905582518981529384018890529092908616917fc3d58168c5ae7397731d063d5bbf3d657854427343f4c083240f7aacaa2d0f62910160405180910390a45050505050565b60006001600160e01b03198216637965db0b60e01b148061063957506301ffc9a760e01b6001600160e01b0319831614610639565b6040805160018082528183019092526060916000919060208083019080368337019050509050828160008151811061267457634e487b7160e01b600052603260045260246000fd5b602090810291909101015292915050565b611622565b6001600160a01b0384163b156116225760405163f23a6e6160e01b81526001600160a01b0385169063f23a6e61906126ce9089908990889088908890600401613528565b602060405180830381600087803b1580156126e857600080fd5b505af1925050508015612718575060408051601f3d908101601f191682019092526127159181019061324c565b60015b6127c557612724613abc565b806308c379a0141561275e5750612739613ad3565b806127445750612760565b8060405162461bcd60e51b815260040161060b91906135a5565b505b60405162461bcd60e51b815260206004820152603460248201527f455243313135353a207472616e7366657220746f206e6f6e20455243313135356044820152732932b1b2b4bb32b91034b6b83632b6b2b73a32b960611b606482015260840161060b565b6001600160e01b0319811663f23a6e6160e01b146124de5760405162461bcd60e51b815260040161060b906135b8565b6001600160a01b0384163b156116225760405163bc197c8160e01b81526001600160a01b0385169063bc197c819061283990899089908890889088906004016134ca565b602060405180830381600087803b15801561285357600080fd5b505af1925050508015612883575060408051601f3d908101601f191682019092526128809181019061324c565b60015b61288f57612724613abc565b6001600160e01b0319811663bc197c8160e01b146124de5760405162461bcd60e51b815260040161060b906135b8565b606060006128ce83600261396b565b6128d990600261393f565b6001600160401b038111156128fe57634e487b7160e01b600052604160045260246000fd5b6040519080825280601f01601f191660200182016040528015612928576020820181803683370190505b509050600360fc1b8160008151811061295157634e487b7160e01b600052603260045260246000fd5b60200101906001600160f81b031916908160001a905350600f60fb1b8160018151811061298e57634e487b7160e01b600052603260045260246000fd5b60200101906001600160f81b031916908160001a90535060006129b284600261396b565b6129bd90600161393f565b90505b6001811115612a51576f181899199a1a9b1b9c1cb0b131b232b360811b85600f16601081106129ff57634e487b7160e01b600052603260045260246000fd5b1a60f81b828281518110612a2357634e487b7160e01b600052603260045260246000fd5b60200101906001600160f81b031916908160001a90535060049490941c93612a4a816139cd565b90506129c0565b508315612aa05760405162461bcd60e51b815260206004820181905260248201527f537472696e67733a20686578206c656e67746820696e73756666696369656e74604482015260640161060b565b9392505050565b828054612ab3906139e4565b90600052602060002090601f016020900481019282612ad55760008555612b1b565b82601f10612aee57805160ff1916838001178555612b1b565b82800160010185558215612b1b579182015b82811115612b1b578251825591602001919060010190612b00565b50612b27929150612b2b565b5090565b5b80821115612b275760008155600101612b2c565b60006001600160401b03831115612b5957612b59613aa6565b604051612b70601f8501601f191660200182613a1f565b809150838152848484011115612b8557600080fd5b83836020830137600060208583010152509392505050565b60008083601f840112612bae578182fd5b5081356001600160401b03811115612bc4578182fd5b6020830191508360208260051b8501011115612bdf57600080fd5b9250929050565b600082601f830112612bf6578081fd5b81356020612c038261391c565b604051612c108282613a1f565b8381528281019150858301600585901b87018401881015612c2f578586fd5b855b85811015612c4d57813584529284019290840190600101612c31565b5090979650505050505050565b600082601f830112612c6a578081fd5b612aa083833560208501612b40565b600060208284031215612c8a578081fd5b8135612aa081613b5c565b60008060408385031215612ca7578081fd5b8235612cb281613b5c565b91506020830135612cc281613b5c565b809150509250929050565b600080600080600060a08688031215612ce4578081fd5b8535612cef81613b5c565b94506020860135612cff81613b5c565b935060408601356001600160401b0380821115612d1a578283fd5b612d2689838a01612be6565b94506060880135915080821115612d3b578283fd5b612d4789838a01612be6565b93506080880135915080821115612d5c578283fd5b50612d6988828901612c5a565b9150509295509295909350565b600080600080600060a08688031215612d8d578081fd5b8535612d9881613b5c565b94506020860135612da881613b5c565b9350604086013592506060860135915060808601356001600160401b03811115612dd0578182fd5b612d6988828901612c5a565b600080600060608486031215612df0578283fd5b8335612dfb81613b5c565b925060208401356001600160401b0380821115612e16578384fd5b612e2287838801612be6565b93506040860135915080821115612e37578283fd5b50612e4486828701612be6565b9150509250925092565b60008060008060808587031215612e63578182fd5b8435612e6e81613b5c565b935060208501356001600160401b0380821115612e89578384fd5b612e9588838901612be6565b94506040870135915080821115612eaa578384fd5b612eb688838901612be6565b93506060870135915080821115612ecb578283fd5b50612ed887828801612c5a565b91505092959194509250565b60008060408385031215612ef6578182fd5b8235612f0181613b5c565b915060208301358015158114612cc2578182fd5b600080600060408486031215612f29578081fd5b8335612f3481613b5c565b925060208401356001600160401b0380821115612f4f578283fd5b818601915086601f830112612f62578283fd5b813581811115612f70578384fd5b876020828501011115612f81578384fd5b6020830194508093505050509250925092565b60008060408385031215612fa6578182fd5b8235612fb181613b5c565b946020939093013593505050565b600080600060608486031215612fd3578081fd5b8335612fde81613b5c565b95602085013595506040909401359392505050565b60008060008060808587031215613008578182fd5b843561301381613b5c565b9350602085013592506040850135915060608501356001600160401b0381111561303b578182fd5b612ed887828801612c5a565b60008060408385031215613059578182fd5b82356001600160401b038082111561306f578384fd5b818501915085601f830112613082578384fd5b8135602061308f8261391c565b60405161309c8282613a1f565b8381528281019150858301600585901b870184018b10156130bb578889fd5b8896505b848710156130e65780356130d281613b5c565b8352600196909601959183019183016130bf565b50965050860135925050808211156130fc578283fd5b5061310985828601612be6565b9150509250929050565b60008060008060408587031215613128578182fd5b84356001600160401b038082111561313e578384fd5b61314a88838901612b9d565b90965094506020870135915080821115613162578384fd5b5061316f87828801612b9d565b95989497509550505050565b60008060006060848603121561318f578081fd5b83356001600160401b03808211156131a5578283fd5b6131b187838801612be6565b945060208601359150808211156131c6578283fd5b6131d287838801612be6565b935060408601359150808211156131e7578283fd5b50612e4486828701612c5a565b600060208284031215613205578081fd5b5035919050565b6000806040838503121561321e578182fd5b823591506020830135612cc281613b5c565b600060208284031215613241578081fd5b8135612aa081613b71565b60006020828403121561325d578081fd5b8151612aa081613b71565b600060208284031215613279578081fd5b8151612aa081613b5c565b600060208284031215613295578081fd5b81356001600160401b038111156132aa578182fd5b8201601f810184136132ba578182fd5b61179984823560208401612b40565b600080604083850312156132db578182fd5b50508035926020909101359150565b6000806000606084860312156132fe578081fd5b833592506020840135915060408401356001600160401b03811115613321578182fd5b612e4486828701612c5a565b6000815180845260208085019450808401835b8381101561335c57815187529582019590820190600101613340565b509495945050505050565b6000815180845261337f8160208601602086016139a1565b601f01601f19169290920160200192915050565b600081516133a58185602086016139a1565b9290920192915050565b600080845482600182811c9150808316806133cb57607f831692505b60208084108214156133eb57634e487b7160e01b87526022600452602487fd5b8180156133ff57600181146134105761343c565b60ff1986168952848901965061343c565b60008b815260209020885b868110156134345781548b82015290850190830161341b565b505084890196505b50505050505061344c8185613393565b95945050505050565b7f416363657373436f6e74726f6c3a206163636f756e742000000000000000000081526000835161348d8160178501602088016139a1565b7001034b99036b4b9b9b4b733903937b6329607d1b60179184019182015283516134be8160288401602088016139a1565b01602801949350505050565b6001600160a01b0386811682528516602082015260a0604082018190526000906134f69083018661332d565b8281036060840152613508818661332d565b9050828103608084015261351c8185613367565b98975050505050505050565b6001600160a01b03868116825285166020820152604081018490526060810183905260a06080820181905260009061356290830184613367565b979650505050505050565b602081526000612aa0602083018461332d565b604081526000613593604083018561332d565b828103602084015261344c818561332d565b602081526000612aa06020830184613367565b60208082526028908201527f455243313135353a204552433131353552656365697665722072656a656374656040820152676420746f6b656e7360c01b606082015260800190565b60208082526026908201527f455243313135355472616461626c653a206d7573742068617665206d696e74656040820152657220726f6c6560d01b606082015260800190565b60208082526024908201527f455243313135353a206275726e20616d6f756e7420657863656564732062616c604082015263616e636560e01b606082015260800190565b60208082526029908201527f455243313135353a2063616c6c6572206973206e6f74206f776e6572206e6f7260408201526808185c1c1c9bdd995960ba1b606082015260800190565b60208082526025908201527f455243313135353a207472616e7366657220746f20746865207a65726f206164604082015264647265737360d81b606082015260800190565b6020808252602e908201527f455243313135355472616461626c653a206d75737420686176652061646d696e60408201526d206f72206f776e657220726f6c6560901b606082015260800190565b60208082526023908201527f455243313135353a206275726e2066726f6d20746865207a65726f206164647260408201526265737360e81b606082015260800190565b6020808252602a908201527f455243313135353a20696e73756666696369656e742062616c616e636520666f60408201526939103a3930b739b332b960b11b606082015260800190565b60208082526023908201527f455243313135355472616461626c653a204d617820737570706c7920726561636040820152621a195960ea1b606082015260800190565b60208082526028908201527f455243313135353a2069647320616e6420616d6f756e7473206c656e677468206040820152670dad2e6dac2e8c6d60c31b606082015260800190565b60208082526021908201527f455243313135353a206d696e7420746f20746865207a65726f206164647265736040820152607360f81b606082015260800190565b6020808252603e908201527f455243313135355472616461626c653a20496e697469616c20737570706c792060408201527f63616e6e6f74206265206d6f7265207468616e206d617820737570706c790000606082015260800190565b60006001600160401b0382111561393557613935613aa6565b5060051b60200190565b6000821982111561395257613952613a7a565b500190565b60008261396657613966613a90565b500490565b600081600019048311821515161561398557613985613a7a565b500290565b60008282101561399c5761399c613a7a565b500390565b60005b838110156139bc5781810151838201526020016139a4565b83811115610d755750506000910152565b6000816139dc576139dc613a7a565b506000190190565b600181811c908216806139f857607f821691505b60208210811415613a1957634e487b7160e01b600052602260045260246000fd5b50919050565b601f8201601f191681016001600160401b0381118282101715613a4457613a44613aa6565b6040525050565b6000600019821415613a5f57613a5f613a7a565b5060010190565b600082613a7557613a75613a90565b500690565b634e487b7160e01b600052601160045260246000fd5b634e487b7160e01b600052601260045260246000fd5b634e487b7160e01b600052604160045260246000fd5b600060033d11156119ce57600481823e5160e01c90565b600060443d1015613ae15790565b6040516003193d81016004833e81513d6001600160401b038160248401118184111715613b1057505050505090565b8285019150815181811115613b285750505050505090565b843d8701016020828501011115613b425750505050505090565b613b5160208286010187613a1f565b509095945050505050565b6001600160a01b03811681146112d557600080fd5b6001600160e01b0319811681146112d557600080fdfea2646970667358221220ae4dc7ef92aca547c01e76b1c1b6f1643bd51b90ec457a97d5e3472676504b0164736f6c63430008040033",
  "devdoc": {
    "kind": "dev",
    "methods": {
      "DOMAIN_SEPARATOR()": {
        "details": "See {EIP712-DOMAIN_SEPARATOR}."
      },
      "balanceOf(address,uint256)": {
        "details": "See {IERC1155-balanceOf}. Requirements: - `account` cannot be the zero address."
      },
      "balanceOfBatch(address[],uint256[])": {
        "details": "See {IERC1155-balanceOfBatch}. Requirements: - `accounts` and `ids` must have the same length."
      },
      "create(uint256,uint256,bytes)": {
        "details": "Creates a new token type and assigns _initial to a sender",
        "params": {
          "_data": "Optional data to pass if receiver is contract",
          "_initial": "Optional amount to supply the first owner",
          "_max": "max supply allowed"
        },
        "returns": {
          "tokenId": "The newly created token ID"
        }
      },
      "createBatch(uint256[],uint256[],bytes)": {
        "details": "Creates some amount of tokens type and assigns initials to a sender",
        "params": {
          "_initials": "Optional amount to supply the first owner",
          "_maxs": "max supply allowed"
        }
      },
      "deposit(address,bytes)": {
        "details": "Should be callable only by ChildChainManager Should handle deposit by minting the required tokens for user Make sure minting is done only by this function",
        "params": {
          "depositData": "abi encoded ids array and amounts array",
          "user": "user address for whom deposit is being done"
        }
      },
      "getRoleAdmin(bytes32)": {
        "details": "Returns the admin role that controls `role`. See {grantRole} and {revokeRole}. To change a role's admin, use {_setRoleAdmin}."
      },
      "grantRole(bytes32,address)": {
        "details": "Grants `role` to `account`. If `account` had not been already granted `role`, emits a {RoleGranted} event. Requirements: - the caller must have ``role``'s admin role."
      },
      "hasRole(bytes32,address)": {
        "details": "Returns `true` if `account` has been granted `role`."
      },
      "maxSupply(uint256)": {
        "details": "Returns the max quantity for a token ID",
        "params": {
          "_id": "uint256 ID of the token to query"
        },
        "returns": {
          "_0": "amount of token in existence"
        }
      },
      "mint(address,uint256,uint256,bytes)": {
        "details": "Mints some amount of tokens to an address",
        "params": {
          "_data": "Data to pass if receiver is contract",
          "_id": "Token ID to mint",
          "_quantity": "Amount of tokens to mint",
          "_to": "Address of the future owner of the token"
        }
      },
      "mintBatch(address,uint256[],uint256[],bytes)": {
        "details": "Mint tokens for each id in _ids",
        "params": {
          "_data": "Data to pass if receiver is contract",
          "_ids": "Array of ids to mint",
          "_quantities": "Array of amounts of tokens to mint per id",
          "_to": "The address to mint tokens to"
        }
      },
      "owner()": {
        "details": "Returns the address of the current owner."
      },
      "renounceOwnership()": {
        "details": "Leaves the contract without owner. It will not be possible to call `onlyOwner` functions anymore. Can only be called by the current owner. NOTE: Renouncing ownership will leave the contract without an owner, thereby removing any functionality that is only available to the owner."
      },
      "renounceRole(bytes32,address)": {
        "details": "Revokes `role` from the calling account. Roles are often managed via {grantRole} and {revokeRole}: this function's purpose is to provide a mechanism for accounts to lose their privileges if they are compromised (such as when a trusted device is misplaced). If the calling account had been granted `role`, emits a {RoleRevoked} event. Requirements: - the caller must be `account`."
      },
      "revokeRole(bytes32,address)": {
        "details": "Revokes `role` from `account`. If `account` had been granted `role`, emits a {RoleRevoked} event. Requirements: - the caller must have ``role``'s admin role."
      },
      "safeBatchTransferFrom(address,address,uint256[],uint256[],bytes)": {
        "details": "See {IERC1155-safeBatchTransferFrom}."
      },
      "safeTransferFrom(address,address,uint256,uint256,bytes)": {
        "details": "See {IERC1155-safeTransferFrom}."
      },
      "setApprovalForAll(address,bool)": {
        "details": "See {IERC1155-setApprovalForAll}."
      },
      "setBaseMetadataURI(string)": {
        "details": "Will update the base URL of token's URI",
        "params": {
          "_newBaseMetadataURI": "New base URL of token's URI"
        }
      },
      "setProxyRegistryAddress(address)": {
        "details": "Will update the proxyRegistryAddress",
        "params": {
          "_newProxyRegistryAddress": "New proxyRegistryAddress"
        }
      },
      "supportsInterface(bytes4)": {
        "details": "See {IERC165-supportsInterface}."
      },
      "totalSupply(uint256)": {
        "details": "Returns the total quantity for a token ID",
        "params": {
          "_id": "uint256 ID of the token to query"
        },
        "returns": {
          "_0": "amount of token in existence"
        }
      },
      "transferOwnership(address)": {
        "details": "Transfers ownership of the contract to a new account (`newOwner`). Can only be called by the current owner."
      },
      "withdrawBatch(uint256[],uint256[])": {
        "details": "Should burn user's tokens. This transaction will be verified when exiting on root chain",
        "params": {
          "amounts": "amounts to withdraw",
          "ids": "ids to withdraw"
        }
      },
      "withdrawSingle(uint256,uint256)": {
        "details": "Should burn user's tokens. This transaction will be verified when exiting on root chain",
        "params": {
          "amount": "amount to withdraw",
          "id": "id to withdraw"
        }
      }
    },
    "version": 1
  },
  "userdoc": {
    "kind": "user",
    "methods": {
      "deposit(address,bytes)": {
        "notice": "called when tokens are deposited on root chain"
      },
      "isApprovedForAll(address,address)": {
        "notice": "Override isApprovedForAll to whitelist user's OpenSea proxy accounts to enable gas-free listings."
      },
      "withdrawBatch(uint256[],uint256[])": {
        "notice": "called when user wants to batch withdraw tokens back to root chain"
      },
      "withdrawSingle(uint256,uint256)": {
        "notice": "called when user wants to withdraw single token back to root chain"
      }
    },
    "version": 1
  },
  "storageLayout": {
    "storage": [
      {
        "astId": 24,
        "contract": "contracts/ERC1155/CryptoKombatCollectionBinance.sol:CryptoKombatCollectionBinance",
        "label": "_roles",
        "offset": 0,
        "slot": "0",
        "type": "t_mapping(t_bytes32,t_struct(RoleData)19_storage)"
      },
      {
        "astId": 387,
        "contract": "contracts/ERC1155/CryptoKombatCollectionBinance.sol:CryptoKombatCollectionBinance",
        "label": "_owner",
        "offset": 0,
        "slot": "1",
        "type": "t_address"
      },
      {
        "astId": 549,
        "contract": "contracts/ERC1155/CryptoKombatCollectionBinance.sol:CryptoKombatCollectionBinance",
        "label": "_balances",
        "offset": 0,
        "slot": "2",
        "type": "t_mapping(t_uint256,t_mapping(t_address,t_uint256))"
      },
      {
        "astId": 555,
        "contract": "contracts/ERC1155/CryptoKombatCollectionBinance.sol:CryptoKombatCollectionBinance",
        "label": "_operatorApprovals",
        "offset": 0,
        "slot": "3",
        "type": "t_mapping(t_address,t_mapping(t_address,t_bool))"
      },
      {
        "astId": 557,
        "contract": "contracts/ERC1155/CryptoKombatCollectionBinance.sol:CryptoKombatCollectionBinance",
        "label": "_uri",
        "offset": 0,
        "slot": "4",
        "type": "t_string_storage"
      },
      {
        "astId": 4600,
        "contract": "contracts/ERC1155/CryptoKombatCollectionBinance.sol:CryptoKombatCollectionBinance",
        "label": "baseMetadataURI",
        "offset": 0,
        "slot": "5",
        "type": "t_string_storage"
      },
      {
        "astId": 4602,
        "contract": "contracts/ERC1155/CryptoKombatCollectionBinance.sol:CryptoKombatCollectionBinance",
        "label": "proxyRegistryAddress",
        "offset": 0,
        "slot": "6",
        "type": "t_address"
      },
      {
        "astId": 4605,
        "contract": "contracts/ERC1155/CryptoKombatCollectionBinance.sol:CryptoKombatCollectionBinance",
        "label": "_currentTokenID",
        "offset": 0,
        "slot": "7",
        "type": "t_uint256"
      },
      {
        "astId": 4609,
        "contract": "contracts/ERC1155/CryptoKombatCollectionBinance.sol:CryptoKombatCollectionBinance",
        "label": "creators",
        "offset": 0,
        "slot": "8",
        "type": "t_mapping(t_uint256,t_address)"
      },
      {
        "astId": 4613,
        "contract": "contracts/ERC1155/CryptoKombatCollectionBinance.sol:CryptoKombatCollectionBinance",
        "label": "tokenSupply",
        "offset": 0,
        "slot": "9",
        "type": "t_mapping(t_uint256,t_uint256)"
      },
      {
        "astId": 4617,
        "contract": "contracts/ERC1155/CryptoKombatCollectionBinance.sol:CryptoKombatCollectionBinance",
        "label": "tokenMaxSupply",
        "offset": 0,
        "slot": "10",
        "type": "t_mapping(t_uint256,t_uint256)"
      },
      {
        "astId": 4619,
        "contract": "contracts/ERC1155/CryptoKombatCollectionBinance.sol:CryptoKombatCollectionBinance",
        "label": "name",
        "offset": 0,
        "slot": "11",
        "type": "t_string_storage"
      },
      {
        "astId": 4621,
        "contract": "contracts/ERC1155/CryptoKombatCollectionBinance.sol:CryptoKombatCollectionBinance",
        "label": "symbol",
        "offset": 0,
        "slot": "12",
        "type": "t_string_storage"
      }
    ],
    "types": {
      "t_address": {
        "encoding": "inplace",
        "label": "address",
        "numberOfBytes": "20"
      },
      "t_bool": {
        "encoding": "inplace",
        "label": "bool",
        "numberOfBytes": "1"
      },
      "t_bytes32": {
        "encoding": "inplace",
        "label": "bytes32",
        "numberOfBytes": "32"
      },
      "t_mapping(t_address,t_bool)": {
        "encoding": "mapping",
        "key": "t_address",
        "label": "mapping(address => bool)",
        "numberOfBytes": "32",
        "value": "t_bool"
      },
      "t_mapping(t_address,t_mapping(t_address,t_bool))": {
        "encoding": "mapping",
        "key": "t_address",
        "label": "mapping(address => mapping(address => bool))",
        "numberOfBytes": "32",
        "value": "t_mapping(t_address,t_bool)"
      },
      "t_mapping(t_address,t_uint256)": {
        "encoding": "mapping",
        "key": "t_address",
        "label": "mapping(address => uint256)",
        "numberOfBytes": "32",
        "value": "t_uint256"
      },
      "t_mapping(t_bytes32,t_struct(RoleData)19_storage)": {
        "encoding": "mapping",
        "key": "t_bytes32",
        "label": "mapping(bytes32 => struct AccessControl.RoleData)",
        "numberOfBytes": "32",
        "value": "t_struct(RoleData)19_storage"
      },
      "t_mapping(t_uint256,t_address)": {
        "encoding": "mapping",
        "key": "t_uint256",
        "label": "mapping(uint256 => address)",
        "numberOfBytes": "32",
        "value": "t_address"
      },
      "t_mapping(t_uint256,t_mapping(t_address,t_uint256))": {
        "encoding": "mapping",
        "key": "t_uint256",
        "label": "mapping(uint256 => mapping(address => uint256))",
        "numberOfBytes": "32",
        "value": "t_mapping(t_address,t_uint256)"
      },
      "t_mapping(t_uint256,t_uint256)": {
        "encoding": "mapping",
        "key": "t_uint256",
        "label": "mapping(uint256 => uint256)",
        "numberOfBytes": "32",
        "value": "t_uint256"
      },
      "t_string_storage": {
        "encoding": "bytes",
        "label": "string",
        "numberOfBytes": "32"
      },
      "t_struct(RoleData)19_storage": {
        "encoding": "inplace",
        "label": "struct AccessControl.RoleData",
        "members": [
          {
            "astId": 16,
            "contract": "contracts/ERC1155/CryptoKombatCollectionBinance.sol:CryptoKombatCollectionBinance",
            "label": "members",
            "offset": 0,
            "slot": "0",
            "type": "t_mapping(t_address,t_bool)"
          },
          {
            "astId": 18,
            "contract": "contracts/ERC1155/CryptoKombatCollectionBinance.sol:CryptoKombatCollectionBinance",
            "label": "adminRole",
            "offset": 0,
            "slot": "1",
            "type": "t_bytes32"
          }
        ],
        "numberOfBytes": "64"
      },
      "t_uint256": {
        "encoding": "inplace",
        "label": "uint256",
        "numberOfBytes": "32"
      }
    }
  }
}