{
  "address": "0xAD0630238531f665710BB2CCC58e61E0654Fe922",
  "abi": [
    {
      "inputs": [
        {
          "internalType": "string",
          "name": "_baseUri",
          "type": "string"
        },
        {
          "internalType": "address",
          "name": "_proxyRegistryAddress",
          "type": "address"
        }
      ],
      "stateMutability": "nonpayable",
      "type": "constructor"
    },
    {
      "anonymous": false,
      "inputs": [
        {
          "indexed": true,
          "internalType": "address",
          "name": "account",
          "type": "address"
        },
        {
          "indexed": true,
          "internalType": "address",
          "name": "operator",
          "type": "address"
        },
        {
          "indexed": false,
          "internalType": "bool",
          "name": "approved",
          "type": "bool"
        }
      ],
      "name": "ApprovalForAll",
      "type": "event"
    },
    {
      "anonymous": false,
      "inputs": [
        {
          "indexed": true,
          "internalType": "address",
          "name": "previousOwner",
          "type": "address"
        },
        {
          "indexed": true,
          "internalType": "address",
          "name": "newOwner",
          "type": "address"
        }
      ],
      "name": "OwnershipTransferred",
      "type": "event"
    },
    {
      "anonymous": false,
      "inputs": [
        {
          "indexed": true,
          "internalType": "bytes32",
          "name": "role",
          "type": "bytes32"
        },
        {
          "indexed": true,
          "internalType": "bytes32",
          "name": "previousAdminRole",
          "type": "bytes32"
        },
        {
          "indexed": true,
          "internalType": "bytes32",
          "name": "newAdminRole",
          "type": "bytes32"
        }
      ],
      "name": "RoleAdminChanged",
      "type": "event"
    },
    {
      "anonymous": false,
      "inputs": [
        {
          "indexed": true,
          "internalType": "bytes32",
          "name": "role",
          "type": "bytes32"
        },
        {
          "indexed": true,
          "internalType": "address",
          "name": "account",
          "type": "address"
        },
        {
          "indexed": true,
          "internalType": "address",
          "name": "sender",
          "type": "address"
        }
      ],
      "name": "RoleGranted",
      "type": "event"
    },
    {
      "anonymous": false,
      "inputs": [
        {
          "indexed": true,
          "internalType": "bytes32",
          "name": "role",
          "type": "bytes32"
        },
        {
          "indexed": true,
          "internalType": "address",
          "name": "account",
          "type": "address"
        },
        {
          "indexed": true,
          "internalType": "address",
          "name": "sender",
          "type": "address"
        }
      ],
      "name": "RoleRevoked",
      "type": "event"
    },
    {
      "anonymous": false,
      "inputs": [
        {
          "indexed": true,
          "internalType": "address",
          "name": "operator",
          "type": "address"
        },
        {
          "indexed": true,
          "internalType": "address",
          "name": "from",
          "type": "address"
        },
        {
          "indexed": true,
          "internalType": "address",
          "name": "to",
          "type": "address"
        },
        {
          "indexed": false,
          "internalType": "uint256[]",
          "name": "ids",
          "type": "uint256[]"
        },
        {
          "indexed": false,
          "internalType": "uint256[]",
          "name": "values",
          "type": "uint256[]"
        }
      ],
      "name": "TransferBatch",
      "type": "event"
    },
    {
      "anonymous": false,
      "inputs": [
        {
          "indexed": true,
          "internalType": "address",
          "name": "operator",
          "type": "address"
        },
        {
          "indexed": true,
          "internalType": "address",
          "name": "from",
          "type": "address"
        },
        {
          "indexed": true,
          "internalType": "address",
          "name": "to",
          "type": "address"
        },
        {
          "indexed": false,
          "internalType": "uint256",
          "name": "id",
          "type": "uint256"
        },
        {
          "indexed": false,
          "internalType": "uint256",
          "name": "value",
          "type": "uint256"
        }
      ],
      "name": "TransferSingle",
      "type": "event"
    },
    {
      "anonymous": false,
      "inputs": [
        {
          "indexed": false,
          "internalType": "string",
          "name": "value",
          "type": "string"
        },
        {
          "indexed": true,
          "internalType": "uint256",
          "name": "id",
          "type": "uint256"
        }
      ],
      "name": "URI",
      "type": "event"
    },
    {
      "inputs": [],
      "name": "DEFAULT_ADMIN_ROLE",
      "outputs": [
        {
          "internalType": "bytes32",
          "name": "",
          "type": "bytes32"
        }
      ],
      "stateMutability": "view",
      "type": "function"
    },
    {
      "inputs": [],
      "name": "DOMAIN_SEPARATOR",
      "outputs": [
        {
          "internalType": "bytes32",
          "name": "",
          "type": "bytes32"
        }
      ],
      "stateMutability": "view",
      "type": "function"
    },
    {
      "inputs": [],
      "name": "MINTER_ROLE",
      "outputs": [
        {
          "internalType": "bytes32",
          "name": "",
          "type": "bytes32"
        }
      ],
      "stateMutability": "view",
      "type": "function"
    },
    {
      "inputs": [
        {
          "internalType": "address",
          "name": "account",
          "type": "address"
        },
        {
          "internalType": "uint256",
          "name": "id",
          "type": "uint256"
        }
      ],
      "name": "balanceOf",
      "outputs": [
        {
          "internalType": "uint256",
          "name": "",
          "type": "uint256"
        }
      ],
      "stateMutability": "view",
      "type": "function"
    },
    {
      "inputs": [
        {
          "internalType": "address[]",
          "name": "accounts",
          "type": "address[]"
        },
        {
          "internalType": "uint256[]",
          "name": "ids",
          "type": "uint256[]"
        }
      ],
      "name": "balanceOfBatch",
      "outputs": [
        {
          "internalType": "uint256[]",
          "name": "",
          "type": "uint256[]"
        }
      ],
      "stateMutability": "view",
      "type": "function"
    },
    {
      "inputs": [
        {
          "internalType": "address",
          "name": "account",
          "type": "address"
        },
        {
          "internalType": "uint256",
          "name": "id",
          "type": "uint256"
        },
        {
          "internalType": "uint256",
          "name": "value",
          "type": "uint256"
        }
      ],
      "name": "burn",
      "outputs": [],
      "stateMutability": "nonpayable",
      "type": "function"
    },
    {
      "inputs": [
        {
          "internalType": "address",
          "name": "account",
          "type": "address"
        },
        {
          "internalType": "uint256[]",
          "name": "ids",
          "type": "uint256[]"
        },
        {
          "internalType": "uint256[]",
          "name": "values",
          "type": "uint256[]"
        }
      ],
      "name": "burnBatch",
      "outputs": [],
      "stateMutability": "nonpayable",
      "type": "function"
    },
    {
      "inputs": [
        {
          "internalType": "uint256",
          "name": "_max",
          "type": "uint256"
        },
        {
          "internalType": "uint256",
          "name": "_initial",
          "type": "uint256"
        },
        {
          "internalType": "bytes",
          "name": "_data",
          "type": "bytes"
        }
      ],
      "name": "create",
      "outputs": [
        {
          "internalType": "uint256",
          "name": "tokenId",
          "type": "uint256"
        }
      ],
      "stateMutability": "nonpayable",
      "type": "function"
    },
    {
      "inputs": [
        {
          "internalType": "uint256[]",
          "name": "_maxs",
          "type": "uint256[]"
        },
        {
          "internalType": "uint256[]",
          "name": "_initials",
          "type": "uint256[]"
        },
        {
          "internalType": "bytes",
          "name": "_data",
          "type": "bytes"
        }
      ],
      "name": "createBatch",
      "outputs": [],
      "stateMutability": "nonpayable",
      "type": "function"
    },
    {
      "inputs": [
        {
          "internalType": "uint256",
          "name": "",
          "type": "uint256"
        }
      ],
      "name": "creators",
      "outputs": [
        {
          "internalType": "address",
          "name": "",
          "type": "address"
        }
      ],
      "stateMutability": "view",
      "type": "function"
    },
    {
      "inputs": [
        {
          "internalType": "uint256",
          "name": "_id",
          "type": "uint256"
        }
      ],
      "name": "exists",
      "outputs": [
        {
          "internalType": "bool",
          "name": "",
          "type": "bool"
        }
      ],
      "stateMutability": "view",
      "type": "function"
    },
    {
      "inputs": [
        {
          "internalType": "bytes32",
          "name": "role",
          "type": "bytes32"
        }
      ],
      "name": "getRoleAdmin",
      "outputs": [
        {
          "internalType": "bytes32",
          "name": "",
          "type": "bytes32"
        }
      ],
      "stateMutability": "view",
      "type": "function"
    },
    {
      "inputs": [
        {
          "internalType": "bytes32",
          "name": "role",
          "type": "bytes32"
        },
        {
          "internalType": "address",
          "name": "account",
          "type": "address"
        }
      ],
      "name": "grantRole",
      "outputs": [],
      "stateMutability": "nonpayable",
      "type": "function"
    },
    {
      "inputs": [
        {
          "internalType": "bytes32",
          "name": "role",
          "type": "bytes32"
        },
        {
          "internalType": "address",
          "name": "account",
          "type": "address"
        }
      ],
      "name": "hasRole",
      "outputs": [
        {
          "internalType": "bool",
          "name": "",
          "type": "bool"
        }
      ],
      "stateMutability": "view",
      "type": "function"
    },
    {
      "inputs": [
        {
          "internalType": "address",
          "name": "_owner",
          "type": "address"
        },
        {
          "internalType": "address",
          "name": "_operator",
          "type": "address"
        }
      ],
      "name": "isApprovedForAll",
      "outputs": [
        {
          "internalType": "bool",
          "name": "isOperator",
          "type": "bool"
        }
      ],
      "stateMutability": "view",
      "type": "function"
    },
    {
      "inputs": [
        {
          "internalType": "uint256",
          "name": "_id",
          "type": "uint256"
        }
      ],
      "name": "maxSupply",
      "outputs": [
        {
          "internalType": "uint256",
          "name": "",
          "type": "uint256"
        }
      ],
      "stateMutability": "view",
      "type": "function"
    },
    {
      "inputs": [
        {
          "internalType": "address",
          "name": "_to",
          "type": "address"
        },
        {
          "internalType": "uint256",
          "name": "_id",
          "type": "uint256"
        },
        {
          "internalType": "uint256",
          "name": "_quantity",
          "type": "uint256"
        },
        {
          "internalType": "bytes",
          "name": "_data",
          "type": "bytes"
        }
      ],
      "name": "mint",
      "outputs": [],
      "stateMutability": "nonpayable",
      "type": "function"
    },
    {
      "inputs": [
        {
          "internalType": "address",
          "name": "_to",
          "type": "address"
        },
        {
          "internalType": "uint256[]",
          "name": "_ids",
          "type": "uint256[]"
        },
        {
          "internalType": "uint256[]",
          "name": "_quantities",
          "type": "uint256[]"
        },
        {
          "internalType": "bytes",
          "name": "_data",
          "type": "bytes"
        }
      ],
      "name": "mintBatch",
      "outputs": [],
      "stateMutability": "nonpayable",
      "type": "function"
    },
    {
      "inputs": [],
      "name": "name",
      "outputs": [
        {
          "internalType": "string",
          "name": "",
          "type": "string"
        }
      ],
      "stateMutability": "view",
      "type": "function"
    },
    {
      "inputs": [],
      "name": "owner",
      "outputs": [
        {
          "internalType": "address",
          "name": "",
          "type": "address"
        }
      ],
      "stateMutability": "view",
      "type": "function"
    },
    {
      "inputs": [],
      "name": "renounceOwnership",
      "outputs": [],
      "stateMutability": "nonpayable",
      "type": "function"
    },
    {
      "inputs": [
        {
          "internalType": "bytes32",
          "name": "role",
          "type": "bytes32"
        },
        {
          "internalType": "address",
          "name": "account",
          "type": "address"
        }
      ],
      "name": "renounceRole",
      "outputs": [],
      "stateMutability": "nonpayable",
      "type": "function"
    },
    {
      "inputs": [
        {
          "internalType": "bytes32",
          "name": "role",
          "type": "bytes32"
        },
        {
          "internalType": "address",
          "name": "account",
          "type": "address"
        }
      ],
      "name": "revokeRole",
      "outputs": [],
      "stateMutability": "nonpayable",
      "type": "function"
    },
    {
      "inputs": [
        {
          "internalType": "address",
          "name": "from",
          "type": "address"
        },
        {
          "internalType": "address",
          "name": "to",
          "type": "address"
        },
        {
          "internalType": "uint256[]",
          "name": "ids",
          "type": "uint256[]"
        },
        {
          "internalType": "uint256[]",
          "name": "amounts",
          "type": "uint256[]"
        },
        {
          "internalType": "bytes",
          "name": "data",
          "type": "bytes"
        }
      ],
      "name": "safeBatchTransferFrom",
      "outputs": [],
      "stateMutability": "nonpayable",
      "type": "function"
    },
    {
      "inputs": [
        {
          "internalType": "address",
          "name": "from",
          "type": "address"
        },
        {
          "internalType": "address",
          "name": "to",
          "type": "address"
        },
        {
          "internalType": "uint256",
          "name": "id",
          "type": "uint256"
        },
        {
          "internalType": "uint256",
          "name": "amount",
          "type": "uint256"
        },
        {
          "internalType": "bytes",
          "name": "data",
          "type": "bytes"
        }
      ],
      "name": "safeTransferFrom",
      "outputs": [],
      "stateMutability": "nonpayable",
      "type": "function"
    },
    {
      "inputs": [
        {
          "internalType": "address",
          "name": "operator",
          "type": "address"
        },
        {
          "internalType": "bool",
          "name": "approved",
          "type": "bool"
        }
      ],
      "name": "setApprovalForAll",
      "outputs": [],
      "stateMutability": "nonpayable",
      "type": "function"
    },
    {
      "inputs": [
        {
          "internalType": "string",
          "name": "_newBaseMetadataURI",
          "type": "string"
        }
      ],
      "name": "setBaseMetadataURI",
      "outputs": [],
      "stateMutability": "nonpayable",
      "type": "function"
    },
    {
      "inputs": [
        {
          "internalType": "address",
          "name": "_newProxyRegistryAddress",
          "type": "address"
        }
      ],
      "name": "setProxyRegistryAddress",
      "outputs": [],
      "stateMutability": "nonpayable",
      "type": "function"
    },
    {
      "inputs": [
        {
          "internalType": "bytes4",
          "name": "interfaceId",
          "type": "bytes4"
        }
      ],
      "name": "supportsInterface",
      "outputs": [
        {
          "internalType": "bool",
          "name": "",
          "type": "bool"
        }
      ],
      "stateMutability": "view",
      "type": "function"
    },
    {
      "inputs": [],
      "name": "symbol",
      "outputs": [
        {
          "internalType": "string",
          "name": "",
          "type": "string"
        }
      ],
      "stateMutability": "view",
      "type": "function"
    },
    {
      "inputs": [
        {
          "internalType": "uint256",
          "name": "",
          "type": "uint256"
        }
      ],
      "name": "tokenMaxSupply",
      "outputs": [
        {
          "internalType": "uint256",
          "name": "",
          "type": "uint256"
        }
      ],
      "stateMutability": "view",
      "type": "function"
    },
    {
      "inputs": [
        {
          "internalType": "uint256",
          "name": "",
          "type": "uint256"
        }
      ],
      "name": "tokenSupply",
      "outputs": [
        {
          "internalType": "uint256",
          "name": "",
          "type": "uint256"
        }
      ],
      "stateMutability": "view",
      "type": "function"
    },
    {
      "inputs": [
        {
          "internalType": "uint256",
          "name": "_id",
          "type": "uint256"
        }
      ],
      "name": "totalSupply",
      "outputs": [
        {
          "internalType": "uint256",
          "name": "",
          "type": "uint256"
        }
      ],
      "stateMutability": "view",
      "type": "function"
    },
    {
      "inputs": [
        {
          "internalType": "address",
          "name": "newOwner",
          "type": "address"
        }
      ],
      "name": "transferOwnership",
      "outputs": [],
      "stateMutability": "nonpayable",
      "type": "function"
    },
    {
      "inputs": [
        {
          "internalType": "uint256",
          "name": "_id",
          "type": "uint256"
        }
      ],
      "name": "uri",
      "outputs": [
        {
          "internalType": "string",
          "name": "",
          "type": "string"
        }
      ],
      "stateMutability": "view",
      "type": "function"
    }
  ],
  "transactionHash": "0x5d41fb823e6e435ec8eba0b3eca6266439a616d0a1351b341ad15f678b44f40c",
  "args": [
    "https://uat-polygon-api.cryptokombat.com/consumables/",
    "0x207Fa8Df3a17D96Ca7EA4f2893fcdCb78a304101"
  ],
  "solcInputHash": "c53bea81c463e814ca9dcbe42ad037b8",
  "bytecode": "0x61012060405260006007553480156200001757600080fd5b5060405162003d7838038062003d788339810160408190526200003a9162000466565b6040518060400160405280601981526020017f43727970746f204b6f6d62617420436f6e73756d61626c65730000000000000081525060405180604001604052806004815260200163434b434d60e01b815250838383604051806040016040528060018152602001603160f81b81525085858460405180602001604052806000815250620000d7620000d16200021660201b60201c565b62000275565b620000e281620002c7565b50620000f96000620000f362000216565b620002e0565b620001287f9f2df0fed2c77648de5860a4cc508cd0818c85b8b8a1ab4ceeef8d981c8956a6620000f362000216565b82516200013d90600b906020860190620003a3565b5081516200015390600c906020850190620003a3565b50600680546001600160a01b0319166001600160a01b03929092169190911790555050815160209283012081519183019190912060c082815260e08290524660a0818152604080517f8b73c3c69bb8fe3d512ecc4cf759cc79239f7b179b0ffacaa9a75d522b39400f818901819052818301979097526060810195909552608080860193909352308583015280518086039092018252939092019092528051930192909220909152610100526200020a82620002ec565b505050505050620005a4565b6000333014156200026f57600080368080601f0160208091040260200160405190810160405280939291908181526020018383808284376000920191909152505050503601516001600160a01b03169150620002729050565b50335b90565b600180546001600160a01b038381166001600160a01b0319831681179093556040519116919082907f8be0079c531659141344cd1fd0a4f28419497f9722a3daafe3b4186f6b6457e090600090a35050565b8051620002dc906004906020840190620003a3565b5050565b620002dc828262000301565b8051620002dc906005906020840190620003a3565b6000828152602081815260408083206001600160a01b038516845290915290205460ff16620002dc576000828152602081815260408083206001600160a01b03851684529091529020805460ff191660011790556200035f62000216565b6001600160a01b0316816001600160a01b0316837f2f8788117e7eff1d82e926ec794901d17c78024a50270940304540a733656f0d60405160405180910390a45050565b828054620003b19062000551565b90600052602060002090601f016020900481019282620003d5576000855562000420565b82601f10620003f057805160ff191683800117855562000420565b8280016001018555821562000420579182015b828111156200042057825182559160200191906001019062000403565b506200042e92915062000432565b5090565b5b808211156200042e576000815560010162000433565b80516001600160a01b03811681146200046157600080fd5b919050565b6000806040838503121562000479578182fd5b82516001600160401b038082111562000490578384fd5b818501915085601f830112620004a4578384fd5b815181811115620004b957620004b96200058e565b604051601f8201601f19908116603f01168101908382118183101715620004e457620004e46200058e565b8160405282815260209350888484870101111562000500578687fd5b8691505b8282101562000523578482018401518183018501529083019062000504565b828211156200053457868484830101525b95506200054691505085820162000449565b925050509250929050565b600181811c908216806200056657607f821691505b602082108114156200058857634e487b7160e01b600052602260045260246000fd5b50919050565b634e487b7160e01b600052604160045260246000fd5b60805160a05160c05160e0516101005161378f620005e96000396000611da501526000611df401526000611dcf01526000611d5301526000611d7c015261378f6000f3fe608060405234801561001057600080fd5b506004361061020f5760003560e01c8063715018a611610125578063bd85b039116100ad578063d547741f1161007c578063d547741f146104ee578063e985e9c514610501578063f242432a14610514578063f2fde38b14610527578063f5298aca1461053a57600080fd5b8063bd85b0391461046b578063cd53d08e1461048b578063d26ea6c0146104b4578063d5391393146104c757600080fd5b80638da5cb5b116100f45780638da5cb5b1461041057806391d148541461043557806395d89b4114610448578063a217fddf14610450578063a22cb4651461045857600080fd5b8063715018a6146103c2578063731133e9146103ca5780637e518ec8146103dd578063869f7594146103f057600080fd5b8063248a9ca3116101a85780633644e515116101775780633644e5151461034957806336568abe146103515780634e1273f4146103645780634f558e79146103845780636b20c454146103af57600080fd5b8063248a9ca3146102e05780632693ebf2146103035780632eb2c2d6146103235780632f2ff15d1461033657600080fd5b806306fdde03116101e457806306fdde03146102905780630e89341c146102a55780631e80165b146102b85780631f7fdffa146102cd57600080fd5b80624221f014610214578062fdd58e1461024757806301ffc9a71461025a57806306f9363c1461027d575b600080fd5b610234610222366004612de7565b600a6020526000908152604090205481565b6040519081526020015b60405180910390f35b610234610255366004612bef565b61054d565b61026d610268366004612e23565b6105e9565b604051901515815260200161023e565b61023461028b366004612ebc565b6105f4565b6102986106fa565b60405161023e9190613177565b6102986102b3366004612de7565b610788565b6102cb6102c6366004612d6e565b61082c565b005b6102cb6102db366004612b28565b610b0f565b6102346102ee366004612de7565b60009081526020819052604090206001015490565b610234610311366004612de7565b60096020526000908152604090205481565b6102cb6103313660046129a7565b610d25565b6102cb610344366004612dff565b610dc7565b610234610df9565b6102cb61035f366004612dff565b610e08565b610377610372366004612ca2565b610e96565b60405161023e919061313f565b61026d610392366004612de7565b6000908152600860205260409020546001600160a01b0316151590565b6102cb6103bd366004612ab6565b610ff7565b6102cb61104c565b6102cb6103d8366004612c4e565b6110d1565b6102cb6103eb366004612e77565b611192565b6102346103fe366004612de7565b6000908152600a602052604090205490565b6001546001600160a01b03165b6040516001600160a01b03909116815260200161023e565b61026d610443366004612dff565b6111fb565b610298611224565b610234600081565b6102cb610466366004612bbe565b611231565b610234610479366004612de7565b60009081526009602052604090205490565b61041d610499366004612de7565b6008602052600090815260409020546001600160a01b031681565b6102cb6104c2366004612953565b611345565b6102347f9f2df0fed2c77648de5860a4cc508cd0818c85b8b8a1ab4ceeef8d981c8956a681565b6102cb6104fc366004612dff565b6113c4565b61026d61050f36600461296f565b6113ec565b6102cb610522366004612a50565b6114bc565b6102cb610535366004612953565b611513565b6102cb610548366004612c1a565b6115fa565b60006001600160a01b0383166105be5760405162461bcd60e51b815260206004820152602b60248201527f455243313135353a2062616c616e636520717565727920666f7220746865207a60448201526a65726f206164647265737360a81b60648201526084015b60405180910390fd5b5060008181526002602090815260408083206001600160a01b03861684529091529020545b92915050565b60006105e38261164f565b60006106028161044361168f565b80610636575061061061168f565b6001600160a01b031661062b6001546001600160a01b031690565b6001600160a01b0316145b6106525760405162461bcd60e51b81526004016105b5906132ea565b838311156106725760405162461bcd60e51b81526004016105b590613491565b600061067c6116ec565b90506106866116fd565b61068e61168f565b600082815260086020526040902080546001600160a01b0319166001600160a01b039290921691909117905583156106d3576106d36106cb61168f565b828686611714565b6000818152600960209081526040808320879055600a909152902085905590509392505050565b600b8054610707906135b6565b80601f0160208091040260200160405190810160405280929190818152602001828054610733906135b6565b80156107805780601f1061075557610100808354040283529160200191610780565b820191906000526020600020905b81548152906001019060200180831161076357829003601f168201915b505050505081565b6000818152600860205260409020546060906001600160a01b03166107fa5760405162461bcd60e51b815260206004820152602260248201527f455243313135355472616461626c653a20746f6b656e206d7573742065786973604482015261747360f01b60648201526084016105b5565b6005610805836117f7565b604051602001610816929190612f81565b6040516020818303038152906040529050919050565b610839600061044361168f565b8061086d575061084761168f565b6001600160a01b03166108626001546001600160a01b031690565b6001600160a01b0316145b6108895760405162461bcd60e51b81526004016105b5906132ea565b81518351146108f55760405162461bcd60e51b815260206004820152603260248201527f455243313135355472616461626c653a206d61787320616e6420696e697469616044820152710d8e640d8cadccee8d040dad2e6dac2e8c6d60731b60648201526084016105b5565b600083516001600160401b0381111561091e57634e487b7160e01b600052604160045260246000fd5b604051908082528060200260200182016040528015610947578160200160208202803683370190505b509050600084516001600160401b0381111561097357634e487b7160e01b600052604160045260246000fd5b60405190808252806020026020018201604052801561099c578160200160208202803683370190505b50905060005b8551811015610af45760008682815181106109cd57634e487b7160e01b600052603260045260246000fd5b6020026020010151905060008683815181106109f957634e487b7160e01b600052603260045260246000fd5b6020026020010151905081811115610a235760405162461bcd60e51b81526004016105b590613491565b6000610a2d6116ec565b9050610a376116fd565b610a3f61168f565b600082815260086020908152604080832080546001600160a01b0319166001600160a01b03959095169490941790935560098152828220859055600a90522083905585518190879086908110610aa557634e487b7160e01b600052603260045260246000fd5b60200260200101818152505081858581518110610ad257634e487b7160e01b600052603260045260246000fd5b6020026020010181815250505050508080610aec9061361d565b9150506109a2565b50610b08610b0061168f565b838386611910565b5050505050565b610b3b7f9f2df0fed2c77648de5860a4cc508cd0818c85b8b8a1ab4ceeef8d981c8956a661044361168f565b610b575760405162461bcd60e51b81526004016105b5906131d2565b6001600160a01b038416610bbf5760405162461bcd60e51b815260206004820152602960248201527f455243313135355472616461626c653a206d696e7420746f20746865207a65726044820152686f206164647265737360b81b60648201526084016105b5565b8151835114610c295760405162461bcd60e51b815260206004820152603060248201527f455243313135355472616461626c653a2069647320616e6420616d6f756e747360448201526f040d8cadccee8d040dad2e6dac2e8c6d60831b60648201526084016105b5565b60005b8351811015610d12576000848281518110610c5757634e487b7160e01b600052603260045260246000fd5b602002602001015190506000848381518110610c8357634e487b7160e01b600052603260045260246000fd5b6020908102919091018101516000848152600a83526040808220546009909452902054909250610cb4908390613511565b1115610cd25760405162461bcd60e51b81526004016105b5906133c5565b600082815260096020526040902054610cec908290613511565b600092835260096020526040909220919091555080610d0a8161361d565b915050610c2c565b50610d1f84848484611910565b50505050565b610d2d61168f565b6001600160a01b0316856001600160a01b03161480610d535750610d538561050f61168f565b610dba5760405162461bcd60e51b815260206004820152603260248201527f455243313135353a207472616e736665722063616c6c6572206973206e6f74206044820152711bdddb995c881b9bdc88185c1c1c9bdd995960721b60648201526084016105b5565b610b088585858585611a92565b600082815260208190526040902060010154610dea81610de561168f565b611c66565b610df48383611cca565b505050565b6000610e03611d4f565b905090565b610e1061168f565b6001600160a01b0316816001600160a01b031614610e885760405162461bcd60e51b815260206004820152602f60248201527f416363657373436f6e74726f6c3a2063616e206f6e6c792072656e6f756e636560448201526e103937b632b9903337b91039b2b63360891b60648201526084016105b5565b610e928282611e42565b5050565b60608151835114610efb5760405162461bcd60e51b815260206004820152602960248201527f455243313135353a206163636f756e747320616e6420696473206c656e677468604482015268040dad2e6dac2e8c6d60bb1b60648201526084016105b5565b600083516001600160401b03811115610f2457634e487b7160e01b600052604160045260246000fd5b604051908082528060200260200182016040528015610f4d578160200160208202803683370190505b50905060005b8451811015610fef57610fb4858281518110610f7f57634e487b7160e01b600052603260045260246000fd5b6020026020010151858381518110610fa757634e487b7160e01b600052603260045260246000fd5b602002602001015161054d565b828281518110610fd457634e487b7160e01b600052603260045260246000fd5b6020908102919091010152610fe88161361d565b9050610f53565b509392505050565b610fff61168f565b6001600160a01b0316836001600160a01b0316148061102557506110258361050f61168f565b6110415760405162461bcd60e51b81526004016105b59061325c565b610df4838383611ec5565b61105461168f565b6001600160a01b031661106f6001546001600160a01b031690565b6001600160a01b0316146110c55760405162461bcd60e51b815260206004820181905260248201527f4f776e61626c653a2063616c6c6572206973206e6f7420746865206f776e657260448201526064016105b5565b6110cf6000612079565b565b6110fd7f9f2df0fed2c77648de5860a4cc508cd0818c85b8b8a1ab4ceeef8d981c8956a661044361168f565b6111195760405162461bcd60e51b81526004016105b5906131d2565b6000838152600a602090815260408083205460099092529091205461113f908490613511565b111561115d5760405162461bcd60e51b81526004016105b5906133c5565b600083815260096020526040902054611177908390613511565b600084815260096020526040902055610d1f84848484611714565b61119f600061044361168f565b806111d357506111ad61168f565b6001600160a01b03166111c86001546001600160a01b031690565b6001600160a01b0316145b6111ef5760405162461bcd60e51b81526004016105b5906132ea565b6111f8816120cb565b50565b6000918252602082815260408084206001600160a01b0393909316845291905290205460ff1690565b600c8054610707906135b6565b816001600160a01b031661124361168f565b6001600160a01b031614156112ac5760405162461bcd60e51b815260206004820152602960248201527f455243313135353a2073657474696e6720617070726f76616c20737461747573604482015268103337b91039b2b63360b91b60648201526084016105b5565b80600360006112b961168f565b6001600160a01b03908116825260208083019390935260409182016000908120918716808252919093529120805460ff1916921515929092179091556112fd61168f565b6001600160a01b03167f17307eab39ab6107e8899845ad3d59bd9653f200f220920489ca2b5937696c3183604051611339911515815260200190565b60405180910390a35050565b611352600061044361168f565b80611386575061136061168f565b6001600160a01b031661137b6001546001600160a01b031690565b6001600160a01b0316145b6113a25760405162461bcd60e51b81526004016105b5906132ea565b600680546001600160a01b0319166001600160a01b0392909216919091179055565b6000828152602081905260409020600101546113e281610de561168f565b610df48383611e42565b60065460405163c455279160e01b81526001600160a01b03848116600483015260009281169190841690829063c45527919060240160206040518083038186803b15801561143957600080fd5b505afa15801561144d573d6000803e3d6000fd5b505050506040513d601f19601f820116820180604052508101906114719190612e5b565b6001600160a01b0316141561148a5760019150506105e3565b6001600160a01b0380851660009081526003602090815260408083209387168352929052205460ff165b949350505050565b6114c461168f565b6001600160a01b0316856001600160a01b031614806114ea57506114ea8561050f61168f565b6115065760405162461bcd60e51b81526004016105b59061325c565b610b0885858585856120de565b61151b61168f565b6001600160a01b03166115366001546001600160a01b031690565b6001600160a01b03161461158c5760405162461bcd60e51b815260206004820181905260248201527f4f776e61626c653a2063616c6c6572206973206e6f7420746865206f776e657260448201526064016105b5565b6001600160a01b0381166115f15760405162461bcd60e51b815260206004820152602660248201527f4f776e61626c653a206e6577206f776e657220697320746865207a65726f206160448201526564647265737360d01b60648201526084016105b5565b6111f881612079565b61160261168f565b6001600160a01b0316836001600160a01b0316148061162857506116288361050f61168f565b6116445760405162461bcd60e51b81526004016105b59061325c565b610df483838361220a565b60006001600160e01b03198216636cdb3d1360e11b148061168057506001600160e01b031982166303a24d0760e21b145b806105e357506105e38261231a565b6000333014156116e657600080368080601f0160208091040260200160405190810160405280939291908181526020018383808284376000920191909152505050503601516001600160a01b031691506116e99050565b50335b90565b60006007546001610e039190613511565b6007805490600061170d8361361d565b9190505550565b6001600160a01b03841661173a5760405162461bcd60e51b81526004016105b590613450565b600061174461168f565b9050611765816000876117568861234f565b61175f8861234f565b876123a8565b60008481526002602090815260408083206001600160a01b038916845290915281208054859290611797908490613511565b909155505060408051858152602081018590526001600160a01b0380881692600092918516917fc3d58168c5ae7397731d063d5bbf3d657854427343f4c083240f7aacaa2d0f62910160405180910390a4610b08816000878787876123ad565b60608161181b5750506040805180820190915260018152600360fc1b602082015290565b8160005b8115611845578061182f8161361d565b915061183e9050600a83613529565b915061181f565b6000816001600160401b0381111561186d57634e487b7160e01b600052604160045260246000fd5b6040519080825280601f01601f191660200182016040528015611897576020820181803683370190505b5090505b84156114b4576118ac60018361355c565b91506118b9600a86613638565b6118c4906030613511565b60f81b8183815181106118e757634e487b7160e01b600052603260045260246000fd5b60200101906001600160f81b031916908160001a905350611909600a86613529565b945061189b565b6001600160a01b0384166119365760405162461bcd60e51b81526004016105b590613450565b81518351146119575760405162461bcd60e51b81526004016105b590613408565b600061196161168f565b9050611972816000878787876123a8565b60005b8451811015611a2a5783818151811061199e57634e487b7160e01b600052603260045260246000fd5b6020026020010151600260008784815181106119ca57634e487b7160e01b600052603260045260246000fd5b602002602001015181526020019081526020016000206000886001600160a01b03166001600160a01b031681526020019081526020016000206000828254611a129190613511565b90915550819050611a228161361d565b915050611975565b50846001600160a01b031660006001600160a01b0316826001600160a01b03167f4a39dc06d4c0dbc64b70af90fd698a233a518aa5d07e595d983b8c0526c8f7fb8787604051611a7b929190613152565b60405180910390a4610b0881600087878787612518565b8151835114611ab35760405162461bcd60e51b81526004016105b590613408565b6001600160a01b038416611ad95760405162461bcd60e51b81526004016105b5906132a5565b6000611ae361168f565b9050611af38187878787876123a8565b60005b8451811015611bf8576000858281518110611b2157634e487b7160e01b600052603260045260246000fd5b602002602001015190506000858381518110611b4d57634e487b7160e01b600052603260045260246000fd5b60209081029190910181015160008481526002835260408082206001600160a01b038e168352909352919091205490915081811015611b9e5760405162461bcd60e51b81526004016105b59061337b565b60008381526002602090815260408083206001600160a01b038e8116855292528083208585039055908b16825281208054849290611bdd908490613511565b9250508190555050505080611bf19061361d565b9050611af6565b50846001600160a01b0316866001600160a01b0316826001600160a01b03167f4a39dc06d4c0dbc64b70af90fd698a233a518aa5d07e595d983b8c0526c8f7fb8787604051611c48929190613152565b60405180910390a4611c5e818787878787612518565b505050505050565b611c7082826111fb565b610e9257611c88816001600160a01b031660146125e2565b611c938360206125e2565b604051602001611ca4929190613027565b60408051601f198184030181529082905262461bcd60e51b82526105b591600401613177565b611cd482826111fb565b610e92576000828152602081815260408083206001600160a01b03851684529091529020805460ff19166001179055611d0b61168f565b6001600160a01b0316816001600160a01b0316837f2f8788117e7eff1d82e926ec794901d17c78024a50270940304540a733656f0d60405160405180910390a45050565b60007f0000000000000000000000000000000000000000000000000000000000000000461415611d9e57507f000000000000000000000000000000000000000000000000000000000000000090565b50604080517f00000000000000000000000000000000000000000000000000000000000000006020808301919091527f0000000000000000000000000000000000000000000000000000000000000000828401527f000000000000000000000000000000000000000000000000000000000000000060608301524660808301523060a0808401919091528351808403909101815260c0909201909252805191012090565b611e4c82826111fb565b15610e92576000828152602081815260408083206001600160a01b03851684529091529020805460ff19169055611e8161168f565b6001600160a01b0316816001600160a01b0316837ff6391f5c32d9c69d2a47ea670b442974b53935d1edc7fd64eb21e047a839171b60405160405180910390a45050565b6001600160a01b038316611eeb5760405162461bcd60e51b81526004016105b590613338565b8051825114611f0c5760405162461bcd60e51b81526004016105b590613408565b6000611f1661168f565b9050611f36818560008686604051806020016040528060008152506123a8565b60005b835181101561201a576000848281518110611f6457634e487b7160e01b600052603260045260246000fd5b602002602001015190506000848381518110611f9057634e487b7160e01b600052603260045260246000fd5b60209081029190910181015160008481526002835260408082206001600160a01b038c168352909352919091205490915081811015611fe15760405162461bcd60e51b81526004016105b590613218565b60009283526002602090815260408085206001600160a01b038b16865290915290922091039055806120128161361d565b915050611f39565b5060006001600160a01b0316846001600160a01b0316826001600160a01b03167f4a39dc06d4c0dbc64b70af90fd698a233a518aa5d07e595d983b8c0526c8f7fb868660405161206b929190613152565b60405180910390a450505050565b600180546001600160a01b038381166001600160a01b0319831681179093556040519116919082907f8be0079c531659141344cd1fd0a4f28419497f9722a3daafe3b4186f6b6457e090600090a35050565b8051610e929060059060208401906127ca565b6001600160a01b0384166121045760405162461bcd60e51b81526004016105b5906132a5565b600061210e61168f565b905061211f8187876117568861234f565b60008481526002602090815260408083206001600160a01b038a168452909152902054838110156121625760405162461bcd60e51b81526004016105b59061337b565b60008581526002602090815260408083206001600160a01b038b81168552925280832087850390559088168252812080548692906121a1908490613511565b909155505060408051868152602081018690526001600160a01b03808916928a821692918616917fc3d58168c5ae7397731d063d5bbf3d657854427343f4c083240f7aacaa2d0f62910160405180910390a46122018288888888886123ad565b50505050505050565b6001600160a01b0383166122305760405162461bcd60e51b81526004016105b590613338565b600061223a61168f565b905061226a8185600061224c8761234f565b6122558761234f565b604051806020016040528060008152506123a8565b60008381526002602090815260408083206001600160a01b0388168452909152902054828110156122ad5760405162461bcd60e51b81526004016105b590613218565b60008481526002602090815260408083206001600160a01b03898116808652918452828520888703905582518981529384018890529092908616917fc3d58168c5ae7397731d063d5bbf3d657854427343f4c083240f7aacaa2d0f62910160405180910390a45050505050565b60006001600160e01b03198216637965db0b60e01b14806105e357506301ffc9a760e01b6001600160e01b03198316146105e3565b6040805160018082528183019092526060916000919060208083019080368337019050509050828160008151811061239757634e487b7160e01b600052603260045260246000fd5b602090810291909101015292915050565b611c5e565b6001600160a01b0384163b15611c5e5760405163f23a6e6160e01b81526001600160a01b0385169063f23a6e61906123f190899089908890889088906004016130fa565b602060405180830381600087803b15801561240b57600080fd5b505af192505050801561243b575060408051601f3d908101601f1916820190925261243891810190612e3f565b60015b6124e85761244761368e565b806308c379a01415612481575061245c6136a5565b806124675750612483565b8060405162461bcd60e51b81526004016105b59190613177565b505b60405162461bcd60e51b815260206004820152603460248201527f455243313135353a207472616e7366657220746f206e6f6e20455243313135356044820152732932b1b2b4bb32b91034b6b83632b6b2b73a32b960611b60648201526084016105b5565b6001600160e01b0319811663f23a6e6160e01b146122015760405162461bcd60e51b81526004016105b59061318a565b6001600160a01b0384163b15611c5e5760405163bc197c8160e01b81526001600160a01b0385169063bc197c819061255c908990899088908890889060040161309c565b602060405180830381600087803b15801561257657600080fd5b505af19250505080156125a6575060408051601f3d908101601f191682019092526125a391810190612e3f565b60015b6125b25761244761368e565b6001600160e01b0319811663bc197c8160e01b146122015760405162461bcd60e51b81526004016105b59061318a565b606060006125f183600261353d565b6125fc906002613511565b6001600160401b0381111561262157634e487b7160e01b600052604160045260246000fd5b6040519080825280601f01601f19166020018201604052801561264b576020820181803683370190505b509050600360fc1b8160008151811061267457634e487b7160e01b600052603260045260246000fd5b60200101906001600160f81b031916908160001a905350600f60fb1b816001815181106126b157634e487b7160e01b600052603260045260246000fd5b60200101906001600160f81b031916908160001a90535060006126d584600261353d565b6126e0906001613511565b90505b6001811115612774576f181899199a1a9b1b9c1cb0b131b232b360811b85600f166010811061272257634e487b7160e01b600052603260045260246000fd5b1a60f81b82828151811061274657634e487b7160e01b600052603260045260246000fd5b60200101906001600160f81b031916908160001a90535060049490941c9361276d8161359f565b90506126e3565b5083156127c35760405162461bcd60e51b815260206004820181905260248201527f537472696e67733a20686578206c656e67746820696e73756666696369656e7460448201526064016105b5565b9392505050565b8280546127d6906135b6565b90600052602060002090601f0160209004810192826127f8576000855561283e565b82601f1061281157805160ff191683800117855561283e565b8280016001018555821561283e579182015b8281111561283e578251825591602001919060010190612823565b5061284a92915061284e565b5090565b5b8082111561284a576000815560010161284f565b60006001600160401b0383111561287c5761287c613678565b604051612893601f8501601f1916602001826135f1565b8091508381528484840111156128a857600080fd5b83836020830137600060208583010152509392505050565b600082601f8301126128d0578081fd5b813560206128dd826134ee565b6040516128ea82826135f1565b8381528281019150858301600585901b87018401881015612909578586fd5b855b858110156129275781358452928401929084019060010161290b565b5090979650505050505050565b600082601f830112612944578081fd5b6127c383833560208501612863565b600060208284031215612964578081fd5b81356127c38161372e565b60008060408385031215612981578081fd5b823561298c8161372e565b9150602083013561299c8161372e565b809150509250929050565b600080600080600060a086880312156129be578081fd5b85356129c98161372e565b945060208601356129d98161372e565b935060408601356001600160401b03808211156129f4578283fd5b612a0089838a016128c0565b94506060880135915080821115612a15578283fd5b612a2189838a016128c0565b93506080880135915080821115612a36578283fd5b50612a4388828901612934565b9150509295509295909350565b600080600080600060a08688031215612a67578081fd5b8535612a728161372e565b94506020860135612a828161372e565b9350604086013592506060860135915060808601356001600160401b03811115612aaa578182fd5b612a4388828901612934565b600080600060608486031215612aca578283fd5b8335612ad58161372e565b925060208401356001600160401b0380821115612af0578384fd5b612afc878388016128c0565b93506040860135915080821115612b11578283fd5b50612b1e868287016128c0565b9150509250925092565b60008060008060808587031215612b3d578384fd5b8435612b488161372e565b935060208501356001600160401b0380821115612b63578485fd5b612b6f888389016128c0565b94506040870135915080821115612b84578384fd5b612b90888389016128c0565b93506060870135915080821115612ba5578283fd5b50612bb287828801612934565b91505092959194509250565b60008060408385031215612bd0578182fd5b8235612bdb8161372e565b91506020830135801515811461299c578182fd5b60008060408385031215612c01578182fd5b8235612c0c8161372e565b946020939093013593505050565b600080600060608486031215612c2e578081fd5b8335612c398161372e565b95602085013595506040909401359392505050565b60008060008060808587031215612c63578182fd5b8435612c6e8161372e565b9350602085013592506040850135915060608501356001600160401b03811115612c96578182fd5b612bb287828801612934565b60008060408385031215612cb4578182fd5b82356001600160401b0380821115612cca578384fd5b818501915085601f830112612cdd578384fd5b81356020612cea826134ee565b604051612cf782826135f1565b8381528281019150858301600585901b870184018b1015612d16578889fd5b8896505b84871015612d41578035612d2d8161372e565b835260019690960195918301918301612d1a565b5096505086013592505080821115612d57578283fd5b50612d64858286016128c0565b9150509250929050565b600080600060608486031215612d82578081fd5b83356001600160401b0380821115612d98578283fd5b612da4878388016128c0565b94506020860135915080821115612db9578283fd5b612dc5878388016128c0565b93506040860135915080821115612dda578283fd5b50612b1e86828701612934565b600060208284031215612df8578081fd5b5035919050565b60008060408385031215612e11578182fd5b82359150602083013561299c8161372e565b600060208284031215612e34578081fd5b81356127c381613743565b600060208284031215612e50578081fd5b81516127c381613743565b600060208284031215612e6c578081fd5b81516127c38161372e565b600060208284031215612e88578081fd5b81356001600160401b03811115612e9d578182fd5b8201601f81018413612ead578182fd5b6114b484823560208401612863565b600080600060608486031215612ed0578081fd5b833592506020840135915060408401356001600160401b03811115612ef3578182fd5b612b1e86828701612934565b6000815180845260208085019450808401835b83811015612f2e57815187529582019590820190600101612f12565b509495945050505050565b60008151808452612f51816020860160208601613573565b601f01601f19169290920160200192915050565b60008151612f77818560208601613573565b9290920192915050565b600080845482600182811c915080831680612f9d57607f831692505b6020808410821415612fbd57634e487b7160e01b87526022600452602487fd5b818015612fd15760018114612fe25761300e565b60ff1986168952848901965061300e565b60008b815260209020885b868110156130065781548b820152908501908301612fed565b505084890196505b50505050505061301e8185612f65565b95945050505050565b7f416363657373436f6e74726f6c3a206163636f756e742000000000000000000081526000835161305f816017850160208801613573565b7001034b99036b4b9b9b4b733903937b6329607d1b6017918401918201528351613090816028840160208801613573565b01602801949350505050565b6001600160a01b0386811682528516602082015260a0604082018190526000906130c890830186612eff565b82810360608401526130da8186612eff565b905082810360808401526130ee8185612f39565b98975050505050505050565b6001600160a01b03868116825285166020820152604081018490526060810183905260a06080820181905260009061313490830184612f39565b979650505050505050565b6020815260006127c36020830184612eff565b6040815260006131656040830185612eff565b828103602084015261301e8185612eff565b6020815260006127c36020830184612f39565b60208082526028908201527f455243313135353a204552433131353552656365697665722072656a656374656040820152676420746f6b656e7360c01b606082015260800190565b60208082526026908201527f455243313135355472616461626c653a206d7573742068617665206d696e74656040820152657220726f6c6560d01b606082015260800190565b60208082526024908201527f455243313135353a206275726e20616d6f756e7420657863656564732062616c604082015263616e636560e01b606082015260800190565b60208082526029908201527f455243313135353a2063616c6c6572206973206e6f74206f776e6572206e6f7260408201526808185c1c1c9bdd995960ba1b606082015260800190565b60208082526025908201527f455243313135353a207472616e7366657220746f20746865207a65726f206164604082015264647265737360d81b606082015260800190565b6020808252602e908201527f455243313135355472616461626c653a206d75737420686176652061646d696e60408201526d206f72206f776e657220726f6c6560901b606082015260800190565b60208082526023908201527f455243313135353a206275726e2066726f6d20746865207a65726f206164647260408201526265737360e81b606082015260800190565b6020808252602a908201527f455243313135353a20696e73756666696369656e742062616c616e636520666f60408201526939103a3930b739b332b960b11b606082015260800190565b60208082526023908201527f455243313135355472616461626c653a204d617820737570706c7920726561636040820152621a195960ea1b606082015260800190565b60208082526028908201527f455243313135353a2069647320616e6420616d6f756e7473206c656e677468206040820152670dad2e6dac2e8c6d60c31b606082015260800190565b60208082526021908201527f455243313135353a206d696e7420746f20746865207a65726f206164647265736040820152607360f81b606082015260800190565b6020808252603e908201527f455243313135355472616461626c653a20496e697469616c20737570706c792060408201527f63616e6e6f74206265206d6f7265207468616e206d617820737570706c790000606082015260800190565b60006001600160401b0382111561350757613507613678565b5060051b60200190565b600082198211156135245761352461364c565b500190565b60008261353857613538613662565b500490565b60008160001904831182151516156135575761355761364c565b500290565b60008282101561356e5761356e61364c565b500390565b60005b8381101561358e578181015183820152602001613576565b83811115610d1f5750506000910152565b6000816135ae576135ae61364c565b506000190190565b600181811c908216806135ca57607f821691505b602082108114156135eb57634e487b7160e01b600052602260045260246000fd5b50919050565b601f8201601f191681016001600160401b038111828210171561361657613616613678565b6040525050565b60006000198214156136315761363161364c565b5060010190565b60008261364757613647613662565b500690565b634e487b7160e01b600052601160045260246000fd5b634e487b7160e01b600052601260045260246000fd5b634e487b7160e01b600052604160045260246000fd5b600060033d11156116e957600481823e5160e01c90565b600060443d10156136b35790565b6040516003193d81016004833e81513d6001600160401b0381602484011181841117156136e257505050505090565b82850191508151818111156136fa5750505050505090565b843d87010160208285010111156137145750505050505090565b613723602082860101876135f1565b509095945050505050565b6001600160a01b03811681146111f857600080fd5b6001600160e01b0319811681146111f857600080fdfea26469706673582212204e7641c837aac02ff6f82f39faf9d9c2913a9addefca3f978e3c7dcc18016f0a64736f6c63430008040033",
  "devdoc": {
    "kind": "dev",
    "methods": {
      "DOMAIN_SEPARATOR()": {
        "details": "See {EIP712-DOMAIN_SEPARATOR}."
      },
      "balanceOf(address,uint256)": {
        "details": "See {IERC1155-balanceOf}. Requirements: - `account` cannot be the zero address."
      },
      "balanceOfBatch(address[],uint256[])": {
        "details": "See {IERC1155-balanceOfBatch}. Requirements: - `accounts` and `ids` must have the same length."
      },
      "create(uint256,uint256,bytes)": {
        "details": "Creates a new token type and assigns _initial to a sender",
        "params": {
          "_data": "Optional data to pass if receiver is contract",
          "_initial": "Optional amount to supply the first owner",
          "_max": "max supply allowed"
        },
        "returns": {
          "tokenId": "The newly created token ID"
        }
      },
      "createBatch(uint256[],uint256[],bytes)": {
        "details": "Creates some amount of tokens type and assigns initials to a sender",
        "params": {
          "_initials": "Optional amount to supply the first owner",
          "_maxs": "max supply allowed"
        }
      },
      "exists(uint256)": {
        "details": "Returns whether the specified token exists by checking to see if it has a creator",
        "params": {
          "_id": "uint256 ID of the token to query the existence of"
        },
        "returns": {
          "_0": "bool whether the token exists"
        }
      },
      "getRoleAdmin(bytes32)": {
        "details": "Returns the admin role that controls `role`. See {grantRole} and {revokeRole}. To change a role's admin, use {_setRoleAdmin}."
      },
      "grantRole(bytes32,address)": {
        "details": "Grants `role` to `account`. If `account` had not been already granted `role`, emits a {RoleGranted} event. Requirements: - the caller must have ``role``'s admin role."
      },
      "hasRole(bytes32,address)": {
        "details": "Returns `true` if `account` has been granted `role`."
      },
      "maxSupply(uint256)": {
        "details": "Returns the max quantity for a token ID",
        "params": {
          "_id": "uint256 ID of the token to query"
        },
        "returns": {
          "_0": "amount of token in existence"
        }
      },
      "mint(address,uint256,uint256,bytes)": {
        "details": "Mints some amount of tokens to an address",
        "params": {
          "_data": "Data to pass if receiver is contract",
          "_id": "Token ID to mint",
          "_quantity": "Amount of tokens to mint",
          "_to": "Address of the future owner of the token"
        }
      },
      "mintBatch(address,uint256[],uint256[],bytes)": {
        "details": "Mint tokens for each id in _ids",
        "params": {
          "_data": "Data to pass if receiver is contract",
          "_ids": "Array of ids to mint",
          "_quantities": "Array of amounts of tokens to mint per id",
          "_to": "The address to mint tokens to"
        }
      },
      "owner()": {
        "details": "Returns the address of the current owner."
      },
      "renounceOwnership()": {
        "details": "Leaves the contract without owner. It will not be possible to call `onlyOwner` functions anymore. Can only be called by the current owner. NOTE: Renouncing ownership will leave the contract without an owner, thereby removing any functionality that is only available to the owner."
      },
      "renounceRole(bytes32,address)": {
        "details": "Revokes `role` from the calling account. Roles are often managed via {grantRole} and {revokeRole}: this function's purpose is to provide a mechanism for accounts to lose their privileges if they are compromised (such as when a trusted device is misplaced). If the calling account had been granted `role`, emits a {RoleRevoked} event. Requirements: - the caller must be `account`."
      },
      "revokeRole(bytes32,address)": {
        "details": "Revokes `role` from `account`. If `account` had been granted `role`, emits a {RoleRevoked} event. Requirements: - the caller must have ``role``'s admin role."
      },
      "safeBatchTransferFrom(address,address,uint256[],uint256[],bytes)": {
        "details": "See {IERC1155-safeBatchTransferFrom}."
      },
      "safeTransferFrom(address,address,uint256,uint256,bytes)": {
        "details": "See {IERC1155-safeTransferFrom}."
      },
      "setApprovalForAll(address,bool)": {
        "details": "See {IERC1155-setApprovalForAll}."
      },
      "setBaseMetadataURI(string)": {
        "details": "Will update the base URL of token's URI",
        "params": {
          "_newBaseMetadataURI": "New base URL of token's URI"
        }
      },
      "setProxyRegistryAddress(address)": {
        "details": "Will update the proxyRegistryAddress",
        "params": {
          "_newProxyRegistryAddress": "New proxyRegistryAddress"
        }
      },
      "supportsInterface(bytes4)": {
        "details": "See {IERC165-supportsInterface}."
      },
      "totalSupply(uint256)": {
        "details": "Returns the total quantity for a token ID",
        "params": {
          "_id": "uint256 ID of the token to query"
        },
        "returns": {
          "_0": "amount of token in existence"
        }
      },
      "transferOwnership(address)": {
        "details": "Transfers ownership of the contract to a new account (`newOwner`). Can only be called by the current owner."
      }
    },
    "version": 1
  },
  "userdoc": {
    "kind": "user",
    "methods": {
      "isApprovedForAll(address,address)": {
        "notice": "Override isApprovedForAll to whitelist user's OpenSea proxy accounts to enable gas-free listings."
      }
    },
    "version": 1
  },
  "storageLayout": {
    "storage": [
      {
        "astId": 24,
        "contract": "contracts/ERC1155/CryptoKombatConsumables.sol:CryptoKombatConsumables",
        "label": "_roles",
        "offset": 0,
        "slot": "0",
        "type": "t_mapping(t_bytes32,t_struct(RoleData)19_storage)"
      },
      {
        "astId": 387,
        "contract": "contracts/ERC1155/CryptoKombatConsumables.sol:CryptoKombatConsumables",
        "label": "_owner",
        "offset": 0,
        "slot": "1",
        "type": "t_address"
      },
      {
        "astId": 549,
        "contract": "contracts/ERC1155/CryptoKombatConsumables.sol:CryptoKombatConsumables",
        "label": "_balances",
        "offset": 0,
        "slot": "2",
        "type": "t_mapping(t_uint256,t_mapping(t_address,t_uint256))"
      },
      {
        "astId": 555,
        "contract": "contracts/ERC1155/CryptoKombatConsumables.sol:CryptoKombatConsumables",
        "label": "_operatorApprovals",
        "offset": 0,
        "slot": "3",
        "type": "t_mapping(t_address,t_mapping(t_address,t_bool))"
      },
      {
        "astId": 557,
        "contract": "contracts/ERC1155/CryptoKombatConsumables.sol:CryptoKombatConsumables",
        "label": "_uri",
        "offset": 0,
        "slot": "4",
        "type": "t_string_storage"
      },
      {
        "astId": 4618,
        "contract": "contracts/ERC1155/CryptoKombatConsumables.sol:CryptoKombatConsumables",
        "label": "baseMetadataURI",
        "offset": 0,
        "slot": "5",
        "type": "t_string_storage"
      },
      {
        "astId": 4620,
        "contract": "contracts/ERC1155/CryptoKombatConsumables.sol:CryptoKombatConsumables",
        "label": "proxyRegistryAddress",
        "offset": 0,
        "slot": "6",
        "type": "t_address"
      },
      {
        "astId": 4623,
        "contract": "contracts/ERC1155/CryptoKombatConsumables.sol:CryptoKombatConsumables",
        "label": "_currentTokenID",
        "offset": 0,
        "slot": "7",
        "type": "t_uint256"
      },
      {
        "astId": 4627,
        "contract": "contracts/ERC1155/CryptoKombatConsumables.sol:CryptoKombatConsumables",
        "label": "creators",
        "offset": 0,
        "slot": "8",
        "type": "t_mapping(t_uint256,t_address)"
      },
      {
        "astId": 4631,
        "contract": "contracts/ERC1155/CryptoKombatConsumables.sol:CryptoKombatConsumables",
        "label": "tokenSupply",
        "offset": 0,
        "slot": "9",
        "type": "t_mapping(t_uint256,t_uint256)"
      },
      {
        "astId": 4635,
        "contract": "contracts/ERC1155/CryptoKombatConsumables.sol:CryptoKombatConsumables",
        "label": "tokenMaxSupply",
        "offset": 0,
        "slot": "10",
        "type": "t_mapping(t_uint256,t_uint256)"
      },
      {
        "astId": 4637,
        "contract": "contracts/ERC1155/CryptoKombatConsumables.sol:CryptoKombatConsumables",
        "label": "name",
        "offset": 0,
        "slot": "11",
        "type": "t_string_storage"
      },
      {
        "astId": 4639,
        "contract": "contracts/ERC1155/CryptoKombatConsumables.sol:CryptoKombatConsumables",
        "label": "symbol",
        "offset": 0,
        "slot": "12",
        "type": "t_string_storage"
      }
    ],
    "types": {
      "t_address": {
        "encoding": "inplace",
        "label": "address",
        "numberOfBytes": "20"
      },
      "t_bool": {
        "encoding": "inplace",
        "label": "bool",
        "numberOfBytes": "1"
      },
      "t_bytes32": {
        "encoding": "inplace",
        "label": "bytes32",
        "numberOfBytes": "32"
      },
      "t_mapping(t_address,t_bool)": {
        "encoding": "mapping",
        "key": "t_address",
        "label": "mapping(address => bool)",
        "numberOfBytes": "32",
        "value": "t_bool"
      },
      "t_mapping(t_address,t_mapping(t_address,t_bool))": {
        "encoding": "mapping",
        "key": "t_address",
        "label": "mapping(address => mapping(address => bool))",
        "numberOfBytes": "32",
        "value": "t_mapping(t_address,t_bool)"
      },
      "t_mapping(t_address,t_uint256)": {
        "encoding": "mapping",
        "key": "t_address",
        "label": "mapping(address => uint256)",
        "numberOfBytes": "32",
        "value": "t_uint256"
      },
      "t_mapping(t_bytes32,t_struct(RoleData)19_storage)": {
        "encoding": "mapping",
        "key": "t_bytes32",
        "label": "mapping(bytes32 => struct AccessControl.RoleData)",
        "numberOfBytes": "32",
        "value": "t_struct(RoleData)19_storage"
      },
      "t_mapping(t_uint256,t_address)": {
        "encoding": "mapping",
        "key": "t_uint256",
        "label": "mapping(uint256 => address)",
        "numberOfBytes": "32",
        "value": "t_address"
      },
      "t_mapping(t_uint256,t_mapping(t_address,t_uint256))": {
        "encoding": "mapping",
        "key": "t_uint256",
        "label": "mapping(uint256 => mapping(address => uint256))",
        "numberOfBytes": "32",
        "value": "t_mapping(t_address,t_uint256)"
      },
      "t_mapping(t_uint256,t_uint256)": {
        "encoding": "mapping",
        "key": "t_uint256",
        "label": "mapping(uint256 => uint256)",
        "numberOfBytes": "32",
        "value": "t_uint256"
      },
      "t_string_storage": {
        "encoding": "bytes",
        "label": "string",
        "numberOfBytes": "32"
      },
      "t_struct(RoleData)19_storage": {
        "encoding": "inplace",
        "label": "struct AccessControl.RoleData",
        "members": [
          {
            "astId": 16,
            "contract": "contracts/ERC1155/CryptoKombatConsumables.sol:CryptoKombatConsumables",
            "label": "members",
            "offset": 0,
            "slot": "0",
            "type": "t_mapping(t_address,t_bool)"
          },
          {
            "astId": 18,
            "contract": "contracts/ERC1155/CryptoKombatConsumables.sol:CryptoKombatConsumables",
            "label": "adminRole",
            "offset": 0,
            "slot": "1",
            "type": "t_bytes32"
          }
        ],
        "numberOfBytes": "64"
      },
      "t_uint256": {
        "encoding": "inplace",
        "label": "uint256",
        "numberOfBytes": "32"
      }
    }
  }
}