{
  "address": "0x07Edc6A1212C4695Cb178F6557646C76a9BFf89C",
  "abi": [
    {
      "inputs": [
        {
          "internalType": "contract IVombat",
          "name": "_vombat",
          "type": "address"
        },
        {
          "internalType": "address",
          "name": "_treasure",
          "type": "address"
        },
        {
          "internalType": "address[]",
          "name": "_collections",
          "type": "address[]"
        }
      ],
      "stateMutability": "nonpayable",
      "type": "constructor"
    },
    {
      "anonymous": false,
      "inputs": [
        {
          "indexed": true,
          "internalType": "address",
          "name": "user",
          "type": "address"
        },
        {
          "indexed": true,
          "internalType": "address",
          "name": "collection",
          "type": "address"
        },
        {
          "indexed": false,
          "internalType": "uint256[]",
          "name": "ids",
          "type": "uint256[]"
        },
        {
          "indexed": false,
          "internalType": "uint256[]",
          "name": "amounts",
          "type": "uint256[]"
        },
        {
          "indexed": false,
          "internalType": "uint256",
          "name": "price",
          "type": "uint256"
        }
      ],
      "name": "BatchPurchased",
      "type": "event"
    },
    {
      "anonymous": false,
      "inputs": [
        {
          "indexed": true,
          "internalType": "address",
          "name": "user",
          "type": "address"
        },
        {
          "indexed": true,
          "internalType": "address",
          "name": "collection",
          "type": "address"
        },
        {
          "indexed": false,
          "internalType": "uint256",
          "name": "id",
          "type": "uint256"
        },
        {
          "indexed": false,
          "internalType": "uint256",
          "name": "amount",
          "type": "uint256"
        },
        {
          "indexed": false,
          "internalType": "uint256",
          "name": "price",
          "type": "uint256"
        }
      ],
      "name": "Purchased",
      "type": "event"
    },
    {
      "anonymous": false,
      "inputs": [
        {
          "indexed": true,
          "internalType": "bytes32",
          "name": "role",
          "type": "bytes32"
        },
        {
          "indexed": true,
          "internalType": "bytes32",
          "name": "previousAdminRole",
          "type": "bytes32"
        },
        {
          "indexed": true,
          "internalType": "bytes32",
          "name": "newAdminRole",
          "type": "bytes32"
        }
      ],
      "name": "RoleAdminChanged",
      "type": "event"
    },
    {
      "anonymous": false,
      "inputs": [
        {
          "indexed": true,
          "internalType": "bytes32",
          "name": "role",
          "type": "bytes32"
        },
        {
          "indexed": true,
          "internalType": "address",
          "name": "account",
          "type": "address"
        },
        {
          "indexed": true,
          "internalType": "address",
          "name": "sender",
          "type": "address"
        }
      ],
      "name": "RoleGranted",
      "type": "event"
    },
    {
      "anonymous": false,
      "inputs": [
        {
          "indexed": true,
          "internalType": "bytes32",
          "name": "role",
          "type": "bytes32"
        },
        {
          "indexed": true,
          "internalType": "address",
          "name": "account",
          "type": "address"
        },
        {
          "indexed": true,
          "internalType": "address",
          "name": "sender",
          "type": "address"
        }
      ],
      "name": "RoleRevoked",
      "type": "event"
    },
    {
      "anonymous": false,
      "inputs": [
        {
          "indexed": false,
          "internalType": "address",
          "name": "collection",
          "type": "address"
        },
        {
          "indexed": false,
          "internalType": "uint256[]",
          "name": "heroes",
          "type": "uint256[]"
        },
        {
          "indexed": false,
          "internalType": "uint256[]",
          "name": "prices",
          "type": "uint256[]"
        }
      ],
      "name": "TokenPricesSet",
      "type": "event"
    },
    {
      "inputs": [],
      "name": "DEFAULT_ADMIN_ROLE",
      "outputs": [
        {
          "internalType": "bytes32",
          "name": "",
          "type": "bytes32"
        }
      ],
      "stateMutability": "view",
      "type": "function"
    },
    {
      "inputs": [],
      "name": "DOMAIN_SEPARATOR",
      "outputs": [
        {
          "internalType": "bytes32",
          "name": "",
          "type": "bytes32"
        }
      ],
      "stateMutability": "view",
      "type": "function"
    },
    {
      "inputs": [
        {
          "internalType": "uint256",
          "name": "",
          "type": "uint256"
        }
      ],
      "name": "allowedCollections",
      "outputs": [
        {
          "internalType": "address",
          "name": "",
          "type": "address"
        }
      ],
      "stateMutability": "view",
      "type": "function"
    },
    {
      "inputs": [
        {
          "internalType": "address",
          "name": "_collection",
          "type": "address"
        },
        {
          "internalType": "uint256[]",
          "name": "_ids",
          "type": "uint256[]"
        },
        {
          "internalType": "uint256[]",
          "name": "_amounts",
          "type": "uint256[]"
        }
      ],
      "name": "batchPurchase",
      "outputs": [],
      "stateMutability": "nonpayable",
      "type": "function"
    },
    {
      "inputs": [
        {
          "internalType": "address",
          "name": "",
          "type": "address"
        },
        {
          "internalType": "uint256",
          "name": "",
          "type": "uint256"
        }
      ],
      "name": "collectionPrices",
      "outputs": [
        {
          "internalType": "uint256",
          "name": "",
          "type": "uint256"
        }
      ],
      "stateMutability": "view",
      "type": "function"
    },
    {
      "inputs": [
        {
          "internalType": "bytes32",
          "name": "role",
          "type": "bytes32"
        }
      ],
      "name": "getRoleAdmin",
      "outputs": [
        {
          "internalType": "bytes32",
          "name": "",
          "type": "bytes32"
        }
      ],
      "stateMutability": "view",
      "type": "function"
    },
    {
      "inputs": [
        {
          "internalType": "bytes32",
          "name": "role",
          "type": "bytes32"
        },
        {
          "internalType": "address",
          "name": "account",
          "type": "address"
        }
      ],
      "name": "grantRole",
      "outputs": [],
      "stateMutability": "nonpayable",
      "type": "function"
    },
    {
      "inputs": [
        {
          "internalType": "bytes32",
          "name": "role",
          "type": "bytes32"
        },
        {
          "internalType": "address",
          "name": "account",
          "type": "address"
        }
      ],
      "name": "hasRole",
      "outputs": [
        {
          "internalType": "bool",
          "name": "",
          "type": "bool"
        }
      ],
      "stateMutability": "view",
      "type": "function"
    },
    {
      "inputs": [
        {
          "internalType": "address",
          "name": "_collection",
          "type": "address"
        }
      ],
      "name": "isCollectionAllowed",
      "outputs": [
        {
          "internalType": "bool",
          "name": "",
          "type": "bool"
        }
      ],
      "stateMutability": "view",
      "type": "function"
    },
    {
      "inputs": [
        {
          "internalType": "address",
          "name": "_collection",
          "type": "address"
        },
        {
          "internalType": "uint256",
          "name": "_id",
          "type": "uint256"
        },
        {
          "internalType": "uint256",
          "name": "_amount",
          "type": "uint256"
        }
      ],
      "name": "purchase",
      "outputs": [],
      "stateMutability": "nonpayable",
      "type": "function"
    },
    {
      "inputs": [
        {
          "internalType": "bytes32",
          "name": "role",
          "type": "bytes32"
        },
        {
          "internalType": "address",
          "name": "account",
          "type": "address"
        }
      ],
      "name": "renounceRole",
      "outputs": [],
      "stateMutability": "nonpayable",
      "type": "function"
    },
    {
      "inputs": [
        {
          "internalType": "bytes32",
          "name": "role",
          "type": "bytes32"
        },
        {
          "internalType": "address",
          "name": "account",
          "type": "address"
        }
      ],
      "name": "revokeRole",
      "outputs": [],
      "stateMutability": "nonpayable",
      "type": "function"
    },
    {
      "inputs": [
        {
          "internalType": "address[]",
          "name": "_list",
          "type": "address[]"
        }
      ],
      "name": "setAllowedCollections",
      "outputs": [],
      "stateMutability": "nonpayable",
      "type": "function"
    },
    {
      "inputs": [
        {
          "internalType": "address",
          "name": "_collection",
          "type": "address"
        },
        {
          "internalType": "uint256[]",
          "name": "_tokens",
          "type": "uint256[]"
        },
        {
          "internalType": "uint256[]",
          "name": "_prices",
          "type": "uint256[]"
        }
      ],
      "name": "setTokenPrices",
      "outputs": [],
      "stateMutability": "nonpayable",
      "type": "function"
    },
    {
      "inputs": [
        {
          "internalType": "address",
          "name": "_treasure",
          "type": "address"
        }
      ],
      "name": "setTreasure",
      "outputs": [],
      "stateMutability": "nonpayable",
      "type": "function"
    },
    {
      "inputs": [
        {
          "internalType": "bytes4",
          "name": "interfaceId",
          "type": "bytes4"
        }
      ],
      "name": "supportsInterface",
      "outputs": [
        {
          "internalType": "bool",
          "name": "",
          "type": "bool"
        }
      ],
      "stateMutability": "view",
      "type": "function"
    },
    {
      "inputs": [],
      "name": "treasure",
      "outputs": [
        {
          "internalType": "address",
          "name": "",
          "type": "address"
        }
      ],
      "stateMutability": "view",
      "type": "function"
    },
    {
      "inputs": [],
      "name": "vombat",
      "outputs": [
        {
          "internalType": "contract IVombat",
          "name": "",
          "type": "address"
        }
      ],
      "stateMutability": "view",
      "type": "function"
    }
  ],
  "transactionHash": "0xd4e9f4c062abcd37ddff290a5739661de5b5747656f96008050495aec31f8537",
  "args": [
    "0x15f2b9FAAC1C3A5A8FFd3DCA832AE91516a3e778",
    "0x97e4f195f4D29354Eb1406221D290F54418F4267",
    [
      "0x828B24AeF75f5E125a71614d610660Dc77921F05",
      "0x3a0b1bFb1F1D247d3bB7A488D2F12321081A7940",
      "0xF7C866Efa3A9602D38a4B634CeED2FA3be8A52B4"
    ]
  ],
  "solcInputHash": "6011af42bb308f9809b0613e5f22c0d3",
  "bytecode": "0x6101206040523480156200001257600080fd5b5060405162001ebd38038062001ebd8339810160408190526200003591620002b7565b604080518082018252600d81526c12dbdb58985d0813585c9ad95d609a1b6020808301918252835180850185526001808252603160f81b9183019190915280559151902060c08181527fc89efdaa54c0f20c7adf612882df0950f5a951637e0307cdcb4c672f298b8bc660e08190524660a081815286517f8b73c3c69bb8fe3d512ecc4cf759cc79239f7b179b0ffacaa9a75d522b39400f8188018190528189019690965260608101939093526080808401929092523083820152865180840390910181529190920190945283519390920192909220905261010052600280546001600160a01b038581166001600160a01b03199283161790925560038054928516929091169190911790556200014c8162000162565b620001596000336200017b565b505050620003e8565b80516200017790600490602084019062000224565b5050565b6000828152602081815260408083206001600160a01b038516845290915290205462000177908390839060ff1662000177576000828152602081815260408083206001600160a01b03851684529091529020805460ff19166001179055620001e03390565b6001600160a01b0316816001600160a01b0316837f2f8788117e7eff1d82e926ec794901d17c78024a50270940304540a733656f0d60405160405180910390a45050565b8280548282559060005260206000209081019282156200027c579160200282015b828111156200027c57825182546001600160a01b0319166001600160a01b0390911617825560209092019160019091019062000245565b506200028a9291506200028e565b5090565b5b808211156200028a57600081556001016200028f565b8051620002b281620003cf565b919050565b600080600060608486031215620002cc578283fd5b8351620002d981620003cf565b80935050602080850151620002ee81620003cf565b60408601519093506001600160401b03808211156200030b578384fd5b818701915087601f8301126200031f578384fd5b815181811115620003345762000334620003b9565b8060051b604051601f19603f830116810181811085821117156200035c576200035c620003b9565b604052828152858101935084860182860187018c10156200037b578788fd5b8795505b83861015620003a8576200039381620002a5565b8552600195909501949386019386016200037f565b508096505050505050509250925092565b634e487b7160e01b600052604160045260246000fd5b6001600160a01b0381168114620003e557600080fd5b50565b60805160a05160c05160e05161010051611a906200042d6000396000610e6701526000610eb601526000610e9101526000610e1501526000610e3e0152611a906000f3fe608060405234801561001057600080fd5b50600436106101165760003560e01c80634ca38d4a116100a25780639d8725a8116100715780639d8725a814610254578063a217fddf1461027f578063bb8493b914610287578063d547741f1461029a578063e520fc7e146102ad57600080fd5b80634ca38d4a146101f05780635bba6dd71461021b57806391d148541461022e57806398968f151461024157600080fd5b806327713536116100e9578063277135361461019c5780632c7f5a37146101af5780632f2ff15d146101c25780633644e515146101d557806336568abe146101dd57600080fd5b806301ffc9a71461011b5780631d3cd2a6146101435780631e79b0ef14610158578063248a9ca31461016b575b600080fd5b61012e6101293660046116e4565b6102c0565b60405190151581526020015b60405180910390f35b610156610151366004611501565b6102f7565b005b61012e610166366004611501565b61038a565b61018e6101793660046116a1565b60009081526020819052604090206001015490565b60405190815260200161013a565b6101566101aa3660046115e7565b610402565b6101566101bd36600461151b565b610456565b6101566101d03660046116b9565b6105b4565b61018e6105df565b6101566101eb3660046116b9565b6105ee565b6102036101fe3660046116a1565b61066c565b6040516001600160a01b03909116815260200161013a565b61015661022936600461151b565b610696565b61012e61023c3660046116b9565b6109e6565b61015661024f3660046115b5565b610a0f565b61018e61026236600461158c565b600560209081526000928352604080842090915290825290205481565b61018e600081565b600254610203906001600160a01b031681565b6101566102a83660046116b9565b610cf0565b600354610203906001600160a01b031681565b60006001600160e01b03198216637965db0b60e01b14806102f157506301ffc9a760e01b6001600160e01b03198316145b92915050565b6103026000336109e6565b6103275760405162461bcd60e51b815260040161031e90611903565b60405180910390fd5b6001600160a01b0381166103685760405162461bcd60e51b8152602060048201526008602482015267216164647265737360c01b604482015260640161031e565b600380546001600160a01b0319166001600160a01b0392909216919091179055565b6000805b6004548110156103f957826001600160a01b0316600482815481106103c357634e487b7160e01b600052603260045260246000fd5b6000918252602090912001546001600160a01b031614156103e75750600192915050565b806103f181611a13565b91505061038e565b50600092915050565b61040d6000336109e6565b6104295760405162461bcd60e51b815260040161031e90611903565b600081511161044a5760405162461bcd60e51b815260040161031e90611923565b61045381610d16565b50565b6104616000336109e6565b61047d5760405162461bcd60e51b815260040161031e90611903565b805182511461049e5760405162461bcd60e51b815260040161031e90611923565b60005b82518110156105735760008382815181106104cc57634e487b7160e01b600052603260045260246000fd5b6020026020010151905060008383815181106104f857634e487b7160e01b600052603260045260246000fd5b602002602001015190506000811161053b5760405162461bcd60e51b815260206004820152600660248201526521707269636560d01b604482015260640161031e565b6001600160a01b038616600090815260056020908152604080832094835293905291909120558061056b81611a13565b9150506104a1565b507f6cd64c1b57dbd9e80b5c06079d63cdfbb74057b7b4f0e5534034752a95e19e448383836040516105a793929190611803565b60405180910390a1505050565b6000828152602081905260409020600101546105d08133610d29565b6105da8383610d8d565b505050565b60006105e9610e11565b905090565b6001600160a01b038116331461065e5760405162461bcd60e51b815260206004820152602f60248201527f416363657373436f6e74726f6c3a2063616e206f6e6c792072656e6f756e636560448201526e103937b632b9903337b91039b2b63360891b606482015260840161031e565b6106688282610f04565b5050565b6004818154811061067c57600080fd5b6000918252602090912001546001600160a01b0316905081565b600260015414156106e95760405162461bcd60e51b815260206004820152601f60248201527f5265656e7472616e637947756172643a207265656e7472616e742063616c6c00604482015260640161031e565b60026001556106f78361038a565b6107315760405162461bcd60e51b815260206004820152600b60248201526a10b1b7b63632b1ba34b7b760a91b604482015260640161031e565b80518251146107525760405162461bcd60e51b815260040161031e90611923565b826000805b84518110156108f557600085828151811061078257634e487b7160e01b600052603260045260246000fd5b6020026020010151905060008583815181106107ae57634e487b7160e01b600052603260045260246000fd5b6020908102919091018101516001600160a01b038a16600090815260058352604080822086835290935291909120549091506107eb9082906119b1565b6107f59085611999565b604051634f558e7960e01b8152600481018490529094506001600160a01b03861690634f558e799060240160206040518083038186803b15801561083857600080fd5b505afa15801561084c573d6000803e3d6000fd5b505050506040513d601f19601f820116820180604052508101906108709190611681565b6108a65760405162461bcd60e51b81526020600482015260076024820152662165786973747360c81b604482015260640161031e565b600081116108e05760405162461bcd60e51b815260206004820152600760248201526608585b5bdd5b9d60ca1b604482015260640161031e565b505080806108ed90611a13565b915050610757565b50610915335b6003546002546001600160a01b0390811692911684610f69565b60408051600081526020810191829052630fbfeffd60e11b9091526001600160a01b03831690631f7fdffa906109549033908890889060248101611843565b600060405180830381600087803b15801561096e57600080fd5b505af1158015610982573d6000803e3d6000fd5b50505050846001600160a01b03166109973390565b6001600160a01b03167f1777d63b673d1d88a9b47422cea0d88c4ee4b50c0363eef98d4393548b4c08098686856040516109d3939291906118ba565b60405180910390a3505060018055505050565b6000918252602082815260408084206001600160a01b0393909316845291905290205460ff1690565b60026001541415610a625760405162461bcd60e51b815260206004820152601f60248201527f5265656e7472616e637947756172643a207265656e7472616e742063616c6c00604482015260640161031e565b6002600155610a708361038a565b610aaa5760405162461bcd60e51b815260206004820152600b60248201526a10b1b7b63632b1ba34b7b760a91b604482015260640161031e565b81610ae05760405162461bcd60e51b815260206004820152600660248201526510ba37b5b2b760d11b604482015260640161031e565b6001600160a01b0383166000908152600560209081526040808320858452909152902054610b395760405162461bcd60e51b815260206004820152600660248201526521707269636560d01b604482015260640161031e565b604051634f558e7960e01b81526004810183905283906001600160a01b03821690634f558e799060240160206040518083038186803b158015610b7b57600080fd5b505afa158015610b8f573d6000803e3d6000fd5b505050506040513d601f19601f82011682018060405250810190610bb39190611681565b610be95760405162461bcd60e51b81526020600482015260076024820152662165786973747360c81b604482015260640161031e565b6001600160a01b0384166000908152600560209081526040808320868452909152812054610c189084906119b1565b9050610c23336108fb565b6040805160008152602081019182905263731133e960e01b9091526001600160a01b0383169063731133e990610c62903390889088906024810161188d565b600060405180830381600087803b158015610c7c57600080fd5b505af1158015610c90573d6000803e3d6000fd5b50505050846001600160a01b0316610ca53390565b60408051878152602081018790529081018490526001600160a01b0391909116907fb362243af1e2070d7d5bf8d713f2e0fab64203f1b71462afbe20572909788c5e906060016109d3565b600082815260208190526040902060010154610d0c8133610d29565b6105da8383610f04565b80516106689060049060208401906113fc565b610d3382826109e6565b61066857610d4b816001600160a01b03166014610fc9565b610d56836020610fc9565b604051602001610d6792919061178e565b60408051601f198184030181529082905262461bcd60e51b825261031e916004016118f0565b610d9782826109e6565b610668576000828152602081815260408083206001600160a01b03851684529091529020805460ff19166001179055610dcd3390565b6001600160a01b0316816001600160a01b0316837f2f8788117e7eff1d82e926ec794901d17c78024a50270940304540a733656f0d60405160405180910390a45050565b60007f0000000000000000000000000000000000000000000000000000000000000000461415610e6057507f000000000000000000000000000000000000000000000000000000000000000090565b50604080517f00000000000000000000000000000000000000000000000000000000000000006020808301919091527f0000000000000000000000000000000000000000000000000000000000000000828401527f000000000000000000000000000000000000000000000000000000000000000060608301524660808301523060a0808401919091528351808403909101815260c0909201909252805191012090565b610f0e82826109e6565b15610668576000828152602081815260408083206001600160a01b0385168085529252808320805460ff1916905551339285917ff6391f5c32d9c69d2a47ea670b442974b53935d1edc7fd64eb21e047a839171b9190a45050565b604080516001600160a01b0385811660248301528416604482015260648082018490528251808303909101815260849091019091526020810180516001600160e01b03166323b872dd60e01b179052610fc39085906111b2565b50505050565b60606000610fd88360026119b1565b610fe3906002611999565b67ffffffffffffffff81111561100957634e487b7160e01b600052604160045260246000fd5b6040519080825280601f01601f191660200182016040528015611033576020820181803683370190505b509050600360fc1b8160008151811061105c57634e487b7160e01b600052603260045260246000fd5b60200101906001600160f81b031916908160001a905350600f60fb1b8160018151811061109957634e487b7160e01b600052603260045260246000fd5b60200101906001600160f81b031916908160001a90535060006110bd8460026119b1565b6110c8906001611999565b90505b600181111561115c576f181899199a1a9b1b9c1cb0b131b232b360811b85600f166010811061110a57634e487b7160e01b600052603260045260246000fd5b1a60f81b82828151811061112e57634e487b7160e01b600052603260045260246000fd5b60200101906001600160f81b031916908160001a90535060049490941c93611155816119fc565b90506110cb565b5083156111ab5760405162461bcd60e51b815260206004820181905260248201527f537472696e67733a20686578206c656e67746820696e73756666696369656e74604482015260640161031e565b9392505050565b6000611207826040518060400160405280602081526020017f5361666545524332303a206c6f772d6c6576656c2063616c6c206661696c6564815250856001600160a01b03166112849092919063ffffffff16565b8051909150156105da57808060200190518101906112259190611681565b6105da5760405162461bcd60e51b815260206004820152602a60248201527f5361666545524332303a204552433230206f7065726174696f6e20646964206e6044820152691bdd081cdd58d8d9595960b21b606482015260840161031e565b6060611293848460008561129b565b949350505050565b6060824710156112fc5760405162461bcd60e51b815260206004820152602660248201527f416464726573733a20696e73756666696369656e742062616c616e636520666f6044820152651c8818d85b1b60d21b606482015260840161031e565b843b61134a5760405162461bcd60e51b815260206004820152601d60248201527f416464726573733a2063616c6c20746f206e6f6e2d636f6e7472616374000000604482015260640161031e565b600080866001600160a01b031685876040516113669190611772565b60006040518083038185875af1925050503d80600081146113a3576040519150601f19603f3d011682016040523d82523d6000602084013e6113a8565b606091505b50915091506113b88282866113c3565b979650505050505050565b606083156113d25750816111ab565b8251156113e25782518084602001fd5b8160405162461bcd60e51b815260040161031e91906118f0565b828054828255906000526020600020908101928215611451579160200282015b8281111561145157825182546001600160a01b0319166001600160a01b0390911617825560209092019160019091019061141c565b5061145d929150611461565b5090565b5b8082111561145d5760008155600101611462565b80356001600160a01b038116811461148d57600080fd5b919050565b600082601f8301126114a2578081fd5b813560206114b76114b283611975565b611944565b80838252828201915082860187848660051b89010111156114d6578586fd5b855b858110156114f4578135845292840192908401906001016114d8565b5090979650505050505050565b600060208284031215611512578081fd5b6111ab82611476565b60008060006060848603121561152f578182fd5b61153884611476565b9250602084013567ffffffffffffffff80821115611554578384fd5b61156087838801611492565b93506040860135915080821115611575578283fd5b5061158286828701611492565b9150509250925092565b6000806040838503121561159e578182fd5b6115a783611476565b946020939093013593505050565b6000806000606084860312156115c9578283fd5b6115d284611476565b95602085013595506040909401359392505050565b600060208083850312156115f9578182fd5b823567ffffffffffffffff81111561160f578283fd5b8301601f8101851361161f578283fd5b803561162d6114b282611975565b80828252848201915084840188868560051b870101111561164c578687fd5b8694505b838510156116755761166181611476565b835260019490940193918501918501611650565b50979650505050505050565b600060208284031215611692578081fd5b815180151581146111ab578182fd5b6000602082840312156116b2578081fd5b5035919050565b600080604083850312156116cb578182fd5b823591506116db60208401611476565b90509250929050565b6000602082840312156116f5578081fd5b81356001600160e01b0319811681146111ab578182fd5b6000815180845260208085019450808401835b8381101561173b5781518752958201959082019060010161171f565b509495945050505050565b6000815180845261175e8160208601602086016119d0565b601f01601f19169290920160200192915050565b600082516117848184602087016119d0565b9190910192915050565b7f416363657373436f6e74726f6c3a206163636f756e74200000000000000000008152600083516117c68160178501602088016119d0565b7001034b99036b4b9b9b4b733903937b6329607d1b60179184019182015283516117f78160288401602088016119d0565b01602801949350505050565b6001600160a01b03841681526060602082018190526000906118279083018561170c565b8281036040840152611839818561170c565b9695505050505050565b6001600160a01b03851681526080602082018190526000906118679083018661170c565b8281036040840152611879818661170c565b905082810360608401526113b88185611746565b60018060a01b03851681528360208201528260408201526080606082015260006118396080830184611746565b6060815260006118cd606083018661170c565b82810360208401526118df818661170c565b915050826040830152949350505050565b6020815260006111ab6020830184611746565b60208082526006908201526510b0b236b4b760d11b604082015260600190565b602080825260079082015266042d8cadccee8d60cb1b604082015260600190565b604051601f8201601f1916810167ffffffffffffffff8111828210171561196d5761196d611a44565b604052919050565b600067ffffffffffffffff82111561198f5761198f611a44565b5060051b60200190565b600082198211156119ac576119ac611a2e565b500190565b60008160001904831182151516156119cb576119cb611a2e565b500290565b60005b838110156119eb5781810151838201526020016119d3565b83811115610fc35750506000910152565b600081611a0b57611a0b611a2e565b506000190190565b6000600019821415611a2757611a27611a2e565b5060010190565b634e487b7160e01b600052601160045260246000fd5b634e487b7160e01b600052604160045260246000fdfea2646970667358221220aa070800f8112b3951cc93257dfea9eb2f8a956a80c63eb91416d8379ad043b064736f6c63430008040033",
  "devdoc": {
    "kind": "dev",
    "methods": {
      "DOMAIN_SEPARATOR()": {
        "details": "See {EIP712-DOMAIN_SEPARATOR}."
      },
      "getRoleAdmin(bytes32)": {
        "details": "Returns the admin role that controls `role`. See {grantRole} and {revokeRole}. To change a role's admin, use {_setRoleAdmin}."
      },
      "grantRole(bytes32,address)": {
        "details": "Grants `role` to `account`. If `account` had not been already granted `role`, emits a {RoleGranted} event. Requirements: - the caller must have ``role``'s admin role."
      },
      "hasRole(bytes32,address)": {
        "details": "Returns `true` if `account` has been granted `role`."
      },
      "isCollectionAllowed(address)": {
        "details": "Check that nft collection is in the allowed list",
        "params": {
          "_collection": "Address of collection"
        },
        "returns": {
          "_0": "bool"
        }
      },
      "renounceRole(bytes32,address)": {
        "details": "Revokes `role` from the calling account. Roles are often managed via {grantRole} and {revokeRole}: this function's purpose is to provide a mechanism for accounts to lose their privileges if they are compromised (such as when a trusted device is misplaced). If the calling account had been granted `role`, emits a {RoleRevoked} event. Requirements: - the caller must be `account`."
      },
      "revokeRole(bytes32,address)": {
        "details": "Revokes `role` from `account`. If `account` had been granted `role`, emits a {RoleRevoked} event. Requirements: - the caller must have ``role``'s admin role."
      },
      "supportsInterface(bytes4)": {
        "details": "See {IERC165-supportsInterface}."
      }
    },
    "version": 1
  },
  "userdoc": {
    "kind": "user",
    "methods": {},
    "version": 1
  },
  "storageLayout": {
    "storage": [
      {
        "astId": 24,
        "contract": "contracts/market/KombatMarket.sol:KombatMarket",
        "label": "_roles",
        "offset": 0,
        "slot": "0",
        "type": "t_mapping(t_bytes32,t_struct(RoleData)19_storage)"
      },
      {
        "astId": 494,
        "contract": "contracts/market/KombatMarket.sol:KombatMarket",
        "label": "_status",
        "offset": 0,
        "slot": "1",
        "type": "t_uint256"
      },
      {
        "astId": 6145,
        "contract": "contracts/market/KombatMarket.sol:KombatMarket",
        "label": "vombat",
        "offset": 0,
        "slot": "2",
        "type": "t_contract(IVombat)6124"
      },
      {
        "astId": 6147,
        "contract": "contracts/market/KombatMarket.sol:KombatMarket",
        "label": "treasure",
        "offset": 0,
        "slot": "3",
        "type": "t_address"
      },
      {
        "astId": 6150,
        "contract": "contracts/market/KombatMarket.sol:KombatMarket",
        "label": "allowedCollections",
        "offset": 0,
        "slot": "4",
        "type": "t_array(t_address)dyn_storage"
      },
      {
        "astId": 6156,
        "contract": "contracts/market/KombatMarket.sol:KombatMarket",
        "label": "collectionPrices",
        "offset": 0,
        "slot": "5",
        "type": "t_mapping(t_address,t_mapping(t_uint256,t_uint256))"
      }
    ],
    "types": {
      "t_address": {
        "encoding": "inplace",
        "label": "address",
        "numberOfBytes": "20"
      },
      "t_array(t_address)dyn_storage": {
        "base": "t_address",
        "encoding": "dynamic_array",
        "label": "address[]",
        "numberOfBytes": "32"
      },
      "t_bool": {
        "encoding": "inplace",
        "label": "bool",
        "numberOfBytes": "1"
      },
      "t_bytes32": {
        "encoding": "inplace",
        "label": "bytes32",
        "numberOfBytes": "32"
      },
      "t_contract(IVombat)6124": {
        "encoding": "inplace",
        "label": "contract IVombat",
        "numberOfBytes": "20"
      },
      "t_mapping(t_address,t_bool)": {
        "encoding": "mapping",
        "key": "t_address",
        "label": "mapping(address => bool)",
        "numberOfBytes": "32",
        "value": "t_bool"
      },
      "t_mapping(t_address,t_mapping(t_uint256,t_uint256))": {
        "encoding": "mapping",
        "key": "t_address",
        "label": "mapping(address => mapping(uint256 => uint256))",
        "numberOfBytes": "32",
        "value": "t_mapping(t_uint256,t_uint256)"
      },
      "t_mapping(t_bytes32,t_struct(RoleData)19_storage)": {
        "encoding": "mapping",
        "key": "t_bytes32",
        "label": "mapping(bytes32 => struct AccessControl.RoleData)",
        "numberOfBytes": "32",
        "value": "t_struct(RoleData)19_storage"
      },
      "t_mapping(t_uint256,t_uint256)": {
        "encoding": "mapping",
        "key": "t_uint256",
        "label": "mapping(uint256 => uint256)",
        "numberOfBytes": "32",
        "value": "t_uint256"
      },
      "t_struct(RoleData)19_storage": {
        "encoding": "inplace",
        "label": "struct AccessControl.RoleData",
        "members": [
          {
            "astId": 16,
            "contract": "contracts/market/KombatMarket.sol:KombatMarket",
            "label": "members",
            "offset": 0,
            "slot": "0",
            "type": "t_mapping(t_address,t_bool)"
          },
          {
            "astId": 18,
            "contract": "contracts/market/KombatMarket.sol:KombatMarket",
            "label": "adminRole",
            "offset": 0,
            "slot": "1",
            "type": "t_bytes32"
          }
        ],
        "numberOfBytes": "64"
      },
      "t_uint256": {
        "encoding": "inplace",
        "label": "uint256",
        "numberOfBytes": "32"
      }
    }
  }
}