{
  "address": "0xddE58546dFbA91a64D50e0f00377fC5Ca8e02553",
  "abi": [
    {
      "inputs": [],
      "stateMutability": "nonpayable",
      "type": "constructor"
    },
    {
      "inputs": [],
      "name": "ArrayMismatch",
      "type": "error"
    },
    {
      "inputs": [],
      "name": "CollectionNotAllowed",
      "type": "error"
    },
    {
      "inputs": [],
      "name": "TokenNotExists",
      "type": "error"
    },
    {
      "inputs": [],
      "name": "ZeroAddress",
      "type": "error"
    },
    {
      "inputs": [],
      "name": "ZeroUint",
      "type": "error"
    },
    {
      "anonymous": false,
      "inputs": [
        {
          "indexed": true,
          "internalType": "address",
          "name": "user",
          "type": "address"
        },
        {
          "indexed": true,
          "internalType": "address",
          "name": "collection",
          "type": "address"
        },
        {
          "indexed": false,
          "internalType": "uint256[]",
          "name": "ids",
          "type": "uint256[]"
        },
        {
          "indexed": false,
          "internalType": "uint256[]",
          "name": "amounts",
          "type": "uint256[]"
        },
        {
          "indexed": false,
          "internalType": "uint256",
          "name": "total",
          "type": "uint256"
        }
      ],
      "name": "BatchPurchase",
      "type": "event"
    },
    {
      "anonymous": false,
      "inputs": [
        {
          "indexed": true,
          "internalType": "address[]",
          "name": "collections",
          "type": "address[]"
        }
      ],
      "name": "CollectionSet",
      "type": "event"
    },
    {
      "anonymous": false,
      "inputs": [
        {
          "indexed": false,
          "internalType": "uint8",
          "name": "version",
          "type": "uint8"
        }
      ],
      "name": "Initialized",
      "type": "event"
    },
    {
      "anonymous": false,
      "inputs": [
        {
          "indexed": true,
          "internalType": "address",
          "name": "collection",
          "type": "address"
        },
        {
          "indexed": true,
          "internalType": "uint256[]",
          "name": "heroes",
          "type": "uint256[]"
        },
        {
          "indexed": true,
          "internalType": "uint256[]",
          "name": "prices",
          "type": "uint256[]"
        }
      ],
      "name": "PriceSet",
      "type": "event"
    },
    {
      "anonymous": false,
      "inputs": [
        {
          "indexed": true,
          "internalType": "address",
          "name": "user",
          "type": "address"
        },
        {
          "indexed": true,
          "internalType": "address",
          "name": "collection",
          "type": "address"
        },
        {
          "indexed": false,
          "internalType": "uint256",
          "name": "id",
          "type": "uint256"
        },
        {
          "indexed": false,
          "internalType": "uint256",
          "name": "amount",
          "type": "uint256"
        },
        {
          "indexed": false,
          "internalType": "uint256",
          "name": "price",
          "type": "uint256"
        },
        {
          "indexed": false,
          "internalType": "uint256",
          "name": "total",
          "type": "uint256"
        }
      ],
      "name": "Purchase",
      "type": "event"
    },
    {
      "anonymous": false,
      "inputs": [
        {
          "indexed": true,
          "internalType": "bytes32",
          "name": "role",
          "type": "bytes32"
        },
        {
          "indexed": true,
          "internalType": "bytes32",
          "name": "previousAdminRole",
          "type": "bytes32"
        },
        {
          "indexed": true,
          "internalType": "bytes32",
          "name": "newAdminRole",
          "type": "bytes32"
        }
      ],
      "name": "RoleAdminChanged",
      "type": "event"
    },
    {
      "anonymous": false,
      "inputs": [
        {
          "indexed": true,
          "internalType": "bytes32",
          "name": "role",
          "type": "bytes32"
        },
        {
          "indexed": true,
          "internalType": "address",
          "name": "account",
          "type": "address"
        },
        {
          "indexed": true,
          "internalType": "address",
          "name": "sender",
          "type": "address"
        }
      ],
      "name": "RoleGranted",
      "type": "event"
    },
    {
      "anonymous": false,
      "inputs": [
        {
          "indexed": true,
          "internalType": "bytes32",
          "name": "role",
          "type": "bytes32"
        },
        {
          "indexed": true,
          "internalType": "address",
          "name": "account",
          "type": "address"
        },
        {
          "indexed": true,
          "internalType": "address",
          "name": "sender",
          "type": "address"
        }
      ],
      "name": "RoleRevoked",
      "type": "event"
    },
    {
      "anonymous": false,
      "inputs": [
        {
          "indexed": true,
          "internalType": "address",
          "name": "token",
          "type": "address"
        }
      ],
      "name": "TokenSet",
      "type": "event"
    },
    {
      "anonymous": false,
      "inputs": [
        {
          "indexed": true,
          "internalType": "address",
          "name": "treasure",
          "type": "address"
        }
      ],
      "name": "TreasureSet",
      "type": "event"
    },
    {
      "inputs": [],
      "name": "DEFAULT_ADMIN_ROLE",
      "outputs": [
        {
          "internalType": "bytes32",
          "name": "",
          "type": "bytes32"
        }
      ],
      "stateMutability": "view",
      "type": "function"
    },
    {
      "inputs": [],
      "name": "DOMAIN_SEPARATOR",
      "outputs": [
        {
          "internalType": "bytes32",
          "name": "",
          "type": "bytes32"
        }
      ],
      "stateMutability": "view",
      "type": "function"
    },
    {
      "inputs": [
        {
          "internalType": "uint256",
          "name": "",
          "type": "uint256"
        }
      ],
      "name": "allowedCollections",
      "outputs": [
        {
          "internalType": "address",
          "name": "",
          "type": "address"
        }
      ],
      "stateMutability": "view",
      "type": "function"
    },
    {
      "inputs": [
        {
          "internalType": "address",
          "name": "_collection",
          "type": "address"
        },
        {
          "internalType": "uint256[]",
          "name": "_ids",
          "type": "uint256[]"
        },
        {
          "internalType": "uint256[]",
          "name": "_amounts",
          "type": "uint256[]"
        }
      ],
      "name": "batchPurchase",
      "outputs": [],
      "stateMutability": "nonpayable",
      "type": "function"
    },
    {
      "inputs": [
        {
          "internalType": "address",
          "name": "",
          "type": "address"
        },
        {
          "internalType": "uint256",
          "name": "",
          "type": "uint256"
        }
      ],
      "name": "collectionPrices",
      "outputs": [
        {
          "internalType": "uint256",
          "name": "",
          "type": "uint256"
        }
      ],
      "stateMutability": "view",
      "type": "function"
    },
    {
      "inputs": [
        {
          "internalType": "bytes32",
          "name": "role",
          "type": "bytes32"
        }
      ],
      "name": "getRoleAdmin",
      "outputs": [
        {
          "internalType": "bytes32",
          "name": "",
          "type": "bytes32"
        }
      ],
      "stateMutability": "view",
      "type": "function"
    },
    {
      "inputs": [
        {
          "internalType": "bytes32",
          "name": "role",
          "type": "bytes32"
        },
        {
          "internalType": "address",
          "name": "account",
          "type": "address"
        }
      ],
      "name": "grantRole",
      "outputs": [],
      "stateMutability": "nonpayable",
      "type": "function"
    },
    {
      "inputs": [
        {
          "internalType": "bytes32",
          "name": "role",
          "type": "bytes32"
        },
        {
          "internalType": "address",
          "name": "account",
          "type": "address"
        }
      ],
      "name": "hasRole",
      "outputs": [
        {
          "internalType": "bool",
          "name": "",
          "type": "bool"
        }
      ],
      "stateMutability": "view",
      "type": "function"
    },
    {
      "inputs": [
        {
          "internalType": "address",
          "name": "_token",
          "type": "address"
        },
        {
          "internalType": "address",
          "name": "_treasure",
          "type": "address"
        },
        {
          "internalType": "address[]",
          "name": "_collection",
          "type": "address[]"
        }
      ],
      "name": "initialize",
      "outputs": [],
      "stateMutability": "nonpayable",
      "type": "function"
    },
    {
      "inputs": [],
      "name": "marketToken",
      "outputs": [
        {
          "internalType": "contract IERC20Upgradeable",
          "name": "",
          "type": "address"
        }
      ],
      "stateMutability": "view",
      "type": "function"
    },
    {
      "inputs": [
        {
          "internalType": "address",
          "name": "_collection",
          "type": "address"
        },
        {
          "internalType": "uint256",
          "name": "_id",
          "type": "uint256"
        },
        {
          "internalType": "uint256",
          "name": "_amount",
          "type": "uint256"
        }
      ],
      "name": "purchase",
      "outputs": [],
      "stateMutability": "nonpayable",
      "type": "function"
    },
    {
      "inputs": [
        {
          "internalType": "bytes32",
          "name": "role",
          "type": "bytes32"
        },
        {
          "internalType": "address",
          "name": "account",
          "type": "address"
        }
      ],
      "name": "renounceRole",
      "outputs": [],
      "stateMutability": "nonpayable",
      "type": "function"
    },
    {
      "inputs": [
        {
          "internalType": "bytes32",
          "name": "role",
          "type": "bytes32"
        },
        {
          "internalType": "address",
          "name": "account",
          "type": "address"
        }
      ],
      "name": "revokeRole",
      "outputs": [],
      "stateMutability": "nonpayable",
      "type": "function"
    },
    {
      "inputs": [
        {
          "internalType": "address[]",
          "name": "_collection",
          "type": "address[]"
        }
      ],
      "name": "setAllowedCollections",
      "outputs": [],
      "stateMutability": "nonpayable",
      "type": "function"
    },
    {
      "inputs": [
        {
          "internalType": "address",
          "name": "_collection",
          "type": "address"
        },
        {
          "internalType": "uint256[]",
          "name": "_tokens",
          "type": "uint256[]"
        },
        {
          "internalType": "uint256[]",
          "name": "_prices",
          "type": "uint256[]"
        }
      ],
      "name": "setPrice",
      "outputs": [],
      "stateMutability": "nonpayable",
      "type": "function"
    },
    {
      "inputs": [
        {
          "internalType": "address",
          "name": "_token",
          "type": "address"
        }
      ],
      "name": "setToken",
      "outputs": [],
      "stateMutability": "nonpayable",
      "type": "function"
    },
    {
      "inputs": [
        {
          "internalType": "address",
          "name": "_treasure",
          "type": "address"
        }
      ],
      "name": "setTreasure",
      "outputs": [],
      "stateMutability": "nonpayable",
      "type": "function"
    },
    {
      "inputs": [
        {
          "internalType": "bytes4",
          "name": "interfaceId",
          "type": "bytes4"
        }
      ],
      "name": "supportsInterface",
      "outputs": [
        {
          "internalType": "bool",
          "name": "",
          "type": "bool"
        }
      ],
      "stateMutability": "view",
      "type": "function"
    },
    {
      "inputs": [],
      "name": "treasure",
      "outputs": [
        {
          "internalType": "address",
          "name": "",
          "type": "address"
        }
      ],
      "stateMutability": "view",
      "type": "function"
    }
  ],
  "transactionHash": "0x1b3a44ef60bb9b26c423866b8c914932aa57b8ab7d7e1eb097da97a2ebdb163e",
  "args": [],
  "numDeployments": 1,
  "solcInputHash": "5c8bf19328be8dabf737b9f8ca3f66b8",
  "bytecode": "0x60806040523480156200001157600080fd5b506200001c62000022565b62000152565b6200002e60ff62000031565b50565b60008054610100900460ff1615620000ca578160ff1660011480156200006a575062000068306200014360201b62000a511760201c565b155b620000c25760405162461bcd60e51b815260206004820152602e602482015260008051602062001e3783398151915260448201526d191e481a5b9a5d1a585b1a5e995960921b60648201526084015b60405180910390fd5b506000919050565b60005460ff808416911610620001295760405162461bcd60e51b815260206004820152602e602482015260008051602062001e3783398151915260448201526d191e481a5b9a5d1a585b1a5e995960921b6064820152608401620000b9565b506000805460ff191660ff92909216919091179055600190565b6001600160a01b03163b151590565b611cd580620001626000396000f3fe608060405234801561001057600080fd5b50600436106101215760003560e01c80635bba6dd7116100ad5780639d8725a8116100715780639d8725a814610272578063a217fddf1461029e578063ad48d611146102a6578063d547741f146102b9578063e520fc7e146102cc57600080fd5b80635bba6dd7146102135780636f16ada81461022657806377a24f361461023957806391d148541461024c57806398968f151461025f57600080fd5b806327713536116100f457806327713536146101a75780632f2ff15d146101ba5780633644e515146101cd57806336568abe146101d55780634ca38d4a146101e857600080fd5b806301ffc9a714610126578063144fa6d71461014e5780631d3cd2a614610163578063248a9ca314610176575b600080fd5b6101396101343660046115c5565b6102df565b60405190151581526020015b60405180910390f35b61016161015c366004611606565b610316565b005b610161610171366004611606565b61032e565b610199610184366004611621565b60009081526065602052604090206001015490565b604051908152602001610145565b6101616101b5366004611717565b610342565b6101616101c836600461174c565b610356565b610199610380565b6101616101e336600461174c565b61038f565b6101fb6101f6366004611621565b61040e565b6040516001600160a01b039091168152602001610145565b6101616102213660046117d3565b610438565b6101616102343660046117d3565b6106c8565b610161610247366004611847565b6106e4565b61013961025a36600461174c565b6107d1565b61016161026d36600461189b565b6107fc565b6101996102803660046118ce565b61010060209081526000928352604080842090915290825290205481565b610199600081565b60fd546101fb906001600160a01b031681565b6101616102c736600461174c565b610a2c565b60fe546101fb906001600160a01b031681565b60006001600160e01b03198216637965db0b60e01b148061031057506301ffc9a760e01b6001600160e01b03198316145b92915050565b600061032181610a60565b61032a82610a6d565b5050565b600061033981610a60565b61032a82610ac0565b600061034d81610a60565b61032a82610b13565b60008281526065602052604090206001015461037181610a60565b61037b8383610ba9565b505050565b600061038a610c2f565b905090565b6001600160a01b03811633146104045760405162461bcd60e51b815260206004820152602f60248201527f416363657373436f6e74726f6c3a2063616e206f6e6c792072656e6f756e636560448201526e103937b632b9903337b91039b2b63360891b60648201526084015b60405180910390fd5b61032a8282610c66565b60ff818154811061041e57600080fd5b6000918252602090912001546001600160a01b0316905081565b6002609754141561048b5760405162461bcd60e51b815260206004820152601f60248201527f5265656e7472616e637947756172643a207265656e7472616e742063616c6c0060448201526064016103fb565b600260975561049983610ccd565b6104a38282610cfc565b826000805b84518110156105cd5760008582815181106104c5576104c56118f8565b6020026020010151905060008583815181106104e3576104e36118f8565b6020908102919091018101516001600160a01b038a8116600090815261010084526040808220878352909452839020549251634f558e7960e01b815260048101869052919350871690634f558e799060240160206040518083038186803b15801561054d57600080fd5b505afa158015610561573d6000803e3d6000fd5b505050506040513d601f19601f82011682018060405250810190610585919061190e565b6105a157604051626f708760e21b815260040160405180910390fd5b6105ab8282611946565b6105b59086611965565b945050505080806105c59061197d565b9150506104a8565b506105d781610d1e565b6105f6335b60fe5460fd546001600160a01b0390811692911684610d3c565b60408051600081526020810191829052630fbfeffd60e11b9091526001600160a01b03831690631f7fdffa906106359033908890889060248101611a2b565b600060405180830381600087803b15801561064f57600080fd5b505af1158015610663573d6000803e3d6000fd5b50505050846001600160a01b03166106783390565b6001600160a01b03167fa54f77edd9d15b578e28478ffff003dfa86b55007984f6a0c6603f39c5c354a78686856040516106b493929190611a75565b60405180910390a350506001609755505050565b60006106d381610a60565b6106de848484610d96565b50505050565b60006106f06001610e98565b90508015610708576000805461ff0019166101001790555b610710610f25565b610718610f4e565b6107606040518060400160405280600c81526020016b12dbdb58985d13585c9ad95d60a21b81525060405180604001604052806002815260200161763160f01b815250610f7d565b61076984610a6d565b61077283610ac0565b61077b82610b13565b610786600033610ba9565b80156106de576000805461ff0019169055604051600181527f7f26b83ff96e1f2b6a682f133852f6798a09c465da95921460cefb38474024989060200160405180910390a150505050565b60009182526065602090815260408084206001600160a01b0393909316845291905290205460ff1690565b6002609754141561084f5760405162461bcd60e51b815260206004820152601f60248201527f5265656e7472616e637947756172643a207265656e7472616e742063616c6c0060448201526064016103fb565b600260975561085d83610ccd565b61086682610d1e565b61086f81610d1e565b6001600160a01b03831660009081526101006020908152604080832085845290915281205484916108a08483611946565b90506108ab81610d1e565b604051634f558e7960e01b8152600481018690526001600160a01b03841690634f558e799060240160206040518083038186803b1580156108eb57600080fd5b505afa1580156108ff573d6000803e3d6000fd5b505050506040513d601f19601f82011682018060405250810190610923919061190e565b61093f57604051626f708760e21b815260040160405180910390fd5b610948336105dc565b6040805160008152602081019182905263731133e960e01b9091526001600160a01b0384169063731133e9906109879033908990899060248101611aab565b600060405180830381600087803b1580156109a157600080fd5b505af11580156109b5573d6000803e3d6000fd5b50505050856001600160a01b03166109ca3390565b6040805188815260208101889052908101859052606081018490526001600160a01b0391909116907f0a17d5337ce7a408b0c52c3c24fad9e1b8e2010b5aa295dbf9a1d5329588f3269060800160405180910390a35050600160975550505050565b600082815260656020526040902060010154610a4781610a60565b61037b8383610c66565b6001600160a01b03163b151590565b610a6a8133610fae565b50565b610a7681611012565b60fd80546001600160a01b0319166001600160a01b0383169081179091556040517fa07c91c183e42229e705a9795a1c06d76528b673788b849597364528c96eefb790600090a250565b610ac981611012565b60fe80546001600160a01b0319166001600160a01b0383169081179091556040517f16f09b9a7982253132c303e88191d4eeb2a1acfc5bcd6d64bd314df0999c5bdd90600090a250565b60005b8151811015610b5357610b41828281518110610b3457610b346118f8565b6020026020010151611012565b80610b4b8161197d565b915050610b16565b508051610b679060ff90602084019061154b565b5080604051610b769190611ae2565b604051908190038120907fff4494f63de16bd03caa979c7b033f008f83754106fa0823d5d342e32a7bf6f190600090a250565b610bb382826107d1565b61032a5760008281526065602090815260408083206001600160a01b03851684529091529020805460ff19166001179055610beb3390565b6001600160a01b0316816001600160a01b0316837f2f8788117e7eff1d82e926ec794901d17c78024a50270940304540a733656f0d60405160405180910390a45050565b600061038a7f8b73c3c69bb8fe3d512ecc4cf759cc79239f7b179b0ffacaa9a75d522b39400f610c5e60c95490565b60ca54611039565b610c7082826107d1565b1561032a5760008281526065602090815260408083206001600160a01b0385168085529252808320805460ff1916905551339285917ff6391f5c32d9c69d2a47ea670b442974b53935d1edc7fd64eb21e047a839171b9190a45050565b610cd681611012565b610cdf81611083565b610a6a576040516341fbc5a760e01b815260040160405180910390fd5b805182511461032a5760405163b7c1140d60e01b815260040160405180910390fd5b80610a6a576040516318a1139160e11b815260040160405180910390fd5b604080516001600160a01b0385811660248301528416604482015260648082018490528251808303909101815260849091019091526020810180516001600160e01b03166323b872dd60e01b1790526106de9085906110ed565b610da08282610cfc565b610da983610ccd565b60005b8251811015610e33576000838281518110610dc957610dc96118f8565b602002602001015190506000838381518110610de757610de76118f8565b60200260200101519050610dfa81610d1e565b6001600160a01b038616600090815261010060209081526040808320948352939052919091205580610e2b8161197d565b915050610dac565b5080604051610e429190611b21565b604051809103902082604051610e589190611b21565b604051908190038120906001600160a01b038616907f8f5613acbaa481e9f2deac95126f3d7d64d62b72c07553e3cc5ae2fb02fbeb9290600090a4505050565b60008054610100900460ff1615610edf578160ff166001148015610ebb5750303b155b610ed75760405162461bcd60e51b81526004016103fb90611b4b565b506000919050565b60005460ff808416911610610f065760405162461bcd60e51b81526004016103fb90611b4b565b506000805460ff191660ff92909216919091179055600190565b919050565b600054610100900460ff16610f4c5760405162461bcd60e51b81526004016103fb90611b99565b565b600054610100900460ff16610f755760405162461bcd60e51b81526004016103fb90611b99565b610f4c6111bf565b600054610100900460ff16610fa45760405162461bcd60e51b81526004016103fb90611b99565b61032a82826111ed565b610fb882826107d1565b61032a57610fd0816001600160a01b0316601461122e565b610fdb83602061122e565b604051602001610fec929190611be4565b60408051601f198184030181529082905262461bcd60e51b82526103fb91600401611c59565b6001600160a01b038116610a6a5760405163d92e233d60e01b815260040160405180910390fd5b6040805160208101859052908101839052606081018290524660808201523060a082015260009060c0016040516020818303038152906040528051906020012090505b9392505050565b6000805b60ff548110156110e457826001600160a01b031660ff82815481106110ae576110ae6118f8565b6000918252602090912001546001600160a01b031614156110d25750600192915050565b806110dc8161197d565b915050611087565b50600092915050565b6000611142826040518060400160405280602081526020017f5361666545524332303a206c6f772d6c6576656c2063616c6c206661696c6564815250856001600160a01b03166113ca9092919063ffffffff16565b80519091501561037b5780806020019051810190611160919061190e565b61037b5760405162461bcd60e51b815260206004820152602a60248201527f5361666545524332303a204552433230206f7065726174696f6e20646964206e6044820152691bdd081cdd58d8d9595960b21b60648201526084016103fb565b600054610100900460ff166111e65760405162461bcd60e51b81526004016103fb90611b99565b6001609755565b600054610100900460ff166112145760405162461bcd60e51b81526004016103fb90611b99565b81516020928301208151919092012060c99190915560ca55565b6060600061123d836002611946565b611248906002611965565b67ffffffffffffffff8111156112605761126061163a565b6040519080825280601f01601f19166020018201604052801561128a576020820181803683370190505b509050600360fc1b816000815181106112a5576112a56118f8565b60200101906001600160f81b031916908160001a905350600f60fb1b816001815181106112d4576112d46118f8565b60200101906001600160f81b031916908160001a90535060006112f8846002611946565b611303906001611965565b90505b600181111561137b576f181899199a1a9b1b9c1cb0b131b232b360811b85600f1660108110611337576113376118f8565b1a60f81b82828151811061134d5761134d6118f8565b60200101906001600160f81b031916908160001a90535060049490941c9361137481611c6c565b9050611306565b50831561107c5760405162461bcd60e51b815260206004820181905260248201527f537472696e67733a20686578206c656e67746820696e73756666696369656e7460448201526064016103fb565b60606113d984846000856113e1565b949350505050565b6060824710156114425760405162461bcd60e51b815260206004820152602660248201527f416464726573733a20696e73756666696369656e742062616c616e636520666f6044820152651c8818d85b1b60d21b60648201526084016103fb565b6001600160a01b0385163b6114995760405162461bcd60e51b815260206004820152601d60248201527f416464726573733a2063616c6c20746f206e6f6e2d636f6e747261637400000060448201526064016103fb565b600080866001600160a01b031685876040516114b59190611c83565b60006040518083038185875af1925050503d80600081146114f2576040519150601f19603f3d011682016040523d82523d6000602084013e6114f7565b606091505b5091509150611507828286611512565b979650505050505050565b6060831561152157508161107c565b8251156115315782518084602001fd5b8160405162461bcd60e51b81526004016103fb9190611c59565b8280548282559060005260206000209081019282156115a0579160200282015b828111156115a057825182546001600160a01b0319166001600160a01b0390911617825560209092019160019091019061156b565b506115ac9291506115b0565b5090565b5b808211156115ac57600081556001016115b1565b6000602082840312156115d757600080fd5b81356001600160e01b03198116811461107c57600080fd5b80356001600160a01b0381168114610f2057600080fd5b60006020828403121561161857600080fd5b61107c826115ef565b60006020828403121561163357600080fd5b5035919050565b634e487b7160e01b600052604160045260246000fd5b604051601f8201601f1916810167ffffffffffffffff811182821017156116795761167961163a565b604052919050565b600067ffffffffffffffff82111561169b5761169b61163a565b5060051b60200190565b600082601f8301126116b657600080fd5b813560206116cb6116c683611681565b611650565b82815260059290921b840181019181810190868411156116ea57600080fd5b8286015b8481101561170c576116ff816115ef565b83529183019183016116ee565b509695505050505050565b60006020828403121561172957600080fd5b813567ffffffffffffffff81111561174057600080fd5b6113d9848285016116a5565b6000806040838503121561175f57600080fd5b8235915061176f602084016115ef565b90509250929050565b600082601f83011261178957600080fd5b813560206117996116c683611681565b82815260059290921b840181019181810190868411156117b857600080fd5b8286015b8481101561170c57803583529183019183016117bc565b6000806000606084860312156117e857600080fd5b6117f1846115ef565b9250602084013567ffffffffffffffff8082111561180e57600080fd5b61181a87838801611778565b9350604086013591508082111561183057600080fd5b5061183d86828701611778565b9150509250925092565b60008060006060848603121561185c57600080fd5b611865846115ef565b9250611873602085016115ef565b9150604084013567ffffffffffffffff81111561188f57600080fd5b61183d868287016116a5565b6000806000606084860312156118b057600080fd5b6118b9846115ef565b95602085013595506040909401359392505050565b600080604083850312156118e157600080fd5b6118ea836115ef565b946020939093013593505050565b634e487b7160e01b600052603260045260246000fd5b60006020828403121561192057600080fd5b8151801515811461107c57600080fd5b634e487b7160e01b600052601160045260246000fd5b600081600019048311821515161561196057611960611930565b500290565b6000821982111561197857611978611930565b500190565b600060001982141561199157611991611930565b5060010190565b600081518084526020808501945080840160005b838110156119c8578151875295820195908201906001016119ac565b509495945050505050565b60005b838110156119ee5781810151838201526020016119d6565b838111156106de5750506000910152565b60008151808452611a178160208601602086016119d3565b601f01601f19169290920160200192915050565b6001600160a01b0385168152608060208201819052600090611a4f90830186611998565b8281036040840152611a618186611998565b9050828103606084015261150781856119ff565b606081526000611a886060830186611998565b8281036020840152611a9a8186611998565b915050826040830152949350505050565b60018060a01b0385168152836020820152826040820152608060608201526000611ad860808301846119ff565b9695505050505050565b815160009082906020808601845b83811015611b155781516001600160a01b031685529382019390820190600101611af0565b50929695505050505050565b815160009082906020808601845b83811015611b1557815185529382019390820190600101611b2f565b6020808252602e908201527f496e697469616c697a61626c653a20636f6e747261637420697320616c72656160408201526d191e481a5b9a5d1a585b1a5e995960921b606082015260800190565b6020808252602b908201527f496e697469616c697a61626c653a20636f6e7472616374206973206e6f74206960408201526a6e697469616c697a696e6760a81b606082015260800190565b7f416363657373436f6e74726f6c3a206163636f756e7420000000000000000000815260008351611c1c8160178501602088016119d3565b7001034b99036b4b9b9b4b733903937b6329607d1b6017918401918201528351611c4d8160288401602088016119d3565b01602801949350505050565b60208152600061107c60208301846119ff565b600081611c7b57611c7b611930565b506000190190565b60008251611c958184602087016119d3565b919091019291505056fea2646970667358221220c07a2d6f43106a415d5418323eb57d153273b8e151b0093414cf1f7f34dcb88064736f6c63430008090033496e697469616c697a61626c653a20636f6e747261637420697320616c726561",
  "devdoc": {
    "kind": "dev",
    "methods": {
      "DOMAIN_SEPARATOR()": {
        "details": "See {EIP712-DOMAIN_SEPARATOR}."
      },
      "constructor": {
        "custom:oz-upgrades-unsafe-allow": "constructor"
      },
      "getRoleAdmin(bytes32)": {
        "details": "Returns the admin role that controls `role`. See {grantRole} and {revokeRole}. To change a role's admin, use {_setRoleAdmin}."
      },
      "grantRole(bytes32,address)": {
        "details": "Grants `role` to `account`. If `account` had not been already granted `role`, emits a {RoleGranted} event. Requirements: - the caller must have ``role``'s admin role."
      },
      "hasRole(bytes32,address)": {
        "details": "Returns `true` if `account` has been granted `role`."
      },
      "renounceRole(bytes32,address)": {
        "details": "Revokes `role` from the calling account. Roles are often managed via {grantRole} and {revokeRole}: this function's purpose is to provide a mechanism for accounts to lose their privileges if they are compromised (such as when a trusted device is misplaced). If the calling account had been revoked `role`, emits a {RoleRevoked} event. Requirements: - the caller must be `account`."
      },
      "revokeRole(bytes32,address)": {
        "details": "Revokes `role` from `account`. If `account` had been granted `role`, emits a {RoleRevoked} event. Requirements: - the caller must have ``role``'s admin role."
      },
      "supportsInterface(bytes4)": {
        "details": "See {IERC165-supportsInterface}."
      }
    },
    "version": 1
  },
  "userdoc": {
    "errors": {
      "ArrayMismatch()": [
        {
          "notice": "Input arrays length mismatch"
        }
      ],
      "CollectionNotAllowed()": [
        {
          "notice": "Collection not allowed"
        }
      ],
      "TokenNotExists()": [
        {
          "notice": "Non existent token"
        }
      ],
      "ZeroAddress()": [
        {
          "notice": "Trying to set address type variable to zero address"
        }
      ],
      "ZeroUint()": [
        {
          "notice": "Trying to set uint256 type variable to zero"
        }
      ]
    },
    "kind": "user",
    "methods": {},
    "version": 1
  },
  "storageLayout": {
    "storage": [
      {
        "astId": 419,
        "contract": "contracts/upgradable/market/KombatMarket.sol:KombatMarket",
        "label": "_initialized",
        "offset": 0,
        "slot": "0",
        "type": "t_uint8"
      },
      {
        "astId": 422,
        "contract": "contracts/upgradable/market/KombatMarket.sol:KombatMarket",
        "label": "_initializing",
        "offset": 1,
        "slot": "0",
        "type": "t_bool"
      },
      {
        "astId": 4042,
        "contract": "contracts/upgradable/market/KombatMarket.sol:KombatMarket",
        "label": "__gap",
        "offset": 0,
        "slot": "1",
        "type": "t_array(t_uint256)50_storage"
      },
      {
        "astId": 4920,
        "contract": "contracts/upgradable/market/KombatMarket.sol:KombatMarket",
        "label": "__gap",
        "offset": 0,
        "slot": "51",
        "type": "t_array(t_uint256)50_storage"
      },
      {
        "astId": 39,
        "contract": "contracts/upgradable/market/KombatMarket.sol:KombatMarket",
        "label": "_roles",
        "offset": 0,
        "slot": "101",
        "type": "t_mapping(t_bytes32,t_struct(RoleData)34_storage)"
      },
      {
        "astId": 338,
        "contract": "contracts/upgradable/market/KombatMarket.sol:KombatMarket",
        "label": "__gap",
        "offset": 0,
        "slot": "102",
        "type": "t_array(t_uint256)49_storage"
      },
      {
        "astId": 679,
        "contract": "contracts/upgradable/market/KombatMarket.sol:KombatMarket",
        "label": "_status",
        "offset": 0,
        "slot": "151",
        "type": "t_uint256"
      },
      {
        "astId": 723,
        "contract": "contracts/upgradable/market/KombatMarket.sol:KombatMarket",
        "label": "__gap",
        "offset": 0,
        "slot": "152",
        "type": "t_array(t_uint256)49_storage"
      },
      {
        "astId": 4736,
        "contract": "contracts/upgradable/market/KombatMarket.sol:KombatMarket",
        "label": "_HASHED_NAME",
        "offset": 0,
        "slot": "201",
        "type": "t_bytes32"
      },
      {
        "astId": 4738,
        "contract": "contracts/upgradable/market/KombatMarket.sol:KombatMarket",
        "label": "_HASHED_VERSION",
        "offset": 0,
        "slot": "202",
        "type": "t_bytes32"
      },
      {
        "astId": 4876,
        "contract": "contracts/upgradable/market/KombatMarket.sol:KombatMarket",
        "label": "__gap",
        "offset": 0,
        "slot": "203",
        "type": "t_array(t_uint256)50_storage"
      },
      {
        "astId": 6382,
        "contract": "contracts/upgradable/market/KombatMarket.sol:KombatMarket",
        "label": "marketToken",
        "offset": 0,
        "slot": "253",
        "type": "t_contract(IERC20Upgradeable)3102"
      },
      {
        "astId": 6384,
        "contract": "contracts/upgradable/market/KombatMarket.sol:KombatMarket",
        "label": "treasure",
        "offset": 0,
        "slot": "254",
        "type": "t_address"
      },
      {
        "astId": 6387,
        "contract": "contracts/upgradable/market/KombatMarket.sol:KombatMarket",
        "label": "allowedCollections",
        "offset": 0,
        "slot": "255",
        "type": "t_array(t_address)dyn_storage"
      },
      {
        "astId": 6393,
        "contract": "contracts/upgradable/market/KombatMarket.sol:KombatMarket",
        "label": "collectionPrices",
        "offset": 0,
        "slot": "256",
        "type": "t_mapping(t_address,t_mapping(t_uint256,t_uint256))"
      }
    ],
    "types": {
      "t_address": {
        "encoding": "inplace",
        "label": "address",
        "numberOfBytes": "20"
      },
      "t_array(t_address)dyn_storage": {
        "base": "t_address",
        "encoding": "dynamic_array",
        "label": "address[]",
        "numberOfBytes": "32"
      },
      "t_array(t_uint256)49_storage": {
        "base": "t_uint256",
        "encoding": "inplace",
        "label": "uint256[49]",
        "numberOfBytes": "1568"
      },
      "t_array(t_uint256)50_storage": {
        "base": "t_uint256",
        "encoding": "inplace",
        "label": "uint256[50]",
        "numberOfBytes": "1600"
      },
      "t_bool": {
        "encoding": "inplace",
        "label": "bool",
        "numberOfBytes": "1"
      },
      "t_bytes32": {
        "encoding": "inplace",
        "label": "bytes32",
        "numberOfBytes": "32"
      },
      "t_contract(IERC20Upgradeable)3102": {
        "encoding": "inplace",
        "label": "contract IERC20Upgradeable",
        "numberOfBytes": "20"
      },
      "t_mapping(t_address,t_bool)": {
        "encoding": "mapping",
        "key": "t_address",
        "label": "mapping(address => bool)",
        "numberOfBytes": "32",
        "value": "t_bool"
      },
      "t_mapping(t_address,t_mapping(t_uint256,t_uint256))": {
        "encoding": "mapping",
        "key": "t_address",
        "label": "mapping(address => mapping(uint256 => uint256))",
        "numberOfBytes": "32",
        "value": "t_mapping(t_uint256,t_uint256)"
      },
      "t_mapping(t_bytes32,t_struct(RoleData)34_storage)": {
        "encoding": "mapping",
        "key": "t_bytes32",
        "label": "mapping(bytes32 => struct AccessControlUpgradeable.RoleData)",
        "numberOfBytes": "32",
        "value": "t_struct(RoleData)34_storage"
      },
      "t_mapping(t_uint256,t_uint256)": {
        "encoding": "mapping",
        "key": "t_uint256",
        "label": "mapping(uint256 => uint256)",
        "numberOfBytes": "32",
        "value": "t_uint256"
      },
      "t_struct(RoleData)34_storage": {
        "encoding": "inplace",
        "label": "struct AccessControlUpgradeable.RoleData",
        "members": [
          {
            "astId": 31,
            "contract": "contracts/upgradable/market/KombatMarket.sol:KombatMarket",
            "label": "members",
            "offset": 0,
            "slot": "0",
            "type": "t_mapping(t_address,t_bool)"
          },
          {
            "astId": 33,
            "contract": "contracts/upgradable/market/KombatMarket.sol:KombatMarket",
            "label": "adminRole",
            "offset": 0,
            "slot": "1",
            "type": "t_bytes32"
          }
        ],
        "numberOfBytes": "64"
      },
      "t_uint256": {
        "encoding": "inplace",
        "label": "uint256",
        "numberOfBytes": "32"
      },
      "t_uint8": {
        "encoding": "inplace",
        "label": "uint8",
        "numberOfBytes": "1"
      }
    }
  }
}