{
  "address": "0x3351566341bCC09926EaBF84C24CD21a15958Cc9",
  "abi": [
    {
      "inputs": [],
      "stateMutability": "nonpayable",
      "type": "constructor"
    },
    {
      "inputs": [],
      "name": "ArrayMismatch",
      "type": "error"
    },
    {
      "inputs": [],
      "name": "HeroNotOwned",
      "type": "error"
    },
    {
      "inputs": [],
      "name": "InvalidShare",
      "type": "error"
    },
    {
      "inputs": [],
      "name": "ZeroAddress",
      "type": "error"
    },
    {
      "inputs": [],
      "name": "ZeroUint",
      "type": "error"
    },
    {
      "anonymous": false,
      "inputs": [
        {
          "indexed": true,
          "internalType": "address",
          "name": "eth",
          "type": "address"
        },
        {
          "indexed": true,
          "internalType": "address",
          "name": "bsc",
          "type": "address"
        },
        {
          "indexed": true,
          "internalType": "address",
          "name": "cons",
          "type": "address"
        },
        {
          "indexed": false,
          "internalType": "address",
          "name": "loc",
          "type": "address"
        }
      ],
      "name": "CollectionSet",
      "type": "event"
    },
    {
      "anonymous": false,
      "inputs": [
        {
          "indexed": false,
          "internalType": "uint8",
          "name": "version",
          "type": "uint8"
        }
      ],
      "name": "Initialized",
      "type": "event"
    },
    {
      "anonymous": false,
      "inputs": [
        {
          "indexed": true,
          "internalType": "uint256",
          "name": "kombatId",
          "type": "uint256"
        },
        {
          "indexed": true,
          "internalType": "address",
          "name": "user",
          "type": "address"
        },
        {
          "indexed": true,
          "internalType": "bool",
          "name": "isWin",
          "type": "bool"
        }
      ],
      "name": "PVEKombat",
      "type": "event"
    },
    {
      "anonymous": false,
      "inputs": [
        {
          "indexed": true,
          "internalType": "uint256",
          "name": "kombatId",
          "type": "uint256"
        },
        {
          "indexed": true,
          "internalType": "address",
          "name": "winner",
          "type": "address"
        },
        {
          "indexed": true,
          "internalType": "address",
          "name": "loser",
          "type": "address"
        }
      ],
      "name": "PVPKombat",
      "type": "event"
    },
    {
      "anonymous": false,
      "inputs": [
        {
          "indexed": true,
          "internalType": "address",
          "name": "token",
          "type": "address"
        },
        {
          "indexed": true,
          "internalType": "uint256",
          "name": "amount",
          "type": "uint256"
        }
      ],
      "name": "RewardSet",
      "type": "event"
    },
    {
      "anonymous": false,
      "inputs": [
        {
          "indexed": true,
          "internalType": "bytes32",
          "name": "role",
          "type": "bytes32"
        },
        {
          "indexed": true,
          "internalType": "bytes32",
          "name": "previousAdminRole",
          "type": "bytes32"
        },
        {
          "indexed": true,
          "internalType": "bytes32",
          "name": "newAdminRole",
          "type": "bytes32"
        }
      ],
      "name": "RoleAdminChanged",
      "type": "event"
    },
    {
      "anonymous": false,
      "inputs": [
        {
          "indexed": true,
          "internalType": "bytes32",
          "name": "role",
          "type": "bytes32"
        },
        {
          "indexed": true,
          "internalType": "address",
          "name": "account",
          "type": "address"
        },
        {
          "indexed": true,
          "internalType": "address",
          "name": "sender",
          "type": "address"
        }
      ],
      "name": "RoleGranted",
      "type": "event"
    },
    {
      "anonymous": false,
      "inputs": [
        {
          "indexed": true,
          "internalType": "bytes32",
          "name": "role",
          "type": "bytes32"
        },
        {
          "indexed": true,
          "internalType": "address",
          "name": "account",
          "type": "address"
        },
        {
          "indexed": true,
          "internalType": "address",
          "name": "sender",
          "type": "address"
        }
      ],
      "name": "RoleRevoked",
      "type": "event"
    },
    {
      "anonymous": false,
      "inputs": [
        {
          "indexed": true,
          "internalType": "uint256",
          "name": "wShare",
          "type": "uint256"
        },
        {
          "indexed": true,
          "internalType": "uint256",
          "name": "sShare",
          "type": "uint256"
        },
        {
          "indexed": true,
          "internalType": "uint256",
          "name": "lShare",
          "type": "uint256"
        }
      ],
      "name": "ShareSet",
      "type": "event"
    },
    {
      "anonymous": false,
      "inputs": [
        {
          "indexed": true,
          "internalType": "address",
          "name": "staking",
          "type": "address"
        }
      ],
      "name": "StakingSet",
      "type": "event"
    },
    {
      "anonymous": false,
      "inputs": [
        {
          "indexed": true,
          "internalType": "address",
          "name": "treasure",
          "type": "address"
        }
      ],
      "name": "TreasureSet",
      "type": "event"
    },
    {
      "inputs": [],
      "name": "AUTOMATION_ROLE",
      "outputs": [
        {
          "internalType": "bytes32",
          "name": "",
          "type": "bytes32"
        }
      ],
      "stateMutability": "view",
      "type": "function"
    },
    {
      "inputs": [],
      "name": "BASE_BP",
      "outputs": [
        {
          "internalType": "uint256",
          "name": "",
          "type": "uint256"
        }
      ],
      "stateMutability": "view",
      "type": "function"
    },
    {
      "inputs": [],
      "name": "DEFAULT_ADMIN_ROLE",
      "outputs": [
        {
          "internalType": "bytes32",
          "name": "",
          "type": "bytes32"
        }
      ],
      "stateMutability": "view",
      "type": "function"
    },
    {
      "inputs": [],
      "name": "DOMAIN_SEPARATOR",
      "outputs": [
        {
          "internalType": "bytes32",
          "name": "",
          "type": "bytes32"
        }
      ],
      "stateMutability": "view",
      "type": "function"
    },
    {
      "inputs": [],
      "name": "bscCollection",
      "outputs": [
        {
          "internalType": "contract ICollection",
          "name": "",
          "type": "address"
        }
      ],
      "stateMutability": "view",
      "type": "function"
    },
    {
      "inputs": [],
      "name": "consCollection",
      "outputs": [
        {
          "internalType": "contract ICollection",
          "name": "",
          "type": "address"
        }
      ],
      "stateMutability": "view",
      "type": "function"
    },
    {
      "inputs": [],
      "name": "ethCollection",
      "outputs": [
        {
          "internalType": "contract ICollection",
          "name": "",
          "type": "address"
        }
      ],
      "stateMutability": "view",
      "type": "function"
    },
    {
      "inputs": [
        {
          "internalType": "bytes32",
          "name": "role",
          "type": "bytes32"
        }
      ],
      "name": "getRoleAdmin",
      "outputs": [
        {
          "internalType": "bytes32",
          "name": "",
          "type": "bytes32"
        }
      ],
      "stateMutability": "view",
      "type": "function"
    },
    {
      "inputs": [
        {
          "internalType": "bytes32",
          "name": "role",
          "type": "bytes32"
        },
        {
          "internalType": "address",
          "name": "account",
          "type": "address"
        }
      ],
      "name": "grantRole",
      "outputs": [],
      "stateMutability": "nonpayable",
      "type": "function"
    },
    {
      "inputs": [
        {
          "internalType": "bytes32",
          "name": "role",
          "type": "bytes32"
        },
        {
          "internalType": "address",
          "name": "account",
          "type": "address"
        }
      ],
      "name": "hasRole",
      "outputs": [
        {
          "internalType": "bool",
          "name": "",
          "type": "bool"
        }
      ],
      "stateMutability": "view",
      "type": "function"
    },
    {
      "inputs": [
        {
          "internalType": "address",
          "name": "_token",
          "type": "address"
        },
        {
          "internalType": "uint256",
          "name": "_amount",
          "type": "uint256"
        },
        {
          "internalType": "uint256",
          "name": "_wShare",
          "type": "uint256"
        },
        {
          "internalType": "uint256",
          "name": "_sShare",
          "type": "uint256"
        },
        {
          "internalType": "uint256",
          "name": "_lShare",
          "type": "uint256"
        },
        {
          "internalType": "address",
          "name": "_staking",
          "type": "address"
        },
        {
          "internalType": "address",
          "name": "_treasure",
          "type": "address"
        },
        {
          "internalType": "address",
          "name": "_eth",
          "type": "address"
        },
        {
          "internalType": "address",
          "name": "_bsc",
          "type": "address"
        },
        {
          "internalType": "address",
          "name": "_cons",
          "type": "address"
        },
        {
          "internalType": "address",
          "name": "_loc",
          "type": "address"
        }
      ],
      "name": "initialize",
      "outputs": [],
      "stateMutability": "nonpayable",
      "type": "function"
    },
    {
      "inputs": [],
      "name": "lShare",
      "outputs": [
        {
          "internalType": "uint256",
          "name": "",
          "type": "uint256"
        }
      ],
      "stateMutability": "view",
      "type": "function"
    },
    {
      "inputs": [],
      "name": "locationCollection",
      "outputs": [
        {
          "internalType": "contract IERC721Upgradeable",
          "name": "",
          "type": "address"
        }
      ],
      "stateMutability": "view",
      "type": "function"
    },
    {
      "inputs": [
        {
          "internalType": "uint256",
          "name": "kombatId",
          "type": "uint256"
        },
        {
          "components": [
            {
              "internalType": "address",
              "name": "user",
              "type": "address"
            },
            {
              "internalType": "address",
              "name": "collection",
              "type": "address"
            },
            {
              "internalType": "uint256",
              "name": "heroId",
              "type": "uint256"
            },
            {
              "internalType": "uint256[]",
              "name": "consumables",
              "type": "uint256[]"
            },
            {
              "internalType": "uint256[]",
              "name": "amounts",
              "type": "uint256[]"
            },
            {
              "internalType": "uint256[5]",
              "name": "__gap",
              "type": "uint256[5]"
            }
          ],
          "internalType": "struct KombatGame.KombatStruct",
          "name": "player",
          "type": "tuple"
        },
        {
          "internalType": "uint256",
          "name": "locationId",
          "type": "uint256"
        },
        {
          "internalType": "bool",
          "name": "win",
          "type": "bool"
        }
      ],
      "name": "processPVEKombat",
      "outputs": [],
      "stateMutability": "nonpayable",
      "type": "function"
    },
    {
      "inputs": [
        {
          "internalType": "uint256",
          "name": "kombatId",
          "type": "uint256"
        },
        {
          "components": [
            {
              "internalType": "address",
              "name": "user",
              "type": "address"
            },
            {
              "internalType": "address",
              "name": "collection",
              "type": "address"
            },
            {
              "internalType": "uint256",
              "name": "heroId",
              "type": "uint256"
            },
            {
              "internalType": "uint256[]",
              "name": "consumables",
              "type": "uint256[]"
            },
            {
              "internalType": "uint256[]",
              "name": "amounts",
              "type": "uint256[]"
            },
            {
              "internalType": "uint256[5]",
              "name": "__gap",
              "type": "uint256[5]"
            }
          ],
          "internalType": "struct KombatGame.KombatStruct",
          "name": "winner",
          "type": "tuple"
        },
        {
          "components": [
            {
              "internalType": "address",
              "name": "user",
              "type": "address"
            },
            {
              "internalType": "address",
              "name": "collection",
              "type": "address"
            },
            {
              "internalType": "uint256",
              "name": "heroId",
              "type": "uint256"
            },
            {
              "internalType": "uint256[]",
              "name": "consumables",
              "type": "uint256[]"
            },
            {
              "internalType": "uint256[]",
              "name": "amounts",
              "type": "uint256[]"
            },
            {
              "internalType": "uint256[5]",
              "name": "__gap",
              "type": "uint256[5]"
            }
          ],
          "internalType": "struct KombatGame.KombatStruct",
          "name": "loser",
          "type": "tuple"
        },
        {
          "internalType": "uint256",
          "name": "locationId",
          "type": "uint256"
        }
      ],
      "name": "processPVPKombat",
      "outputs": [],
      "stateMutability": "nonpayable",
      "type": "function"
    },
    {
      "inputs": [
        {
          "internalType": "bytes32",
          "name": "role",
          "type": "bytes32"
        },
        {
          "internalType": "address",
          "name": "account",
          "type": "address"
        }
      ],
      "name": "renounceRole",
      "outputs": [],
      "stateMutability": "nonpayable",
      "type": "function"
    },
    {
      "inputs": [
        {
          "internalType": "bytes32",
          "name": "role",
          "type": "bytes32"
        },
        {
          "internalType": "address",
          "name": "account",
          "type": "address"
        }
      ],
      "name": "revokeRole",
      "outputs": [],
      "stateMutability": "nonpayable",
      "type": "function"
    },
    {
      "inputs": [],
      "name": "rewardAmount",
      "outputs": [
        {
          "internalType": "uint256",
          "name": "",
          "type": "uint256"
        }
      ],
      "stateMutability": "view",
      "type": "function"
    },
    {
      "inputs": [],
      "name": "rewardToken",
      "outputs": [
        {
          "internalType": "contract IRewardToken",
          "name": "",
          "type": "address"
        }
      ],
      "stateMutability": "view",
      "type": "function"
    },
    {
      "inputs": [],
      "name": "sShare",
      "outputs": [
        {
          "internalType": "uint256",
          "name": "",
          "type": "uint256"
        }
      ],
      "stateMutability": "view",
      "type": "function"
    },
    {
      "inputs": [
        {
          "internalType": "address",
          "name": "_eth",
          "type": "address"
        },
        {
          "internalType": "address",
          "name": "_bsc",
          "type": "address"
        },
        {
          "internalType": "address",
          "name": "_loc",
          "type": "address"
        },
        {
          "internalType": "address",
          "name": "_cons",
          "type": "address"
        }
      ],
      "name": "setCollections",
      "outputs": [],
      "stateMutability": "nonpayable",
      "type": "function"
    },
    {
      "inputs": [
        {
          "internalType": "address",
          "name": "_token",
          "type": "address"
        },
        {
          "internalType": "uint256",
          "name": "_amount",
          "type": "uint256"
        }
      ],
      "name": "setReward",
      "outputs": [],
      "stateMutability": "nonpayable",
      "type": "function"
    },
    {
      "inputs": [
        {
          "internalType": "uint256",
          "name": "_wShare",
          "type": "uint256"
        },
        {
          "internalType": "uint256",
          "name": "_sShare",
          "type": "uint256"
        },
        {
          "internalType": "uint256",
          "name": "_lShare",
          "type": "uint256"
        }
      ],
      "name": "setShares",
      "outputs": [],
      "stateMutability": "nonpayable",
      "type": "function"
    },
    {
      "inputs": [
        {
          "internalType": "address",
          "name": "_staking",
          "type": "address"
        }
      ],
      "name": "setStaking",
      "outputs": [],
      "stateMutability": "nonpayable",
      "type": "function"
    },
    {
      "inputs": [
        {
          "internalType": "address",
          "name": "_treasure",
          "type": "address"
        }
      ],
      "name": "setTreasure",
      "outputs": [],
      "stateMutability": "nonpayable",
      "type": "function"
    },
    {
      "inputs": [],
      "name": "stakingContract",
      "outputs": [
        {
          "internalType": "address",
          "name": "",
          "type": "address"
        }
      ],
      "stateMutability": "view",
      "type": "function"
    },
    {
      "inputs": [
        {
          "internalType": "bytes4",
          "name": "interfaceId",
          "type": "bytes4"
        }
      ],
      "name": "supportsInterface",
      "outputs": [
        {
          "internalType": "bool",
          "name": "",
          "type": "bool"
        }
      ],
      "stateMutability": "view",
      "type": "function"
    },
    {
      "inputs": [],
      "name": "treasure",
      "outputs": [
        {
          "internalType": "address",
          "name": "",
          "type": "address"
        }
      ],
      "stateMutability": "view",
      "type": "function"
    },
    {
      "inputs": [],
      "name": "wShare",
      "outputs": [
        {
          "internalType": "uint256",
          "name": "",
          "type": "uint256"
        }
      ],
      "stateMutability": "view",
      "type": "function"
    }
  ],
  "transactionHash": "0x24965a5142eedf08a7008518c9901fda2c6455a832eb1c6c7b50d95f33c6a04a",
  "args": [],
  "numDeployments": 1,
  "solcInputHash": "5c8bf19328be8dabf737b9f8ca3f66b8",
  "bytecode": "0x60806040523480156200001157600080fd5b506200001c62000022565b62000152565b6200002e60ff62000031565b50565b60008054610100900460ff1615620000ca578160ff1660011480156200006a575062000068306200014360201b620008601760201c565b155b620000c25760405162461bcd60e51b815260206004820152602e602482015260008051602062001fab83398151915260448201526d191e481a5b9a5d1a585b1a5e995960921b60648201526084015b60405180910390fd5b506000919050565b60005460ff808416911610620001295760405162461bcd60e51b815260206004820152602e602482015260008051602062001fab83398151915260448201526d191e481a5b9a5d1a585b1a5e995960921b6064820152608401620000b9565b506000805460ff191660ff92909216919091179055600190565b6001600160a01b03163b151590565b611e4980620001626000396000f3fe608060405234801561001057600080fd5b50600436106101cf5760003560e01c806389be9a0d11610104578063c85766e3116100a2578063eacccaf011610071578063eacccaf0146103d2578063ee99205c146103e5578063f7b2a7be146103f8578063f7c618c11461040157600080fd5b8063c85766e314610386578063d547741f14610399578063da0e95c4146103ac578063e520fc7e146103bf57600080fd5b8063a0885e93116100de578063a0885e9314610345578063a217fddf14610358578063b1c9c2ee14610360578063b735854c1461037357600080fd5b806389be9a0d146103165780638ff390991461031f57806391d148541461033257600080fd5b80633644e515116101715780633dfaf5f21161014b5780633dfaf5f2146102d45780634df68fe5146102e75780636487f3a1146102fa57806370251b8d1461030d57600080fd5b80633644e515146102b057806336568abe146102b857806337c01f28146102cb57600080fd5b8063248a9ca3116101ad578063248a9ca31461022857806324c20eec1461024b57806329e4fb5c146102725780632f2ff15d1461029d57600080fd5b806301ffc9a7146101d457806315d446ff146101fc5780631d3cd2a614610213575b600080fd5b6101e76101e2366004611636565b610414565b60405190151581526020015b60405180910390f35b61020560ce5481565b6040519081526020016101f3565b610226610221366004611680565b61044b565b005b61020561023636600461169d565b60009081526065602052604090206001015490565b6102057f85d36e3b488c35c2a15344b305cb84e2000f26d4f3a7c1e8a516f0e82aee752a81565b60d354610285906001600160a01b031681565b6040516001600160a01b0390911681526020016101f3565b6102266102ab3660046116b6565b610463565b61020561048d565b6102266102c63660046116b6565b61049c565b61020561271081565b6102266102e23660046116e6565b61051b565b6102266102f53660046117a6565b61061f565b60d554610285906001600160a01b031681565b61020560cd5481565b61020560cf5481565b61022661032d366004611680565b61063d565b6101e76103403660046116b6565b610651565b610226610353366004611802565b61067c565b610205600081565b61022661036e366004611a19565b610698565b60d254610285906001600160a01b031681565b60d454610285906001600160a01b031681565b6102266103a73660046116b6565b61077a565b6102266103ba366004611a9c565b61079f565b60d154610285906001600160a01b031681565b6102266103e0366004611af4565b61084b565b60d054610285906001600160a01b031681565b61020560cc5481565b60cb54610285906001600160a01b031681565b60006001600160e01b03198216637965db0b60e01b148061044557506301ffc9a760e01b6001600160e01b03198316145b92915050565b60006104568161086f565b61045f8261087c565b5050565b60008281526065602052604090206001015461047e8161086f565b61048883836108c6565b505050565b600061049761094c565b905090565b6001600160a01b03811633146105115760405162461bcd60e51b815260206004820152602f60248201527f416363657373436f6e74726f6c3a2063616e206f6e6c792072656e6f756e636560448201526e103937b632b9903337b91039b2b63360891b60648201526084015b60405180910390fd5b61045f8282610983565b600061052760016109ea565b9050801561053f576000805461ff0019166101001790555b610547610a77565b61058d6040518060400160405280600a8152602001694b6f6d62617447616d6560b01b81525060405180604001604052806002815260200161763160f01b815250610aa0565b6105978c8c610ad1565b6105a28a8a8a610b2d565b6105ab87610ba6565b6105b48661087c565b6105c085858486610bf0565b6105cb6000336108c6565b8015610611576000805461ff0019169055604051600181527f7f26b83ff96e1f2b6a682f133852f6798a09c465da95921460cefb38474024989060200160405180910390a15b505050505050505050505050565b600061062a8161086f565b61063685858585610bf0565b5050505050565b60006106488161086f565b61045f82610ba6565b60009182526065602090815260408084206001600160a01b0393909316845291905290205460ff1690565b60006106878161086f565b610692848484610b2d565b50505050565b7f85d36e3b488c35c2a15344b305cb84e2000f26d4f3a7c1e8a516f0e82aee752a6106c28161086f565b6106d9846020015185600001518660400151610c8c565b6106f0836020015184600001518560400151610c8c565b610707846000015185606001518660800151610d47565b61071e836000015184606001518560800151610d47565b835161072a9083610dcc565b82600001516001600160a01b031684600001516001600160a01b0316867f3104f5839967af9f042bdb2514c888ce5476515e8c7594717f85c22411bda0c660405160405180910390a45050505050565b6000828152606560205260409020600101546107958161086f565b6104888383610983565b7f85d36e3b488c35c2a15344b305cb84e2000f26d4f3a7c1e8a516f0e82aee752a6107c98161086f565b6107e0846020015185600001518660400151610c8c565b6107f7846000015185606001518660800151610d47565b81156108095783516108099084610dcc565b8351604051831515916001600160a01b03169087907fa115b1c208b506c62444826884f1c01cac9b41f1b39b61268750537d50ad642690600090a45050505050565b60006108568161086f565b6104888383610ad1565b6001600160a01b03163b151590565b6108798133610fb3565b50565b60d180546001600160a01b0319166001600160a01b0383169081179091556040517f16f09b9a7982253132c303e88191d4eeb2a1acfc5bcd6d64bd314df0999c5bdd90600090a250565b6108d08282610651565b61045f5760008281526065602090815260408083206001600160a01b03851684529091529020805460ff191660011790556109083390565b6001600160a01b0316816001600160a01b0316837f2f8788117e7eff1d82e926ec794901d17c78024a50270940304540a733656f0d60405160405180910390a45050565b60006104977f8b73c3c69bb8fe3d512ecc4cf759cc79239f7b179b0ffacaa9a75d522b39400f61097b60975490565b609854611017565b61098d8282610651565b1561045f5760008281526065602090815260408083206001600160a01b0385168085529252808320805460ff1916905551339285917ff6391f5c32d9c69d2a47ea670b442974b53935d1edc7fd64eb21e047a839171b9190a45050565b60008054610100900460ff1615610a31578160ff166001148015610a0d5750303b155b610a295760405162461bcd60e51b815260040161050890611b20565b506000919050565b60005460ff808416911610610a585760405162461bcd60e51b815260040161050890611b20565b506000805460ff191660ff92909216919091179055600190565b919050565b600054610100900460ff16610a9e5760405162461bcd60e51b815260040161050890611b6e565b565b600054610100900460ff16610ac75760405162461bcd60e51b815260040161050890611b6e565b61045f8282611061565b610ada826110a2565b60cb80546001600160a01b0319166001600160a01b03841690811790915560cc8290556040518291907ffb1d63c3ab92db1512a24431e1b98d16962606e5ed0f4b72705880eb9175ba0a90600090a35050565b61271081610b3b8486611bcf565b610b459190611bcf565b14610b635760405163040357dd60e21b815260040160405180910390fd5b60cd83905560ce82905560cf8190556040518190839085907f9fa9d683135ed4e4ba9df337e2a33bc6620c54dcfa9a31489e68f721a927157d90600090a4505050565b60d080546001600160a01b0319166001600160a01b0383169081179091556040517ff520447191196b125f76f7110397fdf32b1b9cefb7dec323bd3b998022ac233890600090a250565b610bf9846110a2565b610c02836110a2565b60d280546001600160a01b03199081166001600160a01b0387811691821790935560d38054831687851690811790915560d48054841686861690811790915560d5805490941694871694851790935560405193845291927f3f2f825363c1bc010e1adc01784edd38a9d23aba0d1bdb4074e835111dc1439b9060200160405180910390a450505050565b610c95836110a2565b610c9e826110a2565b610ca7816110c9565b604051627eeac760e11b81526001600160a01b038381166004830152602482018390526000919085169062fdd58e9060440160206040518083038186803b158015610cf157600080fd5b505afa158015610d05573d6000803e3d6000fd5b505050506040513d601f19601f82011682018060405250810190610d299190611be7565b1161048857604051637a80fa4f60e11b815260040160405180910390fd5b610d50836110a2565b610d5a82826110e7565b8151156104885760d454604051631ac8311560e21b81526001600160a01b0390911690636b20c45490610d9590869086908690600401611c3b565b600060405180830381600087803b158015610daf57600080fd5b505af1158015610dc3573d6000803e3d6000fd5b50505050505050565b600061271060cd5460cc54610de19190611c7b565b610deb9190611c9a565b9050600061271060ce5460cc54610e029190611c7b565b610e0c9190611c9a565b9050600061271060cf5460cc54610e239190611c7b565b610e2d9190611c9a565b60d0549091506000906001600160a01b031615610e5f5760d054610e5a906001600160a01b031684611109565b610e6c565b610e698382611bcf565b90505b60d5546001600160a01b031615610f475760d5546040516331a9108f60e11b8152600481018790526001600160a01b0390911690636352211e9060240160206040518083038186803b158015610ec157600080fd5b505afa925050508015610ef1575060408051601f3d908101601f19168201909252610eee91810190611cbc565b60015b610f37573d808015610f1f576040519150601f19603f3d011682016040523d82523d6000602084013e610f24565b606091505b50610f2f8383611bcf565b915050610f54565b610f418184611109565b50610f54565b610f518282611bcf565b90505b60d1546001600160a01b031615158015610f6e5750600081115b15610f8e5760d154610f89906001600160a01b031682611109565b610f9b565b610f988185611bcf565b93505b8315610fab57610fab8685611109565b505050505050565b610fbd8282610651565b61045f57610fd5816001600160a01b03166014611204565b610fe0836020611204565b604051602001610ff1929190611d05565b60408051601f198184030181529082905262461bcd60e51b825261050891600401611d7a565b6040805160208101859052908101839052606081018290524660808201523060a082015260009060c0016040516020818303038152906040528051906020012090505b9392505050565b600054610100900460ff166110885760405162461bcd60e51b815260040161050890611b6e565b815160209283012081519190920120609791909155609855565b6001600160a01b0381166108795760405163d92e233d60e01b815260040160405180910390fd5b80610879576040516318a1139160e11b815260040160405180910390fd5b805182511461045f5760405163b7c1140d60e01b815260040160405180910390fd5b60cb546040516370a0823160e01b815230600482015282916001600160a01b0316906370a082319060240160206040518083038186803b15801561114c57600080fd5b505afa158015611160573d6000803e3d6000fd5b505050506040513d601f19601f820116820180604052508101906111849190611be7565b10156111ec5760cb546040516340c10f1960e01b81526001600160a01b03848116600483015260248201849052909116906340c10f1990604401600060405180830381600087803b1580156111d857600080fd5b505af1158015610fab573d6000803e3d6000fd5b60cb5461045f906001600160a01b03163084846113a0565b60606000611213836002611c7b565b61121e906002611bcf565b67ffffffffffffffff8111156112365761123661182e565b6040519080825280601f01601f191660200182016040528015611260576020820181803683370190505b509050600360fc1b8160008151811061127b5761127b611dad565b60200101906001600160f81b031916908160001a905350600f60fb1b816001815181106112aa576112aa611dad565b60200101906001600160f81b031916908160001a90535060006112ce846002611c7b565b6112d9906001611bcf565b90505b6001811115611351576f181899199a1a9b1b9c1cb0b131b232b360811b85600f166010811061130d5761130d611dad565b1a60f81b82828151811061132357611323611dad565b60200101906001600160f81b031916908160001a90535060049490941c9361134a81611dc3565b90506112dc565b50831561105a5760405162461bcd60e51b815260206004820181905260248201527f537472696e67733a20686578206c656e67746820696e73756666696369656e746044820152606401610508565b604080516001600160a01b038581166024830152848116604483015260648083018590528351808403909101815260849092018352602080830180516001600160e01b03166323b872dd60e01b17905283518085019094528084527f5361666545524332303a206c6f772d6c6576656c2063616c6c206661696c656490840152610692928792916000916114389185169084906114b5565b80519091501561048857808060200190518101906114569190611dda565b6104885760405162461bcd60e51b815260206004820152602a60248201527f5361666545524332303a204552433230206f7065726174696f6e20646964206e6044820152691bdd081cdd58d8d9595960b21b6064820152608401610508565b60606114c484846000856114cc565b949350505050565b60608247101561152d5760405162461bcd60e51b815260206004820152602660248201527f416464726573733a20696e73756666696369656e742062616c616e636520666f6044820152651c8818d85b1b60d21b6064820152608401610508565b6001600160a01b0385163b6115845760405162461bcd60e51b815260206004820152601d60248201527f416464726573733a2063616c6c20746f206e6f6e2d636f6e74726163740000006044820152606401610508565b600080866001600160a01b031685876040516115a09190611df7565b60006040518083038185875af1925050503d80600081146115dd576040519150601f19603f3d011682016040523d82523d6000602084013e6115e2565b606091505b50915091506115f28282866115fd565b979650505050505050565b6060831561160c57508161105a565b82511561161c5782518084602001fd5b8160405162461bcd60e51b81526004016105089190611d7a565b60006020828403121561164857600080fd5b81356001600160e01b03198116811461105a57600080fd5b6001600160a01b038116811461087957600080fd5b8035610a7281611660565b60006020828403121561169257600080fd5b813561105a81611660565b6000602082840312156116af57600080fd5b5035919050565b600080604083850312156116c957600080fd5b8235915060208301356116db81611660565b809150509250929050565b60008060008060008060008060008060006101608c8e03121561170857600080fd5b8b3561171381611660565b9a5060208c0135995060408c0135985060608c0135975060808c0135965060a08c013561173f81611660565b955060c08c013561174f81611660565b945060e08c013561175f81611660565b93506101008c013561177081611660565b92506101208c013561178181611660565b91506101408c013561179281611660565b809150509295989b509295989b9093969950565b600080600080608085870312156117bc57600080fd5b84356117c781611660565b935060208501356117d781611660565b925060408501356117e781611660565b915060608501356117f781611660565b939692955090935050565b60008060006060848603121561181757600080fd5b505081359360208301359350604090920135919050565b634e487b7160e01b600052604160045260246000fd5b60405160c0810167ffffffffffffffff811182821017156118675761186761182e565b60405290565b600082601f83011261187e57600080fd5b8135602067ffffffffffffffff8083111561189b5761189b61182e565b8260051b604051601f19603f830116810181811084821117156118c0576118c061182e565b6040529384528581018301938381019250878511156118de57600080fd5b83870191505b848210156115f2578135835291830191908301906118e4565b600082601f83011261190e57600080fd5b60405160a0810181811067ffffffffffffffff821117156119315761193161182e565b6040528060a084018581111561194657600080fd5b845b81811015611960578035835260209283019201611948565b509195945050505050565b6000610140828403121561197e57600080fd5b611986611844565b905061199182611675565b815261199f60208301611675565b602082015260408201356040820152606082013567ffffffffffffffff808211156119c957600080fd5b6119d58583860161186d565b606084015260808401359150808211156119ee57600080fd5b506119fb8482850161186d565b608083015250611a0e8360a084016118fd565b60a082015292915050565b60008060008060808587031215611a2f57600080fd5b84359350602085013567ffffffffffffffff80821115611a4e57600080fd5b611a5a8883890161196b565b94506040870135915080821115611a7057600080fd5b50611a7d8782880161196b565b949793965093946060013593505050565b801515811461087957600080fd5b60008060008060808587031215611ab257600080fd5b84359350602085013567ffffffffffffffff811115611ad057600080fd5b611adc8782880161196b565b9350506040850135915060608501356117f781611a8e565b60008060408385031215611b0757600080fd5b8235611b1281611660565b946020939093013593505050565b6020808252602e908201527f496e697469616c697a61626c653a20636f6e747261637420697320616c72656160408201526d191e481a5b9a5d1a585b1a5e995960921b606082015260800190565b6020808252602b908201527f496e697469616c697a61626c653a20636f6e7472616374206973206e6f74206960408201526a6e697469616c697a696e6760a81b606082015260800190565b634e487b7160e01b600052601160045260246000fd5b60008219821115611be257611be2611bb9565b500190565b600060208284031215611bf957600080fd5b5051919050565b600081518084526020808501945080840160005b83811015611c3057815187529582019590820190600101611c14565b509495945050505050565b6001600160a01b0384168152606060208201819052600090611c5f90830185611c00565b8281036040840152611c718185611c00565b9695505050505050565b6000816000190483118215151615611c9557611c95611bb9565b500290565b600082611cb757634e487b7160e01b600052601260045260246000fd5b500490565b600060208284031215611cce57600080fd5b815161105a81611660565b60005b83811015611cf4578181015183820152602001611cdc565b838111156106925750506000910152565b7f416363657373436f6e74726f6c3a206163636f756e7420000000000000000000815260008351611d3d816017850160208801611cd9565b7001034b99036b4b9b9b4b733903937b6329607d1b6017918401918201528351611d6e816028840160208801611cd9565b01602801949350505050565b6020815260008251806020840152611d99816040850160208701611cd9565b601f01601f19169190910160400192915050565b634e487b7160e01b600052603260045260246000fd5b600081611dd257611dd2611bb9565b506000190190565b600060208284031215611dec57600080fd5b815161105a81611a8e565b60008251611e09818460208701611cd9565b919091019291505056fea26469706673582212206a9844b6bd0c3fe4c3a48062d26a7d4dd430131b36728cde54306c503c47f4eb64736f6c63430008090033496e697469616c697a61626c653a20636f6e747261637420697320616c726561",
  "devdoc": {
    "kind": "dev",
    "methods": {
      "DOMAIN_SEPARATOR()": {
        "details": "See {EIP712-DOMAIN_SEPARATOR}."
      },
      "constructor": {
        "custom:oz-upgrades-unsafe-allow": "constructor"
      },
      "getRoleAdmin(bytes32)": {
        "details": "Returns the admin role that controls `role`. See {grantRole} and {revokeRole}. To change a role's admin, use {_setRoleAdmin}."
      },
      "grantRole(bytes32,address)": {
        "details": "Grants `role` to `account`. If `account` had not been already granted `role`, emits a {RoleGranted} event. Requirements: - the caller must have ``role``'s admin role."
      },
      "hasRole(bytes32,address)": {
        "details": "Returns `true` if `account` has been granted `role`."
      },
      "renounceRole(bytes32,address)": {
        "details": "Revokes `role` from the calling account. Roles are often managed via {grantRole} and {revokeRole}: this function's purpose is to provide a mechanism for accounts to lose their privileges if they are compromised (such as when a trusted device is misplaced). If the calling account had been revoked `role`, emits a {RoleRevoked} event. Requirements: - the caller must be `account`."
      },
      "revokeRole(bytes32,address)": {
        "details": "Revokes `role` from `account`. If `account` had been granted `role`, emits a {RoleRevoked} event. Requirements: - the caller must have ``role``'s admin role."
      },
      "supportsInterface(bytes4)": {
        "details": "See {IERC165-supportsInterface}."
      }
    },
    "version": 1
  },
  "userdoc": {
    "errors": {
      "ArrayMismatch()": [
        {
          "notice": "Input arrays length mismatch"
        }
      ],
      "HeroNotOwned()": [
        {
          "notice": "User in kombat not an owner of the hero"
        }
      ],
      "InvalidShare()": [
        {
          "notice": "Invalid shares set, sum should be eq BASE_BP"
        }
      ],
      "ZeroAddress()": [
        {
          "notice": "Trying to set address type variable to zero address"
        }
      ],
      "ZeroUint()": [
        {
          "notice": "Trying to set uint256 type variable to zero"
        }
      ]
    },
    "kind": "user",
    "methods": {},
    "version": 1
  },
  "storageLayout": {
    "storage": [
      {
        "astId": 419,
        "contract": "contracts/upgradable/game/KombatGame.sol:KombatGame",
        "label": "_initialized",
        "offset": 0,
        "slot": "0",
        "type": "t_uint8"
      },
      {
        "astId": 422,
        "contract": "contracts/upgradable/game/KombatGame.sol:KombatGame",
        "label": "_initializing",
        "offset": 1,
        "slot": "0",
        "type": "t_bool"
      },
      {
        "astId": 4042,
        "contract": "contracts/upgradable/game/KombatGame.sol:KombatGame",
        "label": "__gap",
        "offset": 0,
        "slot": "1",
        "type": "t_array(t_uint256)50_storage"
      },
      {
        "astId": 4920,
        "contract": "contracts/upgradable/game/KombatGame.sol:KombatGame",
        "label": "__gap",
        "offset": 0,
        "slot": "51",
        "type": "t_array(t_uint256)50_storage"
      },
      {
        "astId": 39,
        "contract": "contracts/upgradable/game/KombatGame.sol:KombatGame",
        "label": "_roles",
        "offset": 0,
        "slot": "101",
        "type": "t_mapping(t_bytes32,t_struct(RoleData)34_storage)"
      },
      {
        "astId": 338,
        "contract": "contracts/upgradable/game/KombatGame.sol:KombatGame",
        "label": "__gap",
        "offset": 0,
        "slot": "102",
        "type": "t_array(t_uint256)49_storage"
      },
      {
        "astId": 4736,
        "contract": "contracts/upgradable/game/KombatGame.sol:KombatGame",
        "label": "_HASHED_NAME",
        "offset": 0,
        "slot": "151",
        "type": "t_bytes32"
      },
      {
        "astId": 4738,
        "contract": "contracts/upgradable/game/KombatGame.sol:KombatGame",
        "label": "_HASHED_VERSION",
        "offset": 0,
        "slot": "152",
        "type": "t_bytes32"
      },
      {
        "astId": 4876,
        "contract": "contracts/upgradable/game/KombatGame.sol:KombatGame",
        "label": "__gap",
        "offset": 0,
        "slot": "153",
        "type": "t_array(t_uint256)50_storage"
      },
      {
        "astId": 5299,
        "contract": "contracts/upgradable/game/KombatGame.sol:KombatGame",
        "label": "rewardToken",
        "offset": 0,
        "slot": "203",
        "type": "t_contract(IRewardToken)6256"
      },
      {
        "astId": 5301,
        "contract": "contracts/upgradable/game/KombatGame.sol:KombatGame",
        "label": "rewardAmount",
        "offset": 0,
        "slot": "204",
        "type": "t_uint256"
      },
      {
        "astId": 5303,
        "contract": "contracts/upgradable/game/KombatGame.sol:KombatGame",
        "label": "wShare",
        "offset": 0,
        "slot": "205",
        "type": "t_uint256"
      },
      {
        "astId": 5305,
        "contract": "contracts/upgradable/game/KombatGame.sol:KombatGame",
        "label": "sShare",
        "offset": 0,
        "slot": "206",
        "type": "t_uint256"
      },
      {
        "astId": 5307,
        "contract": "contracts/upgradable/game/KombatGame.sol:KombatGame",
        "label": "lShare",
        "offset": 0,
        "slot": "207",
        "type": "t_uint256"
      },
      {
        "astId": 5309,
        "contract": "contracts/upgradable/game/KombatGame.sol:KombatGame",
        "label": "stakingContract",
        "offset": 0,
        "slot": "208",
        "type": "t_address"
      },
      {
        "astId": 5311,
        "contract": "contracts/upgradable/game/KombatGame.sol:KombatGame",
        "label": "treasure",
        "offset": 0,
        "slot": "209",
        "type": "t_address"
      },
      {
        "astId": 5314,
        "contract": "contracts/upgradable/game/KombatGame.sol:KombatGame",
        "label": "ethCollection",
        "offset": 0,
        "slot": "210",
        "type": "t_contract(ICollection)6214"
      },
      {
        "astId": 5317,
        "contract": "contracts/upgradable/game/KombatGame.sol:KombatGame",
        "label": "bscCollection",
        "offset": 0,
        "slot": "211",
        "type": "t_contract(ICollection)6214"
      },
      {
        "astId": 5320,
        "contract": "contracts/upgradable/game/KombatGame.sol:KombatGame",
        "label": "consCollection",
        "offset": 0,
        "slot": "212",
        "type": "t_contract(ICollection)6214"
      },
      {
        "astId": 5323,
        "contract": "contracts/upgradable/game/KombatGame.sol:KombatGame",
        "label": "locationCollection",
        "offset": 0,
        "slot": "213",
        "type": "t_contract(IERC721Upgradeable)3758"
      }
    ],
    "types": {
      "t_address": {
        "encoding": "inplace",
        "label": "address",
        "numberOfBytes": "20"
      },
      "t_array(t_uint256)49_storage": {
        "base": "t_uint256",
        "encoding": "inplace",
        "label": "uint256[49]",
        "numberOfBytes": "1568"
      },
      "t_array(t_uint256)50_storage": {
        "base": "t_uint256",
        "encoding": "inplace",
        "label": "uint256[50]",
        "numberOfBytes": "1600"
      },
      "t_bool": {
        "encoding": "inplace",
        "label": "bool",
        "numberOfBytes": "1"
      },
      "t_bytes32": {
        "encoding": "inplace",
        "label": "bytes32",
        "numberOfBytes": "32"
      },
      "t_contract(ICollection)6214": {
        "encoding": "inplace",
        "label": "contract ICollection",
        "numberOfBytes": "20"
      },
      "t_contract(IERC721Upgradeable)3758": {
        "encoding": "inplace",
        "label": "contract IERC721Upgradeable",
        "numberOfBytes": "20"
      },
      "t_contract(IRewardToken)6256": {
        "encoding": "inplace",
        "label": "contract IRewardToken",
        "numberOfBytes": "20"
      },
      "t_mapping(t_address,t_bool)": {
        "encoding": "mapping",
        "key": "t_address",
        "label": "mapping(address => bool)",
        "numberOfBytes": "32",
        "value": "t_bool"
      },
      "t_mapping(t_bytes32,t_struct(RoleData)34_storage)": {
        "encoding": "mapping",
        "key": "t_bytes32",
        "label": "mapping(bytes32 => struct AccessControlUpgradeable.RoleData)",
        "numberOfBytes": "32",
        "value": "t_struct(RoleData)34_storage"
      },
      "t_struct(RoleData)34_storage": {
        "encoding": "inplace",
        "label": "struct AccessControlUpgradeable.RoleData",
        "members": [
          {
            "astId": 31,
            "contract": "contracts/upgradable/game/KombatGame.sol:KombatGame",
            "label": "members",
            "offset": 0,
            "slot": "0",
            "type": "t_mapping(t_address,t_bool)"
          },
          {
            "astId": 33,
            "contract": "contracts/upgradable/game/KombatGame.sol:KombatGame",
            "label": "adminRole",
            "offset": 0,
            "slot": "1",
            "type": "t_bytes32"
          }
        ],
        "numberOfBytes": "64"
      },
      "t_uint256": {
        "encoding": "inplace",
        "label": "uint256",
        "numberOfBytes": "32"
      },
      "t_uint8": {
        "encoding": "inplace",
        "label": "uint8",
        "numberOfBytes": "1"
      }
    }
  }
}