{
  "address": "0xD8523df83E1Fffccc39f27446dBC659c32CBd449",
  "abi": [
    {
      "inputs": [
        {
          "internalType": "address",
          "name": "_vombat",
          "type": "address"
        }
      ],
      "stateMutability": "nonpayable",
      "type": "constructor"
    },
    {
      "inputs": [
        {
          "internalType": "address",
          "name": "_address",
          "type": "address"
        }
      ],
      "name": "allowedToWithdraw",
      "outputs": [
        {
          "internalType": "bool",
          "name": "",
          "type": "bool"
        }
      ],
      "stateMutability": "view",
      "type": "function"
    },
    {
      "inputs": [],
      "name": "requestTokens",
      "outputs": [],
      "stateMutability": "nonpayable",
      "type": "function"
    },
    {
      "inputs": [],
      "name": "tokenAmount",
      "outputs": [
        {
          "internalType": "uint256",
          "name": "",
          "type": "uint256"
        }
      ],
      "stateMutability": "view",
      "type": "function"
    },
    {
      "inputs": [],
      "name": "vombat",
      "outputs": [
        {
          "internalType": "contract IVombat",
          "name": "",
          "type": "address"
        }
      ],
      "stateMutability": "view",
      "type": "function"
    },
    {
      "inputs": [],
      "name": "waitTime",
      "outputs": [
        {
          "internalType": "uint256",
          "name": "",
          "type": "uint256"
        }
      ],
      "stateMutability": "view",
      "type": "function"
    }
  ],
  "transactionHash": "0x5f45a5d72059e701116ab257ad0b2d432a6df0ebfc5bb101c8ab2b875d8c71b7",
  "args": [
    "0x15f2b9FAAC1C3A5A8FFd3DCA832AE91516a3e778"
  ],
  "solcInputHash": "808cdbae85dbfd87a3fa253ad92712e4",
  "bytecode": "0x608060405234801561001057600080fd5b506040516102fc3803806102fc83398101604081905261002f91610067565b6001600160a01b03811661004257600080fd5b600080546001600160a01b0319166001600160a01b0392909216919091179055610095565b600060208284031215610078578081fd5b81516001600160a01b038116811461008e578182fd5b9392505050565b610258806100a46000396000f3fe608060405234801561001057600080fd5b50600436106100575760003560e01c80632d291cad1461005c578063359cf2b714610084578063bb8493b91461008e578063ccca123b146100b9578063eec7faa1146100d0575b600080fd5b61006f61006a3660046101d0565b6100df565b60405190151581526020015b60405180910390f35b61008c610133565b005b6000546100a1906001600160a01b031681565b6040516001600160a01b03909116815260200161007b565b6100c261012c81565b60405190815260200161007b565b6100c267a688906bd8b0000081565b6001600160a01b03811660009081526001602052604081205461010457506001919050565b6001600160a01b038216600090815260016020526040902054421061012b57506001919050565b506000919050565b61013c336100df565b61014557600080fd5b6000546040516340c10f1960e01b815233600482015267a688906bd8b0000060248201526001600160a01b03909116906340c10f1990604401600060405180830381600087803b15801561019857600080fd5b505af11580156101ac573d6000803e3d6000fd5b5050505061012c426101be91906101fe565b33600090815260016020526040902055565b6000602082840312156101e1578081fd5b81356001600160a01b03811681146101f7578182fd5b9392505050565b6000821982111561021d57634e487b7160e01b81526011600452602481fd5b50019056fea2646970667358221220a48016bcd6efa106ff89aa79037ce00b5e8d8a4ed1dc6760029411fd56cc64c364736f6c63430008040033",
  "devdoc": {
    "kind": "dev",
    "methods": {},
    "version": 1
  },
  "userdoc": {
    "kind": "user",
    "methods": {},
    "version": 1
  },
  "storageLayout": {
    "storage": [
      {
        "astId": 6954,
        "contract": "contracts/utils/VombatFaucet.sol:VombatFaucet",
        "label": "vombat",
        "offset": 0,
        "slot": "0",
        "type": "t_contract(IVombat)6301"
      },
      {
        "astId": 6958,
        "contract": "contracts/utils/VombatFaucet.sol:VombatFaucet",
        "label": "lastAccessTime",
        "offset": 0,
        "slot": "1",
        "type": "t_mapping(t_address,t_uint256)"
      }
    ],
    "types": {
      "t_address": {
        "encoding": "inplace",
        "label": "address",
        "numberOfBytes": "20"
      },
      "t_contract(IVombat)6301": {
        "encoding": "inplace",
        "label": "contract IVombat",
        "numberOfBytes": "20"
      },
      "t_mapping(t_address,t_uint256)": {
        "encoding": "mapping",
        "key": "t_address",
        "label": "mapping(address => uint256)",
        "numberOfBytes": "32",
        "value": "t_uint256"
      },
      "t_uint256": {
        "encoding": "inplace",
        "label": "uint256",
        "numberOfBytes": "32"
      }
    }
  }
}